:400000000040002011000000F5220000F522000080B500AF024A034B1B68136002F074F9BC760040FA46004010B5054C237833B9044B13B10448AFF300800123237010BDBA
:40004000C0C1FF1F0000000018470000084B10B51BB108490848AFF300800848036803B910BD074B002BFBD0BDE81040184700BF00000000C4C1FF1F18470000C8C0FF1F94
:400080000000000080B500AF00F02EF862B6154B01221A70134B1B78012B0DD0022B15D0002B1DD10F4B00225A7000BF00F03EF80346002BFAD013E00A4B00225A7000BFA0
:4000C00000F064FE0346002BFAD009E0054B00225A7000BF00F092FB0346002BFAD000BFD5E700BF9CDAFF1F80B500AF03F05CF903F008F902F0A8FC02F054FC02F0A6FF74
:4001000003F084F803F032FC03F074FC02F0E4FE02F044FF03F01EFB03F060FB03F078FF04F026F803F0B8FF00BF80BD80B500AF254B1B78082B43D801A252F823F000BF53
:40014000650100006D010000C101000087010000C1010000C1010000C1010000C1010000C1010000184B01221A7029E000F07AFA00BF002000F08AFA0346002BF9D0124B2D
:4001800003221A701CE000F027F803461A460F4B1A700F4B1B781A460C4B1B7899B20D4B23F812100A4B1B780133DAB2084B1A70074B1B78C72B02D9054B00221A7000BFEF
:4001C0000023184680BD00BFA0C3FF1FFCC1FF1F90C3FF1F00C2FF1F80B500AF00F00AF80246034B1A60024B1B685B79184680BDE4C1FF1F80B400AF044B054A1A60034BA4
:400200001B681846BD4680BC704700BFE4C1FF1FDCC1FF1F80B582B000AF0023FB710FE0FB795B00FA790F49895C0F4AD154FB795B0001330C4A2021D154FB790133FB7146
:40024000FB79072BECD91021074802F04DFD0D2002F0ECFC0A2002F0E9FC00BF0837BD4680BD00BF98C3FF1FA4C3FF1F80B400AF144B1B8801339AB2124B1A80114B1B88F9
:40028000322B0DD90F4B00221A800F4B1B88012B11D10E4B1B781A460D4B462199540AE0084B1B884FF6E852934206D9054B00221A8000BF01E000BF00E000BFBD4680BC86
:4002C000704700BF92C3FF1F94C3FF1FA0C3FF1F98C3FF1F80B500AFFFF79CFF00BF80BD80B582B000AF0023FB7102F033FC0346FB71114B1B781946104AFB7953540E4B9E
:400300001B780133DAB20C4B1A700B4B1B78632B02D9094B00221A70FB79184600F010F802F006FC034603F02003002BDDD100BF0837BD4680BD00BFF8C3FF1FFCC3FF1F8E
:4003400080B582B000AF0346FB719C4B1B78012B78D0022B00F09780002B00D070E1984B1B78002B20D1974B1B78FA799A420ED0944B5B79FA799A4209D0924B9B7AFA79D0
:400380009A4204D08F4BDB7BFA799A420CD18C4B1B7819468C4AFB795354894B1B780133DAB2874B1A704CE0854B1B78012B41D1844B5B78FA799A420ED0824B9B79FA7904
:4003C0009A4209D07F4BDB7AFA799A4204D07D4B1B7CFA799A422DD1794B1B7819467A4AFB795354764B1B780133DAB2744B1A70724B01221A70734B9B79FA799A4203D109
:40040000724B01221A701CE06E4BDB7AFA799A4203D16E4B02221A7013E06A4B1B7CFA799A4203D1694B03221A700AE0674B00221A7006E0624B00221A70644B00221A7017
:40044000FEE0FDE05E4B1B7819465F4AFB7953545B4B1B780133DAB2594B1A70584B1B7818465A4B1B781946564A0B469B000B44134402331B7802339842C0F2E0804F4B5B
:4004800002221A70DBE04E4B1B7818464F4B1B7819464C4A0B469B000B44134402331B780233984219D1494B1B781946454A0B469B000B44134403331B78FA799A420CD138
:4004C0003F4B1B781946404AFB7953543C4B1B780133DAB23A4B1A70B0E0394B1B7818463A4B1B781946374A0B469B000B44134402331B780333984240F09680334B1B7834
:400500001946304A0B469B000B44134404331B78FA799A4240F08880294B1B7819462A4AFB795354294B1B78002B14D1FFF762FE0246274B1A60264B1B681846214B9B7898
:400540001A46244904F0D4F8234B1B8801339AB2214B1A805EE01D4B1B78012B14D100F06DFF02461D4B1A601C4B1B681846154BDB791A46174904F0BBF8174B5B880133AB
:400580009AB2154B5A8045E0104B1B78022B29D100F074FF0246124B1A60114B1B681846084B1B7B1A460B4904F0A2F80A4B9B8801339AB2084B9A802CE000BF60C4FF1F1F
:4005C00061C4FF1FCCC0FF1F64C4FF1F77C4FF1FC4C3FF1F66C4FF1FB4C3FF1FD8C3FF1FE4C3FF1F184B1B78032B13D100F046FF0246164B1A60154B1B681846144B5B7C98
:400600001A46144904F074F8134BDB8801339AB2114BDA80114B00221A70114B00221A70094B00221A7009E00C4B00221A700C4B00221A70044B00221A7001E000E000BF2C
:4006400000BF0837BD4680BD77C4FF1FE4C3FF1FCCC0FF1F66C4FF1FB4C3FF1F61C4FF1F60C4FF1F80B400AF074B00221A80064B00225A80044B00229A80034B0022DA807F
:4006800000BFBD4680BC7047B4C3FF1F80B483B000AF0346FB71FB79084A32F81330042B06D9FB79054A002122F81310012300E0002318460C37BD4680BC7047B4C3FF1F70
:4006C00080B500AF00F0AAFE0246324B1A60012002F008FE2F4B1B687E2283F835202D4B1B68332283F836202A4B1B680D2283F83A20284B1B680A2283F83B20254B1B68B1
:400700007E2283F83C20234B1B68532283F83D20204B1B680D2283F841201E4B1B680A2283F842201B4B1B687E2283F84320194B1B68502283F84420164B1B680D2283F8E9
:400740004D20144B1B680A2283F84E207E2002F023FA492002F020FA0F4B00221A800DE00C4B1B680C4A12889B5C184602F014FA094B1B8801339AB2074B1A80064B1B887A
:400780004E2BEDD90D2002F007FA0A2002F004FA00BF80BD7CC4FF1F80C4FF1F80B500AF00F05CFE0246134B1A607E2002F0F4F9482002F0F1F9104B00221A800DE00D4B99
:4007C0001B680D4A12889B5C184602F0E5F90A4B1B8801339AB2084B1A80074B1B88042BEDD90D2002F0D8F90A2002F0D5F900BF80BD00BFF0C3FF1FD4C4FF1F80B582B08E
:4008000000AFA74B5B780A2B00F2458101A252F823F000BF410800006B0800007308000089080000CF08000015090000390900008909000091090000CF0900008F0A0000FC
:400840000023FB7106E0FB79964A5F21D154FB790133FB71FB790A2BF5D94FF47A7002F011F88F4B09225A7015E18D4B02225A7011E100F053FA0220FFF708FF00F068FA2C
:40088000874B03225A7006E100F0C8FD0246864B1A60854B1B68012283F83E20804B5B781A46804B4221995440F6B83001F0EAFF00F0DCF97C4B1B68002283F83E204FF49B
:4008C0007A7001F0DFFF764B04225A70E3E000F0A5FD0246744B1A60734B1B68012283F83F206F4B5B781A466E4B4221995440F6B83001F0C7FF00F0B9F96B4B1B680022B2
:4009000083F83F204FF47A7001F0BCFF644B05225A70C0E000F082FD0246634B1A60624B1B68012283F84B2000F0D0F900F09EF95B4B06225A70AEE0594B5B781A46594BCB
:40094000572199540EE000F0C1F9584B1B78002B08D0534B5B781A46524B50219954534B00221A704E4B5B781A464E4B9B5C502B06D04B4B5B781A464A4B9B5C462BE2D105
:40098000474B07225A7086E0454B08225A7082E000F044FD0246444B1A60434B1B68162283F83E20404B1B68162283F83F203C4B5B781A463B4B4221995440F6B83001F003
:4009C00061FF00F053F9364B09225A7063E000F04DF900F0A3F900F021FD0246324B1A60314B1B68012283F83F2000F027FD02462F4B1A6002E0002002F0B2FA2C4B1B68AD
:400A00005B79002B04D12A4B1B689B79002BF2D0002002F0A5FA244B1B68002283F83F2000F096F900BF224B1B685B79002BFAD100F074F900F0F2FC02461B4B1A601A4B8A
:400A40001B68012283F83E2000F0F8FC0246184B1A6000BF164B1B685B79012B06D0104B5B781A460F4B9B5C462BF3D10E4B1B68002283F83E2000F06BF900BF0C4B1B689D
:400A80009B79002BFAD1064B0A225A7003E0044B00225A7000BF002318460837BD4680BD9CDAFF1F38C5FF1F94C5FF1F35C5FF1FA8C5FF1F80B500AF03F034F803461A4693
:400AC0002B4B1A702A4B1A782A4B1B789A4206D1294B1B780133DAB2274B1A7002E0264B00221A70244B1B78022B06D9204B1A78224B1A70204B00221A701D4B1A781D4BF7
:400B00001A701E4B1B78012B09D11D4B01221A701C4B1B780133DAB21A4B1A7005E0184B00221A70174B00221A70164B1B784B2B08D9154B5B781A46144B46219954114B7C
:400B400000221A70124B1B78012B07D10C4B1B78002B03D10F4B01221A7002E00D4B00221A70074B1A780A4B1A7000BF80BD00BFACC5FF1FADC5FF1FAEC5FF1FAFC5FF1F3F
:400B800034C5FF1FB0C5FF1F9CDAFF1F38C5FF1FB1C5FF1F35C5FF1F80B500AF054B5B78072B04D103F0BEFB00F01CFF00BF00BF80BD00BF9CDAFF1F80B400AF144B1B8878
:400BC00001339AB2124B1A80114B1B88322B0DD90F4B00221A800F4B1B88012B11D10E4B5B781A460D4B462199540AE0084B1B884FF6E852934206D9054B00221A8000BF05
:400C000001E000BF00E000BFBD4680BC704700BF30C5FF1F32C5FF1F9CDAFF1F38C5FF1F80B500AF104B5B78002B17D00E4B5B78032B13D00C4B5B78042B0FD00A4B5B7828
:400C4000072B0BD0084B5B78082B07D0064B5B78092B03D0044B5B780A2B02D1FFF730FD00BF00BF80BD00BF9CDAFF1F80B500AF134B5B781A46134B572199540CE0124B30
:400C80001B78002B08D00E4B5B781A460D4B502199540D4B00221A70094B5B781A46094B9B5C502B06D0064B5B781A46054B9B5C462BE4D1002002F053F900BF80BD00BF2B
:400CC0009CDAFF1F38C5FF1F35C5FF1F80B500AF104B5B781A46104B4221995402F074FF052003F0B7F94FF47A7001F0CBFD322003F0B0F94FF47A7001F0C4FD4FF4FA7083
:400D000003F0A8F94FF47A7001F0BCFD02F06EFF00BF80BD9CDAFF1F38C5FF1F80B400AF074B5B781A46074B42219954064B00221A80064B01221A8000BFBD4680BC704764
:400D40009CDAFF1F38C5FF1F30C5FF1F32C5FF1F80B400AF0A4B00221A800A4B5B781A46094B9B5C462B06D0064B5B781A46064B5021995400BF00BFBD4680BC704700BF28
:400D800032C5FF1F9CDAFF1F38C5FF1F80B582B000AFAF4B5B780A2B00F2C88101A252F823F000BFD10D0000B50E0000E70E0000110F0000430F00007B0F00009D0F00001F
:400DC000F70F000065100000CB1000002D1100000023FB7106E0FB799E4A4921D154FB790133FB71FB790A2BF5D9994B49229A704FF47A7001F046FD0023BB7106E0BB7951
:400E0000944A5F21D154BB790133BB71BB790A2BF5D900F003FB02468F4B1A6007E08E4B1A687B797979D1547B7901337B717B794E2BF4D9884B1B687E2283F83520864BA8
:400E40001B68332283F83620834B1B680D2283F83A20814B1B680A2283F83B207E4B1B687E2283F83C207C4B1B68532283F83D20794B1B680D2283F84120774B1B680A2206
:400E800083F84220744B1B687E2283F84320724B1B68502283F844206F4B1B680D2283F84D206D4B1B680A2283F84E20684B05225A703BE100F0E0FB00BF01F065FD03467A
:400EC000002B06D1624B5B781A46624B9B5C462BF3D100F0EFFB4FF4FA7001F0D3FC5C4B02225A7022E100F0C7FB00BF00F02CF90346002B06D1564B5B781A46554B9B5C1C
:400F0000462BF3D100F0D6FB514B03225A700DE100F0B2FB00BF00F049F90346002B06D14B4B5B781A464B4B9B5C462BF3D100F0C1FB4FF47A7001F0A5FC454B00225A70F7
:400F4000F4E000F099FB012002F068FB00BF00F059F90346002B06D13D4B5B781A463D4B9B5C462BF3D100F0A5FB4FF47A7001F089FC374B00225A70D8E000BF00F06CF97B
:400F80000346002B06D1324B5B781A46314B9B5C462BF3D12E4B00225A70C7E02C4B5B781A462C4B422199542C4B00221A802C4B01221A8000BF00F09FF90346002B06D118
:400FC000234B5B781A46234B9B5C462BF3D1244B00221A801E4B5B781A461E4B9B5C462B05D01B4B5B781A461A4B50219954184B07225A709AE0164B5B781A46154B4221C6
:401000009954164B00221A80154B01221A8000BF00F096F90346002B06D10D4B5B781A460C4B9B5C462BF3D10D4B00221A80084B5B781A46074B9B5C462B05D0044B5B78A7
:401040001A46044B50219954014B08225A706DE09CDAFF1FD8C6FF1F44C6FF1FD4C6FF1FD6C6FF1F012000F0CBFA334B5B781A46324B42219954324B00221A80314B0122C0
:401080001A8000BF00F07AF90346002B06D12A4B5B781A46294B9B5C462BF3D1294B00221A80002000F0ACFA234B5B781A46234B9B5C462B05D0204B5B781A461F4B502136
:4010C00099541D4B09225A7030E01B4B5B781A461A4B422199541A4B00221A80194B01221A8000BF00F082F90346002B06D1124B5B781A46114B9B5C462BF3D1114B0022FB
:401100001A800D4B5B781A460C4B9B5C462B05D0094B5B781A46094B502199544FF47A7001F0B0FB044B00225A7000BF002318460837BD4680BD00BF9CDAFF1FD8C6FF1FEB
:40114000D4C6FF1FD6C6FF1F80B584B000AF0023FB6000237B60012000F052FA0023FB7214E0FB7A184600F099FD012001F08AFB03F02AFA03467B60FB7A7A6802FA03F314
:40118000FA681343FB60FB7A0133FB72FB7A1F2BE7D9FB6840F20332934201D1012300E0002318461037BD4680BD00BF80B500AF002003F019FA00BF002000F045FD0346E7
:4011C000002B06D10D4B5B781A460D4B9B5C462BF2D1012003F008FA00BF002000F034FD0346002B06D1054B5B781A46044B9B5C462BF2D10123184680BD00BF9CDAFF1F6F
:40120000D8C6FF1F80B582B000AF0023FB7116E0FB790233DBB2184602F0F0F900BF012000F0A6FB0346002B06D1094B5B781A46084B9B5C462BF2D1FB790133FB71FB799F
:40124000072BE5D9012318460837BD4680BD00BF9CDAFF1FD8C6FF1F80B500AF022002F041F800F0FBF80246204B1A601F4B1B6873221A701D4B1B6873225A701B4B1B68EE
:4012800073229A70194B1B687322DA70174B1B6873221A71012001F09BFD00BF0120FFF7F5F90346002B06D1114B5B781A46114B9B5C462BF2D1012001F052FE012002F080
:4012C00011F8022001F084FD00BF0320FFF7DEF90346002B06D1064B5B781A46054B9B5C462BF2D10123184680BD00BF50C6FF1F9CDAFF1FD8C6FF1F80B500AF00F07EF80C
:4013000002460D4B1A6000F089F802460B4B1A600A4B1B68002283F84920084B1B68FF2283F84920044B1B68DB79FF2B01D0002300E00123184680BDDCC5FF1F44C6FF1F87
:4013400080B582B000AF00F059F802460A4B1A600023FB71084B1B681B79FB71FB797C2B04D8FB79732B01D9012300E0002318460837BD4680BD00BFDCC5FF1F80B582B0CE
:4013800000AF0023FB7100237B7100F037F80246144B1A6000F042F80246134B1A600023BB7110E0BB79184600F078F803467B71FB795B005AB297F9053013435BB2FB7181
:4013C000BB790133BB71BB79032BEBD9FB7903F00F030F2B01D1012300E0002318460837BD4680BDDCC5FF1F44C6FF1F80B400AF00231846BD4680BC704700BF80B400AFC7
:40140000044B054A1A60034B1B681846BD4680BC704700BFDCC5FF1FCCC5FF1F80B400AF044B054A1A60034B1B681846BD4680BC704700BF44C6FF1FF4C5FF1F80B400AF81
:40144000044B054A1A60034B1B681846BD4680BC704700BFF0C5FF1FE0C5FF1F80B400AF044B054A1A60034B1B681846BD4680BC704700BF50C6FF1F48C6FF1F80B400AFB8
:40148000044B054A1A60034B1B681846BD4680BC704700BF5CC6FF1F54C6FF1F80B584B000AF0346FB710023FB73FFF7A7FF0246184B1A60FB79002B04D1164B1B681B78AE
:4014C000FB7319E0FB79012B04D1124B1B685B78FB7311E0FB79022B04D10E4B1B689B78FB7309E0FB79032B04D10A4B1B68DB78FB7301E0002308E0FB7B0A2B04D8FB7B49
:40150000072B01D9012300E0002318461037BD4680BD00BFDCC5FF1F80B500AF044B5B78042B02D100F03EFA00BF00BF80BD00BF9CDAFF1F80B500AF1A4B5B78042B01D1BA
:4015400000F030FA184B1B8801339AB2164B1A80144B5B781A46154B33F81220124B1B889A4210D2104B00221A80114B1B88012B14D10C4B5B781A460E4B46219954094B11
:4015800046229A700AE0084B1B884FF6E852934206D9054B00221A8000BF01E000BF00E000BF80BD9CDAFF1FD4C6FF1FE8C0FF1FD6C6FF1FD8C6FF1F80B500AF0F4B5B78C6
:4015C000022B0FD00D4B5B78032B0BD00B4B5B78052B07D0094B5B78062B03D0074B5B78082B01D1FFF76CF8044B5B78052B02D1FFF7D4F800BF00BF80BD00BF9CDAFF1FD7
:4016000080B582B000AF0346FB71FFF707FF0246184B1A60FB79012B14D1164B1B68FF2283F84520134B1B68FF2283F84620114B1B68FF2283F847200E4B1B68FF2283F817
:40164000482014E00B4B1B68002283F84520094B1B68002283F84620064B1B68002283F84720044B1B68002283F8482000BF0837BD4680BD44C6FF1F80B400AF094B5B783A
:401680001A46094B42219954064B42229A70074B00221A80064B01221A8000BFBD4680BC704700BF9CDAFF1FD8C6FF1FD4C6FF1FD6C6FF1F80B400AF0B4B00221A800B4BCA
:4016C0005B781A460A4B9B5C462B09D0074B5B781A46074B50219954044B50229A7000BF00BFBD4680BC7047D6C6FF1F9CDAFF1FD8C6FF1F80B582B000AF0023FB7101F00D
:40170000D9FE0346FB71114B1B781946104AFB7953540E4B1B780133DAB20C4B1A700B4B1B78632B02D9094B00221A70FB79184600F010F801F0ACFE034603F02003002B8C
:40174000DDD100BF0837BD4680BD00BF88C7FF1F8CC7FF1F80B483B000AF0346FB717E4B1B78012B5AD0022B78D0002B00D0EDE07A4B1B78002B16D1794B1B78FA799A4216
:4017800004D0774B5B79FA799A420CD1734B1B781946744AFB795354704B1B780133DAB26E4B1A7039E06D4B1B78012B2ED16C4B5B78FA799A4204D0694B9B79FA799A4266
:4017C00024D1664B1B781946664AFB795354634B1B780133DAB2614B1A705F4B01221A705F4B5B78FA799A4203D15F4B00221A7013E05B4B9B79FA799A4203D15A4B01226A
:401800001A700AE0584B00221A7006E0534B00221A70554B00221A7098E097E04F4B1B781946504AFB7953544C4B1B780133DAB24A4B1A70494B1B7818464B4B1B78194623
:40184000474A0B469B000B44134402331B78023398427ADB404B02221A7076E03F4B1B781846414B1B7819463D4A0B469B000B44134402331B780233984219D13A4B1B789F
:401880001946374A0B469B000B44134403331B78FA799A420CD1314B1B781946314AFB7953542E4B1B780133DAB22C4B1A704BE02A4B1B7818462C4B1B781946284A0B4633
:4018C0009B000B44134402331B780333984231D1254B1B781946224A0B469B000B44134404331B78FA799A4224D11C4B1B7819461C4AFB7953541C4B1B78002B06D11B4B23
:401900001B8801339AB2194B1A8009E0164B1B78012B05D1154B5B8801339AB2134B5A800E4B00221A700C4B00221A700E4B00221A7009E0094B00221A70074B00221A70B8
:40194000094B00221A7001E000E000BF00BF0C37BD4680BC704700BFF0C7FF1FF1C7FF1F08C1FF1FF4C7FF1F67C8FF1FFCC6FF1F80B483B000AF0346FB71FB79084A32F8DD
:401980001330042B06D9FB79054A002122F81310012300E0002318460C37BD4680BC7047FCC6FF1F80B582B000AF7E2001F0A4FD4C2001F0A1FD0023FB7106E0FB7918468F
:4019C00001F09AFDFB790133FB71FB796E2BF5D90D2001F091FD0A2001F08EFD00BF0837BD4680BD80B400AF084B1B8801339AB2064B1A80054B1B88642B03D9034B0022CE
:401A00001A8000BF00BFBD4680BC704768C8FF1F80B582B000AF0023FB7101F09DFB0346FB71114B1B781946104AFB7953540E4B1B780133DAB20C4B1A700B4B1B78632BA0
:401A400002D9094B00221A70FB79184600F010F801F070FB034603F02003002BDDD100BF0837BD4680BD00BF3BC9FF1F3CC9FF1F80B483B000AF0346FB716D4B1B78012BA9
:401A800043D0022B61D0002B00D0CBE0694B1B78002B11D1684B1B78FA799A420CD1654B1B781946654AFB795354624B1B780133DAB2604B1A7027E05E4B1B78012B1CD14C
:401AC0005D4B5B78FA799A4217D15A4B1B7819465A4AFB795354574B1B780133DAB2554B1A70534B01221A70534B5B78FA799A420AD1534B00221A7006E04E4B00221A7064
:401B00004F4B00221A708DE08CE04A4B1B7819464A4AFB795354474B1B780133DAB2454B1A70444B1B781846454B1B781946424A0B469B000B44134402331B78023398425A
:401B40006FDB3B4B02221A706BE03A4B1B7818463B4B1B781946384A0B469B000B44134402331B780233984219D1354B1B781946314A0B469B000B44134403331B78FA791E
:401B80009A420CD12B4B1B7819462C4AFB795354284B1B780133DAB2264B1A7040E0254B1B781846264B1B781946234A0B469B000B44134402331B780333984226D1204B95
:401BC0001B7819461C4A0B469B000B44134404331B78FA799A4219D1164B1B781946174AFB795354164B1B78002B05D1154B1B8801339AB2134B1A800E4B00221A700C4B5D
:401C000000221A700E4B00221A7009E0094B00221A70074B00221A70094B00221A7001E000E000BF00BF0C37BD4680BC704700BFA0C9FF1FA1C9FF1F14C1FF1FA4C9FF1F48
:401C4000ABC9FF1F34C9FF1F80B483B000AF0346FB71FB79084A32F81330042B06D9FB79054A002122F81310012300E0002318460C37BD4680BC704734C9FF1F80B483B04A
:401C800000AF0346FB71FB79034AD35C18460C37BD4680BC704700BF1CC1FF1F80B584B000AF0346FB710023FB73FB791846FFF7E5FF0346FB73FB7B072B25D8002002F007
:401CC0000DFC012002F0ECFB012002F0CDFB012002F0B0FBFB7B9B10DBB203F00103DBB2184602F017FCFB7B5B10DBB203F00103DBB2184602F02CFCFB7B03F00103DBB24F
:401D0000184602F043FC83E0FB7B072B28D9FB7B0F2B25D8012002F0E1FB002002F0C0FB012002F0A1FB012002F084FBFB7B9B10DBB203F00103DBB2184602F0EBFBFB7B80
:401D40005B10DBB203F00103DBB2184602F000FCFB7B03F00103DBB2184602F017FC57E0FB7B0F2B28D9FB7B172B25D8012002F0B5FB012002F094FB002002F075FB012099
:401D800002F058FBFB7B9B10DBB203F00103DBB2184602F0BFFBFB7B5B10DBB203F00103DBB2184602F0D4FBFB7B03F00103DBB2184602F0EBFB2BE0FB7B172B28D9FB7B27
:401DC0001F2B25D8012002F089FB012002F068FB012002F049FB002002F02CFBFB7B9B10DBB203F00103DBB2184602F093FBFB7B5B10DBB203F00103DBB2184602F0A8FB0A
:401E0000FB7B03F00103DBB2184602F0BFFBFFE700BF1037BD4680BD80B582B000AF786039603A680021786802F06DFC00BF0837BD4680BD80B584B000AFF860B9607A604C
:401E40007A68B968F86802F053FC00BF1037BD4680BD00BF80B483B000AF0346FB71FEE780B487B000AF7860396000233B6100237B6127E07B699B007A6813441B68BB6063
:401E8000BB68FB73BB6823F0FF03BB6014E03B695B003A6813441B781A46BB68134419463B695B003A6813445B780B703B6901333B61FB7B013BFB73FB7B002BE7D17B696F
:401EC00001337B617B69232BD4D900BF1C37BD4680BC704780B582B000AF4D4B4BF67F321A804C4B18221A704B4B0C221A804B4B18221A704A4B19221A804A4B18221A70DB
:401F0000494B33221A80494B18221A70484B40F2DF121A80474B18221A70474B40F2CF721A80464B18221A70042245494548FFF781FF454B06221A70444B52221A70444B17
:401F4000444A1278D2B21A70434B4FF4E2621A80424B41F251221A800023FB7019237B6014E0FB785B00DAB23D4B1B78DBB203F00103DBB21343DBB203F00303FB704FF416
:401F8000F07002F041FB7B68013B7B607B68002B02D0FB78032BE4D17B68002B02D10320FFF758FF2F4B4FF480721A802D4B07221A702D4B00221A702C4B48221A70294B9B
:401FC00000221A702A4B00221A702A4B02221A70294B04221A70294A284B1B78DBB243F03F03DBB21370264A254B1B78DBB243F00103DBB21370234A224B1B78DBB263F0AE
:402000007F03DBB2137000BF0837BD4680BD00BF80400040824000408440004086400040884000408A4000408C4000408E400040904000409240004094400040964000408D
:40204000940C0048004100400043004000420040A14600400F01004922420040204200402542004004400040064000400840004009400040014000400B400040A243004039
:40208000A1430040A043004080B582B000AF244B1B78FB71234B1B78BB71234B1B787B71224AFB7903F00703DBB21370204AFB791B09DBB213701B4ABB7943F00303DBB2DD
:4020C0001370194A7B7943F00303DBB21370194B04221A70184B40221A70184B40221A70174B20221A70174B20221A70164B20221A70164B24221A70154B20221A700A20FB
:4021000000F0E2FB084A7B791370064ABB791370104B44221A7000BF0837BD4680BD00BFCF010049F8460040F94600406E5800406F5800401D5100400159004003590040B3
:40214000905A0040205B0040235B0040285B0040585B00407658004080B582B000AF72B60023FB7113E0FA7913465B0013445B00434A13443B603B681A683B689B889BB2A8
:4021800019461046FFF748FEFB790133FB71FB79062BE8D93B494FF09040FFF761FE3A4B20221A7004213948FFF736FE04213848FFF732FE374A374B1B78DBB243F0020385
:4021C000DBB21370344A344B1B78DBB243F00203DBB21370314A314B1B78DBB243F04003DBB213702E4A2E4B1B78DBB243F01003DBB2137008222B492B48FFF71BFE0A221A
:402200002A492B48FFF716FE0A222A492A48FFF711FE082229492A48FFF70CFE082229492948FFF707FE082228492948FFF702FE082228492848FFF7FDFD0822274928487B
:40224000FFF7F8FD274A274B1B78DBB243F00803DBB21370244B61221A70FFF73BFE224BC1221A70214B01221A70FFF70DFF0E220A491F48FFF7DEFD00BF0837BD4680BD89
:402280001C470000900000481260004000760040087600400350014013500140A0430040C24300404C0C004802510040540C0048C0510040600C0048F05100406C0C0048FC
:4022C00012510040740C0048225100407C0C004842510040840C0048525100408C0C004862510040224300400048004004000840B043004080B500AF02F0CEF903461B687A
:402300000C2B00D1FEE7FEE780B586B000AF224B7B61224B3B61204B7B6135E03B691B68FB603B695B68BB603B699B683B6000237B600CE0FB681A68BB681A60BB680433F7
:40234000BB60FB680433FB607B6804337B607A683B689A42EED13B69DB683B6000237B6008E0BB6800221A60BB680433BB607B6804337B607A683B689A42F2D13B6910339C
:402380003B617B69013B7B617B69002BC6D102F089F9FDF777FEFEE7010000003848000080B582B000AF194B194A1A60194A194B1B6843F40073136000237B600FE07B680E
:4023C000032B04D8144A7B6852F8233000E0134B13497A6841F822307B6801337B607B682F2BECD90F4B1B78DAB20F4B1A700F4B0B4A1A60FFF7B0FE00F01CF80C4B002253
:402400001A6000BF0837BD4680BD00BF0CED00E00004FA0514ED00E000000000F522000000C0FF1FBC760040C4C0FF1F08ED00E0C0C0FF1F80B483B000AF134B7F221A704D
:40244000124B80221A707F23FB710CE0FB79DB0003F1804303F5F043FA79013AD2B21A70FB79013BFB71FB79002BEFD1FB79DB0003F1804303F5F04300221A7000BF0C3792
:40248000BD4680BC704700BF3DC1FF1F3CC1FF1F80B485B000AF03460A46FB711346BB710123FB60FB79172B2FD8BB79002B0ED0FB791A01184B1344FA791101164A0A4499
:4024C0001278D2B242F02002D2B21A700DE0FB791A01114B1344FA7911010F4A0A441278D2B222F02002D2B21A70FB791A010A4B1344FA791101084A0A441278D2B242F021
:402500000102D2B21A700023FB60FB6818461437BD4680BC704700BF1070004080B485B000AF0346FB710123FB60FB79172B1DD8FB791A01104B1344FA7911010E4A0A4428
:402540001278D2B222F00102D2B21A70FB791A01094B1344FA791101074A0A441278D2B222F02002D2B21A700023FB60FB6818461437BD4680BC70471070004080B485B0D3
:4025800000AF03460A46FB711346BB710123FB60FB79172B1BD8FB791A01104B13441B78DBB223F00E03FB72FB791A010B4B1344BA795200D2B252B202F00E0251B297F9EA
:4025C0000B200A4352B2D2B21A700023FB60FB6818461437BD4680BC704700BF1070004080B485B000AF0346FB710B46BB8013467B800123FB60BB8841F6FF72934202D193
:402600004FF40053BB807B8841F6FF72934202D14FF400537B80FB79172B17D8FB79DB0003F1804303F5EC430433BB60BB68BA881A80FB79DB0003F1804303F5EC4306335C
:40264000BB60BB687A881A800023FB60FB6818461437BD4680BC704780B485B000AF03460A46FB711346BB710123FB60FB79172B07D8FB791A01064B1344BA795A720023F1
:40268000FB60FB6818461437BD4680BC704700BF1070004090B484B000AF0446084611461A462346FB710346BB710B467B7113463B710123FB60FB79172B34D8FB79DB00AC
:4026C00003F1804303F5EC43BA7902F07F02D1B27A79D201D2B20A43D2B21A70FB79DB0003F1804303F5EC433A7E1201D1B23A7902F00F02D2B20A43D2B25A70FB79DB008F
:4027000003F1804303F5EC433A7F02F00F02D2B29A70FB79DB0003F1804303F5EC430022DA700023FB60FB6818461037BD4690BC704700BF80B582B000AFFF23FB7101F0F8
:402740006BFF0346BB71104B1B78182B12D90F4B1B78FB710C4B1B78013BDAB20A4B1A70FB79DB0003F1804303F5F0431B78DAB2064B1A70BB79184601F052FFFB791846A3
:402780000837BD4680BD00BF3CC1FF1F3DC1FF1F90B484B000AF0446084611461A462346FB710346BB800B46BB711346FB700123FB6097F90730002B23DBBB8823F47F63E9
:4027C00023F00F039BB2002B1BD1FB79DB0003F1804303F5F043BB60BB68BA881A80FB79DB0003F1804303F5F043BA799A70FB79DB0003F1804303F5F043FA78DA70002387
:40280000FB60FB6818461037BD4690BC704700BF80B485B000AF0346FB710B46BB8013467B800123FB6097F90730002B17DBFB79DB0003F1804303F5F0430433BB60BB68BA
:40284000BA881A80FB79DB0003F1804303F5F0430633BB60BB687A881A800023FB60FB6818461437BD4680BC704700BF80B483B000AF0346FB7101BE00BF0C37BD4680BC2E
:40288000704700BF80B582B000AF786008E00C4B1B68184601F0B8FE7B68A3F500437B607B68B3F5004FF2D8064B1B687A6802FB03F3184601F0A8FE00BF0837BD4680BDD4
:4028C00050C1FF1F48C1FF1F80B582B000AF0346FB80FB88054A127802FB03F3184601F093FE00BF0837BD4680BD00BF4CC1FF1F80B584B000AF03463960FB710F4B1B680E
:40290000FB60FB791F2B02D90020FFF7AFFFFB7903F01F0310339B00FA6813441B68BB60FB7903F01F0310339B00FA6813443A681A60BB6818461037BD4680BD08ED00E008
:4029400080B582B000AF03460A46FB711346BB71BB79072B02D90020FFF788FFFB791F2B02D90020FFF782FFFB7903F01F0303F1604303F56443BA795201D2B21A7000BF97
:402980000837BD4680BD00BF80B400AF044B1B78DBB203F00103DBB21846BD4680BC70470151004080B500AF00F042F8044800F00FF8022000F01EF800F02EF800BF80BD92
:4029C000C529000080B500AFFDF78AFC00BF80BD80B485B000AF7860054B1B68FB60FB6864337A681A6000BF1437BD4680BC704708ED00E080B483B000AF0346FB71054A2C
:402A0000FB795B01DBB2137000BF0C37BD4680BC704700BF09E400E080B400AF034B4FF400721A6000BFBD4680BC704700E100E080B400AF034B4FF400721A6000BFBD463A
:402A400080BC704780E100E080B500AF064B1B78002B04D100F00AF8034B01221A7000F02DF800BF80BD00BFACC9FF1F80B500AF0C4B72221A700C4B20221A700B49022018
:402A8000FFF736FF03210220FFF75AFF084B06221A70084B47221A70074B02221A7000BF80BD00BF8E6400408A6400402D2D00002C6400403C6400408B64004080B582B050
:402AC00000AF01F0A9FD0346FB71144A134B1B78DBB243F02003DBB21370114A104B1B78DBB243F01003DBB213700E4A0D4B1B78DBB243F01003DBB213700B4B04221A6051
:402B00000A4B04221A6000F049F9FB79184601F087FD00BF0837BD4680BD00BF9E6400409A6400409B64004080E200E000E100E080B483B000AF064B1B78DBB203F07F036C
:402B4000FB71FB7918460C37BD4680BC704700BF6A64004080B483B000AF0023FB710C4B1B78BB71BB7903F02003002B09D0094B1B78FB71BB7903F01E03002B01D000234E
:402B8000FB71FB7918460C37BD4680BC704700BF6A6400404D64004080B483B000AF0346FB711A4B1B78002B2BD0194B04221A60184B1B889AB2184B1B889A420AD1174B82
:402BC0001B78DBB203F00403002B03D1144AFB79137013E0104B1B88B3F5806F02D30E4B00221A800C4B1B8819460E4AFB795354094B1B8801339AB2074B1A800A4B04224B
:402C00001A6000BF0C37BD4680BC7047ACC9FF1F80E100E0AEC9FF1FB0C9FF1F6B6400404F6400409CCAFF1F00E100E080B485B000AF0346FB71264B1B88FB81254B1B886B
:402C4000BB81FA89BB899A4208D2FA89BB89013B9A420CBF01230023DBB209E0FA89BB89D31A40F2FF3293420CBF01230023DBB2002BE0D1BA89FB899A420AD1164B1B785B
:402C8000DBB203F00403002B03D1144AFB79137019E0FB89B3F5806F01D30023FB81FB890F49FA79CA54FB890133FB81084AFB891380094B1B78DBB203F00203002B02D03F
:402CC000084B04221A6000BF1437BD4680BC7047B0C9FF1FAEC9FF1F6B6400404F6400409CCAFF1F00E200E080B584B000AF78600B467B800023FB810B4B1B78002B0ED0A0
:402D000009E0FB897A6813441B781846FFF78EFFFB890133FB81FA897B889A42F1D300BF1037BD4680BD00BFACC9FF1F80B400AF18E0154B1B889BB2B3F5806F02D3124B93
:402D400000221A80114B104A128892B21146104A525CD2B21A700C4B1B889BB201339AB2094B1A80084B1B889AB20A4B1B889A4206D0094B1B78DBB203F00403002BD8D0B4
:402D800000BFBD4680BC7047AEC9FF1F4F6400409CCAFF1FB0C9FF1F6B64004080B400AF094A094B1B78DBB243F00403DBB21370064A064B1B78DBB243F00403DBB21370AD
:402DC00000BFBD4680BC7047A2430040B243004080B483B000AF0346FB71044AFB79137000BF0C37BD4680BC704700BF7D64004080B500AF224A224B1B78DBB203F0010308
:402E0000DBB213701F4A1F4B1B78DBB223F00303DBB213701C4A1C4B1B78DBB223F03003DBB21370184A184B1B78DBB243F03003DBB21370144A144B1B78DBB223F00F03C6
:402E4000DBB21370104A104B1B78DBB243F00F03DBB213700D4A0D4B1B78DBB243F00103DBB2137040F2DF1000F058F840F2DF1000F066F8082000F041F800BF80BD00BF26
:402E80000C4F00400E4F0040174F00400D4F004080B400AF0D4A0D4B1B78DBB243F00203DBB213700A4A0A4B1B78DBB243F00203DBB21370074A074B1B78DBB243F0010393
:402EC000DBB2137000BFBD4680BC7047A3430040B34300400C4F004080B500AF064B1B78002B04D1FFF784FF034B01221A70FFF7CFFF00BF80BD00BFB3C9FF1F80B483B05A
:402F000000AF0346FB71044AFB79137000BF0C37BD4680BC704700BF0F4F004080B485B000AF0346FB80FB88FB81044AFB89138000BF1437BD4680BC704700BF104F0040F5
:402F400080B483B000AF0346FB80044AFB88138000BF0C37BD4680BC704700BF124F004080B485B000AF0346FB710B4B1B78DBB223F01003FB730849FB791B01DBB203F083
:402F80001003DAB2FB7B1343DBB20B7000BF1437BD4680BC704700BF0051004080B500AF00F048F8044800F015F8052000F024F800F034F800BF80BDBD2F000080B500AFD8
:402FC000FDF754F9FEF7B6FAFDF7F6FDFDF772FD00BF80BD80B485B000AF7860054B1B68FB60FB6858337A681A6000BF1437BD4680BC704708ED00E080B483B000AF034609
:40300000FB71054AFB795B01DBB2137000BF0C37BD4680BC704700BF06E400E080B400AF034B40221A6000BFBD4680BC704700BF00E100E080B400AF034B40221A6000BF66
:40304000BD4680BC704700BF80E100E080B500AF064B1B78002B04D100F00AF8034B01221A7000F02DF800BF80BD00BFB4C9FF1F80B500AF0C4B72221A700C4B20221A70BE
:403080000B490120FFF734FC07210120FFF758FC084B06221A70084B47221A70074B02221A7000BF80BD00BF8B650040876500409D310000266500403665004084640040E4
:4030C00080B582B000AF01F0A7FA0346FB71144A134B1B78DBB243F02003DBB21370114A104B1B78DBB243F01003DBB213700E4A0D4B1B78DBB243F01003DBB213700B4B89
:4031000002221A600A4B02221A6000F0D1F8FB79184601F085FA00BF0837BD4680BD00BF9B650040976500409464004080E200E000E100E080B483B000AF064B1B78DBB2C8
:4031400003F07F03FB71FB7918460C37BD4680BC704700BF6765004080B483B000AF0023FB710C4B1B78BB71BB7903F02003002B09D0094B1B78FB71BB7903F01E03002BC9
:4031800001D00023FB71FB7918460C37BD4680BC704700BF676500404864004080B400AF18E0154B1B889BB2B3F5806F02D3124B00221A80114B104A128892B21146104AF8
:4031C000525CD2B21A700C4B1B889BB201339AB2094B1A80084B1B889AB20A4B1B889A4206D0094B1B78DBB203F00403002BD8D000BFBD4680BC7047B6C9FF1F47650040F3
:403200009CCEFF1FB8C9FF1F6464004080B500AF00F042F8044800F00FF8072000F01EF800F02EF800BF80BD2D32000080B500AFFEF7EEFB00BF80BD80B485B000AF7860C2
:40324000054B1B68FB60FB6860337A681A6000BF1437BD4680BC704708ED00E080B483B000AF0346FB71054AFB795B01DBB2137000BF0C37BD4680BC704700BF08E400E07C
:4032800080B400AF034B4FF480721A6000BFBD4680BC704700E100E080B400AF034B4FF480721A6000BFBD4680BC704780E100E080B400AF094A094B1B78DBB243F00803FA
:4032C000DBB21370064A064B1B78DBB243F00803DBB2137000BFBD4680BC7047A2430040B243004080B483B000AF0346FB71044AFB79137000BF0C37BD4680BC704700BFD9
:403300007765004080B500AF00F042F8044800F00FF8022000F01EF800F02EF800BF80BD2533000080B500AFFEF7E4F900BF80BD80B485B000AF7860054B1B68FB60FB685B
:4033400068337A681A6000BF1437BD4680BC704708ED00E080B483B000AF0346FB71054AFB795B01DBB2137000BF0C37BD4680BC704700BF0AE400E080B400AF034B4FF48E
:4033800080621A6000BFBD4680BC704700E100E080B400AF034B4FF480621A6000BFBD4680BC704780E100E080B500AF064B1B78002B04D100F00AF8034B01221A7000F0D0
:4033C0002DF800BF80BD00BFBCC9FF1F80B500AF0C4B72221A700C4B20221A700B490320FFF786FA07210320FFF7AAFA084B06221A70084B47221A70074B02221A7000BFF2
:4034000080BD00BF88640040896400408D3500002B6400403B6400408564004080B582B000AF01F0F9F80346FB71144A134B1B78DBB243F02003DBB21370114A104B1B7866
:40344000DBB243F01003DBB213700E4A0D4B1B78DBB243F01003DBB213700B4B08221A600A4B08221A6000F0E9F8FB79184601F0D7F800BF0837BD4680BD00BF98640040B4
:40348000996400409564004080E200E000E100E080B483B000AF064B1B78DBB203F07F03FB71FB7918460C37BD4680BC704700BF6964004080B483B000AF0023FB710C4B58
:4034C0001B78BB71BB7903F02003002B09D0094B1B78FB71BB7903F01E03002B01D00023FB71FB7918460C37BD4680BC704700BF696400404865004080B483B000AF034676
:40350000FB711A4B1B78002B2BD0194B08221A60184B1B889AB2184B1B889A420AD1174B1B78DBB203F00403002B03D1144AFB79137013E0104B1B88B3F5006F02D30E4BE4
:4035400000221A800C4B1B8819460E4AFB795354094B1B8801339AB2074B1A800A4B08221A6000BF0C37BD4680BC7047BCC9FF1F80E100E0BEC9FF1FC0C9FF1F6564004036
:40358000456400409CD2FF1F00E100E080B400AF18E0154B1B889BB2B3F5006F02D3124B00221A80114B104A128892B21146104A525CD2B21A700C4B1B889BB201339AB2DD
:4035C000094B1A80084B1B889AB20A4B1B889A4206D0094B1B78DBB203F00403002BD8D000BFBD4680BC7047BEC9FF1F456400409CD2FF1FC0C9FF1F6564004080B483B0CA
:4036000000AF0346FB71044AFB79137000BF0C37BD4680BC704700BF7965004080B483B000AF0346FB71044AFB79137000BF0C37BD4680BC704700BF7A64004080B400AF44
:40364000094A094B1B78DBB243F00203DBB21370064A064B1B78DBB243F00203DBB2137000BFBD4680BC7047A2430040B243004080B500AF214A214B1B78DBB203F0010351
:40368000DBB213701E4A1E4B1B78DBB223F00303DBB213701B4A1B4B1B78DBB223F03003DBB21370174A174B1B78DBB243F03003DBB21370134A134B1B78DBB223F00F0346
:4036C000DBB213700F4A0F4B1B78DBB243F00F03DBB213700C4A0C4B1B78DBB243F00103DBB21370EF2000F057F8EF2000F066F8082000F041F800BF80BD00BF004F004038
:40370000024F00400B4F0040014F004080B400AF0D4A0D4B1B78DBB243F00103DBB213700A4A0A4B1B78DBB243F00103DBB21370074A074B1B78DBB243F00103DBB21370BB
:4037400000BFBD4680BC7047A3430040B3430040004F004080B500AF064B1B78002B04D1FFF786FF034B01221A70FFF7CFFF00BF80BD00BFC3C9FF1F80B483B000AF0346E3
:40378000FB71044AFB79137000BF0C37BD4680BC704700BF034F004080B485B000AF0346FB80FB88FB81044AFB89138000BF1437BD4680BC704700BF044F004080B483B016
:4037C00000AF0346FB80044AFB88138000BF0C37BD4680BC704700BF064F004080B500AF00F044F8044800F011F8042000F020F800F030F800BF80BDFD37000080B500AFF9
:40380000FDF78AFEFDF7C8F900BF80BD80B485B000AF7860054B1B68FB60FB6854337A681A6000BF1437BD4680BC704708ED00E080B483B000AF0346FB71054AFB795B0138
:40384000DBB2137000BF0C37BD4680BC704700BF05E400E080B400AF034B20221A6000BFBD4680BC704700BF00E100E080B400AF034B20221A6000BFBD4680BC704700BF35
:4038800080E100E080B500AF224A224B1B78DBB203F00103DBB213701F4A1F4B1B78DBB223F00303DBB213701C4A1C4B1B78DBB223F03003DBB21370184A184B1B78DBB29F
:4038C00043F03003DBB21370144A144B1B78DBB223F00F03DBB21370104A104B1B78DBB243F00F03DBB213700D4A0D4B1B78DBB243F00103DBB2137040F2AF4000F058F89F
:4039000040F2AF4000F066F8082000F041F800BF80BD00BF184F00401A4F0040234F0040194F004080B400AF0D4A0D4B1B78DBB243F00403DBB213700A4A0A4B1B78DBB29D
:4039400043F00403DBB21370074A074B1B78DBB243F00103DBB2137000BFBD4680BC7047A3430040B3430040184F004080B500AF064B1B78002B04D1FFF784FF034B012289
:403980001A70FFF7CFFF00BF80BD00BFC4C9FF1F80B483B000AF0346FB71044AFB79137000BF0C37BD4680BC704700BF1B4F004080B485B000AF0346FB80FB88FB81044AB9
:4039C000FB89138000BF1437BD4680BC704700BF1C4F004080B483B000AF0346FB80044AFB88138000BF0C37BD4680BC704700BF1E4F004080B500AF00F088F8044800F014
:403A000055F8072000F064F800F074F800BF80BD153A000080B500AF234B1B78002B02D1FCF758FC0CE0204B1B78012B02D1FDF7C3FD05E01C4B1B78022B01D1FDF7F0F89E
:403A4000194B9B78422B06D1012000F0EDFD012000F008FE26E0144B9B78572B06D1012000F0E2FD012000F0FDFD1BE00E4B9B78502B06D1012000F0D7FD002000F0F2FD10
:403A800010E0094B9B78462B06D1002000F0CCFD012000F0E7FD05E0002000F0C5FD002000F0E0FD00BF80BD9CDAFF1F80B485B000AF7860054B1B68FB60FB685C337A6873
:403AC0001A6000BF1437BD4680BC704708ED00E080B483B000AF0346FB71054AFB795B01DBB2137000BF0C37BD4680BC704700BF07E400E080B400AF034B80221A6000BFEF
:403B0000BD4680BC704700BF00E100E080B400AF034B80221A6000BFBD4680BC704700BF80E100E080B400AF054B1B78DBB203F00803DB08DBB21846BD4680BC704700BF39
:403B40004151004080B500AF00F030F9022000F07FF9042000F09CF9FEF7ECFD03461A46084B1A70FEF7E6FD03461A46064B1A706421064800F04EF86421054800F07EF842
:403B800000BF80BDC8C9FF1FC9C9FF1F48470000AC47000080B500AF00F026F9084B1B7801211846FEF774FC064B1B7801211846FEF76EFC002000F08BF900BF80BD00BF58
:403BC000C6C9FF1FC7C9FF1F80B500AF064B1B78002B04D1FFF7B6FF034B01221A70FFF7D9FF00BF80BD00BFC5C9FF1F80B500AF064B1B781846FEF791FC054B1B781846DE
:403C0000FEF78CFC00F00AF900BF80BDC6C9FF1FC7C9FF1F80B582B000AF78600B467B807B681B0C9AB24FF480430121012000F059F803461A460F4B1A700F4B18780E4BD3
:403C40001A7879880123FEF7A3FD0B4B1B787A6891B245F682321846FEF7DAFD054B1A78054B1B7819461046FEF7F6FC00BF0837BD4680BDC6C9FF1FC8C9FF1F80B582B06F
:403C800000AF78600B467B807B681B0C9AB24FF480430121012000F057F803461A460F4B1A700F4B18780E4B1A7879880123FEF76FFD0B4B1B787A6891B245F68232184610
:403CC000FEF7A6FD054B1A78054B1B7819461046FEF7C2FC00BF0837BD4680BDC7C9FF1FC9C9FF1F90B585B002AF0446084611461A462346FB710346BB710B46BB801346BA
:403D00007B80104B00221A700E4B1878BA79F97900230193002300930023FEF7BBFC094B1B787A88B9881846FEF75AFC054B1B7802211846FEF722FC024B1B7818460C37EC
:403D4000BD4690BD54C1FF1F90B585B002AF0446084611461A462346FB710346BB710B46BB8013467B80104B01221A700E4B1878BA79F97900230193002300930023FEF701
:403D800089FC094B1B787A88B9881846FEF728FC054B1B7802211846FEF7F0FB024B1B7818460C37BD4690BD55C1FF1F80B500AF0A4B00221A700A4B00221A70094A094B07
:403DC0001B78DBB243F00803DBB21370002000F05FF8022000F03CF800BF80BD2858004029580040975A004080B400AF094A094B1B78DBB243F00403DBB21370064A064B65
:403E00001B78DBB243F00403DBB2137000BFBD4680BC7047A8430040B843004080B400AF094A094B1B78DBB223F00403DBB21370064A064B1B78DBB223F00403DBB213703E
:403E400000BFBD4680BC7047A8430040B843004080B483B000AF0346FB710C4A0B4B1B78DBB223F00203DBB213700849074B1B78DAB2FB7903F00203DBB21343DBB20B704F
:403E800000BF0C37BD4680BC704700BF2858004080B582B000AF0346FB710C4A0B4B1B78DBB223F00C03DBB213700849074B1B78DAB2FB7903F00C03DBB21343DBB20B709F
:403EC00000F016F800BF0837BD4680BD2858004080B483B000AF0346FB71044AFB79137000BF0C37BD4680BC704700BF825B004080B483B000AF0B4B1B78DBB203F00C0354
:403F00009B08DBB20633FB71074AFB7903F1924303F594731B78DBB2137000BF0C37BD4680BC7047285800400A46004080B500AF214A214B1B78DBB203F00103DBB2137052
:403F40001E4A1E4B1B78DBB223F00303DBB213701B4A1B4B1B78DBB223F03003DBB21370174A174B1B78DBB243F03003DBB21370134A134B1B78DBB223F00F03DBB213707D
:403F80000F4A0F4B1B78DBB243F00F03DBB213700C4A0C4B1B78DBB243F00103DBB21370042000F057F8042000F066F8082000F041F800BF80BD00BF244F0040264F00407C
:403FC0002F4F0040254F004080B400AF0D4A0D4B1B78DBB243F00803DBB213700A4A0A4B1B78DBB243F00803DBB21370074A074B1B78DBB243F00103DBB2137000BFBD466C
:4040000080BC7047A3430040B3430040244F004080B500AF064B1B78002B04D1FFF786FF034B01221A70FFF7CFFF00BF80BD00BFCAC9FF1F80B483B000AF0346FB71044AF7
:40404000FB79137000BF0C37BD4680BC704700BF274F004080B485B000AF0346FB80FB88FB81044AFB89138000BF1437BD4680BC704700BF284F004080B483B000AF0346C7
:40408000FB80044AFB88138000BF0C37BD4680BC704700BF2A4F004080B500AF00F05CF8044800F029F8072000F038F800F048F800BF80BDB940000098B500AF0C4B1B88CA
:4040C0001C4600F03FF903469AB20A4B23F81420074B1B8801339AB2054B1A80044B1B88642B02D9024B00221A8000BF98BD00BFCCC9FF1FD0C9FF1F80B485B000AF78600C
:40410000054B1B68FB60FB6850337A681A6000BF1437BD4680BC704708ED00E080B483B000AF0346FB71054AFB795B01DBB2137000BF0C37BD4680BC704700BF04E400E0C1
:4041400080B400AF034B10221A6000BFBD4680BC704700BF00E100E080B400AF034B10221A6000BFBD4680BC704700BF80E100E080B500AF064B1B78002B04D100F00AF8E1
:40418000034B01221A7000F029F800BF80BD00BF98CAFF1F80B500AF102000F031F907210020FEF7CDFB0A490020FEF7A1FB094A084B1B78DBB243F00603DBB213700C2043
:4041C00000F086F8044B00221A8000BF80BD00BFF543000001590040A2DAFF1F80B582B000AF00F019FA0346FB712E4A2D4B1B78DBB243F00103DBB213702B4A2A4B1B787D
:40420000DBB243F00103DBB21370284A274B1B78DBB243F00103DBB21370254A244B1B78DBB243F00103DBB21370224B1B78BB71BB7943F00203BB71BB7943F00103BB71BF
:404240001C4ABB7913701C4B18221A701B4A1B4B1B78DBB243F04003DBB21370174A174B1B78DBB223F00303DBB21370144BC8221A70144B02221A70134A134B1B78DBB2BE
:4042800043F00803DBB213700A20FEF71DFB0F4B01221A60FB79184600F0C2F900BF0837BD4680BDAB430040BB430040A1430040B14300400359004006590040055900402A
:4042C0000059004014460040275B004080E200E080B584B000AF0346FB71FB790A2B07D00C2B02D0082B06D008E0C223FB730BE08223FB7308E04223FB7305E0C223FB73FC
:404300000020FEF7B3FA00BF054AFB7B1370FB79184600F02FF800BF1037BD4680BD00BF0259004080B400AF054A054B1B78DBB243F00103DBB2137000BFBD4680BC70478D
:404340000059004080B483B000AF084B1B88FB80074B1B881BB29BB2FA88D31A9BB21BB218460C37BD4680BC704700BFA05B0040A0DAFF1F80B584B000AF0346FB71FB791B
:404380000A2B08D00C2B02D0082B08D00BE04FF48053FB600DE04FF48063FB6009E04FF48073FB6005E00023FB600020FEF75EFA00BF0C4B00221A80FB6842F2107202FBE0
:4043C00003F303F6C413084A82FB0312D212DB17D31A064A1360064B00221A8000BF1037BD4680BDA4DAFF1FAD8BDB68A8DAFF1FA0DAFF1F80B400AF00BFBD4680BC704753
:4044000080B483B000AF0346FB710949084B1B78DBB25AB297F9073023F007035BB213435BB2DBB20B7000BF0C37BD4680BC70470241004080B485B000AF0346FB71094BE8
:404440001B78DBB203F07F03FB730649FB79DB01DAB2FB7B1343DBB20B7000BF1437BD4680BC7047F051004080B485B000AF0346FB710A4B1B78DBB223F00103FB730749A2
:40448000FB7903F00103DAB2FB7B1343DBB20B7000BF1437BD4680BC704700BF5051004080B485B000AF0346FB710B4B1B78DBB223F04003FB730849FB799B01DBB203F0A9
:4044C0004003DAB2FB7B1343DBB20B7000BF1437BD4680BC704700BFF051004080B485B000AF0346FB710A4B1B78DBB223F00103FB730749FB7903F00103DAB2FB7B1343FF
:40450000DBB20B7000BF1437BD4680BC704700BFF051004080B485B000AF0346FB710B4B1B78DBB223F00203FB730849FB795B00DBB203F00203DAB2FB7B1343DBB20B7065
:4045400000BF1437BD4680BC704700BF5051004080B485B000AF0346FB710B4B1B78DBB223F00403FB730849FB799B00DBB203F00403DAB2FB7B1343DBB20B7000BF14377F
:40458000BD4680BC704700BF5051004080B485B000AF0346FB710B4B1B78DBB223F00803FB730849FB79DB00DBB203F00803DAB2FB7B1343DBB20B7000BF1437BD4680BCC2
:4045C000704700BF5051004080B400AF054B1B78DBB203F08003DB09DBB21846BD4680BC704700BF6151004080B483B000AF0346FB71044AFB79137000BF0C37BD4680BCD4
:40460000704700BF786500400230800803D000BF01380046FCD17047EFF3108072B6704780F31088704700BF80B485B000AF0346FB710B4B1B78DBB223F04003FB7308496E
:40464000FB799B01DBB203F04003DAB2FB7B1343DBB20B7000BF1437BD4680BC704700BF0051004080B485B000AF0346FB71094B1B78DBB203F07F03FB730649FB79DB01F4
:40468000DAB2FB7B1343DBB20B7000BF1437BD4680BC704700510040014B1868704700BFB8C1FF1F0E4B70B51E460E4C0025E41AA410A54204D056F8253098470135F8E7CB
:4046C00000F0A8F8084B094C1E46E41AA4100025A54204D056F8253098470135F8E770BD2048000020480000204800002848000010B5431E0A44914204D011F8014B03F8B5
:40470000014FF8E710BD03460244934202D003F8011BFAE77047000000000000004F0040300030510040100000000140001000140140000800400140000A004C0140000240
:404740000050014020000000BEBEBEBEBEBEBEBEBEBEBEBEBEBEBEBEBEBEBEBEBEBEBEBEBEBEBEBEBEBEBEBEBEBEBEBEBEBEBEBEBEBEBEBEBEBEBEBEBEBE414141414141E6
:40478000414141414141414141414141414141414141414141414141414141414141414141414141414141414141414180848A8F94989EA2A8ACB2B6BCC0C6CAD0D5DADE1F
:4047C000E4E8EEF2F8FCF8F2EEE8E4DEDAD4D0CAC6C0BCB6B2ADA8A29E98948F8A84807A76706B66615D58534E49443E39342F2A25211C17120D0803080D12171C21252AE1
:404800002F34393E44494E53585D61666B70767A43000000F8B500BFF8BC08BC9E4670474D000000A1230000F8B500BFF8BC08BC9E4670472900000048480000C8C0FF1F78
:40484000F8000000F0180000000000007E50080D0A7E440F0D0A7E48050D0A7E53030D0A2447504D52430000320032003200F4013200320032003200320032003200000010
:404880002447504D524300007E410A0D0A7E4C6F0D0A00007E33030D0A0000000D0F0E0C020100031D1F1E1C0B08090A1B18191A050706041310111214161715807F000071
:4048C00003000000006CDC0280BB0000300000000000C05DFFFF0000000000000000000000000000000000000000000000000000000000000000000010480000000000008D
:40490000000000000000000000000000000000000000000000000000000000000000000000000000000000000000000000000000000000000000000058C1FF1F0000000040
:404940000000000000000000000000000000000000000000000000000000000000000000000000000000000000000000000000000000000000000000000000000000000037
:4049800000000000000000000000000000000000000000000000000000000000000000000000000000000000000000000000000000000000000000000000000000000000F7
:4049C00000000000000000000000000000000000000000000000000000000000000000000000000000000000000000000000000000000000000000000000000000000000B7
:404A00000000000000000000000000000000000000000000000000000000000000000000000000000000000000000000000000000000000000000000000000000000000076
:020000040001F9
:0200000480007A
:40000000084F004004520040015A00400764004002650040070301405504014044050140100701405508014053090140590A0140580B0140670C0140580D01404B0E014068
:40004000330F0140161501405A160140511701405418014051190140431A01404E1B01400D400140124101401642014006430140074401400F4501400A4601400847014010
:400080000C4C01400F4D0140095001400451014001500A4B0D50164B1950224B25402E4B11802001214160209701840F850F887289388A388B0F8E7287388B728D01962058
:4000C000AA10E204E641EC44EE1001140461060E0703085C09200A030E08186119101A161B0C1D091F10221C250C26232711291C2B022D103060320F3320341A351F3802D6
:400100003A283E013F0454015604580459045B045C115D305F018407860888078A188D049502980699019A09A210A501A60BA814AA09AB01B001B304B41EB703B980BA2042
:40014000BE01BF04C025C106C5ECC60EC7B0C827C9FFCAFFCBFFCEF0CF44D00CD401D604D804D904DA04DB04DC11DD11DF01E6C0EA40EB02008002040328040805100920C6
:400180000F041020128016041705180819021B281C401D3020042204268427012A802B282F28311032803510370438243A113F8045204C044E024F055601574058415A1872
:4001C0005C405D205E085F01608065216704802082028304840186108E2096209C809D01B480C067C242C47CCA6ECC6CCE17D020D230D6FFD881E289E610EA108080830475
:4002000085048A02942096309C409E20AC40AE80B404B502E208E627EA02EC2007010E01150318021B041E011F0823042402250329022C023001310C3202350339203B80B3
:400240003E013F11402441064205440145E047C0482249FF4AFF4BFF4C624DA04EF04F41500C56025711580459045A045B045C115D135F016640670269106A306B106D10F5
:400280006E106F1283038E138F019104930194319503960E9C6C9E03A208A64CA831A903AA46B030B306B44AB60FB701B802B908BAA0BE01BF40D418D604D804D904DB049F
:4002C000DC33DD10DF010202060208080A010E040F0210101208130215401704180219201A411D091F082002232025102741280829202F543001320A3402350136A43882B3
:400300003D084501460847404E414F10570259025E20600663406D406E046F04744075107620811083088440860887408901900C9180932894829504970198109B029C0183
:400340009D209F20A104A20CA424A510A710AF04B603C081C2C5C4AECAE4CC73CE49D0B0D230D621D80DE608E840EC60010A030409100D030F041503170C1A011B081F101A
:400380002110220129032B042F0531103201330F38023A803B083E053F0154185604580459045B045C325D205F0181708308842086458701885389508A048E089140940AE7
:4003C00095409654973099249B409D029F0CA403A644A701A853A930AA0CAB44B030B240B302B40FB501B77CB802BA20BE04BF14C001C504C9FFCA07CBFFCC40CD20CEF0E3
:40040000CF05D008D401D604D804D904DA04DB04DC32DD21DF01E040E1A8E240E32004400510061009200E201080110812101420162819421B041C401D081E401F10208006
:400440002208240426802710280129202A012D24301032483410350136883722388239113C083D013F2046024F0456045A025C205D405E025F0862026309660867A0691040
:400480006A807DC0820484408740894A8D018E029008918092029308964099109A209B089D409E189F10A080A124A215A420A510B601B708C0E0C222C468CA6DCCFECEED26
:4004C000D010D6F1D88DE002E280E440E610011405100609070C08080A1312161416150C160917111F03211022022808291C2A152B022D092F10311F321B34073A28400216
:40050000454049FF4A074BFF4C404D204EF04F0550085608580459045A045B045C225D925F01604061A8624063208403857C860488088C088D088F169204940895509729BA
:40054000997C9A019E02A005A124A202A349B007B11CB208B360B407B503BE01BF10C063C104C201C402C5E0C70CC812C9FFCAFFCBFFCC62CDA0CEF0CF41D00CD608D804C2
:40058000D904DA04DB04DC22DD92DF01E640E702E910EA30EB10ED10EE10EF120028014002040510061008210A200B010E60130215011608181019031B201D101E281F0476
:4005C000204021182202274029412A802D012E402F04310832103604374038403A043E083F024010415042804510488049204D015004550458805D806301640168046B0210
:400600007A0C83108C2091C092229410988099A09A209B089D439E089F40A010A120A309A420A50CA60AA720A808B080B401B580B720C067C23FC458CAB1CC56CECAD02F17
:40064000D204D618D818E601EC40EE1000410120053006400AB30B0B0C030D700F0F10FF11031402150218F319101A0C1C4C1D781EA31F07200821012404280C294F2B3054
:400680002C4F2D7F2E90308C31033340340F3504367C373839203AA23F0456025712580459045B045C225D205F01950497029D06A502A704A901B302B501B704BF54C023BC
:4006C000C106C6C0C7BEC838C9FFCAFFCBFFCEF0CF44D00CD904DA04DD02DF01E6C0EA40EB020010010202020320080109080A05108011011354184019201A051B802160B1
:40070000220524022728280129612C202F0831183202338034083740385839013B40450446084E08562057095A08681069406A20708471107314C00FC20FC40FCA6DCC5F1E
:40074000CE0FD060D220D602804081408302860487088B4094809540960497409F0AA804A980AA01AF10B209B514E20BE605EA04EC02EE0103010C011001180124012F01BF
:40078000340137013E103F404005464049FF4A074BFF4C404D204EF04F055008580459045A045D035F01604061A8624063208018810C84108780880889088C038D03901821
:4007C000918C9227935395F3970C980299FF9C389D8F9E079F30A227A363A43FA502A827A904AA18AC01AD81B01CB1ECB203B30FB438B510B920BA02BB0AC034C101C50B89
:40080000C6ECC80DC9FFCAFFCBFFCEF0CF44D00CD418D604D804D904DA04DB04DC11DD33DF01E6C0EA40EB0200C001210210048008100A820E040F401060120917081918FB
:400840001A801B021F1020082209268028D029A02B042D4030203249384839013A103E0140024104428049044F805010514056A05B0262A26A206B018140823084308702DB
:4008800088408E80910992019420963098829A109D089E209F01A344A404A602AC42AD01AE10B004B201B301B508B740C08FC25BC42FCA1FCC0FCE8FD00BD210D601D80D9B
:4008C000E009E202E603EA0AEE0A011005E309100D200FC41110120215E3160419821B291E01251028062A012C032D412E042F2A310C330334073510360737E03E403F1134
:40090000402341044205440147CE483049FF4AFF4BFF4C624DA04EF04F41500C580459045A045B045C135D015F016640670269106A306B106D106E106F12824086088701C2
:400940008A048E028F01921096019A209E80A03FA2C0A4C3A63CA8CCAA33AC55AEAAB0FFB2FFB701BE01BF40D804D904DB04DC01DF0100100104024109240A400B020C442D
:400980000D01102A110115501B0A1E0A1F4023012540261027502F1235203715380839803DA03E25451847414C0154045701682A69016D5080408201830285208601870164
:4009C000880489448C108D208E028F0190089182928494809602979198409B059E0AA108A404A501A6B2A711AC41AD20AE20B020B104B302B502B640C00FC2BFC4CFCA500D
:400A0000CCE0CEFAD0F0D210E204E410E620E860EC20EEC001040502090F0F01131015061F102509270629062B092D062F0931083507371039023B283F4059045C305F01D2
:400A4000804F82908303840C85FC880489FC8C038D0B8F1490F39180920C94CC9503962399529A409B289C41A125A2B3A348A402A503A8FFAB03AC08AF03B08CB180B27C31
:400A8000B303B40FB560B71CBA28D602D710D804D904DB04DC33DD30DF01044006640D090E0A14041501160117041D081F19220223162490254126A0270428012A482B08D1
:400AC0002C012F583008324234043620370138803A053B103C403D933E045F406D106E046F01740876257E017F0180108108824083018405871489018A088B108D0492800F
:400B000093C0964297109E089F02A205A505A6A0AB0AAE40AF40B220B310B401B602B710C0F0C2F0C4F0CAFECCEBCEFFD610E224E870EA08EC8006203002318037483810D6
:400B40003D405F206120C020CCF0CE30D620D8403288348037013980801081A08F08941095409F48A402A5A0B620B720CCF0CE10E220E680128814801560322058085C08F6
:400B800060086408840288088D4095C09C809F01A402A688B740C4F0CC10D6C0D8C0E21086208B019F01A620B110E6400B400D0410107F01C20CC408DE040040082062022F
:400BC00082408C4091089340B010B701C002C202D802E202E802EA041A80302086029108934096809820A602C608CC0884208B40910893409820B020E204EC0408200E0101
:400C0000812089048B108C208D048F109108C203E20EE60309200B200C800F201108170883088C809720A524A710AE01C20FC40CE602000E01010A0A0C0E0E040F01100A11
:400C40001A0A1C0A00FF01AB023F100101D1D000000000001000D02020002000000000000000C0010100000000000000C00000000000040044808000800000000A4941006D
:400C800041000000F00F0F0000000000B0800000000000001D001801000000000000000000000000000000000000000000000000000000000000000000000000000000007F
:400CC00000000000000000000000000000000000000000000000000000000000000000000000000000000000000000000000000000000000000000000000000000000000F4
:400D000000000000000000000000000000000000000000000000000000000000000000000000000000000000000000000000000000000000000000000000000000000000B3
:400D40000000000000000000000000000000000000000000000000000000000000000000000000000000000000000000000000000000000000000000000000000000000073
:400D80000000000000000000000000000000000000000000000000000000000000000000000000000000000000000000000000000000000000000000000000000000000033
:0200000490006A
:0400000000004003B9
:0200000490105A
:04000000BC90ACAF55
:0200000490303A
:020000003A8044
:0200000490402A
:400000005555555555555555555555555555555555555555555555555555555555555555555555555555555555555555555555555555555555555555555555555555555580
:400040005555555555555555555555555555555555555555555555555555555555555555555555555555555555555555555555555555555555555555555555555555555540
:0200000490501A
:0C00000000012E16C06900012E36FAE93E
:00000001FF