:400000000040002011000000852800008528000080B500AF024A034B1B68136002F03CFCBC760040FA46004010B5054C237833B9044B13B10448AFF300800123237010BDC3
:40004000D0C1FF1F00000000004F0000084B10B51BB108490848AFF300800848036803B910BD074B002BFBD0BDE81040184700BF00000000D4C1FF1F004F0000C8C0FF1F94
:400080000000000080B500AF00F02EF862B6154B00221A70134B1B78012B0DD0022B15D0002B1DD10F4B00225A7000BF00F03EF80346002BFAD013E00A4B00225A7000BFA1
:4000C00001F0E6F80346002BFAD009E0054B00225A7000BF00F014FE0346002BFAD000BFD5E700BF1CDAFF1F80B500AF03F04CFD03F0F8FC03F096F803F042F803F016FBC8
:4001000003F074FC04F022F804F064F803F052FA03F0B2FA03F00EFF03F050FF04F06CFB04F01AFC04F0ACFB00BF80BD80B582B000AFB94B5B78092B00F2698101A252F8F8
:4001400023F000BF6D010000BB010000F501000021020000C3020000030300000B0300001303000055030000B3030000012002F0D3FE002002F0EEFE0023FB7106E0FB79A2
:40018000A64A5F21D154FB790133FB71FB79092BF5D9A14B49229A7000F092F90246A04B1A609F4B1B680122DA714FF47A7002F031FE994B07225A7029E100F087FA0020FC
:4001C00003F074F900BF002000F0B2FC0346002B06D1914B5B781A46904B9B5C462BF2D100F092FA4FF47A7002F014FE8A4B02225A700CE1012002F08FFE012002F0AAFE0A
:4002000000F0A2FA012002F087FE002002F0A2FE4FF47A7002F0FEFD7F4B04225A70F6E000F054FA012002F077FE002002F092FE00F046F902467A4B1A60794B1B680022B7
:40024000DA7100F02DF90246764B1A6000BF754B1B6893F84A30002B06D06F4B5B781A466E4B9B5C462BF2D16D4B1B680122DA7100BF6C4B1B6893F84A30012B06D0664B67
:400280005B781A46654B9B5C462BF2D1012002F061FE00BF634B1B6893F84A30022B06D05D4B5B781A465D4B9B5C462BF2D100F02BFA4FF47A7002F0ADFD574B04225A70A8
:4002C000A5E0012003F0BAF900F000FA002003F0EDF800BF012001F0BDFD0346002B06D14D4B5B781A464D4B9B5C462BF2D100F00BFA4FF47A7002F08DFD474B07225A7049
:4003000085E0454B00225A7081E0434B00225A707DE000F0DBF9002003F0C8F800F0C0F80246404B1A6001E001F0E4FD3D4B1B6893F848309B09DBB203F00303032BF3D13B
:4003400000F0E2F94FF47A7002F064FD324B00225A705CE000F094F80246334B1A60324B1B68FF2283F82F202F4B1B68FF2283F82C202D4B1B68FF2283F829202A4B1B6829
:40038000FF2283F82620284B1B68FF2283F82320254B1B68FF2283F82020234B1B68FF225A77214B1B68FF229A761B4B00225A702DE0194B5B781A46184B57219954164B95
:4003C00057229A7000BF00F031F80346002B06D1114B5B781A46114B9B5C462BF3D10E4B5B781A460D4B9B5C462B08D00A4B5B781A460A4B50219954074B50229A704FF4D0
:400400007A7002F007FD044B00225A7000BF002318460837BD4680BD1CDAFF1FB0C2FF1F50C2FF1F3CC2FF1FA4C2FF1F80B500AF002003F03BF800F033F802460F4B1A600D
:400440000E4B1B6893F84530FF2B13D10B4B1B6893F84630FF2B0DD1084B1B6893F84730FF2B07D1054B1B6893F84830FF2B01D1012300E00023184680BD00BF3CC2FF1F67
:4004800080B400AF044B054A1A60034B1B681846BD4680BC704700BFA4C2FF1F54C2FF1F80B400AF044B054A1A60034B1B681846BD4680BC704700BF3CC2FF1FECC1FF1FDF
:4004C00080B400AF044B054A1A60034B1B681846BD4680BC704700BF50C2FF1F40C2FF1F80B582B000AF0023FB710FE0FB795B00FA790F49895C0F4AD154FB795B00013339
:400500000C4A2021D154FB790133FB71FB79092BECD91421074803F00FFA0D2003F0AEF90A2003F0ABF900BF0837BD4680BD00BFB0C2FF1FBCC2FF1F80B500AF03F0E6FE92
:4005400003461A462C4B1A702B4B1A782B4B1B789A4206D12A4B1B780133DAB2284B1A7002E0274B00221A70254B1B78022B06D9214B1A78234B1A70214B00221A701E4BC2
:400580001A781E4B1A701F4B1B78012B09D11E4B01221A701D4B1B780133DAB21B4B1A7005E0194B00221A70184B00221A70174B1B784B2B0BD9164B5B781A46154B462144
:4005C0009954134B46229A70104B00221A70124B1B78012B07D10C4B1B78002B03D10F4B01221A7002E00D4B00221A70064B1A78094B1A7000BF80BDD0C2FF1FD1C2FF1F4F
:40060000D2C2FF1FD3C2FF1FACC2FF1FD4C2FF1F1CDAFF1FB0C2FF1FD5C2FF1FADC2FF1F80B400AF184B1B8801339AB2164B1A80164B5B781A46164B33F81220124B1B8879
:400640009A4210D2104B00221A80124B1B88012B14D10E4B5B781A460F4B462199540B4B46229A700AE0084B1B884FF6E852934206D9054B00221A8000BF01E000BF00E034
:4006800000BFBD4680BC7047A8C2FF1F1CDAFF1FCCC0FF1FAAC2FF1FB0C2FF1F80B500AFFFF71EFF084B5B78002B07D0064B5B78012B03D0044B5B78032B02D100F052FA84
:4006C00000BF00BF80BD00BF1CDAFF1F80B400AF094B5B781A46094B42219954064B42229A70074B00221A80064B01221A8000BFBD4680BC704700BF1CDAFF1FB0C2FF1F6B
:40070000A8C2FF1FAAC2FF1F80B400AF0B4B00221A800B4B5B781A460A4B9B5C462B09D0074B5B781A46074B50219954044B50229A7000BF00BFBD4680BC7047AAC2FF1F95
:400740001CDAFF1FB0C2FF1F80B500AF144B5B781A46144B57219954114B57229A700CE0114B1B78002B08D00D4B5B781A460D4B502199540C4B00221A70094B5B781A4613
:40078000084B9B5C502B06D0054B5B781A46054B9B5C462BE4D1002002F050FF00BF80BD1CDAFF1FB0C2FF1FADC2FF1F80B582B000AF0023FB7102F0BBFD0346FB71114BC0
:4007C0001B781946104AFB7953540E4B1B780133DAB20C4B1A700B4B1B78632B02D9094B00221A70FB79184600F010F802F08EFD034603F02003002BDDD100BF0837BD4633
:4008000080BD00BF64C3FF1F68C3FF1F80B582B000AF0346FB719C4B1B78012B78D0022B00F09780002B00D070E1984B1B78002B20D1974B1B78FA799A420ED0944B5B790E
:40084000FA799A4209D0924B9B7AFA799A4204D08F4BDB7BFA799A420CD18C4B1B7819468C4AFB795354894B1B780133DAB2874B1A704CE0854B1B78012B41D1844B5B7833
:40088000FA799A420ED0824B9B79FA799A4209D07F4BDB7AFA799A4204D07D4B1B7CFA799A422DD1794B1B7819467A4AFB795354764B1B780133DAB2744B1A70724B012242
:4008C0001A70734B9B79FA799A4203D1724B01221A701CE06E4BDB7AFA799A4203D16E4B02221A7013E06A4B1B7CFA799A4203D1694B03221A700AE0674B00221A7006E088
:40090000624B00221A70644B00221A70FEE0FDE05E4B1B7819465F4AFB7953545B4B1B780133DAB2594B1A70584B1B7818465A4B1B781946564A0B469B000B441344023330
:400940001B7802339842C0F2E0804F4B02221A70DBE04E4B1B7818464F4B1B7819464C4A0B469B000B44134402331B780233984219D1494B1B781946454A0B469B000B4471
:40098000134403331B78FA799A420CD13F4B1B781946404AFB7953543C4B1B780133DAB23A4B1A70B0E0394B1B7818463A4B1B781946374A0B469B000B44134402331B788A
:4009C0000333984240F09680334B1B781946304A0B469B000B44134404331B78FA799A4240F08880294B1B7819462A4AFB795354294B1B78002B15D1FFF752FD0246274BC8
:400A00001A60264B1B6803F14500214B9B781A46234904F061FA234B1B8801339AB2214B1A805DE01C4B1B78012B14D100F038FF02461D4B1A601C4B1B681846144BDB794A
:400A40001A46174904F048FA164B5B8801339AB2144B5A8044E0104B1B78022B28D100F03FFF0246114B1A60104B1B681846084B1B7B1A460A4904F02FFA0A4B9B8801335E
:400A80009AB2084B9A802BE0CCC3FF1FCDC3FF1FE0C0FF1FD0C3FF1FE3C3FF1F30C3FF1FD2C3FF1FD8C2FF1F44C3FF1F50C3FF1F184B1B78032B13D100F012FF0246164B60
:400AC0001A60154B1B681846144B5B7C1A46144904F002FA134BDB8801339AB2114BDA80114B00221A70114B00221A70094B00221A7009E00C4B00221A700C4B00221A7062
:400B0000044B00221A7001E000E000BF00BF0837BD4680BDE3C3FF1F50C3FF1FE0C0FF1FD2C3FF1FD8C2FF1FCDC3FF1FCCC3FF1F80B483B000AF0346FB71FB79084A32F8C8
:400B40001330042B06D9FB79054A002122F81310012300E0002318460C37BD4680BC7047D8C2FF1F80B582B000AFFFF7A9FC0246124B1A60002002F0A5FF7E2002F0FAFB82
:400B8000442002F0F7FB0023FB7109E00B4B1A68FB79D35C184602F0EDFBFB790133FB71FB790E2BF2D90D2002F0E4FB0A2002F0E1FB00BF0837BD4680BD00BFE8C3FF1F7A
:400BC00080B500AF00F05CFE0246324B1A60012002F078FF2F4B1B687E2283F835202D4B1B68332283F836202A4B1B680D2283F83A20284B1B680A2283F83B20254B1B6889
:400C00007E2283F83C20234B1B68532283F83D20204B1B680D2283F841201E4B1B680A2283F842201B4B1B687E2283F84320194B1B68502283F84420164B1B680D2283F8E4
:400C40004D20144B1B680A2283F84E207E2002F091FB492002F08EFB0F4B00221A800DE00C4B1B680C4A12889B5C184602F082FB094B1B8801339AB2074B1A80064B1B8828
:400C80004E2BEDD90D2002F075FB0A2002F072FB00BF80BDFCC3FF1F00C4FF1F80B500AF022002F00FFF00F00BFE0246124B1A607E2002F05FFB482002F05CFB0F4B0022ED
:400CC0001A800DE00C4B1B680C4A12889B5C184602F050FB094B1B8801339AB2074B1A80064B1B88042BEDD90D2002F043FB0A2002F040FB00BF80BD5CC3FF1F54C4FF1FA2
:400D000080B582B000AFA74B5B780A2B00F2458101A252F823F000BF450D00006F0D0000770D00008D0D0000D30D0000190E00003D0E00008D0E0000950E0000D30E0000CF
:400D4000930F00000023FB7106E0FB79964A5F21D154FB790133FB71FB790A2BF5D94FF47A7002F057F88F4B09225A7015E18D4B02225A7011E100F053FA0220FFF7D8FEC2
:400D800000F068FA874B03225A7006E100F078FD0246864B1A60854B1B68012283F83E20804B5B781A46804B4221995440F6B83002F030F800F0DCF97C4B1B68002283F8F5
:400DC0003E204FF47A7002F025F8764B04225A70E3E000F055FD0246744B1A60734B1B68012283F83F206F4B5B781A466E4B4221995440F6B83002F00DF800F0B9F96B4B81
:400E00001B68002283F83F204FF47A7002F002F8644B05225A70C0E000F032FD0246634B1A60624B1B68012283F84B2000F0D0F900F09EF95B4B06225A70AEE0594B5B7835
:400E40001A46594B572199540EE000F0C1F9584B1B78002B08D0534B5B781A46524B50219954534B00221A704E4B5B781A464E4B9B5C502B06D04B4B5B781A464A4B9B5C20
:400E8000462BE2D1474B07225A7086E0454B08225A7082E000F0F4FC0246444B1A60434B1B68162283F83E20404B1B68162283F83F203C4B5B781A463B4B4221995440F604
:400EC000B83001F0A7FF00F053F9364B09225A7063E000F04DF900F0A3F900F0D1FC0246324B1A60314B1B68012283F83F2000F0D7FC02462F4B1A6002E0002002F09EFB38
:400F00002C4B1B685B79002B04D12A4B1B689B79002BF2D0002002F091FB244B1B68002283F83F2000F096F900BF224B1B685B79002BFAD100F074F900F0A2FC02461B4BCD
:400F40001A601A4B1B68012283F83E2000F0A8FC0246184B1A6000BF164B1B685B79012B06D0104B5B781A460F4B9B5C462BF3D10E4B1B68002283F83E2000F06BF900BFE3
:400F80000C4B1B689B79002BFAD1064B0A225A7003E0044B00225A7000BF002318460837BD4680BD1CDAFF1FB8C4FF1F14C5FF1FB5C4FF1F28C5FF1F80B500AF03F0A6F96C
:400FC00003461A462B4B1A702A4B1A782A4B1B789A4206D1294B1B780133DAB2274B1A7002E0264B00221A70244B1B78022B06D9204B1A78224B1A70204B00221A701D4B43
:401000001A781D4B1A701E4B1B78012B09D11D4B01221A701C4B1B780133DAB21A4B1A7005E0184B00221A70174B00221A70164B1B784B2B08D9154B5B781A46144B4621C6
:401040009954114B00221A70124B1B78012B07D10C4B1B78002B03D10F4B01221A7002E00D4B00221A70074B1A780A4B1A7000BF80BD00BF2CC5FF1F2DC5FF1F2EC5FF1F03
:401080002FC5FF1FB4C4FF1F30C5FF1F1CDAFF1FB8C4FF1F31C5FF1FB5C4FF1F80B500AF054B5B78072B04D103F030FD00F00CFF00BF00BF80BD00BF1CDAFF1F80B400AF82
:4010C000144B1B8801339AB2124B1A80114B1B88322B0DD90F4B00221A800F4B1B88012B11D10E4B5B781A460D4B462199540AE0084B1B884FF6E852934206D9054B002257
:401100001A8000BF01E000BF00E000BFBD4680BC704700BFB0C4FF1FB2C4FF1F1CDAFF1FB8C4FF1F80B500AF104B5B78002B17D00E4B5B78032B13D00C4B5B78042B0FD0F5
:401140000A4B5B78072B0BD0084B5B78082B07D0064B5B78092B03D0044B5B780A2B02D1FFF72EFD00BF00BF80BD00BF1CDAFF1F80B500AF134B5B781A46134B57219954CE
:401180000CE0124B1B78002B08D00E4B5B781A460D4B502199540D4B00221A70094B5B781A46094B9B5C502B06D0064B5B781A46054B9B5C462BE4D1002002F03FFA00BFEC
:4011C00080BD00BF1CDAFF1FB8C4FF1FB5C4FF1F80B500AF104B5B781A46104B4221995403F0E6F8052003F029FB4FF47A7001F011FE322003F022FB4FF47A7001F00AFECF
:401200004FF4FA7003F01AFB4FF47A7001F002FE03F0E0F800BF80BD1CDAFF1FB8C4FF1F80B400AF074B5B781A46074B42219954064B00221A80064B01221A8000BFBD467F
:4012400080BC70471CDAFF1FB8C4FF1FB0C4FF1FB2C4FF1F80B400AF0A4B00221A800A4B5B781A46094B9B5C462B06D0064B5B781A46064B5021995400BF00BFBD4680BCA9
:40128000704700BFB2C4FF1F1CDAFF1FB8C4FF1F80B582B000AFB54B5B780A2B00F2618101A252F823F000BFD51200009F130000D1130000FB1300002D1400006514000080
:4012C00097140000C9140000FB1400003115000063150000A54B49229A700023FB7106E0FB79A34A5F21D154FB790133FB71FB790A2BF5D900F0C4FA02469E4B1A6007E0EE
:401300009C4B1A68BB79B979D154BB790133BB71BB794E2BF4D9974B1B687E2283F83520944B1B68332283F83620924B1B680D2283F83A208F4B1B680A2283F83B208D4BB3
:401340001B687E2283F83C208A4B1B68532283F83D20884B1B680D2283F84120854B1B680A2283F84220834B1B687E2283F84320804B1B68502283F844207E4B1B680D2228
:4013800083F84D207B4B1B680A2283F84E204FF47A7001F03FFD754B08225A70E1E000F09FFB00BF01F0F4FD0346002B06D16F4B5B781A466E4B9B5C462BF3D100F0AEFB37
:4013C0004FF4FA7001F026FD684B02225A70C8E000F086FB00BF00F0CFF80346002B06D1624B5B781A46624B9B5C462BF3D100F095FB5E4B03225A70B3E000F071FB00BF32
:4014000000F0ECF80346002B06D1584B5B781A46574B9B5C462BF3D100F080FB4FF47A7001F0F8FC514B00225A709AE000F058FB012002F0E3FC00BF00F0FCF80346002B1E
:4014400006D14A4B5B781A46494B9B5C462BF3D100F064FB4FF47A7001F0DCFC434B00225A707EE000F03CFB00BF00F00DF90346002B06D13D4B5B781A463D4B9B5C462B1E
:40148000F3D100F04BFB4FF47A7001F0C3FC374B00225A7065E000F023FB00BF00F050F90346002B06D1314B5B781A46304B9B5C462BF3D100F032FB4FF47A7001F0AAFC1A
:4014C0002A4B00225A704CE000F00AFB00BF00F061F90346002B06D1244B5B781A46244B9B5C462BF3D100F019FB4FF47A7001F091FC1E4B00225A7033E0012000F0B4FA03
:4015000000BF00F067F90346002B06D1174B5B781A46174B9B5C462BF3D14FF47A7001F079FC002000F0A0FA104B00225A7018E000F0D6FA00BF00F08BF90346002B06D174
:401540000A4B5B781A460A4B9B5C462BF3D100F0E5FA4FF47A7001F05DFC044B00225A7000BF002318460837BD4680BD1CDAFF1F58C6FF1FC4C5FF1F80B584B000AF0023F0
:40158000FB6000237B60012000F06EFA0023FB7214E0FB7A184600F01BFE012001F03AFC03F006FC03467B60FB7A7A6802FA03F3FA681343FB60FB7A0133FB72FB7A1F2B67
:4015C000E7D9FB6840F20332934201D1012300E0002318461037BD4680BD00BF80B500AF002003F0F5FB00BF002000F0C7FD0346002B06D10D4B5B781A460D4B9B5C462BDF
:40160000F2D1012003F0E4FB00BF002000F0B6FD0346002B06D1054B5B781A46044B9B5C462BF2D10123184680BD00BF1CDAFF1F58C6FF1F80B582B000AF0023FB7116E0C1
:40164000FB790233DBB2184602F0C8FB00BF012000F000FC0346002B06D1094B5B781A46084B9B5C462BF2D1FB790133FB71FB79072BE5D9012318460837BD4680BD00BFCD
:401680001CDAFF1F58C6FF1F80B500AF00F018F90246264B1A60254B1B6873221A70234B1B6873225A70214B1B6873229A701F4B1B687322DA701D4B1B6873221A710120DA
:4016C00001F0F4FE00F0ECF80246194B1A6000BF184B1B681B7A732B10D0164B1B685B7A732B0BD0134B1B689B7A732B06D0124B5B781A46114B9B5C462BE9D1012002F098
:40170000E1F9022001F0D2FE00BF0320FFF710FA0346002B06D1084B5B781A46074B9B5C462BF2D10123184680BD00BFD0C5FF1F5CC5FF1F70C5FF1F1CDAFF1F58C6FF1FA9
:4017400080B500AF012002F0BDF900F099F802460D4B1A600C4B1B68FF2283F84920012000F0FCF9012001F0A1FE00F079F80246064B1A60064B1B68DB79FF2B01D10123CF
:4017800000E00023184680BDC4C5FF1F5CC5FF1F70C5FF1F80B582B000AF012001F086FE00F07EF802460A4B1A600023FB71084B1B681B79FB71FB797C2B04D8FB79732BBB
:4017C00001D9012300E0002318460837BD4680BD70C5FF1F80B582B000AF0023FB7100237B71012001F062FE00F05AF80246164B1A60012002F066F900F042F80246134BEB
:401800001A600023BB7110E0BB79184600F078F803467B71FB795B005AB297F9053013435BB2FB71BB790133BB71BB79032BEBD9FB7903F00F030F2B01D1012300E00023F3
:4018400018460837BD4680BD70C5FF1FC4C5FF1F80B400AF00231846BD4680BC704700BF80B400AF044B054A1A60034B1B681846BD4680BC704700BF5CC5FF1F4CC5FF1F2B
:4018800080B400AF044B054A1A60034B1B681846BD4680BC704700BFC4C5FF1F74C5FF1F80B400AF044B054A1A60034B1B681846BD4680BC704700BF70C5FF1F60C5FF1FD6
:4018C00080B400AF044B054A1A60034B1B681846BD4680BC704700BFD0C5FF1FC8C5FF1F80B400AF044B054A1A60034B1B681846BD4680BC704700BFDCC5FF1FD4C5FF1F56
:4019000080B584B000AF0346FB710023FB73FFF7C7FF0246184B1A60FB79002B04D1164B1B681B78FB7319E0FB79012B04D1124B1B685B78FB7311E0FB79022B04D10E4BC0
:401940001B689B78FB7309E0FB79032B04D10A4B1B68DB78FB7301E0002308E0FB7B0A2B04D8FB7B072B01D9012300E0002318461037BD4680BD00BF70C5FF1F80B500AF73
:40198000044B5B78042B02D100F07EFA00BF00BF80BD00BF1CDAFF1F80B500AF1A4B5B78042B01D100F070FA184B1B8801339AB2164B1A80144B5B781A46154B33F81220C6
:4019C000124B1B889A4210D2104B00221A80114B1B88012B14D10C4B5B781A460E4B46219954094B46229A700AE0084B1B884FF6E852934206D9054B00221A8000BF01E046
:401A000000BF00E000BF80BD1CDAFF1F54C6FF1FFCC0FF1F56C6FF1F58C6FF1F80B500AF104B5B78022B0FD00E4B5B78032B0BD00C4B5B78052B07D00A4B5B78062B03D0BF
:401A4000084B5B78082B01D1FFF7BAF8052001F0E1F9044B5B78052B02D1FFF71FF900BF00BF80BD1CDAFF1F80B582B000AF0346FB71FFF705FF0246184B1A60FB79012B17
:401A800014D1164B1B68FF2283F84520134B1B68FF2283F84620114B1B68FF2283F847200E4B1B68FF2283F8482014E00B4B1B68002283F84520094B1B68002283F846200E
:401AC000064B1B68002283F84720044B1B68002283F8482000BF0837BD4680BDC4C5FF1F80B400AF094B5B781A46094B42219954064B42229A70074B00221A80064B012203
:401B00001A8000BFBD4680BC704700BF1CDAFF1F58C6FF1F54C6FF1F56C6FF1F80B400AF0B4B00221A800B4B5B781A460A4B9B5C462B09D0074B5B781A46074B502199548C
:401B4000044B50229A7000BF00BFBD4680BC704756C6FF1F1CDAFF1F58C6FF1F80B582B000AF0346FB71FB79012B18D1012001F01DFA012001F052FA012001F035FA01205F
:401B800001F06AFA012001F085FA012001F0A0FA012001F0BBFA012001F0D6FA18E0002001F004FA002001F039FA002001F01CFA002001F051FA002001F06CFA002001F094
:401BC00087FA002001F0A2FA002001F0BDFA00BF0837BD4680BD00BF80B582B000AF0023FB7102F057F80346FB71114B1B781946104AFB7953540E4B1B780133DAB20C4B91
:401C00001A700B4B1B78632B02D9094B00221A70FB79184600F010F802F02AF8034603F02003002BDDD100BF0837BD4680BD00BF08C7FF1F0CC7FF1F80B483B000AF034678
:401C4000FB717E4B1B78012B5AD0022B78D0002B00D0EDE07A4B1B78002B16D1794B1B78FA799A4204D0774B5B79FA799A420CD1734B1B781946744AFB795354704B1B788C
:401C80000133DAB26E4B1A7039E06D4B1B78012B2ED16C4B5B78FA799A4204D0694B9B79FA799A4224D1664B1B781946664AFB795354634B1B780133DAB2614B1A705F4B8A
:401CC00001221A705F4B5B78FA799A4203D15F4B00221A7013E05B4B9B79FA799A4203D15A4B01221A700AE0584B00221A7006E0534B00221A70554B00221A7098E097E07B
:401D00004F4B1B781946504AFB7953544C4B1B780133DAB24A4B1A70494B1B7818464B4B1B781946474A0B469B000B44134402331B78023398427ADB404B02221A7076E06E
:401D40003F4B1B781846414B1B7819463D4A0B469B000B44134402331B780233984219D13A4B1B781946374A0B469B000B44134403331B78FA799A420CD1314B1B781946A3
:401D8000314AFB7953542E4B1B780133DAB22C4B1A704BE02A4B1B7818462C4B1B781946284A0B469B000B44134402331B780333984231D1254B1B781946224A0B469B002E
:401DC0000B44134404331B78FA799A4224D11C4B1B7819461C4AFB7953541C4B1B78002B06D11B4B1B8801339AB2194B1A8009E0164B1B78012B05D1154B5B8801339AB230
:401E0000134B5A800E4B00221A700C4B00221A700E4B00221A7009E0094B00221A70074B00221A70094B00221A7001E000E000BF00BF0C37BD4680BC704700BF70C7FF1FEA
:401E400071C7FF1F1CC1FF1F74C7FF1FE7C7FF1F7CC6FF1F80B483B000AF0346FB71FB79084A32F81330042B06D9FB79054A002122F81310012300E0002318460C37BD4694
:401E800080BC70477CC6FF1F80B582B000AF7E2001F022FF4C2001F01FFF0023FB7106E0FB79184601F018FFFB790133FB71FB796E2BF5D90D2001F00FFF0A2001F00CFFFE
:401EC00000BF0837BD4680BD80B400AF084B1B8801339AB2064B1A80054B1B88642B03D9034B00221A8000BF00BFBD4680BC7047E8C7FF1F80B582B000AF002001F07EFF13
:401F00007E2001F0E9FE022001F0E6FE0023FB7105E0002001F0E0FEFB790133FB71FB79062BF6D9402001F0D7FE422001F0D4FE0D2001F0D1FE0A2001F0CEFE00BF08372C
:401F4000BD4680BD80B582B000AF0023FB7101F073FC0346FB71114B1B781946104AFB7953540E4B1B780133DAB20C4B1A700B4B1B78632B02D9094B00221A70FB791846F3
:401F800000F010F801F046FC034603F02003002BDDD100BF0837BD4680BD00BFBBC8FF1FBCC8FF1F80B483B000AF0346FB716D4B1B78012B43D0022B61D0002B00D0CBE025
:401FC000694B1B78002B11D1684B1B78FA799A420CD1654B1B781946654AFB795354624B1B780133DAB2604B1A7027E05E4B1B78012B1CD15D4B5B78FA799A4217D15A4BC7
:402000001B7819465A4AFB795354574B1B780133DAB2554B1A70534B01221A70534B5B78FA799A420AD1534B00221A7006E04E4B00221A704F4B00221A708DE08CE04A4BC1
:402040001B7819464A4AFB795354474B1B780133DAB2454B1A70444B1B781846454B1B781946424A0B469B000B44134402331B78023398426FDB3B4B02221A706BE03A4B7B
:402080001B7818463B4B1B781946384A0B469B000B44134402331B780233984219D1354B1B781946314A0B469B000B44134403331B78FA799A420CD12B4B1B7819462C4A90
:4020C000FB795354284B1B780133DAB2264B1A7040E0254B1B781846264B1B781946234A0B469B000B44134402331B780333984226D1204B1B7819461C4A0B469B000B4454
:40210000134404331B78FA799A4219D1164B1B781946174AFB795354164B1B78002B05D1154B1B8801339AB2134B1A800E4B00221A700C4B00221A700E4B00221A7009E010
:40214000094B00221A70074B00221A70094B00221A7001E000E000BF00BF0C37BD4680BC704700BF20C9FF1F21C9FF1F28C1FF1F24C9FF1F2BC9FF1FB4C8FF1F80B483B0F6
:4021800000AF0346FB71FB79084A32F81330042B06D9FB79054A002122F81310012300E0002318460C37BD4680BC7047B4C8FF1F80B483B000AF0346FB71FB79034AD35C46
:4021C00018460C37BD4680BC704700BF30C1FF1F80B584B000AF0346FB710023FB73FB791846FFF7E5FF0346FB73FB7B072B25D8002002F067FD012002F046FD012002F035
:4022000027FD012002F00AFDFB7B9B10DBB203F00103DBB2184602F071FDFB7B5B10DBB203F00103DBB2184602F086FDFB7B03F00103DBB2184602F09DFD83E0FB7B072BBC
:4022400028D9FB7B0F2B25D8012002F03BFD002002F01AFD012002F0FBFC012002F0DEFCFB7B9B10DBB203F00103DBB2184602F045FDFB7B5B10DBB203F00103DBB2184631
:4022800002F05AFDFB7B03F00103DBB2184602F071FD57E0FB7B0F2B28D9FB7B172B25D8012002F00FFD012002F0EEFC002002F0CFFC012002F0B2FCFB7B9B10DBB203F025
:4022C0000103DBB2184602F019FDFB7B5B10DBB203F00103DBB2184602F02EFDFB7B03F00103DBB2184602F045FD2BE0FB7B172B28D9FB7B1F2B25D8012002F0E3FC01205A
:4023000002F0C2FC012002F0A3FC002002F086FCFB7B9B10DBB203F00103DBB2184602F0EDFCFB7B5B10DBB203F00103DBB2184602F002FDFB7B03F00103DBB2184602F0B1
:4023400019FDFFE700BF1037BD4680BD80B582B000AF786039603A680021786802F0C7FD00BF0837BD4680BD80B584B000AFF860B9607A607A68B968F86802F0ADFD00BFDC
:402380001037BD4680BD00BF80B483B000AF0346FB71FEE780B487B000AF7860396000233B6100237B6127E07B699B007A6813441B68BB60BB68FB73BB6823F0FF03BB609D
:4023C00014E03B695B003A6813441B781A46BB68134419463B695B003A6813445B780B703B6901333B61FB7B013BFB73FB7B002BE7D17B6901337B617B69272BD4D900BF5C
:402400001C37BD4680BC704780B582B000AF4D4B4BF67F321A804C4B18221A704B4B0C221A804B4B18221A704A4B19221A804A4B18221A70494B33221A80494B18221A7068
:40244000484B40F2DF121A80474B18221A70474B40F2CF721A80464B18221A70042245494548FFF781FF454B06221A70444B52221A70444B444A1278D2B21A70434B4FF4B6
:40248000E2621A80424B41F251221A800023FB7019237B6014E0FB785B00DAB23D4B1B78DBB203F00103DBB21343DBB203F00303FB704FF4F07002F09BFC7B68013B7B60E5
:4024C0007B68002B02D0FB78032BE4D17B68002B02D10320FFF758FF2F4B4FF480721A802D4B07221A702D4B00221A702C4B48221A70294B00221A702A4B00221A702A4B9C
:4025000002221A70294B04221A70294A284B1B78DBB243F03F03DBB21370264A254B1B78DBB243F00103DBB21370234A224B1B78DBB263F07F03DBB2137000BF0837BD4617
:4025400080BD00BF80400040824000408440004086400040884000408A4000408C4000408E40004090400040924000409440004096400040600C0048004100400043004023
:4025800000420040A14600400F01004922420040204200402542004004400040064000400840004009400040014000400B400040A2430040A1430040A043004080B582B032
:4025C00000AF244B1B78FB71234B1B78BB71234B1B787B71224AFB7903F00703DBB21370204AFB791B09DBB213701B4ABB7943F00303DBB21370194A7B7943F00303DBB2A6
:402600001370194B04221A70184B40221A70184B40221A70174B20221A70174B20221A70164B20221A70164B24221A70154B20221A700A2000F010FC084A7B791370064A40
:40264000BB791370104B44221A7000BF0837BD4680BD00BFCF010049F8460040F94600406E5800406F5800401D5100400159004003590040905A0040205B0040235B0040B1
:40268000285B0040585B00407658004080B586B000AF72B60023FB7513E0FA7D13465B0013445B00574A13443B613B691A683B699B889BB219461046FFF748FEFB7D013346
:4026C000FB75FB7D072BE8D90023FB751CE0FA7D13469B0013445B004B4A1344FB60FB681B68BB60FB685B687B60FB681A7A5B7A1B0213437B807B881A467968B868FFF776
:4027000033FEFB7D0133FB75FB7D012BDFD93F494FF09040FFF73EFE3D4B20221A7004213C48FFF713FE04213B48FFF70FFE3B4A3A4B1B78DBB243F00203DBB21370384A84
:40274000374B1B78DBB243F00203DBB21370354A344B1B78DBB243F04003DBB21370324A314B1B78DBB243F01003DBB2137008222E492F48FFF7F8FD0A222E492E48FFF74B
:40278000F3FD0A222D492E48FFF7EEFD08222D492D48FFF7E9FD08222C492D48FFF7E4FD08222C492C48FFF7DFFD08222B492C48FFF7DAFD08222B492B48FFF7D5FD08228D
:4027C0002A492B48FFF7D0FD2A4A2A4B1B78DBB243F00803DBB21370274B61221A70FFF713FE254BC1221A70244B01221A70FFF7E5FE0E220B492248FFF7B6FD00BF1837DC
:40280000BD4680BD044F0000344F0000A00000481260004000760040087600400350014013500140A0430040C2430040100C004802510040180C0048C0510040240C0048A8
:40284000F0510040300C004812510040380C004822510040400C004832510040480C004842510040500C004852510040580C0048625100402243004000480040040008400C
:40288000B043004080B500AF02F0FAFA03461B680C2B00D1FEE7FEE780B586B000AF224B7B61224B3B61204B7B6135E03B691B68FB603B695B68BB603B699B683B6000234C
:4028C0007B600CE0FB681A68BB681A60BB680433BB60FB680433FB607B6804337B607A683B689A42EED13B69DB683B6000237B6008E0BB6800221A60BB680433BB607B6891
:4029000004337B607A683B689A42F2D13B6910333B617B69013B7B617B69002BC6D102F0B5FAFDF7AFFBFEE7010000003850000080B582B000AF194B194A1A60194A194B71
:402940001B6843F40073136000237B600FE07B68032B04D8144A7B6852F8233000E0134B13497A6841F822307B6801337B607B682F2BECD90F4B1B78DAB20F4B1A700F4B4D
:402980000B4A1A60FFF782FE00F01CF80C4B00221A6000BF0837BD4680BD00BF0CED00E00004FA0514ED00E0000000008528000000C0FF1FBC760040C4C0FF1F08ED00E0AD
:4029C000C0C0FF1F80B483B000AF134B7F221A70124B80221A707F23FB710CE0FB79DB0003F1804303F5F043FA79013AD2B21A70FB79013BFB71FB79002BEFD1FB79DB0060
:402A000003F1804303F5F04300221A7000BF0C37BD4680BC704700BF51C1FF1F50C1FF1F80B485B000AF03460A46FB711346BB710123FB60FB79172B2FD8BB79002B0ED0D7
:402A4000FB791A01184B1344FA791101164A0A441278D2B242F02002D2B21A700DE0FB791A01114B1344FA7911010F4A0A441278D2B222F02002D2B21A70FB791A010A4BDB
:402A80001344FA791101084A0A441278D2B242F00102D2B21A700023FB60FB6818461437BD4680BC704700BF1070004080B485B000AF0346FB710123FB60FB79172B1DD853
:402AC000FB791A01104B1344FA7911010E4A0A441278D2B222F00102D2B21A70FB791A01094B1344FA791101074A0A441278D2B222F02002D2B21A700023FB60FB6818464C
:402B00001437BD4680BC70471070004080B485B000AF03460A46FB711346BB710123FB60FB79172B1BD8FB791A01104B13441B78DBB223F00E03FB72FB791A010B4B13449C
:402B4000BA795200D2B252B202F00E0251B297F90B200A4352B2D2B21A700023FB60FB6818461437BD4680BC704700BF1070004080B485B000AF0346FB710B46BB80134678
:402B80007B800123FB60BB8841F6FF72934202D14FF40053BB807B8841F6FF72934202D14FF400537B80FB79172B17D8FB79DB0003F1804303F5EC430433BB60BB68BA88CA
:402BC0001A80FB79DB0003F1804303F5EC430633BB60BB687A881A800023FB60FB6818461437BD4680BC704780B485B000AF03460A46FB711346BB710123FB60FB79172BA4
:402C000007D8FB791A01064B1344BA795A720023FB60FB6818461437BD4680BC704700BF1070004090B484B000AF0446084611461A462346FB710346BB710B467B7113462A
:402C40003B710123FB60FB79172B34D8FB79DB0003F1804303F5EC43BA7902F07F02D1B27A79D201D2B20A43D2B21A70FB79DB0003F1804303F5EC433A7E1201D1B23A793E
:402C800002F00F02D2B20A43D2B25A70FB79DB0003F1804303F5EC433A7F02F00F02D2B29A70FB79DB0003F1804303F5EC430022DA700023FB60FB6818461037BD4690BC0D
:402CC000704700BF80B582B000AFFF23FB7102F097F80346BB71104B1B78182B12D90F4B1B78FB710C4B1B78013BDAB20A4B1A70FB79DB0003F1804303F5F0431B78DAB26E
:402D0000064B1A70BB79184602F07EF8FB7918460837BD4680BD00BF50C1FF1F51C1FF1F90B484B000AF0446084611461A462346FB710346BB800B46BB711346FB7001231B
:402D4000FB6097F90730002B23DBBB8823F47F6323F00F039BB2002B1BD1FB79DB0003F1804303F5F043BB60BB68BA881A80FB79DB0003F1804303F5F043BA799A70FB7916
:402D8000DB0003F1804303F5F043FA78DA700023FB60FB6818461037BD4690BC704700BF80B485B000AF0346FB710B46BB8013467B800123FB6097F90730002B17DBFB79CB
:402DC000DB0003F1804303F5F0430433BB60BB68BA881A80FB79DB0003F1804303F5F0430633BB60BB687A881A800023FB60FB6818461437BD4680BC704700BF80B483B0DB
:402E000000AF0346FB7101BE00BF0C37BD4680BC704700BF80B582B000AF786008E00C4B1B68184601F0E4FF7B68A3F500437B607B68B3F5004FF2D8064B1B687A6802FBE6
:402E400003F3184601F0D4FF00BF0837BD4680BD64C1FF1F5CC1FF1F80B582B000AF0346FB80FB88054A127802FB03F3184601F0BFFF00BF0837BD4680BD00BF60C1FF1F0C
:402E800080B584B000AF03463960FB710F4B1B68FB60FB791F2B02D90020FFF7AFFFFB7903F01F0310339B00FA6813441B68BB60FB7903F01F0310339B00FA6813443A6897
:402EC0001A60BB6818461037BD4680BD08ED00E080B582B000AF03460A46FB711346BB71BB79072B02D90020FFF788FFFB791F2B02D90020FFF782FFFB7903F01F0303F150
:402F0000604303F56443BA795201D2B21A7000BF0837BD4680BD00BF80B485B000AF0346FB710B4B1B78DBB223F01003FB730849FB791B01DBB203F01003DAB2FB7B13431B
:402F4000DBB20B7000BF1437BD4680BC704700BF2051004080B485B000AF0346FB710B4B1B78DBB223F00803FB730849FB79DB00DBB203F00803DAB2FB7B1343DBB20B707F
:402F800000BF1437BD4680BC704700BF6051004080B400AF044B1B78DBB203F00103DBB21846BD4680BC70470151004080B485B000AF0346FB710B4B1B78DBB223F0080344
:402FC000FB730849FB79DB00DBB203F00803DAB2FB7B1343DBB20B7000BF1437BD4680BC704700BFC051004080B485B000AF0346FB71094B1B78DBB203F07F03FB73064955
:40300000FB79DB01DAB2FB7B1343DBB20B7000BF1437BD4680BC70473051004080B485B000AF0346FB710B4B1B78DBB223F00403FB730849FB799B00DBB203F00403DAB2E1
:40304000FB7B1343DBB20B7000BF1437BD4680BC704700BFC051004080B485B000AF0346FB710B4B1B78DBB223F04003FB730849FB799B01DBB203F04003DAB2FB7B1343E9
:40308000DBB20B7000BF1437BD4680BC704700BF3051004080B485B000AF0346FB710B4B1B78DBB223F00803FB730849FB79DB00DBB203F00803DAB2FB7B1343DBB20B702E
:4030C00000BF1437BD4680BC704700BFF051004080B485B000AF0346FB710B4B1B78DBB223F00403FB730849FB799B00DBB203F00403DAB2FB7B1343DBB20B7000BF143774
:40310000BD4680BC704700BFF051004080B485B000AF0346FB710B4B1B78DBB223F00203FB730849FB795B00DBB203F00203DAB2FB7B1343DBB20B7000BF1437BD4680BC42
:40314000704700BFC051004080B485B000AF0346FB710A4B1B78DBB223F00103FB730749FB7903F00103DAB2FB7B1343DBB20B7000BF1437BD4680BC704700BFC051004096
:4031800080B500AF00F042F8044800F00FF8022000F01EF800F02EF800BF80BDA131000080B500AFFDF702FB00BF80BD80B485B000AF7860054B1B68FB60FB6864337A68E7
:4031C0001A6000BF1437BD4680BC704708ED00E080B483B000AF0346FB71054AFB795B01DBB2137000BF0C37BD4680BC704700BF09E400E080B400AF034B4FF400721A60A2
:4032000000BFBD4680BC704700E100E080B400AF034B4FF400721A6000BFBD4680BC704780E100E080B500AF064B1B78002B04D100F00AF8034B01221A7000F02DF800BF39
:4032400080BD00BF2CC9FF1F80B500AF0C4B72221A700C4B20221A700B490220FFF710FE03210220FFF734FE084B06221A70084B47221A70074B02221A7000BF80BD00BFD5
:4032800088650040896500400934000028640040386400408B64004080B582B000AF01F0AFFD0346FB71144A134B1B78DBB243F02003DBB21370114A104B1B78DBB243F0EC
:4032C0001003DBB213700E4A0D4B1B78DBB243F01003DBB213700B4B04221A600A4B04221A6000F0C9F8FB79184601F08DFD00BF0837BD4680BD00BF986500409965004024
:403300009B64004080E200E000E100E080B483B000AF064B1B78DBB203F07F03FB71FB7918460C37BD4680BC704700BF6965004080B483B000AF0023FB710C4B1B78BB7150
:40334000BB7903F02003002B09D0094B1B78FB71BB7903F01E03002B01D00023FB71FB7918460C37BD4680BC704700BF696500404A64004080B483B000AF0346FB711A4BE3
:403380001B78002B2BD0194B04221A60184B1B889AB2184B1B889A420AD1174B1B78DBB203F00403002B03D1144AFB79137013E0104B1B88B3F5806F02D30E4B00221A80FF
:4033C0000C4B1B8819460E4AFB795354094B1B8801339AB2074B1A800A4B04221A6000BF0C37BD4680BC70472CC9FF1F80E100E02EC9FF1F30C9FF1F6B6400404B64004033
:403400001CCAFF1F00E100E080B400AF18E0154B1B889BB2B3F5806F02D3124B00221A80114B104A128892B21146104A525CD2B21A700C4B1B889BB201339AB2094B1A8061
:40344000084B1B889AB20A4B1B889A4206D0094B1B78DBB203F00403002BD8D000BFBD4680BC70472EC9FF1F4B6400401CCAFF1F30C9FF1F6B64004080B400AF094A094BB2
:403480001B78DBB243F00403DBB21370064A064B1B78DBB243F00403DBB2137000BFBD4680BC7047A2430040B243004080B483B000AF0346FB71044AFB79137000BF0C3776
:4034C000BD4680BC704700BF7C64004080B500AF224A224B1B78DBB203F00103DBB213701F4A1F4B1B78DBB223F00303DBB213701C4A1C4B1B78DBB223F03003DBB21370B4
:40350000184A184B1B78DBB243F03003DBB21370144A144B1B78DBB223F00F03DBB21370104A104B1B78DBB243F00F03DBB213700D4A0D4B1B78DBB243F00103DBB21370DE
:4035400040F2DF1000F058F840F2DF1000F066F8082000F041F800BF80BD00BF0C4F00400E4F0040174F00400D4F004080B400AF0D4A0D4B1B78DBB243F00203DBB21370FB
:403580000A4A0A4B1B78DBB243F00203DBB21370074A074B1B78DBB243F00103DBB2137000BFBD4680BC7047A3430040B34300400C4F004080B500AF064B1B78002B04D17C
:4035C000FFF784FF034B01221A70FFF7CFFF00BF80BD00BF33C9FF1F80B483B000AF0346FB71044AFB79137000BF0C37BD4680BC704700BF0F4F004080B485B000AF0346F8
:40360000FB80FB88FB81044AFB89138000BF1437BD4680BC704700BF104F004080B483B000AF0346FB80044AFB88138000BF0C37BD4680BC704700BF124F004080B485B04E
:4036400000AF0346FB710B4B1B78DBB223F01003FB730849FB791B01DBB203F01003DAB2FB7B1343DBB20B7000BF1437BD4680BC704700BF0051004080B500AF00F04AF8A2
:40368000044800F017F8052000F026F800F036F800BF80BD9936000080B500AFFCF7C0FFFEF77AF9FDF70AFDFCF746FFFDF784FC00BF80BD80B485B000AF7860054B1B683F
:4036C000FB60FB6858337A681A6000BF1437BD4680BC704708ED00E080B483B000AF0346FB71054AFB795B01DBB2137000BF0C37BD4680BC704700BF06E400E080B400AFF2
:40370000034B40221A6000BFBD4680BC704700BF00E100E080B400AF034B40221A6000BFBD4680BC704700BF80E100E080B500AF064B1B78002B04D100F00AF8034B01223D
:403740001A7000F02DF800BF80BD00BF34C9FF1F80B500AF0C4B72221A700C4B20221A700B490120FFF78CFB07210120FFF7B0FB084B06221A70084B47221A70074B0222BB
:403780001A7000BF80BD00BF8D6400408E6400407D39000022640040326400408564004080B582B000AF01F02BFB0346FB71144A134B1B78DBB243F02003DBB21370114A67
:4037C000104B1B78DBB243F01003DBB213700E4A0D4B1B78DBB243F01003DBB213700B4B02221A600A4B02221A6000F051F9FB79184601F009FB00BF0837BD4680BD00BFED
:403800009D6400409E6400409564004080E200E000E100E080B483B000AF064B1B78DBB203F07F03FB71FB7918460C37BD4680BC704700BF6E64004080B483B000AF00234C
:40384000FB710C4B1B78BB71BB7903F02003002B09D0094B1B78FB71BB7903F01E03002B01D00023FB71FB7918460C37BD4680BC704700BF6E6400404E64004080B485B01B
:4038800000AF0346FB71264B1B88FB81254B1B88BB81FA89BB899A4208D2FA89BB89013B9A420CBF01230023DBB209E0FA89BB89D31A40F2FF3293420CBF01230023DBB256
:4038C000002BE0D1BA89FB899A420AD1164B1B78DBB203F00403002B03D1144AFB79137019E0FB89B3F5806F01D30023FB81FB890F49FA79CA54FB890133FB81084AFB89A1
:403900001380094B1B78DBB203F00203002B02D0084B02221A6000BF1437BD4680BC704738C9FF1F36C9FF1F65640040456400401CCEFF1F00E200E080B584B000AF7860B2
:403940000B467B800023FB810B4B1B78002B0ED009E0FB897A6813441B781846FFF78EFFFB890133FB81FA897B889A42F1D300BF1037BD4680BD00BF34C9FF1F80B400AFF3
:4039800018E0154B1B889BB2B3F5806F02D3124B00221A80114B104A128892B21146104A525CD2B21A700C4B1B889BB201339AB2094B1A80084B1B889AB20A4B1B889A426E
:4039C00006D0094B1B78DBB203F00403002BD8D000BFBD4680BC704736C9FF1F456400401CCEFF1F38C9FF1F6564004080B500AF00F042F8044800F00FF8072000F01EF847
:403A000000F02EF800BF80BD0D3A000080B500AFFEF798FA00BF80BD80B485B000AF7860054B1B68FB60FB6860337A681A6000BF1437BD4680BC704708ED00E080B483B01A
:403A400000AF0346FB71054AFB795B01DBB2137000BF0C37BD4680BC704700BF08E400E080B400AF034B4FF480721A6000BFBD4680BC704700E100E080B400AF034B4FF466
:403A800080721A6000BFBD4680BC704780E100E080B400AF094A094B1B78DBB243F00803DBB21370064A064B1B78DBB243F00803DBB2137000BFBD4680BC7047A2430040C3
:403AC000B243004080B483B000AF0346FB71044AFB79137000BF0C37BD4680BC704700BF7B64004080B500AF00F042F8044800F00FF8022000F01EF800F02EF800BF80BD20
:403B0000053B000080B500AFFEF766F800BF80BD80B485B000AF7860054B1B68FB60FB6868337A681A6000BF1437BD4680BC704708ED00E080B483B000AF0346FB71054AAB
:403B4000FB795B01DBB2137000BF0C37BD4680BC704700BF0AE400E080B400AF034B4FF480621A6000BFBD4680BC704700E100E080B400AF034B4FF480621A6000BFBD4608
:403B800080BC704780E100E080B500AF064B1B78002B04D100F00AF8034B01221A7000F02DF800BF80BD00BF3CC9FF1F80B500AF0C4B72221A700C4B20221A700B49032036
:403BC000FFF75EF907210320FFF782F9084B06221A70084B47221A70074B02221A7000BF80BD00BF896400408A6400406D3D000024640040346400408364004080B582B083
:403C000000AF01F0FDF80346FB71144A134B1B78DBB243F02003DBB21370114A104B1B78DBB243F01003DBB213700E4A0D4B1B78DBB243F01003DBB213700B4B08221A60AC
:403C40000A4B08221A6000F0E9F8FB79184601F0DBF800BF0837BD4680BD00BF996400409A6400409364004080E200E000E100E080B483B000AF064B1B78DBB203F07F0336
:403C8000FB71FB7918460C37BD4680BC704700BF6A64004080B483B000AF0023FB710C4B1B78BB71BB7903F02003002B09D0094B1B78FB71BB7903F01E03002B01D00023FD
:403CC000FB71FB7918460C37BD4680BC704700BF6A6400404965004080B483B000AF0346FB711A4B1B78002B2BD0194B08221A60184B1B889AB2184B1B889A420AD1174B30
:403D00001B78DBB203F00403002B03D1144AFB79137013E0104B1B88B3F5006F02D30E4B00221A800C4B1B8819460E4AFB795354094B1B8801339AB2074B1A800A4B082275
:403D40001A6000BF0C37BD4680BC70473CC9FF1F80E100E03EC9FF1F40C9FF1F63640040436400401CD2FF1F00E100E080B400AF18E0154B1B889BB2B3F5006F02D3124BF2
:403D800000221A80114B104A128892B21146104A525CD2B21A700C4B1B889BB201339AB2094B1A80084B1B889AB20A4B1B889A4206D0094B1B78DBB203F00403002BD8D064
:403DC00000BFBD4680BC70473EC9FF1F436400401CD2FF1F40C9FF1F6364004080B483B000AF0346FB71044AFB79137000BF0C37BD4680BC704700BF7965004080B483B07C
:403E000000AF0346FB71044AFB79137000BF0C37BD4680BC704700BF7F64004080B400AF094A094B1B78DBB243F00203DBB21370064A064B1B78DBB243F00203DBB2137004
:403E400000BFBD4680BC7047A2430040B243004080B500AF214A214B1B78DBB203F00103DBB213701E4A1E4B1B78DBB223F00303DBB213701B4A1B4B1B78DBB223F0300306
:403E8000DBB21370174A174B1B78DBB243F03003DBB21370134A134B1B78DBB223F00F03DBB213700F4A0F4B1B78DBB243F00F03DBB213700C4A0C4B1B78DBB243F001035D
:403EC000DBB21370EF2000F057F8EF2000F066F8082000F041F800BF80BD00BF004F0040024F00400B4F0040014F004080B400AF0D4A0D4B1B78DBB243F00103DBB21370B8
:403F00000A4A0A4B1B78DBB243F00103DBB21370074A074B1B78DBB243F00103DBB2137000BFBD4680BC7047A3430040B3430040004F004080B500AF064B1B78002B04D1FF
:403F4000FFF786FF034B01221A70FFF7CFFF00BF80BD00BF43C9FF1F80B483B000AF0346FB71044AFB79137000BF0C37BD4680BC704700BF034F004080B485B000AF034668
:403F8000FB80FB88FB81044AFB89138000BF1437BD4680BC704700BF044F004080B483B000AF0346FB80044AFB88138000BF0C37BD4680BC704700BF064F004080B500AF62
:403FC00000F044F8044800F011F8042000F020F800F030F800BF80BDDD3F000080B500AFFDF7CCFCFDF75AF800BF80BD80B485B000AF7860054B1B68FB60FB6854337A6828
:404000001A6000BF1437BD4680BC704708ED00E080B483B000AF0346FB71054AFB795B01DBB2137000BF0C37BD4680BC704700BF05E400E080B400AF034B20221A6000BF0B
:40404000BD4680BC704700BF00E100E080B400AF034B20221A6000BFBD4680BC704700BF80E100E080B500AF224A224B1B78DBB203F00103DBB213701F4A1F4B1B78DBB251
:4040800023F00303DBB213701C4A1C4B1B78DBB223F03003DBB21370184A184B1B78DBB243F03003DBB21370144A144B1B78DBB223F00F03DBB21370104A104B1B78DBB252
:4040C00043F00F03DBB213700D4A0D4B1B78DBB243F00103DBB2137040F2AF4000F058F840F2AF4000F066F8082000F041F800BF80BD00BF184F00401A4F0040234F004077
:40410000194F004080B400AF0D4A0D4B1B78DBB243F00403DBB213700A4A0A4B1B78DBB243F00403DBB21370074A074B1B78DBB243F00103DBB2137000BFBD4680BC704709
:40414000A3430040B3430040184F004080B500AF064B1B78002B04D1FFF784FF034B01221A70FFF7CFFF00BF80BD00BF44C9FF1F80B483B000AF0346FB71044AFB79137046
:4041800000BF0C37BD4680BC704700BF1B4F004080B485B000AF0346FB80FB88FB81044AFB89138000BF1437BD4680BC704700BF1C4F004080B483B000AF0346FB80044ACC
:4041C000FB88138000BF0C37BD4680BC704700BF1E4F004080B500AF00F08CF8044800F059F8072000F068F800F078F800BF80BDF541000080B500AF254B1B78002B02D172
:40420000FCF74CFA0CE0224B1B78012B02D1FDF705FC05E01E4B1B78022B01D1FCF782FF1B4B9B78492B03D0194B9B78422B06D1012000F0EDFD012000F008FE26E0144B1F
:404240009B78572B06D1012000F0E2FD012000F0FDFD1BE00E4B9B78502B06D1012000F0D7FD002000F0F2FD10E0094B9B78462B06D1002000F0CCFD012000F0E7FD05E0E8
:40428000002000F0C5FD002000F0E0FD00BF80BD1CDAFF1F80B485B000AF7860054B1B68FB60FB685C337A681A6000BF1437BD4680BC704708ED00E080B483B000AF03468F
:4042C000FB71054AFB795B01DBB2137000BF0C37BD4680BC704700BF07E400E080B400AF034B80221A6000BFBD4680BC704700BF00E100E080B400AF034B80221A6000BF13
:40430000BD4680BC704700BF80E100E080B400AF054B1B78DBB203F00803DB08DBB21846BD4680BC704700BF4151004080B500AF00F030F9022000F07FF9042000F09CF9B1
:40434000FEF7C0FC03461A46084B1A70FEF7BAFC03461A46064B1A706421064800F04EF86421054800F07EF800BF80BD48C9FF1F49C9FF1F484F0000AC4F000080B500AFC5
:4043800000F026F9084B1B7801211846FEF748FB064B1B7801211846FEF742FB002000F08BF900BF80BD00BF46C9FF1F47C9FF1F80B500AF064B1B78002B04D1FFF7B6FF9D
:4043C000034B01221A70FFF7D9FF00BF80BD00BF45C9FF1F80B500AF064B1B781846FEF765FB054B1B781846FEF760FB00F00AF900BF80BD46C9FF1F47C9FF1F80B582B050
:4044000000AF78600B467B807B681B0C9AB24FF480430121012000F059F803461A460F4B1A700F4B18780E4B1A7879880123FEF777FC0B4B1B787A6891B245F6823218467F
:40444000FEF7AEFC054B1A78054B1B7819461046FEF7CAFB00BF0837BD4680BD46C9FF1F48C9FF1F80B582B000AF78600B467B807B681B0C9AB24FF480430121012000F006
:4044800057F803461A460F4B1A700F4B18780E4B1A7879880123FEF743FC0B4B1B787A6891B245F682321846FEF77AFC054B1A78054B1B7819461046FEF796FB00BF08372E
:4044C000BD4680BD47C9FF1F49C9FF1F90B585B002AF0446084611461A462346FB710346BB710B46BB8013467B80104B00221A700E4B1878BA79F979002301930023009378
:404500000023FEF78FFB094B1B787A88B9881846FEF72EFB054B1B7802211846FEF7F6FA024B1B7818460C37BD4690BD68C1FF1F90B585B002AF0446084611461A462346EF
:40454000FB710346BB710B46BB8013467B80104B01221A700E4B1878BA79F97900230193002300930023FEF75DFB094B1B787A88B9881846FEF7FCFA054B1B780221184630
:40458000FEF7C4FA024B1B7818460C37BD4690BD69C1FF1F80B500AF0A4B00221A700A4B00221A70094A094B1B78DBB243F00803DBB21370002000F05FF8022000F03CF887
:4045C00000BF80BD2858004029580040975A004080B400AF094A094B1B78DBB243F00403DBB21370064A064B1B78DBB243F00403DBB2137000BFBD4680BC7047A84300402E
:40460000B843004080B400AF094A094B1B78DBB223F00403DBB21370064A064B1B78DBB223F00403DBB2137000BFBD4680BC7047A8430040B843004080B483B000AF034606
:40464000FB710C4A0B4B1B78DBB223F00203DBB213700849074B1B78DAB2FB7903F00203DBB21343DBB20B7000BF0C37BD4680BC704700BF2858004080B582B000AF0346EB
:40468000FB710C4A0B4B1B78DBB223F00C03DBB213700849074B1B78DAB2FB7903F00C03DBB21343DBB20B7000F016F800BF0837BD4680BD2858004080B483B000AF034612
:4046C000FB71044AFB79137000BF0C37BD4680BC704700BF825B004080B483B000AF0B4B1B78DBB203F00C039B08DBB20633FB71074AFB7903F1924303F594731B78DBB225
:40470000137000BF0C37BD4680BC7047285800400A46004080B500AF214A214B1B78DBB203F00103DBB213701E4A1E4B1B78DBB223F00303DBB213701B4A1B4B1B78DBB2C7
:4047400023F03003DBB21370174A174B1B78DBB243F03003DBB21370134A134B1B78DBB223F00F03DBB213700F4A0F4B1B78DBB243F00F03DBB213700C4A0C4B1B78DBB285
:4047800043F00103DBB21370042000F057F8042000F066F8082000F041F800BF80BD00BF244F0040264F00402F4F0040254F004080B400AF0D4A0D4B1B78DBB243F0080307
:4047C000DBB213700A4A0A4B1B78DBB243F00803DBB21370074A074B1B78DBB243F00103DBB2137000BFBD4680BC7047A3430040B3430040244F004080B500AF064B1B78FC
:40480000002B04D1FFF786FF034B01221A70FFF7CFFF00BF80BD00BF4AC9FF1F80B483B000AF0346FB71044AFB79137000BF0C37BD4680BC704700BF274F004080B485B06C
:4048400000AF0346FB80FB88FB81044AFB89138000BF1437BD4680BC704700BF284F004080B483B000AF0346FB80044AFB88138000BF0C37BD4680BC704700BF2A4F00403D
:4048800080B500AF00F05CF8044800F029F8072000F038F800F048F800BF80BDA148000098B500AF0C4B1B881C4600F03FF903469AB20A4B23F81420074B1B8801339AB2E9
:4048C000054B1A80044B1B88642B02D9024B00221A8000BF98BD00BF4CC9FF1F50C9FF1F80B485B000AF7860054B1B68FB60FB6850337A681A6000BF1437BD4680BC7047CC
:4049000008ED00E080B483B000AF0346FB71054AFB795B01DBB2137000BF0C37BD4680BC704700BF04E400E080B400AF034B10221A6000BFBD4680BC704700BF00E100E017
:4049400080B400AF034B10221A6000BFBD4680BC704700BF80E100E080B500AF064B1B78002B04D100F00AF8034B01221A7000F029F800BF80BD00BF18CAFF1F80B500AF40
:40498000102000F031F907210020FEF7A1FA0A490020FEF775FA094A084B1B78DBB243F00603DBB213700C2000F086F8044B00221A8000BF80BD00BFDD4B000001590040CA
:4049C00022DAFF1F80B582B000AF00F019FA0346FB712E4A2D4B1B78DBB243F00103DBB213702B4A2A4B1B78DBB243F00103DBB21370284A274B1B78DBB243F00103DBB25F
:404A00001370254A244B1B78DBB243F00103DBB21370224B1B78BB71BB7943F00203BB71BB7943F00103BB711C4ABB7913701C4B18221A701B4A1B4B1B78DBB243F04003AA
:404A4000DBB21370174A174B1B78DBB223F00303DBB21370144BC8221A70144B02221A70134A134B1B78DBB243F00803DBB213700A20FEF7F1F90F4B01221A60FB7918463F
:404A800000F0C2F900BF0837BD4680BDAB430040BB430040A1430040B14300400359004006590040055900400059004014460040275B004080E200E080B584B000AF0346D8
:404AC000FB71FB790A2B07D00C2B02D0082B06D008E0C223FB730BE08223FB7308E04223FB7305E0C223FB730020FEF787F900BF054AFB7B1370FB79184600F02FF800BF48
:404B00001037BD4680BD00BF0259004080B400AF054A054B1B78DBB243F00103DBB2137000BFBD4680BC70470059004080B483B000AF084B1B88FB80074B1B881BB29BB2C7
:404B4000FA88D31A9BB21BB218460C37BD4680BC704700BFA05B004020DAFF1F80B584B000AF0346FB71FB790A2B08D00C2B02D0082B08D00BE04FF48053FB600DE04FF415
:404B80008063FB6009E04FF48073FB6005E00023FB600020FEF732F900BF0C4B00221A80FB6842F2107202FB03F303F6C413084A82FB0312D212DB17D31A064A1360064B31
:404BC00000221A8000BF1037BD4680BD24DAFF1FAD8BDB6828DAFF1F20DAFF1F80B400AF00BFBD4680BC704780B483B000AF0346FB710949084B1B78DBB25AB297F90730E9
:404C000023F007035BB213435BB2DBB20B7000BF0C37BD4680BC70470241004080B485B000AF0346FB71094B1B78DBB203F07F03FB730649FB79DB01DAB2FB7B1343DBB2BC
:404C40000B7000BF1437BD4680BC7047F051004080B485B000AF0346FB710A4B1B78DBB223F00103FB730749FB7903F00103DAB2FB7B1343DBB20B7000BF1437BD4680BC0D
:404C8000704700BF5051004080B485B000AF0346FB710B4B1B78DBB223F04003FB730849FB799B01DBB203F04003DAB2FB7B1343DBB20B7000BF1437BD4680BC704700BF53
:404CC000F051004080B485B000AF0346FB710A4B1B78DBB223F00103FB730749FB7903F00103DAB2FB7B1343DBB20B7000BF1437BD4680BC704700BFF051004080B485B0A8
:404D000000AF0346FB710B4B1B78DBB223F00203FB730849FB795B00DBB203F00203DAB2FB7B1343DBB20B7000BF1437BD4680BC704700BF5051004080B485B000AF03460D
:404D4000FB710B4B1B78DBB223F00403FB730849FB799B00DBB203F00403DAB2FB7B1343DBB20B7000BF1437BD4680BC704700BF5051004080B485B000AF0346FB710B4BBF
:404D80001B78DBB223F00803FB730849FB79DB00DBB203F00803DAB2FB7B1343DBB20B7000BF1437BD4680BC704700BF5051004080B400AF054B1B78DBB203F08003DB096F
:404DC000DBB21846BD4680BC704700BF6151004080B483B000AF0346FB71044AFB79137000BF0C37BD4680BC704700BF7A6400400230800803D000BF01380046FCD17047ED
:404E0000EFF3108072B6704780F31088704700BF80B485B000AF0346FB710B4B1B78DBB223F04003FB730849FB799B01DBB203F04003DAB2FB7B1343DBB20B7000BF14370B
:404E4000BD4680BC704700BF0051004080B485B000AF0346FB71094B1B78DBB203F07F03FB730649FB79DB01DAB2FB7B1343DBB20B7000BF1437BD4680BC70470051004038
:404E8000014B1868704700BFCCC1FF1F0E4B70B51E460E4C0025E41AA410A54204D056F8253098470135F8E700F0B4F8084B094C1E46E41AA4100025A54204D056F82530C3
:404EC00098470135F8E770BD2050000020500000205000002850000010B5431E0A44914204D011F8014B03F8014FF8E710BD03460244934202D003F8011BFAE7704700007D
:404F000000000000004F0040300000000140000E800E0140800100140140800400190140000300400140000A004C01400002005001402000000E0140100B00488000801848
:404F40000140900B00488000BEBEBEBEBEBEBEBEBEBEBEBEBEBEBEBEBEBEBEBEBEBEBEBEBEBEBEBEBEBEBEBEBEBEBEBEBEBEBEBEBEBEBEBEBEBEBEBEBEBE414141414141EB
:404F8000414141414141414141414141414141414141414141414141414141414141414141414141414141414141414180848A8F94989EA2A8ACB2B6BCC0C6CAD0D5DADE17
:404FC000E4E8EEF2F8FCF8F2EEE8E4DEDAD4D0CAC6C0BCB6B2ADA8A29E98948F8A84807A76706B66615D58534E49443E39342F2A25211C17120D0803080D12171C21252AD9
:405000002F34393E44494E53585D61666B70767A43000000F8B500BFF8BC08BC9E4670474D00000031290000F8B500BFF8BC08BC9E4670472900000048500000C8C0FF1FD2
:405040000801000060180000000000003200DC05640032003200320032003200320000007E50080D0A7E440F0D0A7E48050D0A7E53030D0A2447504D524300003200320069
:405080003200F401320032003200320032003200320000002447504D524300007E410A0D0A7E4C6F0D0A00007E33030D0A0000000D0F0E0C020100031D1F1E1C0B08090AFB
:4050C0001B18191A050706041310111214161715807F000003000000006CDC0280BB0000300000000000C05DFFFF00000000000000000000000000000000000000000000C6
:40510000000000000000000000000000105000000000000000000000000000000000000000000000000000000000000000000000000000000000000000000000000000000F
:405140000000000000000000000000006CC1FF1F000000000000000000000000000000000000000000000000000000000000000000000000000000000000000000000000E4
:4051800000000000000000000000000000000000000000000000000000000000000000000000000000000000000000000000000000000000000000000000000000000000EF
:4051C00000000000000000000000000000000000000000000000000000000000000000000000000000000000000000000000000000000000000000000000000000000000AF
:40520000000000000000000000000000000000000000000000000000000000000000000000000000000000000000000000000000000000000000000000000000000000006E
:40524000000000000000000000000000000000000000000000000000000000000000000000000000000000000000000000000000000000000000000000000000000000002E
:020000040001F9
:0200000480007A
:40000000084F004003520040015A00400764004002650040030101406B0201403803014062040140490501400C0701405C0801404F0901405A0A01404B0B0140440C0140A3
:400040003F0D01400C0E0140340F01400615014004160140081701400B18014053190140521A01404F1B0140104001400F4101401842014004430140074401401445014029
:4000800011460140064701400B48014002490140084C0140134D0140095001400451014001500A360D5016361950223625402E361002118021809701830F850F89728A3811
:4000C0008B0F8D728E38887289388E01E204E6400103030C0410089C09030A020B040C200E03110313041708190A1B041E4020CC221123052409261028142CD02E0C310FD6
:4001000032C03420361F38083B023E144003474049FF4A074BFF4C404D204EF04F055008580459045A045C335D035F01604061A8624063208208840A86348F0290339118C2
:400140009204930398809B099F06A003A214A440A516A615A701A833A918AA0CAB05B010B107B280B318B40FB660B880B908BA20BB02BE05BF04C062C105C5EEC60CC70BF2
:40018000C817C9FFCAFFCBFFCEF0CF44D00CD401D604D804D904DA04DB04DC11DD11DF01E6C0EA40EB02010803800424054009020B080F0110A41606174519241A401B8036
:4001C0001D481F2020402102220A2740280429282D01302031223380372538803E023F204120450849224A024B084D014F015084570259065A405B1062018C048F029E0187
:40020000C0ECC28AC4FECA86CCEDCEA8D044D20CD60FD801E802023004300514060C0C040D0C0E380F1110021240130315101640170C18431C431D10210922412310251CCB
:40024000260C270228042A182E203003311F323C344038023A083E114006460449FF4A074BFF4C404D204EF04F055008580459045A045C115D015F01604061A862406320D1
:40028000815183868B409151930E978C9801998C9B53A120A343AF08B140B30FB401B530B78AB920BB88BE10BF01C014C105C5EEC6C0C70BC81BC9FFCAFFCBFFCEF0CF44FC
:4002C000D00CD401D604D804D904DA04DB04DC30DD33DF01E6C0EA40EB0200400108038004800601080A09100A010F0810241201130219281A801E082102242027A52908DF
:400300002B802C402D012F02308431023602372538483E123F20444046024A084E024F0950E0560457105E185F8167408008874089208D109048910194A098049A029D08D9
:400340009E049F25A208A382A420A710A880AB30C00DC24FC40FCA93CCEBCEAAD090D214D6F0D880E080E248E605EE08870296019C029F02A510AA40AD02E220E602E8023D
:40038000EC01EE04014F039005FF0660086009410A190DF30F0C1340154C17A3190C1A401D022009210822702404250428022A182BB32C092D032E30318C32043478357C83
:4003C0003603370F38803A203BA23E044001470449FF4A074BFF4C404D204EF04F055008580459045A045C225D025F01604061A862406320810283018478860589078A0829
:400400008C088D04907F9101930294789507960398109C4F9E30A020A830AE06B040B104B43EB601B703B880BA20BE01D602D713D804D904DB04DC11DD10DF01005405101D
:40044000062009A80A800F0810881340140415801650180619211D141F502341254127092E0A2F093102320435403601372839603B013DA23E0447404D045504570458084E
:40048000590569606A0870DC71207804790484028504888089408A208B4491809204930494029602970A98209A119B509C0C9D109E249F01A110A211A6A8A78CAB42AC01E3
:4004C000AD20B310C067C24FC4FBCAF0CCF3CEFDD010D601E220EA0CEE040A080E021003120416041A012208240626013007320834073E054043410242014405450E47C0FA
:40050000482149FF4AFF4BFF4C624DA04EF04F41500C5418560458045A045B045C035D125F016640670269106A306B106D106E106F1284098610881C8A028B019020920368
:400540009410960C9810A014A420A80CAA11AB01AC20AF02B01FB103B420BE10BF01C032C106C5E0C6EBC7C0C82EC9FFCAFFCBFFCEF0CF44D00CD401D604D804D904DA04BE
:40058000DB04DC02DD22DF01E6C0EA40EB02020403020510062009200A800B200D080E800F081280130815501640170418101A481B011C081E8026022F053D20420443993E
:4005C000440445084A024B044D114E08520156525A025C285D015F40608667806A806B086C046D406F0480A08202840487408B408C128D489004940A954096489B109C0127
:40060000A110A211A660A701AF80B740C063C27EC4FCCA30CE20D06FD228D6F1D88DE0A0E240E41204020601070109030B040D050F02100313021F042C012E023002310715
:40064000350736013B083E413F105608580459045B045C205D905F01806682118302847F857D897D8D088E198F14902094799550960697289A209B029C669D019E09A00490
:40068000A402A806AD24AF48B03EB11CB240B360B502B607B701BAA2BE04BF10D602D712D804D904DB04DC33DD30DF01010202020320040808800A690E8010A815401926E5
:4006C0001A011B201F8220C622882510261127102B01326834023580384239143D803E1848014A0259045F40640269146A806D806E1070A871C887028E08922093409640B1
:4007000099809B409C819D62A469A588A68AA720AFC0B410B721C02DC21FC48ECA08CC9ECE7FD612D810E008EE02890391029301AD03B102B301BF05D608D904DB04DD9087
:40074000DF01008001100320082009880A401060120A181019011A2420042140220123202420274028E029602C01302832813701384839903B023E104070420448014920C3
:400780004B02500459015F806004638165806E106F0183408912C007C20FC40FCA1FCC8FCE2FD007D20CD611D81D8110A510AB04AE01E201EA08B888BE44D804DF011A1206
:4007C0001B04821086019601A510AC02EE02180124012C0132015602571258045B045C025D205F01002001010212084009100A400B100E08108911041540170419081A8097
:400800001B021F08205121222804299A3088312239A43B0140094302480449404A204B4052045A015E0460846302688869846A406D506E086F0474407510760A77208410E8
:40084000880989018A808D218F4890A8912093E594509682970A982299229A019B199C809E4E9F20A105A210A58AA6A8A788AF10B102B204C00FC24FC4AFCA0BCC0FCE0F39
:40088000D00DD20CD641D80DE208010A02010417053009100A200C040D201011110512061402153C17C31A201DFF1E082006210F2211240725CF26102730280629702B8FF7
:4008C0002E082FCF30083103321033B03420353C3607377038083B283E11580459045C125F01820384838702888089188A038B238C0B8E1493299425951896489725987C0F
:4009000099189B209C809E03A083A306A452A516A628A721A87CB01CB260B307B480B53CB603BB28BE10D804D904DC22DF01008003580440075808840A400B040C800E2874
:400940001080110212011328151016201701180419801B891C401E051F052008210822A124102608270429652E202F54310A32403422370438A83B013C103D084240430166
:400980005C805D80818482208304871090A89110928093A594049607971A982699619A019B79A040A107A214A404A588A688A781AA02AC40AE58B180B510C0FFC2EFC47F99
:4009C000CACFCCEBCE6FE208EA03EE08078030023320364838403D105380630883088E08C020CCF0CE30D420D840E22030083280348037083B20944095109B08A402A64067
:400A0000A7A4AF80CCF0CE10E8401008128014801510324082408402864089108F209440951097209C80A40AA6C0A720AB04AF80C4F0CC10E210E6C0EE308B109720A840CA
:400A4000EE2009040F4013027002C20CC408DC01010103080A0152205710600484028F0890049340A104A402AF02B404C00AC202D406D802E208EC021A201B0433808620B5
:400A80008B808E10910192019340A104A620B710C608CC08E001E202E8089101A904AB04AE01B340EA0467206B206F20730283208712D880DAC0DC20E280E640AB20EE20ED
:400AC0000A010C2087108A018B019101C203E60508200B800D100F10130117018740952097119C209F01AB01AC20AD10B101B420C20FC40CEE09000E0101080A0A0A0C0E91
:400B00000E0C0F0110061C0600FF01AB023F100100000002CF0000010C38C304C3002001410010020C300000C3100C00080000080F30C00C040C0030823C10000020C3001B
:400B4000C0040F013002003800020800000010143506040002E0000C12FFFFFF62A0F0410C0000001800040004040404333300010000000000004002001030100010101237
:400B800000000000000000000000000000000000004080180001010000700400000120005520AA180001080000104064000102003F70C000C3003C02CC003300000010014F
:400BC0000003FF030070000C000002000000044165040200010E000C11FFFFFF62A0F0410C0000001800040004040404112100010000000000004002001030100010101237
:400C00000000000000000000000000000000000001D1D000000000001000D02F2F002000000000000000C00D0D00000000000000C000000000000400459A9A008A00000013
:400C400000C0C000000000000A89810081000000F00F0F0000000000B0880800000000001D00180100000000000000000000000000000000000000000000000000000000DB
:400C80000000000000000000000000000000000000000000000000000000000000000000000000000000000000000000000000000000000000000000000000000000000034
:400CC00000000000000000000000000000000000000000000000000000000000000000000000000000000000000000000000000000000000000000000000000000000000F4
:400D000000000000000000000000000000000000000000000000000000000000000000000000000000000000000000000000000000000000000000000000000000000000B3
:400D40000000000000000000000000000000000000000000000000000000000000000000000000000000000000000000000000000000000000000000000000000000000073
:0200000490006A
:0400000000004003B9
:0200000490105A
:04000000BC90ACAF55
:0200000490303A
:020000002DCE03
:0200000490402A
:400000005555555555555555555555555555555555555555555555555555555555555555555555555555555555555555555555555555555555555555555555555555555580
:400040005555555555555555555555555555555555555555555555555555555555555555555555555555555555555555555555555555555555555555555555555555555540
:0200000490501A
:0C00000000012E16C06900012E39EE37F9
:00000001FF