:400000000040002011000000C11D0000C11D000080B500AF024A034B1B68136001F0DAFEBC760040FA46004010B5054C237833B9044B13B10448AFF300800123237010BDC2
:4000400080C1FF1F00000000483B0000084B10B51BB108490848AFF300800848036803B910BD074B002BFBD0BDE81040184700BF0000000084C1FF1F483B0000C8C0FF1FCC
:400080000000000080B500AF00F02EF862B6154B01221A70134B1B78012B0DD0022B15D0002B1DD10F4B00225A7000BF00F03EF80346002BFAD013E00A4B00225A7000BFA0
:4000C00000F020FE0346002BFAD009E0054B00225A7000BF00F04EFB0346002BFAD000BFD5E700BF7CCDFF1F80B500AF012002F0C7FB02F063FD02F00FFD02F0FDF902F0D5
:40010000A9F902F09FFF02F0E1FF02F04BFC02F0ABFC02F08BFE02F0CDFE03F0B3FA03F061FB03F0F3FA00BF80BD00BF80B500AF254B1B78082B43D801A252F823F000BF33
:40014000650100006D010000C101000087010000C1010000C1010000C1010000C1010000C1010000184B01221A7029E000F07AFA00BF002000F08AFA0346002BF9D0124B2D
:4001800003221A701CE000F027F803461A460F4B1A700F4B1B781A460C4B1B7899B20D4B23F812100A4B1B780133DAB2084B1A70074B1B78C72B02D9054B00221A7000BFEF
:4001C0000023184680BD00BF60C3FF1FBCC1FF1F50C3FF1FC0C1FF1F80B500AF00F00AF80246034B1A60024B1B685B79184680BDA4C1FF1F80B400AF044B054A1A60034BE5
:400200001B681846BD4680BC704700BFA4C1FF1F9CC1FF1F80B582B000AF0023FB710FE0FB795B00FA790F49895C0F4AD154FB795B0001330C4A2021D154FB790133FB71C6
:40024000FB79072BECD91021074802F0A5FA0D2002F044FA0A2002F041FA00BF0837BD4680BD00BF58C3FF1F64C3FF1F80B400AF144B1B8801339AB2124B1A80114B1B8878
:40028000322B0DD90F4B00221A800F4B1B88012B11D10E4B1B781A460D4B462199540AE0084B1B884FF6E852934206D9054B00221A8000BF01E000BF00E000BFBD4680BC86
:4002C000704700BF52C3FF1F54C3FF1F60C3FF1F58C3FF1F80B500AFFFF79CFF00BF80BD80B582B000AF0023FB7102F08BF90346FB71114B1B781946104AFB7953540E4B49
:400300001B780133DAB20C4B1A700B4B1B78632B02D9094B00221A70FB79184600F010F802F05EF9034603F02003002BDDD100BF0837BD4680BD00BFB8C3FF1FBCC3FF1FB9
:4003400080B582B000AF0346FB719C4B1B78012B78D0022B00F09780002B00D070E1984B1B78002B20D1974B1B78FA799A420ED0944B5B79FA799A4209D0924B9B7AFA79D0
:400380009A4204D08F4BDB7BFA799A420CD18C4B1B7819468C4AFB795354894B1B780133DAB2874B1A704CE0854B1B78012B41D1844B5B78FA799A420ED0824B9B79FA7904
:4003C0009A4209D07F4BDB7AFA799A4204D07D4B1B7CFA799A422DD1794B1B7819467A4AFB795354764B1B780133DAB2744B1A70724B01221A70734B9B79FA799A4203D109
:40040000724B01221A701CE06E4BDB7AFA799A4203D16E4B02221A7013E06A4B1B7CFA799A4203D1694B03221A700AE0674B00221A7006E0624B00221A70644B00221A7017
:40044000FEE0FDE05E4B1B7819465F4AFB7953545B4B1B780133DAB2594B1A70584B1B7818465A4B1B781946564A0B469B000B44134402331B7802339842C0F2E0804F4B5B
:4004800002221A70DBE04E4B1B7818464F4B1B7819464C4A0B469B000B44134402331B780233984219D1494B1B781946454A0B469B000B44134403331B78FA799A420CD138
:4004C0003F4B1B781946404AFB7953543C4B1B780133DAB23A4B1A70B0E0394B1B7818463A4B1B781946374A0B469B000B44134402331B780333984240F09680334B1B7834
:400500001946304A0B469B000B44134404331B78FA799A4240F08880294B1B7819462A4AFB795354294B1B78002B14D1FFF762FE0246274B1A60264B1B681846214B9B7898
:400540001A46244903F0ECFA234B1B8801339AB2214B1A805EE01D4B1B78012B14D100F011FF02461D4B1A601C4B1B681846154BDB791A46174903F0D3FA174B5B880133D5
:400580009AB2154B5A8045E0104B1B78022B29D100F008FF0246124B1A60114B1B681846084B1B7B1A460B4903F0BAFA0A4B9B8801339AB2084B9A802CE000BF20C4FF1FB2
:4005C00021C4FF1FCCC0FF1F24C4FF1F37C4FF1F84C3FF1F26C4FF1F74C3FF1F98C3FF1FA4C3FF1F184B1B78032B13D100F0DAFE0246164B1A60154B1B681846144B5B7C05
:400600001A46144903F08CFA134BDB8801339AB2114BDA80114B00221A70114B00221A70094B00221A7009E00C4B00221A700C4B00221A70044B00221A7001E000E000BF13
:4006400000BF0837BD4680BD37C4FF1FA4C3FF1FCCC0FF1F26C4FF1F74C3FF1F21C4FF1F20C4FF1F80B400AF074B00221A80064B00225A80044B00229A80034B0022DA80FF
:4006800000BFBD4680BC704774C3FF1F80B483B000AF0346FB71FB79084A32F81320084B1A80074B1B88042B01D9012300E0002318460C37BD4680BC704700BF74C3FF1F85
:4006C00038C4FF1F80B500AF00F04CFE0246274B1A60264B1B687E2283F83C20234B1B68532283F83D20214B1B680D2283F841201E4B1B680A2283F842201C4B1B687E226C
:4007000083F84320194B1B68502283F84420174B1B680D2283F84D20144B1B680A2283F84E207E2001F090FF492001F08DFF104B00221A800DE00D4B1B680D4A12889B5CE5
:40074000184601F081FF0A4B1B8801339AB2084B1A80074B1B884E2BEDD90D2001F074FF0A2001F071FF00BF80BD00BF3CC4FF1F40C4FF1F80B582B000AFA74B5B780A2BEA
:4007800000F2458101A252F823F000BFB9070000E3070000EB07000001080000470800008D080000B1080000010900000909000047090000070A00000023FB7106E0FB791A
:4007C000964A5F21D154FB790133FB71FB790A2BF5D94FF47A7001F0BBFD8F4B09225A7015E18D4B02225A7011E100F053FA0220FFF74CFF00F068FA874B03225A7006E1FC
:4008000000F0B0FD0246864B1A60854B1B68012283F83E20804B5B781A46804B4221995440F6B83001F094FD00F0DCF97C4B1B68002283F83E204FF47A7001F089FD764B11
:4008400004225A70E3E000F08DFD0246744B1A60734B1B68012283F83F206F4B5B781A466E4B4221995440F6B83001F071FD00F0B9F96B4B1B68002283F83F204FF47A7015
:4008800001F066FD644B05225A70C0E000F06AFD0246634B1A60624B1B68012283F84B2000F0D0F900F09EF95B4B06225A70AEE0594B5B781A46594B572199540EE000F080
:4008C000C1F9584B1B78002B08D0534B5B781A46524B50219954534B00221A704E4B5B781A464E4B9B5C502B06D04B4B5B781A464A4B9B5C462BE2D1474B07225A7086E0DE
:40090000454B08225A7082E000F02CFD0246444B1A60434B1B68162283F83E20404B1B68162283F83F203C4B5B781A463B4B4221995440F6B83001F00BFD00F053F9364BC1
:4009400009225A7063E000F04DF900F0A3F900F009FD0246324B1A60314B1B68012283F83F2000F00FFD02462F4B1A6002E0002002F05CF82C4B1B685B79002B04D12A4B89
:400980001B689B79002BF2D0002002F04FF8244B1B68002283F83F2000F096F900BF224B1B685B79002BFAD100F074F900F0DAFC02461B4B1A601A4B1B68012283F83E2045
:4009C00000F0E0FC0246184B1A6000BF164B1B685B79012B06D0104B5B781A460F4B9B5C462BF3D10E4B1B68002283F83E2000F06BF900BF0C4B1B689B79002BFAD1064B5A
:400A00000A225A7003E0044B00225A7000BF002318460837BD4680BD7CCDFF1FF8C4FF1F54C5FF1FF5C4FF1F68C5FF1F80B500AF02F0B2FB03461A462B4B1A702A4B1A7816
:400A40002A4B1B789A4206D1294B1B780133DAB2274B1A7002E0264B00221A70244B1B78022B06D9204B1A78224B1A70204B00221A701D4B1A781D4B1A701E4B1B78012BCC
:400A800009D11D4B01221A701C4B1B780133DAB21A4B1A7005E0184B00221A70174B00221A70164B1B784B2B08D9154B5B781A46144B46219954114B00221A70124B1B7813
:400AC000012B07D10C4B1B78002B03D10F4B01221A7002E00D4B00221A70074B1A780A4B1A7000BF80BD00BF6CC5FF1F6DC5FF1F6EC5FF1F6FC5FF1FF4C4FF1F70C5FF1F33
:400B00007CCDFF1FF8C4FF1F71C5FF1FF5C4FF1F80B500AF054B5B78072B04D102F03CFF00F0DEFE00BF00BF80BD00BF7CCDFF1F80B400AF144B1B8801339AB2124B1A8005
:400B4000114B1B88322B0DD90F4B00221A800F4B1B88012B11D10E4B5B781A460D4B462199540AE0084B1B884FF6E852934206D9054B00221A8000BF01E000BF00E000BFBD
:400B8000BD4680BC704700BFF0C4FF1FF2C4FF1F7CCDFF1FF8C4FF1F80B500AF104B5B78002B17D00E4B5B78032B13D00C4B5B78042B0FD00A4B5B78072B0BD0084B5B78A5
:400BC000082B07D0064B5B78092B03D0044B5B780A2B02D1FFF776FD00BF00BF80BD00BF7CCDFF1F80B500AF134B5B781A46134B572199540CE0124B1B78002B08D00E4BDC
:400C00005B781A460D4B502199540D4B00221A70094B5B781A46094B9B5C502B06D0064B5B781A46054B9B5C462BE4D1002001F0FDFE00BF80BD00BF7CCDFF1FF8C4FF1FAB
:400C4000F5C4FF1F80B500AF104B5B781A46104B4221995402F0F2FA052002F035FD4FF47A7001F075FB322002F02EFD4FF47A7001F06EFB4FF4FA7002F026FD4FF47A70E6
:400C800001F066FB02F0ECFA00BF80BD7CCDFF1FF8C4FF1F80B400AF074B5B781A46074B42219954064B00221A80064B01221A8000BFBD4680BC70477CCDFF1FF8C4FF1FB2
:400CC000F0C4FF1FF2C4FF1F80B400AF0A4B00221A800A4B5B781A46094B9B5C462B06D0064B5B781A46064B5021995400BF00BFBD4680BC704700BFF2C4FF1F7CCDFF1F9F
:400D0000F8C4FF1F80B582B000AFAB4B5B780A2B00F21A8201A252F823F000BF490D0000050E0000450E0000AB0E0000050F00005F0F0000CD0F00002710000081100000DD
:400D4000E7100000491100000023FB7106E0FB799A4A5F21D154FB790133FB71FB79092BF5D900F0FFFA0246954B1A6007E0944B1A68BB79B979D154BB790133BB71BB7900
:400D80004E2BF4D98E4B1B687E2283F835208C4B1B68332283F83620894B1B680D2283F83A20874B1B680A2283F83B20844B1B687E2283F83C20824B1B68532283F83D2089
:400DC0007F4B1B680D2283F841207D4B1B680A2283F842207A4B1B687E2283F84320784B1B68502283F84420754B1B680D2283F84D20734B1B680A2283F84E206E4B05225A
:400E00005A70A1E16C4B5B781A466C4B422199546C4B00221A806C4B01221A806A4B00221A80654B5B781A46644B9B5C462B05D0614B5B781A46614B502199545E4B022298
:400E40005A7081E1012000F05BFB5B4B5B781A465A4B422199545B4B00221A805A4B01221A8000BF00F07EF90346002B06D1524B5B781A46514B9B5C462BF3D1524B002285
:400E80001A80002000F03CFB4B4B5B781A464B4B9B5C462B05D0484B5B781A46474B50219954454B03225A704EE1434B5B781A46424B42219954434B00221A80424B0122B9
:400EC0001A8000BF00F098F90346002B06D13A4B5B781A46394B9B5C462BF3D13A4B00221A80354B5B781A46344B9B5C462B05D0314B5B781A46314B502199542E4B04228D
:400F00005A7021E12C4B5B781A462C4B422199542C4B00221A802C4B01221A8000BF00F073F90346002B06D1234B5B781A46234B9B5C462BF3D1244B00221A801E4B5B7805
:400F40001A461E4B9B5C462B05D01B4B5B781A461A4B50219954184B05225A70F4E0164B5B781A46154B42219954164B00221A80154B01221A8000BF00F05AF90346002BF3
:400F800006D10D4B5B781A460C4B9B5C462BF3D10D4B00221A80084B5B781A46074B9B5C462B05D0044B5B781A46044B50219954014B00225A70C7E07CCDFF1F98C6FF1F32
:400FC00004C6FF1F94C6FF1F96C6FF1F614B5B781A46614B42219954604B00221A80604B01221A8000BF00F02BF90346002B06D1584B5B781A46584B9B5C462BF3D1584B07
:4010000000221A80534B5B781A46534B9B5C462B05D0504B5B781A464F4B502199544D4B07225A7090E04B4B5B781A464A4B422199544A4B00221A80494B01221A8000BF78
:4010400000F022F90346002B06D1424B5B781A46414B9B5C462BF3D1414B00221A803D4B5B781A463C4B9B5C462B05D0394B5B781A46394B50219954364B08225A7063E08A
:40108000012000F03DFA334B5B781A46324B42219954324B00221A80314B01221A8000BF00F010F90346002B06D12A4B5B781A46294B9B5C462BF3D1294B00221A8000205D
:4010C00000F01EFA234B5B781A46234B9B5C462B05D0204B5B781A461F4B502199541D4B09225A7030E01B4B5B781A461A4B422199541A4B00221A80194B01221A8000BF7A
:4011000000F018F90346002B06D1124B5B781A46114B9B5C462BF3D1114B00221A800D4B5B781A460C4B9B5C462B05D0094B5B781A46094B502199544FF47A7001F008F9BC
:40114000044B00225A7000BF002318460837BD4680BD00BF7CCDFF1F98C6FF1F94C6FF1F96C6FF1F80B582B000AF00F0FBF80246204B1A601F4B1B68FF2283F845201D4B65
:401180001B68FF2283F848201A4B1B68FF2283F84620184B1B68FF2283F8472000233B600023FB7102E0FB790133FB71FB791F2BF9D9104B1B68002283F845200D4B1B6847
:4011C000002283F846200B4B1B68002283F84720084B1B68002283F848203B686FF07F42934201D1012300E0002318460837BD4680BD00BF04C6FF1F80B400AF01231846BA
:40120000BD4680BC704700BF80B582B000AF0023FB7102E0FB790133FB71FB79072BF9D9032000F021FB034618460837BD4680BD80B400AF00231846BD4680BC704700BF78
:4012400080B500AF00F07EF802460D4B1A6000F089F802460B4B1A600A4B1B68002283F84920084B1B68FF2283F84920044B1B68DB79FF2B01D0002300E00123184680BDE5
:401280009CC5FF1F04C6FF1F80B582B000AF00F059F802460A4B1A600023FB71084B1B681B79FB71FB797C2B04D8FB79732B01D9012300E0002318460837BD4680BD00BF4E
:4012C0009CC5FF1F80B582B000AF0023FB7100237B7100F037F80246144B1A6000F042F80246134B1A600023BB7110E0BB79184600F068F803467B71FB795B005AB297F970
:40130000053013435BB2FB71BB790133BB71BB79032BEBD9FB7903F00F030F2B01D1012300E0002318460837BD4680BD9CC5FF1F04C6FF1F80B400AF00231846BD4680BC5C
:40134000704700BF80B400AF044B054A1A60034B1B681846BD4680BC704700BF9CC5FF1F8CC5FF1F80B400AF044B054A1A60034B1B681846BD4680BC704700BF04C6FF1F63
:40138000B4C5FF1F80B400AF044B054A1A60034B1B681846BD4680BC704700BFB0C5FF1FA0C5FF1F80B400AF044B054A1A60034B1B681846BD4680BC704700BF1CC6FF1FC2
:4013C00014C6FF1F80B584B000AF0346FB710023FB73FFF7B7FF0246184B1A60FB79002B04D1164B1B681B78FB7319E0FB79012B04D1124B1B685B78FB7311E0FB79022B4C
:4014000004D10E4B1B689B78FB7309E0FB79032B04D10A4B1B68DB78FB7301E0002308E0FB7B0A2B04D8FB7B072B01D9012300E0002318461037BD4680BD00BF9CC5FF1F42
:4014400080B500AF044B5B78042B02D100F022FA00BF00BF80BD00BF7CCDFF1F80B400AF144B1B8801339AB2124B1A80114B1B88322B0DD90F4B00221A800F4B1B88012B9A
:4014800011D10E4B5B781A460D4B462199540AE0084B1B884FF6E852934206D9054B00221A8000BF01E000BF00E000BFBD4680BC704700BF94C6FF1F96C6FF1F7CCDFF1FE7
:4014C00098C6FF1F80B500AF0C4B5B78022B0FD00A4B5B78032B0BD0084B5B78052B07D0064B5B78062B03D0044B5B78082B02D1FFF7E8F800BF00BF80BD00BF7CCDFF1FF1
:4015000080B483B000AF0346FB71FB79012B14D1164B1B68FF2283F84520144B1B68FF2283F84620114B1B68FF2283F847200F4B1B68FF2283F8482014E00C4B1B680022DF
:4015400083F84520094B1B68002283F84620074B1B68002283F84720044B1B68002283F8482000BF0C37BD4680BC704704C6FF1F80B582B000AF0023FB7101F093FB0346B4
:40158000FB71114B1B781946104AFB7953540E4B1B780133DAB20C4B1A700B4B1B78632B02D9094B00221A70FB79184600F010F801F066FB034603F02003002BDDD100BF0A
:4015C0000837BD4680BD00BF48C7FF1F4CC7FF1F80B483B000AF0346FB719D4B1B78012B00F08280022B00F0A080002B00D02AE1984B1B78002B20D1974B1B78FA799A4252
:401600000ED0954B5B79FA799A4209D0924B9B7AFA799A4204D0904BDB7BFA799A420CD18C4B1B7819468D4AFB795354894B1B780133DAB2874B1A7055E0864B1B78012B7B
:401640004AD1854B5B78FA799A420ED0824B9B79FA799A4209D0804BDB7AFA799A4204D07D4B1B7CFA799A4236D17A4B1B7819467A4AFB795354774B1B780133DAB2754B13
:401680001A70734B01221A70734B5B78FA799A4203D1734B00221A7025E06F4B9B79FA799A4203D16E4B01221A701CE06A4BDB7AFA799A4203D16A4B02221A7013E0664B8B
:4016C0001B7CFA799A4203D1654B03221A700AE0634B00221A7006E05E4B00221A70604B00221A70AFE0AEE05A4B1B7819465B4AFB795354574B1B780133DAB2554B1A7068
:40170000544B1B781846564B1B781946524A0B469B000B44134402331B7802339842C0F291804B4B02221A708CE04A4B1B7818464B4B1B781946484A0B469B000B441344DC
:4017400002331B780233984219D1454B1B781946414A0B469B000B44134403331B78FA799A420CD13B4B1B7819463C4AFB795354384B1B780133DAB2364B1A7061E0354B59
:401780001B781846364B1B781946334A0B469B000B44134402331B780333984247D1304B1B7819462C4A0B469B000B44134404331B78FA799A423AD1264B1B781946274A59
:4017C000FB795354264B1B78002B06D1254B1B8801339AB2234B1A801FE0214B1B78012B06D1204B5B8801339AB21E4B5A8014E01B4B1B78022B06D11A4B9B8801339AB222
:40180000184B9A8009E0164B1B78032B05D1154BDB8801339AB2134BDA800E4B00221A700B4B00221A700E4B00221A7009E0094B00221A70064B00221A70094B00221A705D
:4018400001E000E000BF00BF0C37BD4680BC7047B0C7FF1FB1C7FF1FE8C0FF1FB4C7FF1FC7C7FF1FBCC6FF1F80B483B000AF0346FB71FB79064A32F81330042B01D90123F1
:4018800000E0002318460C37BD4680BC704700BFBCC6FF1F80B500AF7E2001F025FA4C2001F022FA0D4B00221A800BE00B4B1B88DBB2184601F018FA084B1B8801339AB2C8
:4018C000064B1A80054B1B886E2BEFD90D2001F00BFA0A2001F008FA00BF80BDCAC7FF1F80B400AF084B1B8801339AB2064B1A80054B1B88642B03D9034B00221A8000BF53
:4019000000BFBD4680BC7047CCC7FF1F80B582B000AF786039603A680021786802F00BF900BF0837BD4680BD80B584B000AFF860B9607A607A68B968F86802F0F1F800BF83
:401940001037BD4680BD00BF80B483B000AF0346FB71FEE780B487B000AF7860396000233B6100237B6127E07B699B007A6813441B68BB60BB68FB73BB6823F0FF03BB60E7
:4019800014E03B695B003A6813441B781A46BB68134419463B695B003A6813445B780B703B6901333B61FB7B013BFB73FB7B002BE7D17B6901337B617B691C2BD4D900BFB1
:4019C0001C37BD4680BC704780B582B000AF4A4B4BF67F321A80494B18221A70484B0C221A80484B18221A70474B19221A80474B18221A70464B40F2DF121A80454B182288
:401A00001A70454B40F2CF721A80444B18221A70042243494348FFF787FF434B06221A70424B52221A70424B424A1278D2B21A70414B4FF4E2621A80404B41F251221A807F
:401A40000023FB7019237B6014E0FB785B00DAB23B4B1B78DBB203F00103DBB21343DBB203F00303FB704FF4F07002F01DF87B68013B7B607B68002B02D0FB78032BE4D128
:401A80007B68002B02D10320FFF75EFF2D4B4FF480721A802B4B07221A702B4B00221A702A4B48221A70274B00221A70284B00221A70284B02221A70274B04221A70274AE3
:401AC000264B1B78DBB243F01F03DBB21370244A234B1B78DBB243F00103DBB21370214A204B1B78DBB263F07F03DBB2137000BF0837BD4680BD00BF8040004082400040D3
:401B00008440004086400040884000408A4000408C4000408E400040904000409240004054060048004100400043004000420040A14600400F01004922420040204200405F
:401B40002542004004400040064000400840004009400040014000400B400040A2430040A1430040A043004080B582B000AF224B1B78FB71214B1B78BB71214B1B787B7193
:401B8000204AFB7903F00703DBB213701E4AFB791B09DBB21370194ABB7943F00303DBB21370174A7B7943F00303DBB21370174B10221A70164B40221A70164B40221A70F4
:401BC000154B10221A70154B10221A70144B20221A70144B10221A700A2000F0DBFB084A7B791370054ABB7913700F4B44221A7000BF0837BD4680BDCF010049F846004089
:401C0000F94600406E5800406F5800403D5100400159004003590040905A0040205B0040235B0040585B00407658004080B586B000AF72B60023FB7513E0FA7D13465B007D
:401C400013445B00494A13443B613B691A683B699B889BB219461046FFF758FEFB7D0133FB75FB7D0A2BE8D90023FB751CE0FA7D13469B0013445B003D4A1344FB60FB681F
:401C80001B68BB60FB685B687B60FB681A7A5B7A1B0213437B807B881A467968B868FFF743FEFB7D0133FB75FB7D012BDFD931494FF09040FFF74EFE04212F48FFF726FEB7
:401CC00004212E48FFF722FE2D4A2D4B1B78DBB243F00203DBB213702A4A2A4B1B78DBB243F00203DBB21370274A274B1B78DBB243F04003DBB21370244A244B1B78DBB205
:401D000043F01003DBB21370082221492148FFF70BFE082220492148FFF706FE082220492048FFF701FE08221F492048FFF7FCFD1F4A1F4B1B78DBB243F00803DBB2137041
:401D40001C4B61221A70FFF73FFE1A4BC1221A70194B01221A70FFF707FF0E220A491748FFF7E2FD00BF1837BD4680BD4C3B0000903B000074000048007600400876004056
:401D80000350014013500140A0430040C243004034060048025100403C060048C251004044060048225100404C06004832510040224300400048004004000840B043004043
:401DC00080B500AF01F080FE03461B680C2B00D1FEE7FEE780B586B000AF224B7B61224B3B61204B7B6135E03B691B68FB603B695B68BB603B699B683B6000237B600CE0FA
:401E0000FB681A68BB681A60BB680433BB60FB680433FB607B6804337B607A683B689A42EED13B69DB683B6000237B6008E0BB6800221A60BB680433BB607B6804337B6010
:401E40007A683B689A42F2D13B6910333B617B69013B7B617B69002BC6D101F03BFEFEF711F9FEE701000000943C000080B582B000AF194B194A1A60194A194B1B6843F462
:401E80000073136000237B600FE07B68032B04D8144A7B6852F8233000E0134B13497A6841F822307B6801337B607B682F2BECD90F4B1B78DAB20F4B1A700F4B0B4A1A6003
:401EC000FFF7B4FE00F01CF80C4B00221A6000BF0837BD4680BD00BF0CED00E00004FA0514ED00E000000000C11D000000C0FF1FBC760040C4C0FF1F08ED00E0C0C0FF1F46
:401F000080B483B000AF134B7F221A70124B80221A707F23FB710CE0FB79DB0003F1804303F5F043FA79013AD2B21A70FB79013BFB71FB79002BEFD1FB79DB0003F1804311
:401F400003F5F04300221A7000BF0C37BD4680BC704700BFFDC0FF1FFCC0FF1F80B485B000AF03460A46FB711346BB710123FB60FB79172B2FD8BB79002B0ED0FB791A0174
:401F8000184B1344FA791101164A0A441278D2B242F02002D2B21A700DE0FB791A01114B1344FA7911010F4A0A441278D2B222F02002D2B21A70FB791A010A4B1344FA796B
:401FC0001101084A0A441278D2B242F00102D2B21A700023FB60FB6818461437BD4680BC704700BF1070004080B485B000AF0346FB710123FB60FB79172B1DD8FB791A0159
:40200000104B1344FA7911010E4A0A441278D2B222F00102D2B21A70FB791A01094B1344FA791101074A0A441278D2B222F02002D2B21A700023FB60FB6818461437BD4657
:4020400080BC70471070004080B485B000AF03460A46FB711346BB710123FB60FB79172B1BD8FB791A01104B13441B78DBB223F00E03FB72FB791A010B4B1344BA79520030
:40208000D2B252B202F00E0251B297F90B200A4352B2D2B21A700023FB60FB6818461437BD4680BC704700BF1070004080B485B000AF0346FB710B46BB8013467B800123A9
:4020C000FB60BB8841F6FF72934202D14FF40053BB807B8841F6FF72934202D14FF400537B80FB79172B17D8FB79DB0003F1804303F5EC430433BB60BB68BA881A80FB79A6
:40210000DB0003F1804303F5EC430633BB60BB687A881A800023FB60FB6818461437BD4680BC704780B485B000AF03460A46FB711346BB710123FB60FB79172B07D8FB7929
:402140001A01064B1344BA795A720023FB60FB6818461437BD4680BC704700BF1070004090B484B000AF0446084611461A462346FB710346BB710B467B7113463B71012378
:40218000FB60FB79172B34D8FB79DB0003F1804303F5EC43BA7902F07F02D1B27A79D201D2B20A43D2B21A70FB79DB0003F1804303F5EC433A7E1201D1B23A7902F00F02D6
:4021C000D2B20A43D2B25A70FB79DB0003F1804303F5EC433A7F02F00F02D2B29A70FB79DB0003F1804303F5EC430022DA700023FB60FB6818461037BD4690BC704700BF65
:4022000080B582B000AFFF23FB7101F055FC0346BB71104B1B78182B12D90F4B1B78FB710C4B1B78013BDAB20A4B1A70FB79DB0003F1804303F5F0431B78DAB2064B1A7012
:40224000BB79184601F03CFCFB7918460837BD4680BD00BFFCC0FF1FFDC0FF1F90B484B000AF0446084611461A462346FB710346BB800B46BB711346FB700123FB6097F9BF
:402280000730002B23DBBB8823F47F6323F00F039BB2002B1BD1FB79DB0003F1804303F5F043BB60BB68BA881A80FB79DB0003F1804303F5F043BA799A70FB79DB0003F1FD
:4022C000804303F5F043FA78DA700023FB60FB6818461037BD4690BC704700BF80B485B000AF0346FB710B46BB8013467B800123FB6097F90730002B17DBFB79DB0003F196
:40230000804303F5F0430433BB60BB68BA881A80FB79DB0003F1804303F5F0430633BB60BB687A881A800023FB60FB6818461437BD4680BC704700BF80B483B000AF03467C
:40234000FB7101BE00BF0C37BD4680BC704700BF80B582B000AF786008E00C4B1B68184601F0A2FB7B68A3F500437B607B68B3F5004FF2D8064B1B687A6802FB03F318469B
:4023800001F092FB00BF0837BD4680BD10C1FF1F08C1FF1F80B582B000AF0346FB80FB88054A127802FB03F3184601F07DFB00BF0837BD4680BD00BF0CC1FF1F80B584B04A
:4023C00000AF03463960FB710F4B1B68FB60FB791F2B02D90020FFF7AFFFFB7903F01F0310339B00FA6813441B68BB60FB7903F01F0310339B00FA6813443A681A60BB682E
:4024000018461037BD4680BD08ED00E080B582B000AF03460A46FB711346BB71BB79072B02D90020FFF788FFFB791F2B02D90020FFF782FFFB7903F01F0303F1604303F51C
:402440006443BA795201D2B21A7000BF0837BD4680BD00BF80B500AF00F042F8044800F00FF8022000F01EF800F02EF800BF80BD7524000080B500AFFDF732FF00BF80BDFB
:4024800080B485B000AF7860054B1B68FB60FB6858337A681A6000BF1437BD4680BC704708ED00E080B483B000AF0346FB71054AFB795B01DBB2137000BF0C37BD4680BCA4
:4024C000704700BF06E400E080B400AF034B40221A6000BFBD4680BC704700BF00E100E080B400AF034B40221A6000BFBD4680BC704700BF80E100E080B500AF064B1B78D0
:40250000002B04D100F00AF8034B01221A7000F02DF800BF80BD00BF98C8FF1F80B500AF0C4B72221A700C4B20221A700B490120FFF744FF03210120FFF768FF084B062219
:402540001A70084B47221A70074B02221A7000BF80BD00BF8364004080640040DD27000024640040346400408564004080B582B000AF01F0A1FA0346FB71144A134B1B7812
:40258000DBB243F02003DBB21370114A104B1B78DBB243F01003DBB213700E4A0D4B1B78DBB243F01003DBB213700B4B02221A600A4B02221A6000F049F9FB79184601F0FA
:4025C0007FFA00BF0837BD4680BD00BF93640040906400409564004080E200E000E100E080B483B000AF064B1B78DBB203F07F03FB71FB7918460C37BD4680BC704700BF8C
:402600006064004080B483B000AF0023FB710C4B1B78BB71BB7903F02003002B09D0094B1B78FB71BB7903F01E03002B01D00023FB71FB7918460C37BD4680BC704700BF9D
:40264000606400404364004080B483B000AF0346FB711A4B1B78002B2BD0194B02221A60184B1B889AB2184B1B889A420AD1174B1B78DBB203F00403002B03D1144AFB7928
:40268000137013E0104B1B88B3F5806F02D30E4B00221A800C4B1B8819460E4AFB795354094B1B8801339AB2074B1A800A4B02221A6000BF0C37BD4680BC704798C8FF1F8D
:4026C00080E100E09AC8FF1F9CC8FF1F65640040456400407CC9FF1F00E100E080B485B000AF0346FB71264B1B88FB81254B1B88BB81FA89BB899A4208D2FA89BB89013B55
:402700009A420CBF01230023DBB209E0FA89BB89D31A40F2FF3293420CBF01230023DBB2002BE0D1BA89FB899A420AD1164B1B78DBB203F00403002B03D1144AFB79137081
:4027400019E0FB89B3F5806F01D30023FB81FB890F49FA79CA54FB890133FB81084AFB891380094B1B78DBB203F00203002B02D0084B02221A6000BF1437BD4680BC70476E
:402780009CC8FF1F9AC8FF1F65640040456400407CC9FF1F00E200E080B584B000AF78600B467B800023FB810B4B1B78002B0ED009E0FB897A6813441B781846FFF78EFF19
:4027C000FB890133FB81FA897B889A42F1D300BF1037BD4680BD00BF98C8FF1F80B400AF18E0154B1B889BB2B3F5806F02D3124B00221A80114B104A128892B21146104A07
:40280000525CD2B21A700C4B1B889BB201339AB2094B1A80084B1B889AB20A4B1B889A4206D0094B1B78DBB203F00403002BD8D000BFBD4680BC70479AC8FF1F45640040DC
:402840007CC9FF1F9CC8FF1F6564004080B400AF094A094B1B78DBB243F00403DBB21370064A064B1B78DBB243F00403DBB2137000BFBD4680BC7047A2430040B24300405C
:4028800080B485B000AF0346FB710B4B1B78DBB223F01003FB730849FB791B01DBB203F01003DAB2FB7B1343DBB20B7000BF1437BD4680BC704700BF0051004080B500AF39
:4028C000224A224B1B78DBB203F00103DBB213701F4A1F4B1B78DBB223F00303DBB213701C4A1C4B1B78DBB223F03003DBB21370184A184B1B78DBB243F03003DBB213701E
:40290000144A144B1B78DBB223F00F03DBB21370104A104B1B78DBB243F00F03DBB213700D4A0D4B1B78DBB243F00103DBB2137040F2DF1000F058F840F2DF1000F066F875
:40294000082000F041F800BF80BD00BF0C4F00400E4F0040174F00400D4F004080B400AF0D4A0D4B1B78DBB243F00203DBB213700A4A0A4B1B78DBB243F00203DBB21370C6
:40298000074A074B1B78DBB243F00103DBB2137000BFBD4680BC7047A3430040B34300400C4F004080B500AF064B1B78002B04D1FFF784FF034B01221A70FFF7CFFF00BFA2
:4029C00080BD00BF9FC8FF1F80B483B000AF0346FB71044AFB79137000BF0C37BD4680BC704700BF0F4F004080B485B000AF0346FB80FB88FB81044AFB89138000BF1437A7
:402A0000BD4680BC704700BF104F004080B483B000AF0346FB80044AFB88138000BF0C37BD4680BC704700BF124F004080B485B000AF0346FB710B4B1B78DBB223F0200333
:402A4000FB730849FB795B01DBB203F02003DAB2FB7B1343DBB20B7000BF1437BD4680BC704700BF2051004080B500AF00F048F8044800F015F8052000F024F800F034F8AA
:402A800000BF80BD892A000080B500AFFDF7EEFBFEF7E4FCFEF74CF8FDF7C8FF00BF80BD80B485B000AF7860054B1B68FB60FB6850337A681A6000BF1437BD4680BC704781
:402AC00008ED00E080B483B000AF0346FB71054AFB795B01DBB2137000BF0C37BD4680BC704700BF04E400E080B400AF034B10221A6000BFBD4680BC704700BF00E100E076
:402B000080B400AF034B10221A6000BFBD4680BC704700BF80E100E080B500AF00F042F8044800F00FF8072000F01EF800F02EF800BF80BD392B000080B500AFFEF718FD21
:402B400000BF80BD80B485B000AF7860054B1B68FB60FB685C337A681A6000BF1437BD4680BC704708ED00E080B483B000AF0346FB71054AFB795B01DBB2137000BF0C371C
:402B8000BD4680BC704700BF07E400E080B400AF034B80221A6000BFBD4680BC704700BF00E100E080B400AF034B80221A6000BFBD4680BC704700BF80E100E080B500AF2D
:402BC000064B1B78002B04D100F00AF8034B01221A7000F025F800BF80BD00BFA0C8FF1F80B400AF094B72221A70094B20221A70084B06221A70084B47221A70074B002282
:402C00001A7000BFBD4680BC704700BF816400408264004027640040376400408664004080B582B000AF00F047FF0346FB71114A104B1B78DBB243F02003DBB213700E4AE6
:402C40000D4B1B78DBB243F01003DBB213700B4A0A4B1B78DBB243F01003DBB2137000F059F8FB79184600F02BFF00BF0837BD4680BD00BF91640040926400409664004097
:402C800080B483B000AF064B1B78DBB203F07F03FB71FB7918460C37BD4680BC704700BF6264004080B483B000AF0023FB710C4B1B78BB71BB7903F02003002B09D0094B7F
:402CC0001B78FB71BB7903F01E03002B01D00023FB71FB7918460C37BD4680BC704700BF626400404164004080B483B000AF0346FB71064B1B78002B02D0054AFB7913705B
:402D000000BF0C37BD4680BC704700BFA0C8FF1F4664004080B400AF094A094B1B78DBB243F00203DBB21370064A064B1B78DBB243F00203DBB2137000BFBD4680BC7047BC
:402D4000A2430040B243004080B500AF214A214B1B78DBB203F00103DBB213701E4A1E4B1B78DBB223F00303DBB213701B4A1B4B1B78DBB223F03003DBB21370174A174BF9
:402D80001B78DBB243F03003DBB21370134A134B1B78DBB223F00F03DBB213700F4A0F4B1B78DBB243F00F03DBB213700C4A0C4B1B78DBB243F00103DBB21370EF2000F032
:402DC00057F8EF2000F066F8082000F041F800BF80BD00BF004F0040024F00400B4F0040014F004080B400AF0D4A0D4B1B78DBB243F00103DBB213700A4A0A4B1B78DBB20F
:402E000043F00103DBB21370074A074B1B78DBB243F00103DBB2137000BFBD4680BC7047A3430040B3430040004F004080B500AF064B1B78002B04D1FFF786FF034B0122ED
:402E40001A70FFF7CFFF00BF80BD00BFA2C8FF1F80B483B000AF0346FB71044AFB79137000BF0C37BD4680BC704700BF034F004080B485B000AF0346FB80FB88FB81044A3F
:402E8000FB89138000BF1437BD4680BC704700BF044F004080B483B000AF0346FB80044AFB88138000BF0C37BD4680BC704700BF064F004080B500AF00F044F8044800F0D3
:402EC00011F8042000F020F800F030F800BF80BDD52E000080B500AFFEF7B2FAFDF718FE00BF80BD80B485B000AF7860054B1B68FB60FB684C337A681A6000BF1437BD4692
:402F000080BC704708ED00E080B483B000AF0346FB71054AFB795B01DBB2137000BF0C37BD4680BC704700BF03E400E080B400AF034B08221A6000BFBD4680BC704700BF08
:402F400000E100E080B400AF034B08221A6000BFBD4680BC704700BF80E100E080B500AF224A224B1B78DBB203F00103DBB213701F4A1F4B1B78DBB223F00303DBB2137006
:402F80001C4A1C4B1B78DBB223F03003DBB21370184A184B1B78DBB243F03003DBB21370144A144B1B78DBB223F00F03DBB21370104A104B1B78DBB243F00F03DBB2137037
:402FC0000D4A0D4B1B78DBB243F00103DBB2137040F2AF4000F058F840F2AF4000F066F8082000F041F800BF80BD00BF184F00401A4F0040234F0040194F004080B400AF52
:403000000D4A0D4B1B78DBB243F00403DBB213700A4A0A4B1B78DBB243F00403DBB21370074A074B1B78DBB243F00103DBB2137000BFBD4680BC7047A3430040B343004049
:40304000184F004080B500AF064B1B78002B04D1FFF784FF034B01221A70FFF7CFFF00BF80BD00BFA3C8FF1F80B483B000AF0346FB71044AFB79137000BF0C37BD4680BC14
:40308000704700BF1B4F004080B485B000AF0346FB80FB88FB81044AFB89138000BF1437BD4680BC704700BF1C4F004080B483B000AF0346FB80044AFB88138000BF0C3706
:4030C000BD4680BC704700BF1E4F004080B500AF00F056F8044800F023F8072000F032F800F042F800BF80BDED30000080B500AF0A4B1B78002B02D1FDF7ECF80CE0074B91
:403100001B78012B02D1FEF7DDF905E0034B1B78022B01D1FDF740FD00BF80BD7CCDFF1F80B485B000AF7860054B1B68FB60FB6854337A681A6000BF1437BD4680BC704775
:4031400008ED00E080B483B000AF0346FB71054AFB795B01DBB2137000BF0C37BD4680BC704700BF05E400E080B400AF034B20221A6000BFBD4680BC704700BF00E100E0DE
:4031800080B400AF034B20221A6000BFBD4680BC704700BF80E100E080B400AF054B1B78DBB203F00803DB08DBB21846BD4680BC704700BF3151004080B500AF00F030F9DA
:4031C000022000F07FF9042000F09CF9FFF718F803461A46084B1A70FFF712F803461A46064B1A706421064800F04EF86421054800F07EF800BF80BDA7C8FF1FA8C8FF1F34
:40320000A43B0000083C000080B500AF00F026F9084B1B7801211846FEF7A0FE064B1B7801211846FEF79AFE002000F08BF900BF80BD00BFA5C8FF1FA6C8FF1F80B500AF44
:40324000064B1B78002B04D1FFF7B6FF034B01221A70FFF7D9FF00BF80BD00BFA4C8FF1F80B500AF064B1B781846FEF7BDFE054B1B781846FEF7B8FE00F00AF900BF80BD00
:40328000A5C8FF1FA6C8FF1F80B582B000AF78600B467B807B681B0C9AB24FF480430121012000F059F803461A460F4B1A700F4B18780E4B1A7879880123FEF7CFFF0B4B3D
:4032C0001B787A6891B245F682321846FFF706F8054B1A78054B1B7819461046FEF722FF00BF0837BD4680BDA5C8FF1FA7C8FF1F80B582B000AF78600B467B807B681B0CAB
:403300009AB24FF480430121012000F057F803461A460F4B1A700F4B18780E4B1A7879880123FEF79BFF0B4B1B787A6891B245F682321846FEF7D2FF054B1A78054B1B78BD
:4033400019461046FEF7EEFE00BF0837BD4680BDA6C8FF1FA8C8FF1F90B585B002AF0446084611461A462346FB710346BB710B46BB8013467B80104B00221A700E4B1878CB
:40338000BA79F97900230193002300930023FEF7E7FE094B1B787A88B9881846FEF786FE054B1B7802211846FEF74EFE024B1B7818460C37BD4690BD14C1FF1F90B585B01A
:4033C00002AF0446084611461A462346FB710346BB710B46BB8013467B80104B01221A700E4B1878BA79F97900230193002300930023FEF7B5FE094B1B787A88B98818464D
:40340000FEF754FE054B1B7802211846FEF71CFE024B1B7818460C37BD4690BD15C1FF1F80B500AF0A4B00221A700A4B00221A70094A094B1B78DBB243F00803DBB2137012
:40344000002000F05FF8022000F03CF800BF80BD2858004029580040975A004080B400AF094A094B1B78DBB243F00403DBB21370064A064B1B78DBB243F00403DBB21370F2
:4034800000BFBD4680BC7047A8430040B843004080B400AF094A094B1B78DBB223F00403DBB21370064A064B1B78DBB223F00403DBB2137000BFBD4680BC7047A843004052
:4034C000B843004080B483B000AF0346FB710C4A0B4B1B78DBB223F00203DBB213700849074B1B78DAB2FB7903F00203DBB21343DBB20B7000BF0C37BD4680BC704700BF02
:403500002858004080B582B000AF0346FB710C4A0B4B1B78DBB223F00C03DBB213700849074B1B78DAB2FB7903F00C03DBB21343DBB20B7000F016F800BF0837BD4680BDA3
:403540002858004080B483B000AF0346FB71044AFB79137000BF0C37BD4680BC704700BF825B004080B483B000AF0B4B1B78DBB203F00C039B08DBB20633FB71074AFB797F
:4035800003F1924303F594731B78DBB2137000BF0C37BD4680BC7047285800400A46004080B500AF214A214B1B78DBB203F00103DBB213701E4A1E4B1B78DBB223F003036C
:4035C000DBB213701B4A1B4B1B78DBB223F03003DBB21370174A174B1B78DBB243F03003DBB21370134A134B1B78DBB223F00F03DBB213700F4A0F4B1B78DBB243F00F03F9
:40360000DBB213700C4A0C4B1B78DBB243F00103DBB21370042000F057F8042000F066F8082000F041F800BF80BD00BF244F0040264F00402F4F0040254F004080B400AFC8
:403640000D4A0D4B1B78DBB243F00803DBB213700A4A0A4B1B78DBB243F00803DBB21370074A074B1B78DBB243F00103DBB2137000BFBD4680BC7047A3430040B3430040FB
:40368000244F004080B500AF064B1B78002B04D1FFF786FF034B01221A70FFF7CFFF00BF80BD00BFA9C8FF1F80B483B000AF0346FB71044AFB79137000BF0C37BD4680BCBA
:4036C000704700BF274F004080B485B000AF0346FB80FB88FB81044AFB89138000BF1437BD4680BC704700BF284F004080B483B000AF0346FB80044AFB88138000BF0C37A8
:40370000BD4680BC704700BF2A4F004080B500AF00F05CF8044800F029F8072000F038F800F048F800BF80BD2D37000098B500AF0C4B1B881C4600F03FF903469AB20A4B55
:4037400023F81420074B1B8801339AB2054B1A80044B1B88642B02D9024B00221A8000BF98BD00BFACC8FF1FB0C8FF1F80B485B000AF7860054B1B68FB60FB6848337A685D
:403780001A6000BF1437BD4680BC704708ED00E080B483B000AF0346FB71054AFB795B01DBB2137000BF0C37BD4680BC704700BF02E400E080B400AF034B04221A6000BFB3
:4037C000BD4680BC704700BF00E100E080B400AF034B04221A6000BFBD4680BC704700BF80E100E080B500AF064B1B78002B04D100F00AF8034B01221A7000F029F800BF48
:4038000080BD00BF78C9FF1F80B500AF102000F031F907210020FEF7F9FD0A490020FEF7CDFD094A084B1B78DBB243F00603DBB213700C2000F086F8044B00221A8000BF24
:4038400080BD00BF693A00000159004082CDFF1F80B582B000AF00F02FF90346FB712E4A2D4B1B78DBB243F00103DBB213702B4A2A4B1B78DBB243F00103DBB21370284AA5
:40388000274B1B78DBB243F00103DBB21370254A244B1B78DBB243F00103DBB21370224B1B78BB71BB7943F00203BB71BB7943F00103BB711C4ABB7913701C4B18221A7047
:4038C0001B4A1B4B1B78DBB243F04003DBB21370174A174B1B78DBB223F00303DBB21370144BC8221A70144B02221A70134A134B1B78DBB243F00803DBB213700A20FEF723
:4039000049FD0F4B01221A60FB79184600F0D8F800BF0837BD4680BDAB430040BB430040A1430040B14300400359004006590040055900400059004014460040275B0040E8
:4039400080E200E080B584B000AF0346FB71FB790A2B07D00C2B02D0082B06D008E0C223FB730BE08223FB7308E04223FB7305E0C223FB730020FEF7DFFC00BF054AFB7B06
:403980001370FB79184600F02FF800BF1037BD4680BD00BF0259004080B400AF054A054B1B78DBB243F00103DBB2137000BFBD4680BC70470059004080B483B000AF084B5B
:4039C0001B88FB80074B1B881BB29BB2FA88D31A9BB21BB218460C37BD4680BC704700BFA05B004080CDFF1F80B584B000AF0346FB71FB790A2B08D00C2B02D0082B08D0B3
:403A00000BE04FF48053FB600DE04FF48063FB6009E04FF48073FB6005E00023FB600020FEF78AFC00BF0C4B00221A80FB6842F2107202FB03F303F6C413084A82FB0312B2
:403A4000D212DB17D31A064A1360064B00221A8000BF1037BD4680BD84CDFF1FAD8BDB6888CDFF1F80CDFF1F80B400AF00BFBD4680BC704780B483B000AF0346FB710949F0
:403A8000084B1B78DBB25AB297F9073023F007035BB213435BB2DBB20B7000BF0C37BD4680BC7047024100400230800803D000BF01380046FCD17047EFF3108072B6704710
:403AC00080F31088704700BF014B1868704700BF78C1FF1F0E4B70B51E460E4C0025E41AA410A54204D056F8253098470135F8E700F0BEF8084B094C1E46E41AA4100025BE
:403B0000A54204D056F8253098470135F8E770BD7C3C00007C3C00007C3C0000843C000010B5431E0A44914204D011F8014B03F8014FF8E710BD03460244934202D003F886
:403B4000011BFAE77047000000000000004F00403000105100401000405100403000F0510040100000000140800000010140800100030140000D00140140000800400140DC
:403B8000000A004C0140000200500140200000008000014034050048800080020140B40500488000BEBEBEBEBEBEBEBEBEBEBEBEBEBEBEBEBEBEBEBEBEBEBEBEBEBEBEBEED
:403BC000BEBEBEBEBEBEBEBEBEBEBEBEBEBEBEBEBEBEBEBEBEBE414141414141414141414141414141414141414141414141414141414141414141414141414141414141C7
:403C0000414141414141414180848A8F94989EA2A8ACB2B6BCC0C6CAD0D5DADEE4E8EEF2F8FCF8F2EEE8E4DEDAD4D0CAC6C0BCB6B2ADA8A29E98948F8A84807A76706B66AB
:403C4000615D58534E49443E39342F2A25211C17120D0803080D12171C21252A2F34393E44494E53585D61666B70767A43000000F8B500BFF8BC08BC9E4670474D00000031
:403C80006D1E0000F8B500BFF8BC08BC9E46704729000000A83C0000C8C0FF1FB8000000100C000000000000000000007E50080D0A7E440F0D0A7E48050D0A7E53030D0AD1
:403CC0002447504D524300007E410A0D0A7E4C6F0D0A7E59090D0A7E43040D0A807F000003000000006CDC0280BB0000300000000000C05DFFFF0000000000000000000052
:403D00000000000000000000000000000000000000000000000000006C3C0000000000000000000000000000000000000000000000000000000000000000000000000000DB
:403D400000000000000000000000000000000000000000000000000018C1FF1F0000000000000000000000000000000000000000000000000000000000000000000000004C
:403D80000000000000000000000000000000000000000000000000000000000000000000000000000000000000000000000000000000000000000000000000000000000003
:403DC00000000000000000000000000000000000000000000000000000000000000000000000000000000000000000000000000000000000000000000000000000000000C3
:403E00000000000000000000000000000000000000000000000000000000000000000000000000000000000000000000000000000000000000000000000000000000000082
:403E40000000000000000000000000000000000000000000000000000000000000000000000000000000000000000000000000000000000000000000000000000000000042
:020000040001F9
:0200000480007A
:40000000084F004002520040015A004006640040180001403B0101400F0201403803014063040140450501406F0601404707014001090140010F01400414014005150140E4
:40004000021701400C4001400F4101400C42014006430140014401400145014005460140024701400648014007490140035001400351014001400A360D40163619402236B8
:4000800025302E366004610497018038817282388372850F860F0101060109070F02160219071E011F042202310233013402360137043A023E5054185604580459045B0424
:4000C0005C115D205F0101080505064007010A010B200E0A0F10130115C01718180419411B021D0C1E4A1F282040214022802310252027462F2A3020328036813708384252
:4001000039103C083E023F10452846404D404F1256805A025E406004614063806C216D10740476027719C0B4C2E5C4E8CA70CCDCCEEDD0E0D230D611D80DE20802020401AB
:400140000A041E042E023004320234013E155418560458045B045D105F0100540690070408840A480F021081114013141740185019541A811E081F05200422192301280533
:4001800029052B08325638A8390240904101431248044948531059105F02678A680A690470D4731482028740960397219A809B469D08A301AB40C077C28FC48FCA0FCC0FD5
:4001C000CE0FD007D20CD684D8B0050608040A0A0C020D020E040F0D1504170A18081A04240F2710280F29062C0130013101320E330635183F104001474049FF4A074BFF7D
:400200004C404D204EF04F055008580459045A045C225D025F01604061A8624063208009821084F08528860C87138A608E039316949C951696229729981499289B159E20FF
:40024000A010A540A709A8ECAA11AF02B01FB160B307B420B51BB6C0B880B902BB28BE50C026C103C5E0C6E0C7CBC83AC9FFCAFFCBFFCEF0CF44D00CD401D604D804D904A8
:40028000DA04DB04DC22DD22DF01E6C0EA40EB02014003080460052007610A080E200F0A100E110415021608171019041B0A1C401D201E0120082206250826112758280469
:4002C00029042F1132043601372839C43E084201450847204D215010510153115401561057055C205D015E486602812082409104954096089E12A00AA204A404A602A70A9C
:40030000A901AA48AB10C0F3C2E2C457CA56CCE2CE4AD068D220D6F0D880000301030204030405030605070408200B100C030D030E0C0F0C140A16041710190A1B041F0835
:40034000201021102403260427052A082B102D103010330F3420360F37103A803B083E113F4040164104450E46C0470B481949FF4AFF4BFF4EF04F44500C5401580459040B
:400380005A045B045C215D115F0166C06A406B028409852086D087438A208B0C8C0C8E71958C97139A039C109EAC9F08A010A1D1A240A30EA414A8DCAA22ADD1AF06B0E049
:4003C000B30FB41FB530B7C0B9A0BA02BB08BF40C001C540C9FFCA07CBFFCC40CD20CEF0CF05D008D804D904DA04DC11DD01DF01E040E1A8E240E3200004030A0428054116
:4004000009800A040F1010801108120815201620170119011A041B021DC01E481F8020052110220C23102640272029412E802F9A3080320436183740380839203C803E38CE
:400440003F0240014580468048804C144E2050045308550456205C025E98844087208E4093209A089B419F20A210A301AC21B540C0F7C223C47ECAF9CC7ACEF6D098D220C1
:40048000D6F0E640EC30EC20E20838AA3E5558045F0118201A85801082408605A802AA2030023140351037083A803D40480249408402CCF0CE30E210322033023710811023
:4004C000870295409B109D109E809F08AB10CC70E210E620EA200720134815601680550495409E809F08A620C020C4F0D4408D04A504AE20AF40B110B7208702A7021B02BC
:400500003020A702C608CC08B020EC0467106B906F08D880DAC0DC208318879097109F90A708E270E680000608060A0600BF01FA100100007F04000079060600000000099A
:400540000400000000060019000271000E0061000F085000000000000207001806190006011F000008100700360746080002A800000001003604020005C00E0006FFFFFF42
:4005800062A0F0410C0000000000021004040404111100010000000000004002001030100010101200000000000000000000000000000000000000635C18230073080C0072
:4005C0001F1060007F00000403400000021C00E2001C63E108FF000004E700180C600000012400002C600F00101F4C8000800A280000100034020500060CE00009FFFFFF20
:4006000062A0F0410C00000000000211040404042222000100000000000040020010301000101012000000000000000000000000000000000010100000000000080404001F
:4006400004000000002020000000000048080000000010001D00180100000000000000000000000000000000000000000000000000000000000000000000000000000000A0
:40068000000000000000000000000000000000000000000000000000000000000000000000000000000000000000000000000000000000000000000000000000000000003A
:4006C00000000000000000000000000000000000000000000000000000000000000000000000000000000000000000000000000000000000000000000000000000000000FA
:4007000000000000000000000000000000000000000000000000000000000000000000000000000000000000000000000000000000000000000000000000000000000000B9
:400740000000000000000000000000000000000000000000000000000000000000000000000000000000000000000000000000000000000000000000000000000000000079
:0200000490006A
:0400000000004003B9
:0200000490105A
:04000000BC90ACAF55
:0200000490303A
:020000000512E7
:0200000490402A
:400000005555555555555555555555555555555555555555555555555555555555555555555555555555555555555555555555555555555555555555555555555555555580
:400040005555555555555555555555555555555555555555555555555555555555555555555555555555555555555555555555555555555555555555555555555555555540
:0200000490501A
:0C00000000012E16C06900012E2FC57BE8
:00000001FF