:400000000040002011000000D1440000D144000080B500AF024A034B1B68136004F062FABC760040FA46004010B5054C237833B9044B13B10448AFF300800123237010BDCD
:4000400008C2FF1F00000000C4690000084B10B51BB108490848AFF300800848036803B910BD074B002BFBD0BDE81040184700BF000000000CC2FF1FC4690000C8C0FF1F66
:400080000000000080B500AF514B01221A7000F0A7F862B604F0BAFD03461A464D4B1A7004F0C4FD03461A464B4B1A70484B1B78002B29D104F0AAFD0346012B08D104F050
:4000C000B5FD0346002B03D1444B00221A703AE004F09CFD0346002B08D104F0A7FD0346002B03D13D4B01221A702CE004F08EFD0346002B27D104F099FD0346012B22D1D9
:40010000364B02221A701EE0314B1B78012B1AD104F07CFD0346012B08D104F087FD0346002B03D12D4B03221A700CE004F06EFD0346002B07D104F079FD0346002B02D182
:40014000264B04221A70254B1B78042BA2D801A252F823F0690100007D01000091010000A5010000B90100001C4B00225A7000BF00F054F80346002BFAD027E0174B0022C1
:400180005A7000BF01F0A4FE0346002BFAD01DE0124B00225A7000BF01F0CEFA0346002BFAD013E00D4B00225A7000BF03F008F80346002BFAD009E0084B00225A7000BFDB
:4001C00003F042FA0346002BFAD000BF62E700BF24C2FF1F25C2FF1F26C2FF1F38DCFF1F80B500AF05F024FB05F0D0FA04F06AFE04F016FE05F0EEF805F04CFA05F0FAFD6D
:4002000005F03CFE05F026F805F086F805F0E6FC05F028FD06F022F800BF80BD80B582B000AFAA4B5B780A2B00F2328201A252F823F000BF61020000A7020000070300007E
:4002400027030000FD0300005B040000DD0400002B050000ED0500000D0600002D060000012004F089FC002004F0A4FC0023FB7106E0FB79964A5F21D154FB790133FB71DC
:40028000FB790A2BF5D9914B5B781A46904B492199548E4B49229A70642004F0E1FB8B4B01225A70F4E100F04DFB002004F04EFF00BF002001F0FEF80346002B06D1834BD4
:4002C0005B781A46824B9B5C462BF2D100F058FB00F0ACFB02467F4B1A607E4B1B6802225A71642004F0BCFB784B5B781A46784B9B5C462B03D1754B0A225A70C8E1734BF1
:4003000002225A70C4E1714B5B781A46704B552199546E4B55229A70642004F0A1FB6B4B03225A70B4E1002004F010FF00F0E8F90246694B1A6000F079FB0246654B1A6055
:4003400000F000FB012004F017FC002004F032FC604B1B6800225A7100BF5F4B1B6893F84A30002B06D0594B5B781A46584B9B5C462BF2D1012004F0FFFB012004F01AFC3C
:40038000544B1B6802225A7100BF534B1B6893F84A30012B06D04D4B5B781A464C4B9B5C462BF2D1012004F0E7FB002004F002FC484B1B6802225A7100BF474B1B6893F84B
:4003C0004A30012B06D0414B5B781A46404B9B5C462BF2D100F0D4FA642004F041FB3B4B5B781A463A4B9B5C462B03D1374B0A225A704DE1354B04225A7049E100F0A2FA54
:40040000002004F0A3FE00F07BF90246324B1A6001E002F059FC304B1B6893F848305BB2002B06DB294B5B781A46294B9B5C462BEFD100F0A5FA642004F012FB234B5B788A
:400440001A46234B9B5C462B03D1204B0A225A701EE11E4B05225A701AE11C4B5B781A461B4B57219954194B57229A7000BF00F019F90346002B06D1144B5B781A46144B74
:400480009B5C462BF3D1114B5B781A46104B9B5C462B08D00D4B5B781A460D4B502199540A4B50229A70642004F0DAFA074B5B781A46074B9B5C462B03D1044B0A225A7030
:4004C000E6E0024B06225A70E2E000BF38DCFF1FFCC2FF1FF0C2FF1F78C2FF1F00F032FA002005F0CFFA00BF012002F09DFB0346002B06D1694B5B781A46694B9B5C462B8E
:40050000F2D100F03DFA642004F0AAFA634B5B781A46634B9B5C462B03D1604B0A225A70B6E05E4B07225A70B2E0002000F08EFA5A4B5B781A465A4B42219954574B42221A
:400540009A7041F2883004F08BFA00F039FA012000F07CFA514B5B781A46514B422199544E4B42229A7041F2883004F079FA00F027FA022000F06AFA484B5B781A46484B6F
:4005800042219954454B42229A7041F2883004F067FA00F015FA032000F058FA3F4B5B781A463F4B422199543C4B42229A7041F2883004F055FA394B5B781A46384B5021E4
:4005C0009954364B50229A70642004F049FA334B5B781A46324B9B5C462B03D12F4B0A225A7055E02D4B08225A7051E02B4B5B781A462B4B55219954284B55229A706420B0
:4006000004F02EFA254B09225A7041E0234B5B781A46234B55219954204B55229A70642004F01EFA1D4B0A225A7031E00023BB711AE0BB791A4AD35C502B12D0BB79184AB8
:40064000D35C552B0DD0BB79154AD35C492B08D0124B5B781A46124B662199540F4B66229A70BB790133BB71BB79092BE1D90B4B5B781A460A4B9B5C662B08D0074B5B787A
:400680001A46074B70219954044B70229A70FEE7002318460837BD4680BD00BF38DCFF1FFCC2FF1F80B500AF002004F04FFD00F027F80246094B1A60084B1B6893F845302E
:4006C000FF2B07D1054B1B6893F84630FF2B01D1012300E00023184680BD00BF78C2FF1F80B400AF044B054A1A60034B1B681846BD4680BC704700BFE0C2FF1F90C2FF1F40
:4007000080B400AF044B054A1A60034B1B681846BD4680BC704700BF78C2FF1F28C2FF1F80B400AF044B054A1A60034B1B681846BD4680BC704700BF8CC2FF1F7CC2FF1FD3
:4007400080B582B000AF0023FB710FE0FB795B00FA790F49895C0F4AD154FB795B0001330C4A2021D154FB790133FB71FB790A2BECD91621074804F033FF0D2004F0D2FE0A
:400780000A2004F0CFFE00BF0837BD4680BD00BFFCC2FF1F08C3FF1F80B500AF05F00AFD03461A462C4B1A702B4B1A782B4B1B789A4206D12A4B1B780133DAB2284B1A7079
:4007C00002E0274B00221A70254B1B78022B06D9214B1A78234B1A70214B00221A701E4B1A781E4B1A701F4B1B78012B09D11E4B01221A701D4B1B780133DAB21B4B1A702A
:4008000005E0194B00221A70184B00221A70174B1B784B2B0BD9164B5B781A46154B46219954134B46229A70104B00221A70124B1B78012B07D10C4B1B78002B03D10F4B0F
:4008400001221A7002E00D4B00221A70064B1A78094B1A7000BF80BD1EC3FF1F1FC3FF1F20C3FF1F21C3FF1FF8C2FF1F22C3FF1F38DCFF1FFCC2FF1F23C3FF1FF9C2FF1F60
:4008800080B400AF184B1B8801339AB2164B1A80164B5B781A46164B33F81220124B1B889A4210D2104B00221A80124B1B88012B14D10E4B5B781A460F4B462199540B4B0C
:4008C00046229A700AE0084B1B884FF6E852934206D9054B00221A8000BF01E000BF00E000BFBD4680BC7047F4C2FF1F38DCFF1FCCC0FF1FF6C2FF1FFCC2FF1F80B500AF2D
:40090000FFF71EFF02F008FA0D4B5B78002B0BD00B4B5B78012B07D0094B5B78022B03D0074B5B78032B01D100F014FE044B5B78072B02D100F03CFE00BF00BF80BD00BF3A
:4009400038DCFF1F80B400AF094B5B781A46094B42219954064B42229A70074B00221A80064B01221A8000BFBD4680BC704700BF38DCFF1FFCC2FF1FF4C2FF1FF6C2FF1F30
:4009800080B400AF0B4B00221A800B4B5B781A460A4B9B5C462B09D0074B5B781A46074B50219954044B50229A7000BF00BFBD4680BC7047F6C2FF1F38DCFF1FFCC2FF1FCB
:4009C00080B500AF164B5B781A46164B57219954134B57229A700FE0134B1B78002B0BD00F4B5B781A460F4B502199540C4B50229A700D4B00221A70094B5B781A46094BFB
:400A00009B5C502B06D0064B5B781A46054B9B5C462BE1D1002004F061FC00BF80BD00BF38DCFF1FFCC2FF1FF9C2FF1F80B400AF044B054A1A60034B1B681846BD4680BC04
:400A4000704700BFF0C2FF1FE4C2FF1F80B582B000AF0346FB71FFF743FE02466D4B1A60FFF74EFE02466C4B1A60FB79002B40F0D580684B1B68FF2283F82D20654B1B68BF
:400A8000FF2283F82A20634B1B68FF2283F82720604B1B68FF2283F824205E4B1B68FF2283F821205B4B1B68FF229A77594B1B68FF22DA76574B1B68FF221A76554B1B6839
:400AC000FF225A75534B1B68FF229A74514B1B68FF22DA734F4B1B68FF221A734D4B1B68FF225A724B4B1B68FF229A71494B1B68FF22DA70474B1B68FF221A70454B1B68BC
:400B0000002283F82F20434B1B68002283F82C20404B1B68002283F829203E4B1B68002283F826203B4B1B68002283F82320394B1B68002283F82020364B1B6800225A7728
:400B4000344B1B6800229A76324B1B680022DA75304B1B6800221A752E4B1B6800225A742C4B1B6800229A732A4B1B680022DA72284B1B6800221A72264B1B6800225A7121
:400B8000244B1B6800229A70224B1B68002283F82E20204B1B68002283F82B201D4B1B68002283F828201B4B1B68002283F82520184B1B68002283F82220164B1B68002200
:400BC000DA77144B1B6800221A77124B1B6800225A76104B1B6800229A750E4B1B680022DA740C4B1B6800221A740A4B1B6800225A73084B1B6800229A72064B1B68002297
:400C0000DA71044B1B6800221A71024B1B6800225A7084E2E0C2FF1F78C2FF1FFB79012B40F0D480684B1B68002283F82D20664B1B68002283F82A20634B1B68002283F883
:400C40002720614B1B68002283F824205E4B1B68002283F821205C4B1B6800229A775A4B1B680022DA76584B1B6800221A76564B1B6800225A75544B1B6800229A74524B40
:400C80001B680022DA73504B1B6800221A734E4B1B6800225A724C4B1B6800229A714A4B1B680022DA70484B1B6800221A70464B1B68FF2283F82F20434B1B68FF2283F832
:400CC0002C20414B1B68FF2283F829203E4B1B68FF2283F826203C4B1B68FF2283F82320394B1B68FF2283F82020374B1B68FF225A77354B1B68FF229A76334B1B68FF22AD
:400D0000DA75314B1B68FF221A752F4B1B68FF225A742D4B1B68FF229A732B4B1B68FF22DA72294B1B68FF221A72274B1B68FF225A71254B1B68FF229A70234B1B68002284
:400D400083F82E20204B1B68002283F82B201E4B1B68002283F828201B4B1B68002283F82520194B1B68002283F82220164B1B680022DA77144B1B6800221A77124B1B68A6
:400D800000225A76104B1B6800229A750E4B1B680022DA740C4B1B6800221A740A4B1B6800225A73084B1B6800229A72064B1B680022DA71044B1B6800221A71024B1B6801
:400DC00000225A70ABE100BFE0C2FF1FFB79022B40F0D480684B1B68002283F82D20664B1B68002283F82A20634B1B68002283F82720614B1B68002283F824205E4B1B684B
:400E0000002283F821205C4B1B6800229A775A4B1B680022DA76584B1B6800221A76564B1B6800225A75544B1B6800229A74524B1B680022DA73504B1B6800221A734E4BA9
:400E40001B6800225A724C4B1B6800229A714A4B1B680022DA70484B1B6800221A70464B1B68002283F82F20434B1B68002283F82C20414B1B68002283F829203E4B1B6879
:400E8000002283F826203C4B1B68002283F82320394B1B68002283F82020374B1B6800225A77354B1B6800229A76334B1B680022DA75314B1B6800221A752F4B1B68002213
:400EC0005A742D4B1B6800229A732B4B1B680022DA72294B1B6800221A72274B1B6800225A71254B1B6800229A70234B1B68FF2283F82E20204B1B68FF2283F82B201E4BD4
:400F00001B68FF2283F828201B4B1B68FF2283F82520194B1B68FF2283F82220164B1B68FF22DA77144B1B68FF221A77124B1B68FF225A76104B1B68FF229A750E4B1B6816
:400F4000FF22DA740C4B1B68FF221A740A4B1B68FF225A73084B1B68FF229A72064B1B68FF22DA71044B1B68FF221A71024B1B68FF225A70D3E000BFE0C2FF1F694B1B68CE
:400F8000002283F82D20674B1B68002283F82A20644B1B68002283F82720624B1B68002283F824205F4B1B68002283F821205D4B1B6800229A775B4B1B680022DA76594B5C
:400FC0001B6800221A76574B1B6800225A75554B1B6800229A74534B1B680022DA73514B1B6800221A734F4B1B6800225A724D4B1B6800229A714B4B1B680022DA70494B89
:401000001B6800221A70474B1B68002283F82F20444B1B68002283F82C20424B1B68002283F829203F4B1B68002283F826203D4B1B68002283F823203A4B1B68002283F80F
:401040002020384B1B6800225A77364B1B6800229A76344B1B680022DA75324B1B6800221A75304B1B6800225A742E4B1B6800229A732C4B1B680022DA722A4B1B68002242
:401080001A72284B1B6800225A71264B1B6800229A70244B1B68002283F82E20214B1B68002283F82B201F4B1B68002283F828201C4B1B68002283F825201A4B1B68002245
:4010C00083F82220174B1B680022DA77154B1B6800221A77134B1B6800225A76114B1B6800229A750F4B1B680022DA740D4B1B6800221A740B4B1B6800225A73094B1B68EB
:4011000000229A72074B1B680022DA71054B1B6800221A71034B1B6800225A7000BF0837BD4680BDE0C2FF1F80B582B000AF0023FB7103F04DFF0346FB71134B1B7819461B
:40114000124AFB795354104B1B780133DAB20E4B1A700D4B1B78632B02D90B4B00221A70FB79184600F014F8FB79184600F0BCF903F01CFF034603F02003002BD9D100BFCB
:401180000837BD4680BD00BFB4C3FF1FB8C3FF1F80B582B000AF0346FB719C4B1B78012B78D0022B00F09780002B00D070E1984B1B78002B20D1974B1B78FA799A420ED056
:4011C000944B5B79FA799A4209D0924B9B7AFA799A4204D08F4BDB7BFA799A420CD18C4B1B7819468C4AFB795354894B1B780133DAB2874B1A704CE0854B1B78012B41D199
:40120000844B5B78FA799A420ED0824B9B79FA799A4209D07F4BDB7AFA799A4204D07D4B1B7CFA799A422DD1794B1B7819467A4AFB795354764B1B780133DAB2744B1A70F6
:40124000724B01221A70734B9B79FA799A4203D1724B01221A701CE06E4BDB7AFA799A4203D16E4B02221A7013E06A4B1B7CFA799A4203D1694B03221A700AE0674B00228E
:401280001A7006E0624B00221A70644B00221A70FEE0FDE05E4B1B7819465F4AFB7953545B4B1B780133DAB2594B1A70584B1B7818465A4B1B781946564A0B469B000B44C3
:4012C000134402331B7802339842C0F2E0804F4B02221A70DBE04E4B1B7818464F4B1B7819464C4A0B469B000B44134402331B780233984219D1494B1B781946454A0B4646
:401300009B000B44134403331B78FA799A420CD13F4B1B781946404AFB7953543C4B1B780133DAB23A4B1A70B0E0394B1B7818463A4B1B781946374A0B469B000B441344DE
:4013400002331B780333984240F09680334B1B781946304A0B469B000B44134404331B78FA799A4240F08880294B1B7819462A4AFB795354294B1B78002B15D1FFF7C0F9C6
:401380000246274B1A60264B1B6803F14500214B9B781A46234905F001FB234B1B8801339AB2214B1A805DE01C4B1B78012B14D101F02AF902461D4B1A601C4B1B6818462B
:4013C000144BDB791A46174905F0E8FA164B5B8801339AB2144B5A8044E0104B1B78022B28D101F031F90246114B1A60104B1B681846084B1B7B1A460A4905F0CFFA0A4B4A
:401400009B8801339AB2084B9A802BE01CC4FF1F1DC4FF1FE4C0FF1F20C4FF1F33C4FF1F80C3FF1F22C4FF1F24C3FF1F94C3FF1FA0C3FF1F184B1B78032B13D101F004F965
:401440000246164B1A60154B1B681846144B5B7C1A46144905F0A2FA134BDB8801339AB2114BDA80114B00221A70114B00221A70094B00221A7009E00C4B00221A700C4B3A
:4014800000221A70044B00221A7001E000E000BF00BF0837BD4680BD33C4FF1FA0C3FF1FE4C0FF1F22C4FF1F24C3FF1F1DC4FF1F1CC4FF1F80B483B000AF0346FB71FB792A
:4014C000084A32F81330042B06D9FB79054A002122F81310012300E0002318460C37BD4680BC704724C3FF1F80B483B000AF0346FB71154B1B78FA799A4202D1134B0022DB
:401500001A70124B1B781A460F4B9B5CFA799A4202D00E4B00221A700C4B1B780133DAB20A4B1A70094B1B78052B07D9074B00221A70074B01221A70012300E00023184658
:401540000C37BD4680BC7047F8C0FF1F34C4FF1F2CC3FF1F80B582B000AFFFF7E1F80246124B1A60002004F001F97E2003F052FD442003F04FFD0023FB7109E00B4B1A6854
:40158000FB79D35C184603F045FDFB790133FB71FB790E2BF2D90D2003F03CFD0A2003F039FD00BF0837BD4680BD00BF38C4FF1F80B582B000AFFFF793F80246214B1A60E1
:4015C000002004F0D3F8204B00221A7010E01D4B1B681D4A12789A5C1C4B1B785340DAB21A4B1A70184B1B780133DAB2164B1A70154B1B784F2BEAD97E2003F00BFD492058
:4016000003F008FD0023FB7109E00E4B1A68FB79D35C184603F0FEFCFB790133FB71FB794E2BF2D9094B1B78184603F0F3FC0D2003F0F0FC0A2003F0EDFC00BF0837BD466B
:4016400080BD00BF4CC4FF1F50C4FF1F51C4FF1F80B500AF00F0C8FF0246134B1A607E2003F0D8FC492003F0D5FC104B00221A800DE00D4B1B680D4A12889B5C184603F076
:40168000C9FC0A4B1B8801339AB2084B1A80074B1B884E2BEDD90D2003F0BCFC0A2003F0B9FC00BF80BD00BFA4C4FF1FA8C4FF1F80B500AF022004F059F800F0B5FF024620
:4016C000124B1A607E2003F0A5FC482003F0A2FC0F4B00221A800DE00C4B1B680C4A12889B5C184603F096FC094B1B8801339AB2074B1A80064B1B88042BEDD90D2003F0D5
:4017000089FC0A2003F086FC00BF80BDACC3FF1FFCC4FF1F80B400AF064B1B78012B04D1044B00221A70012300E000231846BD4680BC70472CC3FF1F80B582B000AFA74BCB
:401740005B780A2B00F22B8201A252F823F000BF7D1700007518000095180000D318000023190000751900008F190000A9190000C3190000E9190000451B00000023FB7149
:4017800006E0FB79964A5F21D154FB790133FB71FB790A2BF5D9914B5B781A46904B492199548E4B49229A70012003F0C7F9002005F026F8002005F041F800F015FF02468F
:4017C000884B1A6007E0874B1A68BB790021D154BB790133BB71BB794E2BF4D9814B1B687E2283F835207F4B1B68332283F836207C4B1B680D2283F83A207A4B1B680A22E5
:4018000083F83B20774B1B687E2283F83C20754B1B68532283F83D20724B1B680D2283F84120704B1B680A2283F842206D4B1B687E2283F843206B4B1B68502283F84420B1
:40184000684B1B680D2283F84D20664B1B680A2283F84E20614B5B781A46614B502199545E4B50229A70642003F0FAF85B4B01225A7094E1594B5B781A46594B502199547A
:40188000564B50229A70642003F0EAF8534B02225A7084E100F0DEFA032003F057FC0220FFF708FE00BF0220FFF704FE0346002B06D14A4B5B781A46494B9B5C462BF2D1C7
:4018C00000F0E6FA642003F0CBF8444B03225A7065E1032003F04AFF00F086FE0246414B1A60404B1B68012283F83E203B4B5B781A463B4B42219954384B42229A704FF42C
:401900007A7003F0ADF800F06FFA364B1B68002283F83E20642003F0A3F8304B04225A703DE1032003F022FF00F05EFE02462D4B1A602C4B1B68012283F83F20274B5B7839
:401940001A46274B42219954244B42229A704FF47A7003F085F800F047FA224B1B68002283F83F204FF47A7003F07AF81B4B05225A7014E1194B5B781A46194B5521995472
:40198000164B55229A70154B06225A7007E1134B5B781A46124B55219954104B55229A700E4B07225A70FAE00C4B5B781A460C4B55219954094B55229A70084B08225A7058
:4019C000EDE0064B5B781A46054B55219954034B55229A70014B09225A70E0E038DCFF1F60C5FF1FBCC5FF1F032003F0AFFB032003F0BCFE00F02EFA002004F001FF012022
:401A000004F01CFF642003F02BF800F0EDFD0246654B1A60644B1B68002283F83E20624B1B68012283F83F20642003F019F800F00BFE02465D4B1A6000BF5C4B1B681B79EF
:401A4000012B06D05A4B5B781A465A4B9B5C462BF3D100F01DFA002004F0D2FE002004F0EDFE4FF47A7002F0FBFF002004F0C8FE002004F0E3FE4C4B1B68002283F83E20D4
:401A8000494B1B68002283F83F20494B5B781A46484B42219954464B42229A7000BF434B1B68DB78002BFAD1404B1B681B79002BF5D100F0CFF9012004F0A2FE002004F03D
:401AC000BDFE642002F0CCFF00F08EFD0246364B1A60354B1B68012283F83E20324B1B68002283F83F20642002F0BAFF00F0ACFD02462E4B1A6000BF2C4B1B68DB78012BF6
:401B000006D02B4B5B781A462A4B9B5C462BF3D100F0BEF9002004F073FE002004F08EFE4FF47A7002F09CFF1F4B1B68002283F83E201D4B1B68002283F83F201C4B0A229D
:401B40005A702CE000237B7115E07B79194AD35C502B0DD07B79174AD35C552B08D0144B5B781A46134B66219954114B66229A707B7901337B717B79092BE6D90C4B5B785A
:401B80001A460C4B9B5C662B08D0094B5B781A46084B70219954064B70229A70FEE7002318460837BD4680BDBCC5FF1FDCC5FF1F38DCFF1F60C5FF1F80B500AF04F0FAFA45
:401BC00003461A462C4B1A702B4B1A782B4B1B789A4206D12A4B1B780133DAB2284B1A7002E0274B00221A70254B1B78022B06D9214B1A78234B1A70214B00221A701E4B2C
:401C00001A781E4B1A701F4B1B78012B09D11E4B01221A701D4B1B780133DAB21B4B1A7005E0194B00221A70184B00221A70174B1B784B2B0BD9164B5B781A46154B4621AD
:401C40009954134B46229A70104B00221A70124B1B78012B07D10C4B1B78002B03D10F4B01221A7002E00D4B00221A70064B1A78094B1A7000BF80BDE0C5FF1FE1C5FF1F92
:401C8000E2C5FF1FE3C5FF1F5CC5FF1FE4C5FF1F38DCFF1F60C5FF1FE5C5FF1F5DC5FF1F80B500AF044B5B78072B02D100F0F6FF00BF00BF80BD00BF38DCFF1F80B400AF97
:401CC000184B1B8801339AB2164B1A80164B5B781A46164B33F81220124B1B889A4210D2104B00221A80124B1B88012B14D10E4B5B781A460F4B462199540B4B46229A7029
:401D00000AE0084B1B884FF6E852934206D9054B00221A8000BF01E000BF00E000BFBD4680BC704758C5FF1F38DCFF1F00C1FF1F5AC5FF1F60C5FF1F80B500AF00F028F8D0
:401D4000124B5B78002B1BD0104B5B78032B17D00E4B5B78042B13D00C4B5B78052B0FD00A4B5B78072B0BD0084B5B78082B07D0064B5B78092B03D0044B5B780A2B02D1A9
:401D8000FFF766FC00BF00BF80BD00BF38DCFF1F80B582B000AF0023FB710FE0FB795B00FA790F49895C0F4AD154FB795B0001330C4A2021D154FB790133FB71FB790A2B12
:401DC000ECD91621074803F00BFC0D2003F0AAFB0A2003F0A7FB00BF0837BD4680BD00BF60C5FF1FE8C5FF1F80B500AF164B5B781A46164B57219954134B57229A700FE001
:401E0000134B1B78002B0BD00F4B5B781A460F4B502199540C4B50229A700D4B00221A70094B5B781A46094B9B5C502B06D0064B5B781A46054B9B5C462BE1D1002003F06B
:401E40004DFA00BF80BD00BF38DCFF1F60C5FF1F5DC5FF1F80B400AF094B5B781A46094B42219954064B42229A70074B00221A80064B01221A8000BFBD4680BC704700BF4E
:401E800038DCFF1F60C5FF1F58C5FF1F5AC5FF1F80B400AF0B4B00221A800B4B5B781A460A4B9B5C462B09D0074B5B781A46074B50219954044B50229A7000BF00BFBD46A0
:401EC00080BC70475AC5FF1F38DCFF1F60C5FF1F80B582B000AFB34B5B780A2B00F2088201A252F823F000BF151F0000FB1F00004120000087200000CD2000001921000069
:401F00005F210000B1210000F721000055220000A12200000023FB7106E0FB79A24A5F21D154FB790133FB71FB790A2BF5D99D4B5B781A469C4B492199549A4B49229A7045
:401F400000F052FB0246994B1A6007E0974B1A68BB790021D154BB790133BB71BB794E2BF4D9924B1B687E2283F835208F4B1B68332283F836208D4B1B680D2283F83A20F9
:401F80008A4B1B680A2283F83B20884B1B687E2283F83C20854B1B68532283F83D20834B1B680D2283F84120804B1B680A2283F842207E4B1B687E2283F843207B4B1B6894
:401FC000502283F84420794B1B680D2283F84D20764B1B680A2283F84E20724B5B781A46714B502199546F4B50229A70642002F037FD6C4B01225A707AE100F05BFC00BFEA
:4020000002F0F6FD0346002B06D1664B5B781A46654B9B5C462BF3D100F06AFC642002F01FFD604B5B781A465F4B9B5C462B03D15C4B0A225A705BE15A4B02225A7057E160
:4020400000F038FC00BF00F05DF90346002B06D1544B5B781A46544B9B5C462BF3D100F047FC642002F0FCFC4E4B5B781A464E4B9B5C462B03D14B4B0A225A7038E1494BD4
:4020800003225A7034E100F015FC00BF00F06EF90346002B06D1434B5B781A46424B9B5C462BF3D100F024FC642002F0D9FC3D4B5B781A463C4B9B5C462B03D1394B0A22B7
:4020C0005A7015E1374B04225A7011E100F0F2FB012003F0E7FC00BF00F07CF90346002B06D1304B5B781A462F4B9B5C462BF3D100F0FEFB642002F0B3FC2A4B5B781A466F
:40210000294B9B5C462B03D1264B0A225A70EFE0244B05225A70EBE000F0CCFB00BF00F083F90346002B06D11E4B5B781A461E4B9B5C462BF3D100F0DBFB642002F090FC68
:40214000184B5B781A46184B9B5C462B03D1154B0A225A70CCE0134B06225A70C8E000F0A9FB00BF00F0A8F90346002B06D10D4B5B781A460C4B9B5C462BF3D100F0B8FB50
:40218000642002F06DFC074B5B781A46064B9B5C462B03D1034B0A225A70A9E0014B07225A70A5E038DCFF1F0CC7FF1F78C6FF1F00F080FB00BF00F0A9F90346002B06D117
:4021C0004E4B5B781A464E4B9B5C462BF3D100F08FFB642002F044FC484B5B781A46484B9B5C462B03D1454B0A225A7080E0434B08225A707CE0012000F01CFB642002F027
:402200002FFC00F057FB00BF00F0A0F90346002B06D13A4B5B781A46394B9B5C462BF3D100F066FB002000F005FB642002F018FC642002F015FC314B5B781A46304B9B5CA3
:40224000462B03D12D4B0A225A7051E02B4B0A225A704DE000F02EFB012002F077FF00BFFFF758FA0346002B06D1244B5B781A46234B9B5C462BF3D100F03AFB642002F016
:40228000EFFB1E4B5B781A461D4B9B5C462B03D11A4B0A225A702BE0184B0A225A7027E000237B7110E07B79154AD35C502B08D0124B5B781A46124B662199540F4B662217
:4022C0009A707B7901337B717B79082BEBD90B4B5B781A460A4B9B5C662B08D0074B5B781A46074B70219954044B70229A70FEE7002318460837BD4680BD00BF38DCFF1F81
:402300000CC7FF1F80B584B000AF0023FB6000237B60012000F08EFA0023FB7214E0FB7A184600F08FFE012002F09AFB04F048FA03467B60FB7A7A6802FA03F3FA681343A8
:40234000FB60FB7A0133FB72FB7A1F2BE7D9002000F070FAFB68B3F1FF3F01D1012300E0002318461037BD4680BD00BF80B500AF002004F035FA00BF002000F02DFE0346A7
:40238000002B06D1114B5B781A46114B9B5C462BF2D1012004F024FA00BF002000F01CFE0346002B06D1094B5B781A46084B9B5C462BF2D1054B5B781A46054B9B5C462B5E
:4023C00001D0012300E00023184680BD38DCFF1F0CC7FF1F80B582B000AF0023FB7116E0FB790233DBB2184603F04CFB00BF012000F01AFC0346002B06D1094B5B781A4606
:40240000084B9B5C462BF2D1FB790133FB71FB79072BE5D9012318460837BD4680BD00BF38DCFF1F0CC7FF1F80B500AF00F0FCF802461C4B1A601B4B1B6873221A70194B66
:402440001B6873225A70174B1B6873229A70154B1B687322DA70134B1B6873221A71012002F074FE00F0D0F802460F4B1A6000BF0E4B1B681B7A732B10D00C4B1B685B7A7D
:40248000732B0BD0094B1B689B7A732B06D0084B5B781A46074B9B5C462BE9D10123184680BD00BF84C6FF1F10C6FF1F24C6FF1F38DCFF1F0CC7FF1F80B500AF012003F04C
:4024C00055F900F091F802460D4B1A600C4B1B68FF2283F84920012000F02AFA012002F035FE00F071F80246064B1A60064B1B68DB79FF2B01D1012300E00023184680BD4F
:4025000078C6FF1F10C6FF1F24C6FF1F80B582B000AF012002F01AFE00F076F802460A4B1A600023FB71084B1B681B79FB71FB797D2B04D8FB79722B01D9012300E000231E
:4025400018460837BD4680BD24C6FF1F80B582B000AF0023FB7100237B71012002F0F6FD00F052F80246164B1A60012003F0FEF800F03AF80246134B1A600023BB7110E0D4
:40258000BB79184600F09CF803467B71FB795B005AB297F9053013435BB2FB71BB790133BB71BB79032BEBD9FB7903F00F030F2B01D1012300E0002318460837BD4680BD1E
:4025C00024C6FF1F78C6FF1F80B400AF044B054A1A60034B1B681846BD4680BC704700BF10C6FF1F00C6FF1F80B400AF044B054A1A60034B1B681846BD4680BC704700BFE1
:4026000078C6FF1F28C6FF1F80B400AF044B054A1A60034B1B681846BD4680BC704700BF24C6FF1F14C6FF1F80B400AF044B054A1A60034B1B681846BD4680BC704700BF74
:4026400084C6FF1F7CC6FF1F80B400AF044B054A1A60034B1B681846BD4680BC704700BF90C6FF1F88C6FF1F80B582B000AF0023FB710FE0FB795B00FA790F49895C0F4A67
:40268000D154FB795B0001330C4A2021D154FB790133FB71FB790A2BECD91621074802F09FFF0D2002F03EFF0A2002F03BFF00BF0837BD4680BD00BF0CC7FF1F18C7FF1F01
:4026C00080B584B000AF0346FB710023FB73FFF79BFF0246184B1A60FB79002B04D1164B1B681B78FB7319E0FB79012B04D1124B1B685B78FB7311E0FB79022B04D10E4B1F
:402700001B689B78FB7309E0FB79032B04D10A4B1B68DB78FB7301E0002308E0FB7B0A2B04D8FB7B072B01D9012300E0002318461037BD4680BD00BF24C6FF1F80B500AFF0
:40274000044B5B78042B02D100F088FA00BF00BF80BD00BF38DCFF1F80B500AF1A4B5B78042B01D100F07AFA184B1B8801339AB2164B1A80144B5B781A46154B33F81220C6
:40278000124B1B889A4210D2104B00221A80114B1B88012B14D10C4B5B781A460E4B46219954094B46229A700AE0084B1B884FF6E852934206D9054B00221A8000BF01E078
:4027C00000BF00E000BF80BD38DCFF1F08C7FF1F18C1FF1F0AC7FF1F0CC7FF1F80B500AFFFF742FF124B5B78002B13D0104B5B78022B0FD00E4B5B78032B0BD00C4B5B7856
:40280000052B07D00A4B5B78062B03D0084B5B78082B01D1FEF71CFF052002F021F9044B5B78052B02D1FEF743FF00BF00BF80BD38DCFF1F80B582B000AF0346FB710120C4
:4028400002F094FFFFF7D0FE0246194B1A60FB79012B14D1164B1B68FF2283F84520144B1B68FF2283F84620114B1B68FF2283F847200F4B1B68FF2283F8482014E00C4B8D
:402880001B68002283F84520094B1B68002283F84620074B1B68002283F84720044B1B68002283F8482000BF0837BD4680BD00BF78C6FF1F80B400AF094B5B781A46094BF2
:4028C00042219954064B42229A70074B00221A80064B01221A8000BFBD4680BC704700BF38DCFF1F0CC7FF1F08C7FF1F0AC7FF1F80B400AF0B4B00221A800B4B5B781A46BC
:402900000A4B9B5C462B09D0074B5B781A46074B50219954044B50229A7000BF00BFBD4680BC70470AC7FF1F38DCFF1F0CC7FF1F80B582B000AF0346FB71FB79012B18D127
:40294000012002F083F9012002F0B8F9012002F09BF9012002F0D0F9012002F0EBF9012002F006FA012002F021FA012002F03CFA18E0002002F06AF9002002F09FF90020C9
:4029800002F082F9002002F0B7F9002002F0D2F9002002F0EDF9002002F008FA002002F023FA00BF0837BD4680BD00BF80B582B000AF0023FB7102F0C1FF0346FB71114B6B
:4029C0001B781946104AFB7953540E4B1B780133DAB20C4B1A700B4B1B78632B02D9094B00221A70FB79184600F010F802F094FF034603F02003002BDDD100BF0837BD4609
:402A000080BD00BFBCC7FF1FC0C7FF1F80B483B000AF0346FB717E4B1B78012B5AD0022B78D0002B00D0EDE07A4B1B78002B16D1794B1B78FA799A4204D0774B5B79FA79AD
:402A40009A420CD1734B1B781946744AFB795354704B1B780133DAB26E4B1A7039E06D4B1B78012B2ED16C4B5B78FA799A4204D0694B9B79FA799A4224D1664B1B781946D8
:402A8000664AFB795354634B1B780133DAB2614B1A705F4B01221A705F4B5B78FA799A4203D15F4B00221A7013E05B4B9B79FA799A4203D15A4B01221A700AE0584B0022F6
:402AC0001A7006E0534B00221A70554B00221A7098E097E04F4B1B781946504AFB7953544C4B1B780133DAB24A4B1A70494B1B7818464B4B1B781946474A0B469B000B44BE
:402B0000134402331B78023398427ADB404B02221A7076E03F4B1B781846414B1B7819463D4A0B469B000B44134402331B780233984219D13A4B1B781946374A0B469B00CC
:402B40000B44134403331B78FA799A420CD1314B1B781946314AFB7953542E4B1B780133DAB22C4B1A704BE02A4B1B7818462C4B1B781946284A0B469B000B4413440233B6
:402B80001B780333984231D1254B1B781946224A0B469B000B44134404331B78FA799A4224D11C4B1B7819461C4AFB7953541C4B1B78002B06D11B4B1B8801339AB2194B3F
:402BC0001A8009E0164B1B78012B05D1154B5B8801339AB2134B5A800E4B00221A700C4B00221A700E4B00221A7009E0094B00221A70074B00221A70094B00221A7001E08C
:402C000000E000BF00BF0C37BD4680BC704700BF24C8FF1F25C8FF1F30C1FF1F28C8FF1F9BC8FF1F30C7FF1F80B483B000AF0346FB71FB79084A32F81330042B06D9FB79F6
:402C4000054A002122F81310012300E0002318460C37BD4680BC704730C7FF1F80B582B000AF7E2002F08CFE4C2002F089FE0023FB7106E0FB79184602F082FEFB7901335E
:402C8000FB71FB796E2BF5D90D2002F079FE0A2002F076FE00BF0837BD4680BD80B400AF084B1B8801339AB2064B1A80054B1B88642B03D9034B00221A8000BF00BFBD463C
:402CC00080BC70479CC8FF1F80B582B000AF002002F0E8FE7E2002F053FE022002F050FE0023FB7105E0002002F04AFEFB790133FB71FB79062BF6D9402002F041FE4220C5
:402D000002F03EFE0D2002F03BFE0A2002F038FE00BF0837BD4680BD80B582B000AF002002F0C0FEFDF782FE02461C4B1A600123FB710023BB7109E0184B1A68BB79D25CEB
:402D4000FB795340FB71BB790133BB71BB79072BF2D9124B1B68FA791A727E2002F010FE012002F00DFE00237B7109E00B4B1A687B79D35C184602F003FE7B7901337B7128
:402D80007B79082BF2D90D2002F0FAFD0A2002F0F7FD00BF0837BD4680BD00BF68C9FF1F80B582B000AF0023FB7102F099FB0346FB71114B1B781946104AFB7953540E4BB3
:402DC0001B780133DAB20C4B1A700B4B1B78632B02D9094B00221A70FB79184600F010F802F06CFB034603F02003002BDDD100BF0837BD4680BD00BF7FC9FF1F80C9FF1F28
:402E000080B483B000AF0346FB716D4B1B78012B43D0022B61D0002B00D0CBE0694B1B78002B11D1684B1B78FA799A420CD1654B1B781946654AFB795354624B1B78013393
:402E4000DAB2604B1A7027E05E4B1B78012B1CD15D4B5B78FA799A4217D15A4B1B7819465A4AFB795354574B1B780133DAB2554B1A70534B01221A70534B5B78FA799A4203
:402E80000AD1534B00221A7006E04E4B00221A704F4B00221A708DE08CE04A4B1B7819464A4AFB795354474B1B780133DAB2454B1A70444B1B781846454B1B781946424AE0
:402EC0000B469B000B44134402331B78023398426FDB3B4B02221A706BE03A4B1B7818463B4B1B781946384A0B469B000B44134402331B780233984219D1354B1B7819466B
:402F0000314A0B469B000B44134403331B78FA799A420CD12B4B1B7819462C4AFB795354284B1B780133DAB2264B1A7040E0254B1B781846264B1B781946234A0B469B0098
:402F40000B44134402331B780333984226D1204B1B7819461C4A0B469B000B44134404331B78FA799A4219D1164B1B781946174AFB795354164B1B78002B05D1154B1B88BD
:402F800001339AB2134B1A800E4B00221A700C4B00221A700E4B00221A7009E0094B00221A70074B00221A70094B00221A7001E000E000BF00BF0C37BD4680BC704700BF6E
:402FC000E4C9FF1FE5C9FF1F3CC1FF1FE8C9FF1FEFC9FF1F78C9FF1F80B483B000AF0346FB71FB790E4A32F81330052B06D1FB790B4A002122F8131001230BE0FB79084A14
:4030000032F81330052B04D9FB79054A002122F81310002318460C37BD4680BC704700BF78C9FF1F80B483B000AF0346FB71FB79034AD35C18460C37BD4680BC704700BF0C
:4030400044C1FF1F80B584B000AF0346FB710023FB73FB791846FFF7E5FF0346FB73FB7B072B25D8002003F035FB012003F014FB012003F0F5FA012003F0D8FAFB7B9B1057
:40308000DBB203F00103DBB2184603F03FFBFB7B5B10DBB203F00103DBB2184603F054FBFB7B03F00103DBB2184603F06BFB83E0FB7B072B28D9FB7B0F2B25D8012003F064
:4030C00009FB002003F0E8FA012003F0C9FA012003F0ACFAFB7B9B10DBB203F00103DBB2184603F013FBFB7B5B10DBB203F00103DBB2184603F028FBFB7B03F00103DBB255
:40310000184603F03FFB57E0FB7B0F2B28D9FB7B172B25D8012003F0DDFA012003F0BCFA002003F09DFA012003F080FAFB7B9B10DBB203F00103DBB2184603F0E7FAFB7BA0
:403140005B10DBB203F00103DBB2184603F0FCFAFB7B03F00103DBB2184603F013FB2BE0FB7B172B28D9FB7B1F2B25D8012003F0B1FA012003F090FA012003F071FA0020B6
:4031800003F054FAFB7B9B10DBB203F00103DBB2184603F0BBFAFB7B5B10DBB203F00103DBB2184603F0D0FAFB7B03F00103DBB2184603F0E7FAFFE700BF1037BD4680BD31
:4031C00080B582B000AFAA4B5B780A2B00F2328201A252F823F000BF053200004B320000AB320000CB320000A1330000FF33000081340000CF34000091350000B13500005F
:40320000D1350000012001F0B7FC002001F0D2FC0023FB7106E0FB79964A5F21D154FB790133FB71FB790A2BF5D9914B5B781A46904B492199548E4B49229A70642001F0E7
:403240000FFC8B4B01225A70F4E1FDF77BFB002001F07CFF00BF0020FEF72CF90346002B06D1834B5B781A46824B9B5C462BF2D1FDF786FBFDF7DAFB02467F4B1A607E4BE5
:403280001B6802225A71642001F0EAFB784B5B781A46784B9B5C462B03D1754B0A225A70C8E1734B02225A70C4E1714B5B781A46704B552199546E4B55229A70642001F0E1
:4032C000CFFB6B4B03225A70B4E1002001F03EFFFDF716FA0246694B1A60FDF7A7FB0246654B1A60FDF72EFB012001F045FC002001F060FC604B1B6800225A7100BF5F4B99
:403300001B6893F84A30002B06D0594B5B781A46584B9B5C462BF2D1012001F02DFC012001F048FC544B1B6802225A7100BF534B1B6893F84A30012B06D04D4B5B781A460B
:403340004C4B9B5C462BF2D1012001F015FC002001F030FC484B1B6802225A7100BF474B1B6893F84A30012B06D0414B5B781A46404B9B5C462BF2D1FDF702FB642001F070
:403380006FFB3B4B5B781A463A4B9B5C462B03D1374B0A225A704DE1354B04225A7049E1FDF7D0FA002001F0D1FEFDF7A9F90246324B1A6001E0FFF787FC304B1B6893F893
:4033C00048305BB2002B06DB294B5B781A46294B9B5C462BEFD1FDF7D3FA642001F040FB234B5B781A46234B9B5C462B03D1204B0A225A701EE11E4B05225A701AE11C4B21
:403400005B781A461B4B57219954194B57229A7000BFFDF747F90346002B06D1144B5B781A46144B9B5C462BF3D1114B5B781A46104B9B5C462B08D00D4B5B781A460D4B3F
:40344000502199540A4B50229A70642001F008FB074B5B781A46074B9B5C462B03D1044B0A225A70E6E0024B06225A70E2E000BF38DCFF1FC4CAFF1FB8CAFF1F40CAFF1F21
:40348000FDF760FA002002F0FDFA00BF0120FFF7CBFB0346002B06D1694B5B781A46694B9B5C462BF2D1FDF76BFA642001F0D8FA634B5B781A46634B9B5C462B03D1604BF2
:4034C0000A225A70B6E05E4B07225A70B2E00020FDF7BCFA5A4B5B781A465A4B42219954574B42229A7041F2883001F0B9FAFDF767FA0120FDF7AAFA514B5B781A46514B63
:40350000422199544E4B42229A7041F2883001F0A7FAFDF755FA0220FDF798FA484B5B781A46484B42219954454B42229A7041F2883001F095FAFDF743FA0320FDF786FAF2
:403540003F4B5B781A463F4B422199543C4B42229A7041F2883001F083FA394B5B781A46384B50219954364B50229A70642001F077FA334B5B781A46324B9B5C462B03D181
:403580002F4B0A225A7055E02D4B08225A7051E02B4B5B781A462B4B55219954284B55229A70642001F05CFA254B09225A7041E0234B5B781A46234B55219954204B5522AE
:4035C0009A70642001F04CFA1D4B0A225A7031E00023BB711AE0BB791A4AD35C502B12D0BB79184AD35C552B0DD0BB79154AD35C492B08D0124B5B781A46124B6621995499
:403600000F4B66229A70BB790133BB71BB79092BE1D90B4B5B781A460A4B9B5C662B08D0074B5B781A46074B70219954044B70229A70FEE7002318460837BD4680BD00BFC6
:4036400038DCFF1FC4CAFF1F80B582B000AFAC4B5B780F2B00F2278301A252F823F000BFA136000087370000B7370000E73700001D3800004D3800007D380000BF380000D0
:40368000DF3800000D39000069390000C5390000293A0000593A0000D53A00004D3C00000023FB7106E0FB79964A5F21D154FB790133FB71FB790F2BF5D9914B5B781A4672
:4036C000904B492199548E4B49229A70FEF78CFF02468D4B1A6007E08B4B1A68BB790021D154BB790133BB71BB794E2BF4D9864B1B687E2283F83520834B1B68332283F884
:403700003620814B1B680D2283F83A207E4B1B680A2283F83B207C4B1B687E2283F83C20794B1B68532283F83D20774B1B680D2283F84120744B1B680A2283F84220724BE5
:403740001B687E2283F843206F4B1B68502283F844206D4B1B680D2283F84D206A4B1B680A2283F84E20664B5B781A46654B50219954634B50229A70642001F071F9604B75
:4037800001225A708FE200F0E7FB00BFFEF7BAFD0346002B06D15A4B5B781A46594B9B5C462BF3D100F0F6FB642001F059F9544B02225A7077E200F0CFFB00BF00F080FA0A
:4037C0000346002B06D14E4B5B781A464D4B9B5C462BF3D100F0DEFB642001F041F9484B03225A705FE200F0B7FB012002F05AF900BFFEF7EFFD0346002B06D1404B5B7862
:403800001A46404B9B5C462BF3D100F0C3FB642001F026F93A4B04225A7044E200F09CFB00BFFEF749FE0346002B06D1344B5B781A46344B9B5C462BF3D100F0ABFB642050
:4038400001F00EF92E4B05225A702CE200F084FB00BFFEF75BFE0346002B06D1284B5B781A46284B9B5C462BF3D100F093FB642001F0F6F8224B06225A7014E20120FEF780
:40388000D9FF00F069FB00BFFEF760FE0346002B06D11B4B5B781A461A4B9B5C462BF3D100F078FB642001F0DBF80020FEF7C2FF642001F0D5F8124B07225A70F3E1104B13
:4038C0005B781A460F4B552199540D4B55229A70642001F0C5F80A4B08225A70E3E1084B5B781A46074B55219954054B55229A70642001F0B5F8024B09225A70D3E100BFDD
:4039000038DCFF1FE0CBFF1F48CBFF1F002001F015F9FA2001F0A4F8012001F027FFFEF763FE0246684B1A60674B1B68012283F83E20664B5B781A46654B42219954634BCF
:4039400042229A704FF47A7001F08AF800F042FB5D4B1B68002283F83E20642001F080F85A4B0A225A709EE1002001F0E7F8FA2001F076F8012001F0F9FEFEF735FE0246FD
:40398000514B1A60504B1B68012283F83F204F4B5B781A464E4B422199544C4B42229A704FF47A7001F05CF800F014FB464B1B68002283F83F20642001F052F8434B0B2220
:4039C0005A7070E1414B5B781A46414B422199543E4B42229A70012001F0B0F8FA2001F03FF8012001F0C2FEFEF7FEFD0246364B1A60354B1B68012283F84B2002F02EFCF1
:403A00004FF47A7001F02CF800F0E4FA02F038FC2D4B1B68002283F84B20642001F020F82A4B0C225A703EE1012001F087F8FA2001F016F8254B5B781A46254B5721995412
:403A4000224B57229A7000F0C5FA642001F008F81E4B0D225A7026E11C4B5B781A461C4B42219954194B42229A70012001F066F8FA2000F0F5FF012001F078FEFEF7B4FD0A
:403A80000246114B1A60104B1B68102283F83E200D4B1B68102283F83F204FF47A7000F0DFFF00F097FA084B1B68002283F83E20054B1B68002283F83F20642000F0D0FFB9
:403AC000024B0E225A70EEE048CBFF1F38DCFF1FE0CBFF1F764B5B781A46764B42219954734B42229A7041F2883000F0B9FF002001F024F8FA2000F0B3FF012001F026FBA5
:403B0000012001F033FE00F027FA002002F078FE012002F093FE642000F0A2FFFEF764FD0246654B1A60644B1B68002283F83E20614B1B68012283F83F20642000F090FFCC
:403B4000FEF762FD02465D4B1A6000BF5B4B1B689B79012B06D0564B5B781A46554B9B5C462BF3D100F016FA002002F049FE002002F064FE4FF47A7000F072FF002002F07C
:403B80003FFE002002F05AFE4B4B1B68002283F83E20494B1B68002283F83F20444B5B781A46444B42219954414B42229A7000BF424B1B685B79002BFAD1404B1B689B79E1
:403BC000002BF5D100F0C8F9012002F019FE002002F034FE642000F043FFFEF705FD0246354B1A60344B1B68012283F83E20324B1B68002283F83F20642000F031FF00BF69
:403C00002E4B1B685B79012B06D0294B5B781A46284B9B5C462BF3D100F0BCF9002002F0EFFD002002F00AFE234B1B68002283F83E20214B1B68002283F83F204FF47A70AB
:403C400000F00EFF1A4B0F225A702CE000237B7115E07B79174AD35C502B0DD07B79154AD35C552B08D0124B5B781A46114B662199540F4B66229A707B7901337B717B79CD
:403C80000E2BE6D90A4B5B781A460A4B9B5C662B08D0074B5B781A46064B70219954044B70229A70FEE7002318460837BD4680BD38DCFF1FE0CBFF1F48CBFF1FF4CAFF1FA3
:403CC00080B500AF002002F08BFD00BF0020FFF783F90346002B06D1114B5B781A46114B9B5C462BF2D1012002F07AFD00BF0020FFF772F90346002B06D1094B5B781A46F8
:403D0000084B9B5C462BF2D1054B5B781A46054B9B5C462B01D0012300E00023184680BD38DCFF1FE0CBFF1F80B582B000AF0023FB710FE0FB795B00FA790F49895C0F4AD0
:403D4000D154FB795B0001330C4A2021D154FB790133FB71FB790F2BECD92021074801F03FFC0D2001F0DEFB0A2001F0DBFB00BF0837BD4680BD00BFE0CBFF1FF0CBFF1F95
:403D800080B500AF02F016FA03461A462C4B1A702B4B1A782B4B1B789A4206D12A4B1B780133DAB2284B1A7002E0274B00221A70254B1B78022B06D9214B1A78234B1A70E5
:403DC000214B00221A701E4B1A781E4B1A701F4B1B78012B09D11E4B01221A701D4B1B780133DAB21B4B1A7005E0194B00221A70184B00221A70174B1B784B2B0BD9164B45
:403E00005B781A46154B46219954134B46229A70104B00221A70124B1B78012B07D10C4B1B78002B03D10F4B01221A7002E00D4B00221A70064B1A78094B1A7000BF80BD3D
:403E400010CCFF1F11CCFF1F12CCFF1F13CCFF1FDCCBFF1F14CCFF1F38DCFF1FE0CBFF1F15CCFF1FDDCBFF1F80B500AF1A4B5B78032B01D1FEF7F2FE184B1B8801339AB24A
:403E8000164B1A80144B5B781A46154B33F81220124B1B889A4210D2104B00221A80114B1B88012B14D10C4B5B781A460E4B46219954094B46229A700AE0084B1B884FF6B1
:403EC000E852934206D9054B00221A8000BF01E000BF00E000BF80BD38DCFF1FD8CBFF1F64C1FF1FDACBFF1FE0CBFF1F80B500AFFFF71AFF174B5B78002B23D0154B5B7852
:403F0000012B1FD0134B5B78022B1BD0114B5B78042B17D00F4B5B78062B13D00D4B5B78092B0FD00B4B5B780A2B0BD0094B5B780B2B07D0074B5B780D2B03D0054B5B7899
:403F40000E2B01D1FDF784FB052000F089FD00BF80BD00BF38DCFF1F80B400AF094B5B781A46094B42219954064B42229A70074B00221A80064B01221A8000BFBD4680BC54
:403F8000704700BF38DCFF1FE0CBFF1FD8CBFF1FDACBFF1F80B400AF0B4B00221A800B4B5B781A460A4B9B5C462B09D0074B5B781A46074B50219954044B50229A7000BF39
:403FC00000BFBD4680BC7047DACBFF1F38DCFF1FE0CBFF1F80B500AF164B5B781A46164B57219954134B57229A700FE0134B1B78002B0BD00F4B5B781A460F4B5021995404
:404000000C4B50229A700D4B00221A70094B5B781A46094B9B5C502B06D0064B5B781A46054B9B5C462BE1D1002001F057F900BF80BD00BF38DCFF1FE0CBFF1FDDCBFF1FBB
:4040400080B582B000AF786039603A680021786802F0AFFC00BF0837BD4680BD80B584B000AFF860B9607A607A68B968F86802F095FC00BF1037BD4680BD00BF80B483B086
:4040800000AF0346FB71FEE780B487B000AF7860396000233B6100237B6127E07B699B007A6813441B68BB60BB68FB73BB6823F0FF03BB6014E03B695B003A6813441B78AE
:4040C0001A46BB68134419463B695B003A6813445B780B703B6901333B61FB7B013BFB73FB7B002BE7D17B6901337B617B69252BD4D900BF1C37BD4680BC704780B582B010
:4041000000AF414B4BF67F321A80404B18221A703F4B0C221A803F4B18221A703E4B19221A803E4B18221A703D4B33221A803D4B18221A703C4B40F2DF121A803B4B182257
:404140001A703B4B40F2CF721A803A4B18221A70394B06221A70394B52221A70384B394A1278D2B21A70384B4FF4E2621A80374B41F251221A800023FB7019237B6014E084
:40418000FB785B00DAB2324B1B78DBB203F00103DBB21343DBB203F00303FB704FF4F07002F06AFB7B68013B7B607B68002B02D0FB78032BE4D17B68002B02D10320FFF719
:4041C0005DFF244B4FF480721A80224B07221A70214B00221A70214B48221A701D4B00221A701F4B00221A701E4B02221A701E4A1D4B1B78DBB243F03F03DBB2137000BF18
:404200000837BD4680BD00BF80400040824000408440004086400040884000408A4000408C4000408E400040904000409240004094400040964000400043004000420040B7
:40424000A14600400F0100492242004020420040254200400440004006400040084000400940004001400040A243004080B483B000AF114B1B78FB71104AFB7903F00703D4
:40428000DBB213700E4AFB791B09DBB213700D4B04221A700C4B10221A700C4B14221A700B4B10221A700B4B44221A7000BF0C37BD4680BC704700BFCF0100496E5800408E
:4042C0006F5800401D510040905A0040285B0040585B00407658004080B586B000AF72B60023FB7513E0FA7D13465B0013445B00574A13443B613B691A683B699B889BB2A8
:4043000019461046FFF79CFEFB7D0133FB75FB7D072BE8D90023FB751CE0FA7D13469B0013445B004B4A1344FB60FB681B68BB60FB685B687B60FB681A7A5B7A1B0213437D
:404340007B807B881A467968B868FFF787FEFB7D0133FB75FB7D012BDFD93F494FF09040FFF792FE3D4B20221A7004213C48FFF767FE04213B48FFF763FE3B4A3A4B1B78DA
:40438000DBB243F00203DBB21370384A374B1B78DBB243F00203DBB21370354A344B1B78DBB243F04003DBB21370324A314B1B78DBB243F01003DBB2137008222E492F4892
:4043C000FFF74CFE0A222E492E48FFF747FE0A222D492E48FFF742FE08222D492D48FFF73DFE08222C492D48FFF738FE08222C492C48FFF733FE08222B492C48FFF72EFEE7
:4044000008222B492B48FFF729FE08222A492B48FFF724FE2A4A2A4B1B78DBB243F00803DBB21370274B61221A70FFF767FE254BC1221A70244B01221A70FFF717FF0E22C0
:404440000B492248FFF70AFE00BF1837BD4680BDC8690000F8690000980000481260004000760040087600400350014013500140A0430040C2430040DC0B00480251004038
:40448000E40B0048C0510040F00B0048F0510040FC0B004812510040040C0048225100400C0C004832510040140C0048425100401C0C004852510040240C00486251004097
:4044C000224300400048004004000840B043004080B500AF02F036FA03461B680C2B00D1FEE7FEE780B586B000AF224B7B61224B3B61204B7B6135E03B691B68FB603B697E
:404500005B68BB603B699B683B6000237B600CE0FB681A68BB681A60BB680433BB60FB680433FB607B6804337B607A683B689A42EED13B69DB683B6000237B6008E0BB68E5
:4045400000221A60BB680433BB607B6804337B607A683B689A42F2D13B6910333B617B69013B7B617B69002BC6D102F0F1F9FBF789FDFEE701000000FC6A000080B582B0E5
:4045800000AF194B194A1A60194A194B1B6843F40073136000237B600FE07B68032B04D8144A7B6852F8233000E0134B13497A6841F822307B6801337B607B682F2BECD9F1
:4045C0000F4B1B78DAB20F4B1A700F4B0B4A1A60FFF782FE00F01CF80C4B00221A6000BF0837BD4680BD00BF0CED00E00004FA0514ED00E000000000D144000000C0FF1F1B
:40460000BC760040C4C0FF1F08ED00E0C0C0FF1F80B483B000AF134B7F221A70124B80221A707F23FB710CE0FB79DB0003F1804303F5F043FA79013AD2B21A70FB79013B34
:40464000FB71FB79002BEFD1FB79DB0003F1804303F5F04300221A7000BF0C37BD4680BC704700BF85C1FF1F84C1FF1F80B485B000AF03460A46FB711346BB710123FB60F3
:40468000FB79172B2FD8BB79002B0ED0FB791A01184B1344FA791101164A0A441278D2B242F02002D2B21A700DE0FB791A01114B1344FA7911010F4A0A441278D2B222F099
:4046C0002002D2B21A70FB791A010A4B1344FA791101084A0A441278D2B242F00102D2B21A700023FB60FB6818461437BD4680BC704700BF1070004080B485B000AF034679
:40470000FB710123FB60FB79172B1DD8FB791A01104B1344FA7911010E4A0A441278D2B222F00102D2B21A70FB791A01094B1344FA791101074A0A441278D2B222F02002A6
:40474000D2B21A700023FB60FB6818461437BD4680BC70471070004080B485B000AF03460A46FB711346BB710123FB60FB79172B1BD8FB791A01104B13441B78DBB223F0AD
:404780000E03FB72FB791A010B4B1344BA795200D2B252B202F00E0251B297F90B200A4352B2D2B21A700023FB60FB6818461437BD4680BC704700BF1070004080B485B0AB
:4047C00000AF0346FB710B46BB8013467B800123FB60BB8841F6FF72934202D14FF40053BB807B8841F6FF72934202D14FF400537B80FB79172B17D8FB79DB0003F1804303
:4048000003F5EC430433BB60BB68BA881A80FB79DB0003F1804303F5EC430633BB60BB687A881A800023FB60FB6818461437BD4680BC704780B485B000AF03460A46FB7123
:404840001346BB710123FB60FB79172B07D8FB791A01064B1344BA795A720023FB60FB6818461437BD4680BC704700BF1070004090B484B000AF0446084611461A4623468B
:40488000FB710346BB710B467B7113463B710123FB60FB79172B34D8FB79DB0003F1804303F5EC43BA7902F07F02D1B27A79D201D2B20A43D2B21A70FB79DB0003F1804393
:4048C00003F5EC433A7E1201D1B23A7902F00F02D2B20A43D2B25A70FB79DB0003F1804303F5EC433A7F02F00F02D2B29A70FB79DB0003F1804303F5EC430022DA7000233B
:40490000FB60FB6818461037BD4690BC704700BF80B582B000AFFF23FB7101F0B5FF0346BB71104B1B78182B12D90F4B1B78FB710C4B1B78013BDAB20A4B1A70FB79DB003C
:4049400003F1804303F5F0431B78DAB2064B1A70BB79184601F09CFFFB7918460837BD4680BD00BF84C1FF1F85C1FF1F90B484B000AF0446084611461A462346FB710346D2
:40498000BB800B46BB711346FB700123FB6097F90730002B23DBBB8823F47F6323F00F039BB2002B1BD1FB79DB0003F1804303F5F043BB60BB68BA881A80FB79DB0003F1B9
:4049C000804303F5F043BA799A70FB79DB0003F1804303F5F043FA78DA700023FB60FB6818461037BD4690BC704700BF80B485B000AF0346FB710B46BB8013467B80012383
:404A0000FB6097F90730002B17DBFB79DB0003F1804303F5F0430433BB60BB68BA881A80FB79DB0003F1804303F5F0430633BB60BB687A881A800023FB60FB6818461437E7
:404A4000BD4680BC704700BF80B483B000AF0346FB7101BE00BF0C37BD4680BC704700BF80B582B000AF786008E00C4B1B68184601F002FF7B68A3F500437B607B68B3F51C
:404A8000004FF2D8064B1B687A6802FB03F3184601F0F2FE00BF0837BD4680BD98C1FF1F90C1FF1F80B584B000AF03463960FB710F4B1B68FB60FB791F2B02D90020FFF784
:404AC000C3FFFB7903F01F0310339B00FA6813441B68BB60FB7903F01F0310339B00FA6813443A681A60BB6818461037BD4680BD08ED00E080B582B000AF03460A46FB7102
:404B00001346BB71BB79072B02D90020FFF79CFFFB791F2B02D90020FFF796FFFB7903F01F0303F1604303F56443BA795201D2B21A7000BF0837BD4680BD00BF80B485B001
:404B400000AF0346FB710B4B1B78DBB223F00203FB730849FB795B00DBB203F00203DAB2FB7B1343DBB20B7000BF1437BD4680BC704700BF0051004080B485B000AF03461F
:404B8000FB710B4B1B78DBB223F01003FB730849FB791B01DBB203F01003DAB2FB7B1343DBB20B7000BF1437BD4680BC704700BF2051004080B485B000AF0346FB710B4B18
:404BC0001B78DBB223F00803FB730849FB79DB00DBB203F00803DAB2FB7B1343DBB20B7000BF1437BD4680BC704700BF6051004080B400AF044B1B78DBB203F00103DBB2F8
:404C00001846BD4680BC70470151004080B400AF054B1B78DBB203F020035B09DBB21846BD4680BC704700BF4151004080B400AF054B1B78DBB203F040039B09DBB2184637
:404C4000BD4680BC704700BF4151004080B485B000AF0346FB710B4B1B78DBB223F00803FB730849FB79DB00DBB203F00803DAB2FB7B1343DBB20B7000BF1437BD4680BC0A
:404C8000704700BFC051004080B485B000AF0346FB71094B1B78DBB203F07F03FB730649FB79DB01DAB2FB7B1343DBB20B7000BF1437BD4680BC70473051004080B485B0E0
:404CC00000AF0346FB710B4B1B78DBB223F00403FB730849FB799B00DBB203F00403DAB2FB7B1343DBB20B7000BF1437BD4680BC704700BFC051004080B485B000AF03469A
:404D0000FB710B4B1B78DBB223F04003FB730849FB799B01DBB203F04003DAB2FB7B1343DBB20B7000BF1437BD4680BC704700BF3051004080B485B000AF0346FB710B4BA6
:404D40001B78DBB223F00803FB730849FB79DB00DBB203F00803DAB2FB7B1343DBB20B7000BF1437BD4680BC704700BFF051004080B485B000AF0346FB710B4B1B78DBB279
:404D800023F00403FB730849FB799B00DBB203F00403DAB2FB7B1343DBB20B7000BF1437BD4680BC704700BFF051004080B485B000AF0346FB710B4B1B78DBB223F0020389
:404DC000FB730849FB795B00DBB203F00203DAB2FB7B1343DBB20B7000BF1437BD4680BC704700BFC051004080B485B000AF0346FB710A4B1B78DBB223F00103FB73074919
:404E0000FB7903F00103DAB2FB7B1343DBB20B7000BF1437BD4680BC704700BFC051004080B500AF00F042F8044800F00FF8022000F01EF800F02EF800BF80BD414E00007D
:404E400080B500AFFCF770F900BF80BD80B485B000AF7860054B1B68FB60FB685C337A681A6000BF1437BD4680BC704708ED00E080B483B000AF0346FB71054AFB795B01CB
:404E8000DBB2137000BF0C37BD4680BC704700BF07E400E080B400AF034B80221A6000BFBD4680BC704700BF00E100E080B400AF034B80221A6000BFBD4680BC704700BF1D
:404EC00080E100E080B500AF064B1B78002B04D100F00AF8034B01221A7000F02DF800BF80BD00BF16CCFF1F80B500AF0C4B72221A700C4B20221A700B490120FFF7D2FD36
:404F000003210120FFF7F6FD084B06221A70084B47221A70074B02221A7000BF80BD00BF8464004086640040A95000002B6400403B6400408A64004080B582B000AF01F00F
:404F4000A3FC0346FB71144A134B1B78DBB243F02003DBB21370114A104B1B78DBB243F01003DBB213700E4A0D4B1B78DBB243F01003DBB213700B4B02221A600A4B0222DC
:404F80001A6000F0C9F8FB79184601F081FC00BF0837BD4680BD00BF94640040966400409A64004080E200E000E100E080B483B000AF064B1B78DBB203F07F03FB71FB79FA
:404FC00018460C37BD4680BC704700BF6664004080B483B000AF0023FB710C4B1B78BB71BB7903F02003002B09D0094B1B78FB71BB7903F01E03002B01D00023FB71FB79AE
:4050000018460C37BD4680BC704700BF666400404564004080B483B000AF0346FB711A4B1B78002B2BD0194B02221A60184B1B889AB2184B1B889A420AD1174B1B78DBB2AB
:4050400003F00403002B03D1144AFB79137013E0104B1B88B3F5806F02D30E4B00221A800C4B1B8819460E4AFB795354094B1B8801339AB2074B1A800A4B02221A6000BF8F
:405080000C37BD4680BC704716CCFF1F80E100E018CCFF1F1ACCFF1F6A6400404464004038CCFF1F00E100E080B400AF18E0154B1B889BB2B3F5806F02D3124B00221A80E7
:4050C000114B104A128892B21146104A525CD2B21A700C4B1B889BB201339AB2094B1A80084B1B889AB20A4B1B889A4206D0094B1B78DBB203F00403002BD8D000BFBD460B
:4051000080BC704718CCFF1F4464004038CCFF1F1ACCFF1F6A64004080B400AF094A094B1B78DBB243F00403DBB21370064A064B1B78DBB243F00403DBB2137000BFBD469D
:4051400080BC7047A2430040B243004080B483B000AF0346FB71044AFB79137000BF0C37BD4680BC704700BF7564004080B500AF224A224B1B78DBB203F00103DBB213701E
:405180001F4A1F4B1B78DBB223F00303DBB213701C4A1C4B1B78DBB223F03003DBB21370184A184B1B78DBB243F03003DBB21370144A144B1B78DBB223F00F03DBB2137023
:4051C000104A104B1B78DBB243F00F03DBB213700D4A0D4B1B78DBB243F00103DBB2137040F2DF1000F058F840F2DF1000F066F8082000F041F800BF80BD00BF0C4F0040F8
:405200000E4F0040174F00400D4F004080B400AF0D4A0D4B1B78DBB243F00203DBB213700A4A0A4B1B78DBB243F00203DBB21370074A074B1B78DBB243F00103DBB213707A
:4052400000BFBD4680BC7047A3430040B34300400C4F004080B500AF064B1B78002B04D1FFF784FF034B01221A70FFF7CFFF00BF80BD00BF1DCCFF1F80B483B000AF034661
:40528000FB71044AFB79137000BF0C37BD4680BC704700BF0F4F004080B485B000AF0346FB80FB88FB81044AFB89138000BF1437BD4680BC704700BF104F004080B483B0E3
:4052C00000AF0346FB80044AFB88138000BF0C37BD4680BC704700BF124F004080B485B000AF0346FB710B4B1B78DBB223F01003FB730849FB791B01DBB203F01003DAB2A8
:40530000FB7B1343DBB20B7000BF1437BD4680BC704700BF0051004080B500AF00F04EF8044800F01BF8052000F02AF800F03AF800BF80BD3953000080B500AFFBF7A0FA8F
:40534000FDF70AFAFCF7BAFCFEF78EFDFBF724FAFCF732FCFEF714FD00BF80BD80B485B000AF7860054B1B68FB60FB6850337A681A6000BF1437BD4680BC704708ED00E0A4
:4053800080B483B000AF0346FB71054AFB795B01DBB2137000BF0C37BD4680BC704700BF04E400E080B400AF034B10221A6000BFBD4680BC704700BF00E100E080B400AF7F
:4053C000034B10221A6000BFBD4680BC704700BF80E100E080B500AF064B1B78002B04D100F00AF8034B01221A7000F02DF800BF80BD00BF1ECCFF1F80B500AF0C4B7222A2
:405400001A700C4B20221A700B490020FFF74AFB04210020FFF76EFB084B06221A70084B47221A70074B02221A7000BF80BD00BF896400408F640040255600002C640040BB
:405440003C6400408B64004080B582B000AF01F01BFA0346FB71144A134B1B78DBB243F02003DBB21370114A104B1B78DBB243F01003DBB213700E4A0D4B1B78DBB243F0DB
:405480001003DBB213700B4B01221A600A4B01221A6000F051F9FB79184601F0F9F900BF0837BD4680BD00BF996400409F6400409B64004080E200E000E100E080B483B0CF
:4054C00000AF064B1B78DBB203F07F03FB71FB7918460C37BD4680BC704700BF6F64004080B483B000AF0023FB710C4B1B78BB71BB7903F02003002B09D0094B1B78FB7172
:40550000BB7903F01E03002B01D00023FB71FB7918460C37BD4680BC704700BF6F6400404F64004080B485B000AF0346FB71264B1B88FB81254B1B88BB81FA89BB899A4279
:4055400008D2FA89BB89013B9A420CBF01230023DBB209E0FA89BB89D31A40F2FF3293420CBF01230023DBB2002BE0D1BA89FB899A420AD1164B1B78DBB203F00403002B5F
:4055800003D1144AFB79137019E0FB89B3F5806F01D30023FB81FB890F49FA79CA54FB890133FB81084AFB891380094B1B78DBB203F00203002B02D0084B01221A6000BF19
:4055C0001437BD4680BC704722CCFF1F20CCFF1F6B6400404864004038D0FF1F00E200E080B584B000AF78600B467B800023FB810B4B1B78002B0ED009E0FB897A681344FE
:405600001B781846FFF78EFFFB890133FB81FA897B889A42F1D300BF1037BD4680BD00BF1ECCFF1F80B400AF18E0154B1B889BB2B3F5806F02D3124B00221A80114B104A29
:40564000128892B21146104A525CD2B21A700C4B1B889BB201339AB2094B1A80084B1B889AB20A4B1B889A4206D0094B1B78DBB203F00403002BD8D000BFBD4680BC704748
:4056800020CCFF1F4864004038D0FF1F22CCFF1F6B64004080B500AF00F042F8044800F00FF8022000F01EF800F02EF800BF80BDB556000080B500AFFDF772FB00BF80BDDC
:4056C00080B485B000AF7860054B1B68FB60FB6858337A681A6000BF1437BD4680BC704708ED00E080B483B000AF0346FB71054AFB795B01DBB2137000BF0C37BD4680BC32
:40570000704700BF06E400E080B400AF034B40221A6000BFBD4680BC704700BF00E100E080B400AF034B40221A6000BFBD4680BC704700BF80E100E080B400AF094A094B9B
:405740001B78DBB243F00803DBB21370064A064B1B78DBB243F00803DBB2137000BFBD4680BC7047A2430040B243004080B483B000AF0346FB71044AFB79137000BF0C378B
:40578000BD4680BC704700BF7865004080B500AF00F042F8044800F00FF8022000F01EF800F02EF800BF80BDAD57000080B500AFFDF7FCF800BF80BD80B485B000AF7860D0
:4057C000054B1B68FB60FB6860337A681A6000BF1437BD4680BC704708ED00E080B483B000AF0346FB71054AFB795B01DBB2137000BF0C37BD4680BC704700BF08E400E0D7
:4058000080B400AF034B4FF480721A6000BFBD4680BC704700E100E080B400AF034B4FF480721A6000BFBD4680BC704780E100E080B500AF064B1B78002B04D100F00AF882
:40584000034B01221A7000F02DF800BF80BD00BF26CCFF1F80B500AF0C4B72221A700C4B20221A700B490220FFF71CF903210220FFF740F9084B06221A70084B47221A7090
:40588000074B02221A7000BF80BD00BF8A65004088640040155A00002A6400403A6400408D64004080B582B000AF00F0EDFF0346FB71144A134B1B78DBB243F02003DBB220
:4058C0001370114A104B1B78DBB243F01003DBB213700E4A0D4B1B78DBB243F01003DBB213700B4B04221A600A4B04221A6000F0E9F8FB79184600F0CBFF00BF0837BD468A
:4059000080BD00BF9A650040986400409D64004080E200E000E100E080B483B000AF064B1B78DBB203F07F03FB71FB7918460C37BD4680BC704700BF6864004080B483B007
:4059400000AF0023FB710C4B1B78BB71BB7903F02003002B09D0094B1B78FB71BB7903F01E03002B01D00023FB71FB7918460C37BD4680BC704700BF68640040496500409B
:4059800080B483B000AF0346FB711A4B1B78002B2BD0194B04221A60184B1B889AB2184B1B889A420AD1174B1B78DBB203F00403002B03D1144AFB79137013E0104B1B882A
:4059C000B3F5006F02D30E4B00221A800C4B1B8819460E4AFB795354094B1B8801339AB2074B1A800A4B04221A6000BF0C37BD4680BC704726CCFF1F80E100E028CCFF1F27
:405A00002ACCFF1F6D6400404D64004038D4FF1F00E100E080B400AF18E0154B1B889BB2B3F5006F02D3124B00221A80114B104A128892B21146104A525CD2B21A700C4BDD
:405A40001B889BB201339AB2094B1A80084B1B889AB20A4B1B889A4206D0094B1B78DBB203F00403002BD8D000BFBD4680BC704728CCFF1F4D64004038D4FF1F2ACCFF1FA5
:405A80006D64004080B483B000AF0346FB71044AFB79137000BF0C37BD4680BC704700BF7965004080B483B000AF0346FB71044AFB79137000BF0C37BD4680BC704700BF29
:405AC0007D64004080B400AF094A094B1B78DBB243F00203DBB21370064A064B1B78DBB243F00203DBB2137000BFBD4680BC7047A2430040B243004080B500AF214A214BC0
:405B00001B78DBB203F00103DBB213701E4A1E4B1B78DBB223F00303DBB213701B4A1B4B1B78DBB223F03003DBB21370174A174B1B78DBB243F03003DBB21370134A134BCF
:405B40001B78DBB223F00F03DBB213700F4A0F4B1B78DBB243F00F03DBB213700C4A0C4B1B78DBB243F00103DBB21370EF2000F057F8EF2000F066F8082000F041F800BFD9
:405B800080BD00BF004F0040024F00400B4F0040014F004080B400AF0D4A0D4B1B78DBB243F00103DBB213700A4A0A4B1B78DBB243F00103DBB21370074A074B1B78DBB2D3
:405BC00043F00103DBB2137000BFBD4680BC7047A3430040B3430040004F004080B500AF064B1B78002B04D1FFF786FF034B01221A70FFF7CFFF00BF80BD00BF2DCCFF1FEA
:405C000080B483B000AF0346FB71044AFB79137000BF0C37BD4680BC704700BF034F004080B485B000AF0346FB80FB88FB81044AFB89138000BF1437BD4680BC704700BF0C
:405C4000044F004080B483B000AF0346FB80044AFB88138000BF0C37BD4680BC704700BF064F004080B500AF00F044F8044800F011F8042000F020F800F030F800BF80BD72
:405C8000855C000080B500AFFCF758FDFCF708F800BF80BD80B485B000AF7860054B1B68FB60FB684C337A681A6000BF1437BD4680BC704708ED00E080B483B000AF034658
:405CC000FB71054AFB795B01DBB2137000BF0C37BD4680BC704700BF03E400E080B400AF034B08221A6000BFBD4680BC704700BF00E100E080B400AF034B08221A6000BFED
:405D0000BD4680BC704700BF80E100E080B500AF224A224B1B78DBB203F00103DBB213701F4A1F4B1B78DBB223F00303DBB213701C4A1C4B1B78DBB223F03003DBB213702A
:405D4000184A184B1B78DBB243F03003DBB21370144A144B1B78DBB223F00F03DBB21370104A104B1B78DBB243F00F03DBB213700D4A0D4B1B78DBB243F00103DBB2137076
:405D800040F2AF4000F058F840F2AF4000F066F8082000F041F800BF80BD00BF184F00401A4F0040234F0040194F004080B400AF0D4A0D4B1B78DBB243F00403DBB2137061
:405DC0000A4A0A4B1B78DBB243F00403DBB21370074A074B1B78DBB243F00103DBB2137000BFBD4680BC7047A3430040B3430040184F004080B500AF064B1B78002B04D106
:405E0000FFF784FF034B01221A70FFF7CFFF00BF80BD00BF2ECCFF1F80B483B000AF0346FB71044AFB79137000BF0C37BD4680BC704700BF1B4F004080B485B000AF034685
:405E4000FB80FB88FB81044AFB89138000BF1437BD4680BC704700BF1C4F004080B483B000AF0346FB80044AFB88138000BF0C37BD4680BC704700BF1E4F004080B500AF53
:405E800000F08CF9044800F059F9072000F068F900F078F900BF80BD9D5E000080B500AFA44B1B780133DAB2A24B1A70A24B1B78002B02D1FAF722FD13E09F4B1B78012B48
:405EC00002D1FCF78BFC0CE09B4B1B78022B02D1FBF732FF05E0984B1B78042B01D1FEF705F8954B9B78492B07D0934B9B78422B03D0914B9B78552B09D1002000F0CCFCEF
:405F0000012000F0E7FC002000F0FEFC08E18A4B9B78572B28D1874B1B78012B09D8002000F0BAFC012000F0D5FC002000F0ECFCF6E0804B1B78022B0DD97E4B1B78032B34
:405F400009D8002000F0A8FC002000F0C3FC002000F0DAFCE4E0774B1B78042B40F2E080744B00221A70DBE0734B9B78502B3AD1714B1B78012B2CD16F4B5B780A2B28D14D
:405F80006C4B1B78012B09D8002000F085FC002000F0A0FC012000F0B7FCC0E0654B1B78022B0DD9634B1B78032B09D8002000F073FC002000F08EFC002000F0A5FCAEE0EB
:405FC0005C4B1B78042B40F2AA805A4B00221A70A5E0002000F060FC002000F07BFC012000F092FC9CE0544B9B78462B09D1012000F052FC002000F06DFC002000F084FC93
:406000008EE04D4B9B78702B27D14A4B1B78012B09D8002000F040FC002000F05BFC012000F072FC7CE0434B1B78022B0DD9414B1B78032B09D8002000F02EFC002000F045
:4060400049FC002000F060FC6AE03A4B1B78042B66D9384B00221A7062E0374B9B78662B27D1344B1B78012B09D8012000F014FC002000F02FFC002000F046FC50E02D4B9B
:406080001B78022B0DD92B4B1B78032B09D8002000F002FC002000F01DFC002000F034FC3EE0244B1B78042B3AD9224B00221A7036E0214B9B78722B27D11E4B1B78012BDE
:4060C00009D8012000F0E8FB012000F003FC012000F01AFC24E0174B1B78022B0DD9154B1B78032B09D8002000F0D6FB002000F0F1FB002000F008FC12E00E4B1B78042B88
:406100000ED90C4B00221A700AE0002000F0C4FB002000F0DFFB002000F0F6FB00E000BF044B1B78642B02D9024B00221A7000BF80BD00BF2FCCFF1F38DCFF1F80B485B07E
:4061400000AF7860054B1B68FB60FB6854337A681A6000BF1437BD4680BC704708ED00E080B483B000AF0346FB71054AFB795B01DBB2137000BF0C37BD4680BC704700BF9E
:4061800005E400E080B400AF034B20221A6000BFBD4680BC704700BF00E100E080B400AF034B20221A6000BFBD4680BC704700BF80E100E080B400AF054B1B78DBB203F00C
:4061C0000803DB08DBB21846BD4680BC704700BF4151004080B500AF00F068F9022000F0B7F9042000F0D4F9FEF792FB03461A46084B1A70FEF78CFB03461A46064B1A705F
:406200006421064800F052F86421054800F082F800BF80BD33CCFF1F34CCFF1F0C6A0000706A000080B500AF00F05EF9094B1B7801211846FEF71AFA074B1B78012118468E
:40624000FEF714FA002000F0C3F900F097F800BF80BD00BF31CCFF1F32CCFF1F80B500AF064B1B78002B04D1FFF7B4FF034B01221A70FFF7D7FF00BF80BD00BF30CCFF1FD1
:4062800080B500AF00F094F8064B1B781846FEF733FA054B1B781846FEF72EFA00F03EF900BF80BD31CCFF1F32CCFF1F80B582B000AF78600B467B807B681B0C9AB24FF48F
:4062C00080430121012000F08DF803461A460F4B1A700F4B18780E4B1A7879880123FEF745FB0B4B1B787A6891B245F682321846FEF77CFB054B1A78054B1B781946104626
:40630000FEF798FA00BF0837BD4680BD31CCFF1F33CCFF1F80B582B000AF78600B467B807B681B0C9AB24FF480430121012000F08BF803461A460F4B1A700F4B18780E4B44
:406340001A7879880123FEF711FB0B4B1B787A6891B245F682321846FEF748FB054B1A78054B1B7819461046FEF764FA00BF0837BD4680BD32CCFF1F34CCFF1F80B400AFAA
:40638000094A094B1B78DBB243F01003DBB21370064A064B1B78DBB243F01003DBB2137000BFBD4680BC7047A2430040B243004080B400AF094A094B1B78DBB223F01003CA
:4063C000DBB21370064A064B1B78DBB223F01003DBB2137000BFBD4680BC7047A2430040B243004090B585B002AF0446084611461A462346FB710346BB710B46BB801346DE
:406400007B80104B00221A700E4B1878BA79F97900230193002300930023FEF729FA094B1B787A88B9881846FEF7C8F9054B1B7802211846FEF790F9024B1B7818460C3783
:40644000BD4690BD9CC1FF1F90B585B002AF0446084611461A462346FB710346BB710B46BB8013467B80104B01221A700E4B1878BA79F97900230193002300930023FEF792
:40648000F7F9094B1B787A88B9881846FEF796F9054B1B7802211846FEF75EF9024B1B7818460C37BD4690BD9DC1FF1F80B500AF0A4B00221A700A4B00221A70094A094B56
:4064C0001B78DBB243F00803DBB21370002000F05FF8022000F03CF800BF80BD2858004029580040975A004080B400AF094A094B1B78DBB243F00403DBB21370064A064B3E
:406500001B78DBB243F00403DBB2137000BFBD4680BC7047A8430040B843004080B400AF094A094B1B78DBB223F00403DBB21370064A064B1B78DBB223F00403DBB2137017
:4065400000BFBD4680BC7047A8430040B843004080B483B000AF0346FB710C4A0B4B1B78DBB223F00203DBB213700849074B1B78DAB2FB7903F00203DBB21343DBB20B7028
:4065800000BF0C37BD4680BC704700BF2858004080B582B000AF0346FB710C4A0B4B1B78DBB223F00C03DBB213700849074B1B78DAB2FB7903F00C03DBB21343DBB20B7078
:4065C00000F016F800BF0837BD4680BD2858004080B483B000AF0346FB71044AFB79137000BF0C37BD4680BC704700BF825B004080B483B000AF0B4B1B78DBB203F00C032D
:406600009B08DBB20633FB71074AFB7903F1924303F594731B78DBB2137000BF0C37BD4680BC7047285800400A46004080B485B000AF0346FB71094B1B78DBB203F07F0357
:40664000FB730649FB79DB01DAB2FB7B1343DBB20B7000BF1437BD4680BC7047F051004080B485B000AF0346FB710A4B1B78DBB223F00103FB730749FB7903F00103DAB21E
:40668000FB7B1343DBB20B7000BF1437BD4680BC704700BF5051004080B485B000AF0346FB710B4B1B78DBB223F04003FB730849FB799B01DBB203F04003DAB2FB7B1343E3
:4066C000DBB20B7000BF1437BD4680BC704700BFF051004080B485B000AF0346FB710A4B1B78DBB223F00103FB730749FB7903F00103DAB2FB7B1343DBB20B7000BF143766
:40670000BD4680BC704700BFF051004080B485B000AF0346FB710B4B1B78DBB223F00203FB730849FB795B00DBB203F00203DAB2FB7B1343DBB20B7000BF1437BD4680BC0C
:40674000704700BF5051004080B485B000AF0346FB710B4B1B78DBB223F00403FB730849FB799B00DBB203F00403DAB2FB7B1343DBB20B7000BF1437BD4680BC704700BFF1
:406780005051004080B485B000AF0346FB710B4B1B78DBB223F00803FB730849FB79DB00DBB203F00803DAB2FB7B1343DBB20B7000BF1437BD4680BC704700BF50510040FE
:4067C00080B400AF054B1B78DBB203F08003DB09DBB21846BD4680BC704700BF6151004080B483B000AF0346FB71044AFB79137000BF0C37BD4680BC704700BF7C64004073
:4068000080B485B000AF0346FB710B4B1B78DBB223F00203FB730849FB795B00DBB203F00203DAB2FB7B1343DBB20B7000BF1437BD4680BC704700BF6051004080B485B071
:4068400000AF0346FB710B4B1B78DBB223F00403FB730849FB799B00DBB203F00403DAB2FB7B1343DBB20B7000BF1437BD4680BC704700BF605100400230800803D000BF73
:4068800001380046FCD17047EFF3108072B6704780F31088704700BF80B485B000AF0346FB710B4B1B78DBB223F04003FB730849FB799B01DBB203F04003DAB2FB7B134380
:4068C000DBB20B7000BF1437BD4680BC704700BF0051004080B485B000AF0346FB71094B1B78DBB203F07F03FB730649FB79DB01DAB2FB7B1343DBB20B7000BF1437BD4610
:4069000080BC70470051004080B485B000AF0346FB710B4B1B78DBB223F00403FB730849FB799B00DBB203F00403DAB2FB7B1343DBB20B7000BF1437BD4680BC704700BF02
:4069400040510040014B1868704700BF00C2FF1F0E4B70B51E460E4C0025E41AA410A54204D056F8253098470135F8E700F0B4F8084B094C1E46E41AA4100025A54204D085
:4069800056F8253098470135F8E770BDE46A0000E46A0000E46A0000EC6A000010B5431E0A44914204D011F8014B03F8014FF8E710BD03460244934202D003F8011BFAE73E
:4069C0007047000000000000004F00402400000001408004000501408009000F0140000100140140000800400140000A004C0140000200500140200080040140DC0A00482D
:406A00008000800E01405C0B004880009F9F9F9F9F9F9F9F9F9F9F9F9F9F9F9F9F9F9F9F9F9F9F9F9F9F9F9F9F9F9F9F9F9F9F9F9F9F9F9F9F9F9F9F9F9F9F9F9F9F60600A
:406A400060606060606060606060606060606060606060606060606060606060606060606060606060606060606060606060606080848A8F94989EA2A8ACB2B6BCC0C6CAC5
:406A8000D0D5DADEE4E8EEF2F8FCF8F2EEE8E4DEDAD4D0CAC6C0BCB6B2ADA8A29E98948F8A84807A76706B66615D58534E49443E39342F2A25211C17120D0803080D12172D
:406AC0001C21252A2F34393E44494E53585D61666B70767A43000000F8B500BFF8BC08BC9E4670474D0000007D450000F8B500BFF8BC08BC9E46704729000000106B0000C7
:406B0000C8C0FF1F40010000381A000000000000000000003200D00764003200320032003200320032003200320000007E50080D0A7E440F0D0A7E48050D0A7E53030D0A7D
:406B4000244750524D430000320032002C01320032003200320032003200640032000000320032006400C80032006400640032006400983A320000007E410A0D0A7E4C6FE8
:406B80000D0A00007E33030D0A0000000D0F0E0C020100031D1F1E1C0B08090A1B18191A05070604131011121416171532003200C8003200640032006400983A3200320075
:406BC0003200320032003200F4013200807F000003000000006CDC0280BB0000300000000000C05DFFFF0000000000000000000000000000000000000000000000000000D4
:406C00000000000000000000D46A00000000000000000000000000000000000000000000000000000000000000000000000000000000000000000000000000000000000016
:406C40000000000000000000A0C1FF1F0000000000000000000000000000000000000000000000000000000000000000000000000000000000000000000000000000000095
:406C800000000000000000000000000000000000000000000000000000000000000000000000000000000000000000000000000000000000000000000000000000000000D4
:406CC0000000000000000000000000000000000000000000000000000000000000000000000000000000000000000000000000000000000000000000000000000000000094
:406D00000000000000000000000000000000000000000000000000000000000000000000000000000000000000000000000000000000000000000000000000000000000053
:406D40000000000000000000000000000000000000000000000000000000000000000000000000000000000000000000000000000000000000000000000000000000000013
:020000040001F9
:0200000480007A
:40000000064F004006520040015A0040086400400165004005030140140401403A0501404806014048070140540801404C090140630A0140500B0140610C01404A0D0140A2
:400040000D0E0140370F01400815014008170140591801403F190140471A0140551B01400D40014015410140134201400B43014008440140134501400646014003470140B9
:4000800009480140084901400A4C0140184D0140085001400451014001500A360D5016361950223601081088110A208021806020970184728638883889728A0F8B0F8D0F62
:4000C0008F388A728B209040B440E602EE0C4042410645BC470E481349FF4AFF4BFF4EF04F44500C560257115A045B045D225F0166C06A406B02041207100D800E44159A16
:4001000017401C111D111E40250627122F253504361037013C103D083E404080412045024608474448944C014E015208570A59105C605D086504670A680869586A086E2028
:400140006F017202731888108D089040A320C070C2D0C4F0CA70CCE0CE70D0F5D214D674D870E040E288E640EE080003010404410502080209060C080F2012B31301140C2A
:4001800015071710184C1AA31B081C4F1D111E901F062106224023112404251728FF2B082CF32E0C2F203110320F3320347C3507368C370839023AA83F44541856045804A5
:4001C00059045B045C225D205F018703890C8B718C019510974098019B209D14A110A3ACA5DCA722A801AD09AFD0B31FB5E0B601BB20D804D904DC22DF01014004100501AC
:40020000060207100A080D800E040F50100815841608170A1A021D801E1D20082114244025082690270428A12E092F0A308031243616374039283C403D043E023F104508E1
:4002400046204E034F405C0162C066606780874090119140920893109582960699019A029B5A9C809E089F04A088A120A30AA404A580AC20B208B520C0F1C2F2C4F2CAFBB5
:40028000CCFECEF6D680D8B0E602001C01420202032C041008400B100C100D380E0C0F4610201203173819421B1C1C1421802306240925012610280C29012A112D01301F52
:4002C00031013334344035C03620371E39203B883E504041410245EE46CB480F49FF4AFF4BFF4EF04F44500C54185604580459045A045B045C335D135F0166C06A406B0268
:400300008022825184678B018C018E0E98449A31A467AF01B007B218B460B501BB02BE04BF10D602D712D804D904DB04DC21DD30DF01004A0421062007010A080D800E80A0
:4003400010801105171818501A081E881F4022012304240125422602271829802C222E1232043308371839203D823E204501460247114C104F01558057205A045C405D0238
:400380005F806680674468326A10708071148740920493109541965097899A2B9B019C089D149E409F1CA410A542A606A720B104B201B601C0FDC292C464CAF8CC60CEB443
:4003C000D0B0D682D8B0EC80EE400501064C0E081031120E146C16031C311E462613304A320F3301343038203A0A3E103F044006454049FF4A074BFF4C404D204EF04F05F8
:40040000500854015604580459045A045B045C015D215F01604061A86240632080038335840C88048D4A8E408F14917392B3930C9441970898F399739A0C9B049C4F9E9046
:40044000A008A402A503A714A8FFAC4CAEA3B110B27CB40FB560B68CB70FB920BAA8BB88BF11C002C704C9FFCA07CBFFCC40CD20CEF0CF05D008D401D604D804D904DA0425
