:400000000040002011000000091500000915000080B500AF024A034B1B68136001F07EFABC760040FA46004010B5054C237833B9044B13B10448AFF300800123237010BDA2
:4000400068C1FF1F0000000058210000084B10B51BB108490848AFF300800848036803B910BD074B002BFBD0BDE81040184700BF000000006CC1FF1F58210000C8C0FF1F10
:400080000000000080B500AF00F014F862B6084B01221A70064B1B78002B02D0012B03D005E000F01BF802E000F07AFA00BFEEE784C1FF1F80B500AF01F04CFF01F0F8FE3C
:4000C00001F08CFB01F038FB01F040FD01F082FD01F046FE01F088FE00BF80BD80B500AF1D4B1B78012B15D0022B30D0002B00D031E000F021FA00BF002000F031FA0346A7
:40010000002BF9D04FF47A7001F0A8FA124B01221A701FE000F028F803461A460F4B1A700F4B1B781A460D4B1B7899B20D4B23F812100B4B1B780133DAB2094B1A70084B73
:400140001B78C72B05D9064B00221A7001E000BF00E000BF00BF80BDA8C1FF1FA9C1FF1F3CC3FF1FACC1FF1F80B500AF00F00AF80246034B1A60024B1B685B79184680BD08
:4001800090C1FF1F80B400AF044B054A1A60034B1B681846BD4680BC704700BF90C1FF1F88C1FF1F80B582B000AF0023FB7101F09BFB0346FB71114B1B781946104AFB791E
:4001C00053540E4B1B780133DAB20C4B1A700B4B1B78632B02D9094B00221A70FB79184600F010F801F06EFB034603F02003002BDDD100BF0837BD4680BD00BF74C3FF1FCB
:4002000078C3FF1F80B582B000AF0346FB719E4B1B78012B78D0022B00F09780002B00D050E19A4B1B78002B20D1994B1B78FA799A420ED0964B5B79FA799A4209D0944B56
:400240009B7AFA799A4204D0914BDB7BFA799A420CD18E4B1B7819468E4AFB7953548B4B1B780133DAB2894B1A704CE0874B1B78012B41D1864B5B78FA799A420ED0844B34
:400280009B79FA799A4209D0814BDB7AFA799A4204D07F4B1B7CFA799A422DD17B4B1B7819467C4AFB795354784B1B780133DAB2764B1A70744B01221A70754B9B79FA7963
:4002C0009A4203D1744B01221A701CE0704BDB7AFA799A4203D1704B02221A7013E06C4B1B7CFA799A4203D16B4B03221A700AE0694B00221A7006E0644B00221A70664B45
:4003000000221A70DEE0DDE0604B1B781946614AFB7953545D4B1B780133DAB25B4B1A705A4B1B7818465C4B1B781946584A0B469B000B44134402331B7802339842C0F21C
:40034000C080514B02221A70BBE0504B1B781846514B1B7819464E4A0B469B000B44134402331B780233984219D14B4B1B781946474A0B469B000B44134403331B78FA796C
:400380009A420CD1414B1B781946424AFB7953543E4B1B780133DAB23C4B1A7090E03B4B1B7818463C4B1B781946394A0B469B000B44134402331B780333984276D1364B5D
:4003C0001B781946324A0B469B000B44134404331B78FA799A4269D12C4B1B7819462D4AFB7953542C4B1B78002B14D1FFF7CAFE02462A4B1A60294B1B681846244B9B78C9
:400400001A46274901F094FE264B1B8801339AB2244B1A802DE0204B1B78012B14D100F013FC0246204B1A601F4B1B681846184BDB791A461A4901F07BFE1A4B5B880133D9
:400440009AB2184B5A8014E0134B1B78022B06D1144B9B8801339AB2124B9A8009E00E4B1B78032B05D10F4BDB8801339AB20D4BDA80064B00221A70034B00221A70064B81
:4004800000221A701CE000BFDCC3FF1FDDC3FF1FCCC0FF1FE0C3FF1FF3C3FF1F50C3FF1FE2C3FF1F40C3FF1F64C3FF1F074B00221A70074B00221A70064B00221A7001E0E7
:4004C00000E000BF00BF0837BD4680BDDDC3FF1FDCC3FF1FF3C3FF1F80B500AF00F0D4FB0246134B1A607E2001F020FA492001F01DFA104B00221A800DE00D4B1B680D4ABD
:4005000012889B5C184601F011FA0A4B1B8801339AB2084B1A80074B1B884E2BEDD90D2001F004FA0A2001F001FA00BF80BD00BFF4C3FF1FF8C3FF1F80B400AF074B002245
:400540001A80064B00225A80044B00229A80034B0022DA8000BFBD4680BC704740C3FF1F80B483B000AF0346FB71FB79002B06D1FB79002B03D1084B1A88084B1A80074B81
:400580001B88042B01D9012300E0002318460C37BD4680BC704700BF40C3FF1F4CC4FF1F80B582B000AF974B1B780A2B00F2208201A252F823F000BFE5050000A906000017
:4005C000E90600004F070000A90700001908000073080000CD080000270900008D090000EF0900004FF47A7001F038F80023FB7106E0FB79844A5F21D154FB790133FB7119
:40060000FB79092BF5D900F03FFB02467F4B1A6007E07E4B1A68BB79B979D154BB790133BB71BB794E2BF4D9784B1B687E2283F83520764B1B68332283F83620734B1B6862
:400640000D2283F83A20714B1B680A2283F83B206E4B1B687E2283F83C206C4B1B68532283F83D20694B1B680D2283F84120674B1B680A2283F84220644B1B687E2283F82E
:400680004320624B1B68502283F844205F4B1B680D2283F84D205D4B1B680A2283F84E20584B08221A70A3E1564B1B781A46564B42219954564B00221A80564B01221A80B7
:4006C000544B00221A804F4B1B781A464E4B9B5C462B05D04B4B1B781A464B4B50219954484B02221A7083E1012000F04FFB454B1B781A46444B42219954454B00221A8011
:40070000444B01221A8000BF00F07EF90346002B06D13C4B1B781A463B4B9B5C462BF3D13C4B00221A80002000F030FB354B1B781A46354B9B5C462B05D0324B1B781A46B2
:40074000314B502199542F4B03221A7050E12D4B1B781A462C4B422199542D4B00221A802C4B01221A8000BF00F09AF90346002B06D1244B1B781A46234B9B5C462BF3D122
:40078000244B00221A801F4B1B781A461E4B9B5C462B05D01B4B1B781A461B4B50219954184B04221A7023E1164B1B781A46164B42219954164B00221A80164B01221A8097
:4007C00000BF00F075F90346002B06D10D4B1B781A460D4B9B5C462BF3D10E4B00221A80084B1B781A46084B9B5C462B05D0054B1B781A46044B50219954024B05221A70E9
:40080000F6E000BF46C5FF1F3CC5FF1FB4C4FF1F38C5FF1F3AC5FF1F774B1B781A46774B42219954764B00221A80764B01221A8000BF00F051F90346002B06D16E4B1B78BB
:400840001A466E4B9B5C462BF3D16E4B00221A80694B1B781A46694B9B5C462B05D0664B1B781A46654B50219954634B06221A70BEE0614B1B781A46604B42219954604B31
:4008800000221A805F4B01221A8000BF00F048F90346002B06D1584B1B781A46574B9B5C462BF3D1574B00221A80534B1B781A46524B9B5C462B05D04F4B1B781A464F4B86
:4008C000502199544C4B07221A7091E04A4B1B781A464A4B42219954494B00221A80494B01221A8000BF00F043F90346002B06D1414B1B781A46414B9B5C462BF3D1414BD8
:4009000000221A803C4B1B781A463C4B9B5C462B05D0394B1B781A46384B50219954364B08221A7064E0012000F030FA324B1B781A46324B42219954314B00221A80314BC0
:4009400001221A8000BF00F031F90346002B06D1294B1B781A46294B9B5C462BF3D1294B00221A80002000F011FA234B1B781A46224B9B5C462B05D01F4B1B781A461F4B72
:40098000502199541C4B00221A7031E01A4B1B781A461A4B42219954194B00221A80194B01221A8000BF00F03DF90346002B06D1114B1B781A46114B9B5C462BF3D1114B04
:4009C00000221A800C4B1B781A460C4B9B5C462B05D0094B1B781A46084B502199544FF47A7000F03BFE044B00221A7000E000BF00BF0837BD4680BD46C5FF1F3CC5FF1FEF
:400A000038C5FF1F3AC5FF1F80B582B000AF012001F03EFA00F038F90246204B1A601F4B1B68FF2283F845201C4B1B68FF2283F848201A4B1B68FF2283F84620174B1B6825
:400A4000FF2283F8472000233B600023FB7102E0FB790133FB71FB791F2BF9D90F4B1B68002283F845200D4B1B68002283F846200A4B1B68002283F84720084B1B6800220F
:400A800083F848203B686FF07F42934201D1012300E0002318460837BD4680BDB4C4FF1F80B400AF01231846BD4680BC704700BF80B582B000AF0023FB7102E0FB79013306
:400AC000FB71FB79072BF9D9032000F013FB034618460837BD4680BD80B500AF00F0C4F802460E4B1A600D4B1B6800221A700B4B1B6801225A70094B1B6802229A70074B7C
:400B00001B680122DA70054B1B6801221A710120FFF726FD0346184680BD00BFC0C4FF1F80B500AF00F090F802460F4B1A60012001F0AEF900F0A8F802460C4B1A600B4B95
:400B40001B68002283F84920084B1B68FF2283F84920054B1B68DB79FF2B01D0002300E00123184680BD00BF60C4FF1FB4C4FF1F80B582B000AF00F067F802460A4B1A601A
:400B80000023FB71084B1B681B79FB71FB797C2B04D8FB79732B01D9012300E0002318460837BD4680BD00BF60C4FF1F80B582B000AF0023FB7100237B7100F045F80246BF
:400BC000164B1A60012001F063F900F05DF80246134B1A600023BB7110E0BB79184600F063F803467B71FB795B005AB297F9053013435BB2FB71BB790133BB71BB79032B91
:400C0000EBD9FB7903F00F030F2B01D1012300E0002318460837BD4680BD00BF60C4FF1FB4C4FF1F80B483B000AF064A3B461068186092889A80002318460C37BD4680BCC2
:400C4000704700BF5C21000080B400AF044B054A1A60034B1B681846BD4680BC704700BF60C4FF1F50C4FF1F80B400AF044B054A1A60034B1B681846BD4680BC704700BF4F
:400C8000C0C4FF1FB8C4FF1F80B400AF044B054A1A60034B1B681846BD4680BC704700BFB4C4FF1F64C4FF1F80B584B000AF0346FB710023FB73FFF7C7FF0246184B1A60FE
:400CC000FB79002B04D1164B1B681B78FB7319E0FB79012B04D1124B1B685B78FB7311E0FB79022B04D10E4B1B689B78FB7309E0FB79032B04D10A4B1B68DB78FB7301E06E
:400D0000002308E0FB7B0A2B04D8FB7B072B01D9012300E0002318461037BD4680BD00BF60C4FF1F80B400AF144B1B8801339AB2124B1A80114B1B88322B0DD90F4B002278
:400D40001A800F4B1B88012B11D10E4B1B781A460D4B462199540AE0084B1B884FF6E852934206D9054B00221A8000BF01E000BF00E000BFBD4680BC704700BF38C5FF1FE9
:400D80003AC5FF1F46C5FF1F3CC5FF1F80B483B000AF0346FB71FB79012B14D1164B1B68FF2283F84520144B1B68FF2283F84620114B1B68FF2283F847200F4B1B68FF22D5
:400DC00083F8482014E00C4B1B68002283F84520094B1B68002283F84620074B1B68002283F84720044B1B68002283F8482000BF0C37BD4680BC7047B4C4FF1F80B582B0C1
:400E000000AF0023FB7101F019F90346FB71114B1B781946104AFB7953540E4B1B780133DAB20C4B1A700B4B1B78632B02D9094B00221A70FB79184600F010F801F0ECF87B
:400E4000034603F02003002BDDD100BF0837BD4680BD00BFD8C5FF1FDCC5FF1F80B483B000AF0346FB719D4B1B78012B00F08280022B00F0A080002B00D02AE1984B1B78A6
:400E8000002B20D1974B1B78FA799A420ED0954B5B79FA799A4209D0924B9B7AFA799A4204D0904BDB7BFA799A420CD18C4B1B7819468D4AFB795354894B1B780133DAB244
:400EC000874B1A7055E0864B1B78012B4AD1854B5B78FA799A420ED0824B9B79FA799A4209D0804BDB7AFA799A4204D07D4B1B7CFA799A4236D17A4B1B7819467A4AFB79F6
:400F00005354774B1B780133DAB2754B1A70734B01221A70734B5B78FA799A4203D1734B00221A7025E06F4B9B79FA799A4203D16E4B01221A701CE06A4BDB7AFA799A4271
:400F400003D16A4B02221A7013E0664B1B7CFA799A4203D1654B03221A700AE0634B00221A7006E05E4B00221A70604B00221A70AFE0AEE05A4B1B7819465B4AFB79535433
:400F8000574B1B780133DAB2554B1A70544B1B781846564B1B781946524A0B469B000B44134402331B7802339842C0F291804B4B02221A708CE04A4B1B7818464B4B1B78C8
:400FC0001946484A0B469B000B44134402331B780233984219D1454B1B781946414A0B469B000B44134403331B78FA799A420CD13B4B1B7819463C4AFB795354384B1B78EA
:401000000133DAB2364B1A7061E0354B1B781846364B1B781946334A0B469B000B44134402331B780333984247D1304B1B7819462C4A0B469B000B44134404331B78FA790F
:401040009A423AD1264B1B781946274AFB795354264B1B78002B06D1254B1B8801339AB2234B1A801FE0214B1B78012B06D1204B5B8801339AB21E4B5A8014E01B4B1B78FA
:40108000022B06D11A4B9B8801339AB2184B9A8009E0164B1B78032B05D1154BDB8801339AB2134BDA800E4B00221A700B4B00221A700E4B00221A7009E0094B00221A70D6
:4010C000064B00221A70094B00221A7001E000E000BF00BF0C37BD4680BC704740C6FF1F41C6FF1FE0C0FF1F44C6FF1F57C6FF1F4CC5FF1F80B483B000AF0346FB71FB79A3
:40110000064A32F81330042B01D9012300E0002318460C37BD4680BC704700BF4CC5FF1F80B500AF7E2000F001FC4C2000F0FEFB0D4B00221A800BE00B4B1B88DBB2184696
:4011400000F0F4FB084B1B8801339AB2064B1A80054B1B886E2BEFD90D2000F0E7FB0A2000F0E4FB00BF80BD5AC6FF1F80B582B000AF786039603A680021786800F0E3FFAD
:4011800000BF0837BD4680BD80B584B000AFF860B9607A607A68B968F86800F0C9FF00BF1037BD4680BD00BF80B483B000AF0346FB71FEE780B487B000AF78603960002310
:4011C0003B6100237B6127E07B699B007A6813441B68BB60BB68FB73BB6823F0FF03BB6014E03B695B003A6813441B781A46BB68134419463B695B003A6813445B780B7015
:401200003B6901333B61FB7B013BFB73FB7B002BE7D17B6901337B617B69152BD4D900BF1C37BD4680BC704780B582B000AF3A4B4BF67F321A80394B18221A70384B0C22D4
:401240001A80384B18221A70374B19221A80374B18221A70364B40F2CF721A80354B18221A70354B06221A70344B52221A70344B344A1278D2B21A70334B4FF4E2621A803B
:40128000324B41F251221A800023FB7019237B6014E0FB785B00DAB22D4B1B78DBB203F00103DBB21343DBB203F00303FB704FF4F07000F001FF7B68013B7B607B68002B80
:4012C00002D0FB78032BE4D17B68002B02D10320FFF76AFF1F4B4FF480721A801D4B07221A701D4B00221A701C4B48221A70194B00221A701A4B00221A701A4B02221A706C
:40130000194A194B1B78DBB243F00F03DBB2137000BF0837BD4680BD80400040824000408440004086400040884000408A4000408C4000408E4000400043004000420040F6
:40134000A14600400F0100492242004020420040254200400440004006400040084000400940004001400040A243004080B483B000AF0B4B1B78FB710A4AFB7903F007030F
:40138000DBB21370084AFB791B09DBB21370074B44221A7000BF0C37BD4680BC704700BFCF0100496E5800406F5800407658004080B586B000AF72B60023FB7513E0FA7DB7
:4013C00013465B0013445B00404A13443B613B691A683B699B889BB219461046FFF7C6FEFB7D0133FB75FB7D0A2BE8D90023FB751CE0FA7D13469B0013445B00344A134456
:40140000FB60FB681B68BB60FB685B687B60FB681A7A5B7A1B0213437B807B881A467968B868FFF7B1FEFB7D0133FB75FB7D012BDFD928494FF09040FFF7BCFE264A264B83
:401440001B78DBB243F00203DBB21370234A234B1B78DBB243F00203DBB21370204A204B1B78DBB243F04003DBB213701D4A1D4B1B78DBB243F01003DBB2137008221A4974
:401480001A48FFF781FE082219491A48FFF77CFE194A194B1B78DBB243F00803DBB21370164B61221A70FFF7BFFE144BC1221A70134B01221A70FFF759FF0E2208491148A2
:4014C000FFF762FE00BF1837BD4680BD64210000A8210000580000480350014013500140A0430040C243004074050048C25100407C050048225100402243004000480040FD
:4015000004000840B043004080B500AF00F0E4FD03461B680C2B00D1FEE7FEE780B586B000AF224B7B61224B3B61204B7B6135E03B691B68FB603B695B68BB603B699B6866
:401540003B6000237B600CE0FB681A68BB681A60BB680433BB60FB680433FB607B6804337B607A683B689A42EED13B69DB683B6000237B6008E0BB6800221A60BB68043364
:40158000BB607B6804337B607A683B689A42F2D13B6910333B617B69013B7B617B69002BC6D100F09FFDFEF76DFDFEE701000000E421000080B582B000AF184B184A1A60A7
:4015C000184A184B1B6843F40073136000237B600FE07B68032B04D8134A7B6852F8233000E0124B12497A6841F822307B6801337B607B682F2BECD90E4B1B78DAB20E4B05
:401600001A700E4B0A4A1A60FFF7D2FE0C4B00221A6000BF0837BD4680BD00BF0CED00E00004FA0514ED00E0000000000915000000C0FF1FBC760040C4C0FF1F08ED00E0A1
:40164000C0C0FF1F80B483B000AF0346FB7101BE00BF0C37BD4680BC704700BF80B582B000AF786008E00C4B1B68184600F024FD7B68A3F500437B607B68B3F5004FF2D82F
:40168000064B1B687A6802FB03F3184600F014FD00BF0837BD4680BD00C1FF1FF8C0FF1F80B584B000AF03463960FB710F4B1B68FB60FB791F2B02D90020FFF7C3FFFB79AC
:4016C00003F01F0310339B00FA6813441B68BB60FB7903F01F0310339B00FA6813443A681A60BB6818461037BD4680BD08ED00E080B582B000AF03460A46FB711346BB71E7
:40170000BB79072B02D90020FFF79CFFFB791F2B02D90020FFF796FFFB7903F01F0303F1604303F56443BA795201D2B21A7000BF0837BD4680BD00BF80B500AF00F042F815
:40174000044800F00FF8022000F01EF800F02EF800BF80BD5917000080B500AFFEF722FD00BF80BD80B485B000AF7860054B1B68FB60FB684C337A681A6000BF1437BD461F
:4017800080BC704708ED00E080B483B000AF0346FB71054AFB795B01DBB2137000BF0C37BD4680BC704700BF03E400E080B400AF034B08221A6000BFBD4680BC704700BFA0
:4017C00000E100E080B400AF034B08221A6000BFBD4680BC704700BF80E100E080B500AF064B1B78002B04D100F00AF8034B01221A7000F02DF800BF80BD00BF5CC6FF1FD9
:4018000080B500AF0C4B72221A700C4B20221A700B490020FFF744FF03210020FFF768FF084B06221A70084B47221A70074B02221A7000BF80BD00BF876500408665004081
:40184000C119000024640040346400408564004080B582B000AF00F037FC0346FB71144A134B1B78DBB243F02003DBB21370114A104B1B78DBB243F01003DBB213700E4A11
:401880000D4B1B78DBB243F01003DBB213700B4B01221A600A4B01221A6000F0C9F8FB79184600F015FC00BF0837BD4680BD00BF97650040966500409564004080E200E002
:4018C00000E100E080B483B000AF064B1B78DBB203F07F03FB71FB7918460C37BD4680BC704700BF6665004080B483B000AF0023FB710C4B1B78BB71BB7903F02003002BBA
:4019000009D0094B1B78FB71BB7903F01E03002B01D00023FB71FB7918460C37BD4680BC704700BF666500404765004080B483B000AF0346FB711A4B1B78002B2BD0194B9A
:4019400001221A60184B1B889AB2184B1B889A420AD1174B1B78DBB203F00403002B03D1144AFB79137013E0104B1B88B3F5806F02D30E4B00221A800C4B1B8819460E4AC8
:40198000FB795354094B1B8801339AB2074B1A800A4B01221A6000BF0C37BD4680BC70475CC6FF1F80E100E05EC6FF1F60C6FF1F656400404564004068C6FF1F00E100E0B9
:4019C00080B400AF18E0154B1B889BB2B3F5806F02D3124B00221A80114B104A128892B21146104A525CD2B21A700C4B1B889BB201339AB2094B1A80084B1B889AB20A4BEA
:401A00001B889A4206D0094B1B78DBB203F00403002BD8D000BFBD4680BC70475EC6FF1F4564004068C6FF1F60C6FF1F6564004080B400AF094A094B1B78DBB243F00403B3
:401A4000DBB21370064A064B1B78DBB243F00403DBB2137000BFBD4680BC7047A2430040B243004080B500AF224A224B1B78DBB203F00103DBB213701F4A1F4B1B78DBB265
:401A800023F00303DBB213701C4A1C4B1B78DBB223F03003DBB21370184A184B1B78DBB243F03003DBB21370144A144B1B78DBB223F00F03DBB21370104A104B1B78DBB278
:401AC00043F00F03DBB213700D4A0D4B1B78DBB243F00103DBB2137040F2DF1000F058F840F2DF1000F066F8082000F041F800BF80BD00BF004F0040024F00400B4F0040E5
:401B0000014F004080B400AF0D4A0D4B1B78DBB243F00103DBB213700A4A0A4B1B78DBB243F00103DBB21370074A074B1B78DBB243F00103DBB2137000BFBD4680BC70474D
:401B4000A3430040B3430040004F004080B500AF064B1B78002B04D1FFF784FF034B01221A70FFF7CFFF00BF80BD00BF63C6FF1F80B483B000AF0346FB71044AFB79137068
:401B800000BF0C37BD4680BC704700BF034F004080B485B000AF0346FB80FB88FB81044AFB89138000BF1437BD4680BC704700BF044F004080B483B000AF0346FB80044A22
:401BC000FB88138000BF0C37BD4680BC704700BF064F004080B500AF00F042F8044800F00FF8052000F01EF800F02EF800BF80BDF51B000080B500AFFFF794F800BF80BD83
:401C000080B485B000AF7860054B1B68FB60FB6844337A681A6000BF1437BD4680BC704708ED00E080B483B000AF0346FB71054AFB795B01DBB2137000BF0C37BD4680BC40
:401C4000704700BF01E400E080B400AF034B02221A6000BFBD4680BC704700BF00E100E080B400AF034B02221A6000BFBD4680BC704700BF80E100E080B500AF224A224BE4
:401C80001B78DBB203F00103DBB213701F4A1F4B1B78DBB223F00303DBB213701C4A1C4B1B78DBB223F03003DBB21370184A184B1B78DBB243F03003DBB21370144A144B86
:401CC0001B78DBB223F00F03DBB21370104A104B1B78DBB243F00F03DBB213700D4A0D4B1B78DBB243F00103DBB2137040F2AF4000F058F840F2AF4000F066F8082000F067
:401D000041F800BF80BD00BF0C4F00400E4F0040174F00400D4F004080B400AF0D4A0D4B1B78DBB243F00203DBB213700A4A0A4B1B78DBB243F00203DBB21370074A074B87
:401D40001B78DBB243F00103DBB2137000BFBD4680BC7047A3430040B34300400C4F004080B500AF064B1B78002B04D1FFF784FF034B01221A70FFF7CFFF00BF80BD00BF95
:401D800064C6FF1F80B483B000AF0346FB71044AFB79137000BF0C37BD4680BC704700BF0F4F004080B485B000AF0346FB80FB88FB81044AFB89138000BF1437BD4680BCED
:401DC000704700BF104F004080B483B000AF0346FB80044AFB88138000BF0C37BD4680BC704700BF124F004080B500AF00F044F8044800F011F8042000F020F800F030F89F
:401E000000BF80BD091E000080B500AFFFF788F9FEF762FB00BF80BD80B485B000AF7860054B1B68FB60FB6848337A681A6000BF1437BD4680BC704708ED00E080B483B042
:401E400000AF0346FB71054AFB795B01DBB2137000BF0C37BD4680BC704700BF02E400E080B400AF034B04221A6000BFBD4680BC704700BF00E100E080B400AF034B0422F5
:401E80001A6000BFBD4680BC704700BF80E100E080B483B000AF0346FB71044AFB79137000BF0C37BD4680BC704700BF7764004080B500AF00F042F8044800F00FF8072099
:401EC00000F01EF800F02EF800BF80BDD11E000080B500AFFEF792FF00BF80BD80B485B000AF7860054B1B68FB60FB6850337A681A6000BF1437BD4680BC704708ED00E040
:401F000080B483B000AF0346FB71054AFB795B01DBB2137000BF0C37BD4680BC704700BF04E400E080B400AF034B10221A6000BFBD4680BC704700BF00E100E080B400AF33
:401F4000034B10221A6000BFBD4680BC704700BF80E100E080B500AF064B1B78002B04D100F00AF8034B01221A7000F025F800BF80BD00BF65C6FF1F80B400AF094B722221
:401F80001A70094B20221A70084B06221A70084B47221A70074B00221A7000BFBD4680BC704700BF856500408465004027640040376400408664004080B582B000AF00F091
:401FC00083F80346FB71114A104B1B78DBB243F02003DBB213700E4A0D4B1B78DBB243F01003DBB213700B4A0A4B1B78DBB243F01003DBB2137000F043F8FB79184600F042
:4020000067F800BF0837BD4680BD00BF95650040946500409664004080B483B000AF064B1B78DBB203F07F03FB71FB7918460C37BD4680BC704700BF6465004080B483B0F5
:4020400000AF0023FB710C4B1B78BB71BB7903F02003002B09D0094B1B78FB71BB7903F01E03002B01D00023FB71FB7918460C37BD4680BC704700BF6465004045650040DB
:4020800080B400AF094A094B1B78DBB243F00203DBB21370064A064B1B78DBB243F00203DBB2137000BFBD4680BC7047A2430040B2430040000000000230800803D000BFCA
:4020C00001380046FCD17047EFF3108072B6704780F31088704700BF014B1868704700BF64C1FF1F0E4B70B51E460E4C0025E41AA410A54204D056F8253098470135F8E721
:4021000000F05EF8084B094C1E46E41AA4100025A54204D056F8253098470135F8E770BDCC210000CC210000CC210000D421000010B5431E0A44914204D011F8014B03F8D0
:40214000014FF8E710BD03460244934202D003F8011BFAE770470000000000002447504D52430000004F00401800005100402000305100404000F0510040100000000140B6
:40218000001000140140800000150140800100170140000500400140000A004C0140000200500140200000008014014074040048800080160140F40400488000430000004C
:4021C000F8B500BFF8BC08BC9E4670474D000000B5150000F8B500BFF8BC08BC9E46704729000000F8210000C8C0FF1FA00000000009000000000000000000007E50080D56
:402200000A7E440F0D0A7E48030D0A7E53030D0A7E410A0D0A7E4C6F0D0A7E59090D0A7E43040D0A006CDC0280BB0000300000000000C05D0000000000000000000000000C
:402240000000000000000000000000000000000000000000BC2100000000000000000000000000000000000000000000000000000000000000000000000000000000000081
:40228000000000000000000000000000000000000000000004C1FF1F000000000000000000000000000000000000000000000000000000000000000000000000000000003B
:4022C00000000000000000000000000000000000000000000000000000000000000000000000000000000000000000000000000000000000000000000000000000000000DE
:40230000000000000000000000000000000000000000000000000000000000000000000000000000000000000000000000000000000000000000000000000000000000009D
:40234000000000000000000000000000000000000000000000000000000000000000000000000000000000000000000000000000000000000000000000000000000000005D
:40238000000000000000000000000000000000000000000000000000000000000000000000000000000000000000000000000000000000000000000000000000000000001D
:020000040001F9
:0200000480007A
:40000000044F004001520040026400400465004062040140390501406006014039070140040A0140020B01401114014036150140141601404317014006400140044101405B
:4000400010420140034301400448014003490140045001400251014001300A4B0D30164B6104850F860F84388572863887720280048005010C700E0C1220145C1602186C27
:4000800019011A111C801D011E032010240926102814310132803460361F38203A023E144002454049FF4A074BFF4C404D204EF04F055008580459045A045C225D025F01BD
:4000C000604061A862406320810382088304861C88218A0E91139223930C941C9623970899139B049E20A021A120A216A305A90AAB14B020B20FB330B41AB70FB908BA28B2
:40010000BB80BE01C045C102C6E0C7CBC838C9FFCAFFCBFFCEF0CF44D00CD401D604D804D904DA04DB04DC22DD22DF01E6C0EA40EB02000A03010511072009180A050BC0B8
:400140000D080F421080110812041701180419041A411C401D181E041F0822022504260827212F48325035103608370139043F02400445104701488049014F405340542056
:40018000560457015C415D105E0865028502C07DC2BFC41ECAA0CCECCE82D0A4D210D6F0D880E201012005140D100F0C111C1302150C171118011F03211029092B10311FA0
:4001C000340135203E103F104042410346C047EB483849FF4AFF4BFF4EF04F44500C5401580459045A045B045C105D115F0166C06A406B02832087138A088B108C738D1109
:400200008E0C8F469320947395119604970E9D4C9F13A02AA244A308A403A604A880AA15AB4CB00FB110B34AB4C0B520B630B70FB8A0BA02BB88BE40BF11C001C540C9FF66
:40024000CA07CBFFCC40CD20CEF0CF05D008D804D904DA04DB04DC11DD01DF01E040E1A8E240E32000400120030109080C2012141302184119201E08210822882346274851
:4002800029212D223108328136083742384039103A143B023C403D013E0A400145084604470149035204561A5D115F4868059240950496A0A020A202A405A604B110B30133
:4002C000B421B504C003C244C40ECAA5CCDBCEDFD0E8D6F0EA10B908BF04D904DF01272083200B010E011B012201320137013A803E043F4054185604580459045B045C01F4
:400300005D105F010301054007600E251080171A1A011B441D601E6420012408250A262027112E842F083001310232203540360437123A103E2A3F80452946804C844F80FE
:40034000561058015E40608163086E086F2A7628772A848086129B40A101A72AC0B1C2E0C478CA70CCF4CEF4D0E0D230D611D80D160118031B011E022503280329032D02F7
:40038000310232013301360254185604580459045B045C125D205F010004018009800A540D900E201080120213101720180419A51A101B401DC01E202008212022092301DB
:4003C0002501275029602A042B402F2A308031243202371038283A804004418042C048044A024B02520459015F016640674469246AA06B2070947204731086488740924078
:400400009304950496A29702A202C005C2EFC44BCA7FCC2FCE0ED00DD20CD681D8B03384368037023B40CCF0CE1097409F06A680A7801280170450045F0163018301878004
:4004400097409F06A680A780C430D420D6C0E280E61097409F02B404870297409F02E64087409740E64000060A0610061A0600EB01030000000771300602000000060000D1
:400480000F375000000400000E086100791006087F0600310400000002310006010800000000001108103608070746200080A800000001002405060003E0C0000AFFFFFFBB
:4004C00062A0F0410C00000000000210040404041111000100000000000040020010301000101012000000000000000000000000000000000000000079060600000200002D
:400500000E3761007F0000110F06503102000008010400000407003000000008063100060010710008204608070736100002A800000001042504060001E0000C12FFFFFF3B
:4005400062A0F0410C0000000000021304040404222200010000000000004002001030100010101200000000000000000000000000000000000404000400000000202000C2
:40058000000000000000000000000000000000000000000000000000000000000000000000000000000000000000000000000000000000000000000000000000000000003B
:4005C00000000000000000000000000000000000000000000000000000000000000000000000000000000000000000000000000000000000000000000000000000000000FB
:4006000000000000000000000000000000000000000000000000000000000000000000000000000000000000000000000000000000000000000000000000000000000000BA
:40064000000000000000000000000000000000000000000000000000000000000000000000000000000000000000000000000000000000000000000000000000000000007A
:0200000490006A
:0400000000004003B9
:0200000490105A
:04000000BC90ACAF55
:0200000490303A
:0200000008CA2C
:0200000490402A
:400000005555555555555555555555555555555555555555555555555555555555555555555555555555555555555555555555555555555555555555555555555555555580
:400040005555555555555555555555555555555555555555555555555555555555555555555555555555555555555555555555555555555555555555555555555555555540
:0200000490501A
:0C00000000012E16C06900012E24C93337
:00000001FF