:4000000000400020110000006D4800006D48000080B500AF024A034B1B68136004F030FCBC760040FA46004010B5054C237833B9044B13B10448AFF300800123237010BDBD
:4000400020C2FF1F00000000746D0000084B10B51BB108490848AFF300800848036803B910BD074B002BFBD0BDE81040184700BF0000000024C2FF1F746D0000C8C0FF1FCE
:400080000000000080B500AF514B01221A7000F0A7F862B604F088FF03461A464D4B1A7004F092FF03461A464B4B1A70484B1B78002B29D104F078FF0346012B08D104F0E0
:4000C00083FF0346002B03D1444B00221A703AE004F06AFF0346002B08D104F075FF0346002B03D13D4B01221A702CE004F05CFF0346002B27D104F067FF0346012B22D1C9
:40010000364B02221A701EE0314B1B78012B1AD104F04AFF0346012B08D104F055FF0346002B03D12D4B03221A700CE004F03CFF0346002B07D104F047FF0346002B02D142
:40014000264B04221A70254B1B78042BA2D801A252F823F0690100007D01000091010000A5010000B90100001C4B00225A7000BF00F054F80346002BFAD027E0174B0022C1
:400180005A7000BF01F00EFF0346002BFAD01DE0124B00225A7000BF01F038FB0346002BFAD013E00D4B00225A7000BF03F072F80346002BFAD009E0084B00225A7000BF9B
:4001C00003F06CFB0346002BFAD000BF62E700BF3CC2FF1F3DC2FF1F3EC2FF1F68DCFF1F80B500AF05F0F4FC05F0A0FC05F038F804F0E4FF05F0BEFA05F01CFC05F0CAFF19
:4002000006F00CF805F0F4F905F054FA05F0B6FE05F0F8FE06F0F8F900BF80BD80B582B000AFAA4B5B780A2B00F2328201A252F823F000BF61020000A7020000070300009A
:4002400027030000FD0300005B040000DD0400002B050000ED0500000D0600002D060000012004F057FE002004F072FE0023FB7106E0FB79964A5F21D154FB790133FB713C
:40028000FB790A2BF5D9914B5B781A46904B492199548E4B49229A70642004F0AFFD8B4B01225A70F4E100F051FB002005F01CF900BF002001F002F90346002B06D1834B32
:4002C0005B781A46824B9B5C462BF2D100F05CFB00F0B0FB02467F4B1A607E4B1B6802225A71642004F08AFD784B5B781A46784B9B5C462B03D1754B0A225A70C8E1734B19
:4003000002225A70C4E1714B5B781A46704B552199546E4B55229A70642004F06FFD6B4B03225A70B4E1002005F0DEF800F0E8F90246694B1A6000F07DFB0246654B1A60B9
:4003400000F004FB012004F0E5FD002004F000FE604B1B6800225A7100BF5F4B1B6893F84A30002B06D0594B5B781A46584B9B5C462BF2D1012004F0CDFD012004F0E8FDFA
:40038000544B1B6802225A7100BF534B1B6893F84A30012B06D04D4B5B781A464C4B9B5C462BF2D1012004F0B5FD002004F0D0FD484B1B6802225A7100BF474B1B6893F8AC
:4003C0004A30012B06D0414B5B781A46404B9B5C462BF2D100F0D8FA642004F00FFD3B4B5B781A463A4B9B5C462B03D1374B0A225A704DE1354B04225A7049E100F0A6FA7C
:40040000002005F071F800F07BF90246324B1A6001E002F0C3FC304B1B6893F848305BB2002B06DB294B5B781A46294B9B5C462BEFD100F0A9FA642004F0E0FC234B5B7884
:400440001A46234B9B5C462B03D1204B0A225A701EE11E4B05225A701AE11C4B5B781A461B4B57219954194B57229A7000BF00F019F90346002B06D1144B5B781A46144B74
:400480009B5C462BF3D1114B5B781A46104B9B5C462B08D00D4B5B781A460D4B502199540A4B50229A70642004F0A8FC074B5B781A46074B9B5C462B03D1044B0A225A7060
:4004C000E6E0024B06225A70E2E000BF68DCFF1F14C3FF1F08C3FF1F90C2FF1F00F036FA002005F09FFC00BF012002F007FC0346002B06D1694B5B781A46694B9B5C462BD3
:40050000F2D100F041FA642004F078FC634B5B781A46634B9B5C462B03D1604B0A225A70B6E05E4B07225A70B2E0002000F092FA5A4B5B781A465A4B42219954574B422242
:400540009A7041F2883004F059FC00F03DFA012000F080FA514B5B781A46514B422199544E4B42229A7041F2883004F047FC00F02BFA022000F06EFA484B5B781A46484BBF
:4005800042219954454B42229A7041F2883004F035FC00F019FA032000F05CFA3F4B5B781A463F4B422199543C4B42229A7041F2883004F023FC394B5B781A46384B50213C
:4005C0009954364B50229A70642004F017FC334B5B781A46324B9B5C462B03D12F4B0A225A7055E02D4B08225A7051E02B4B5B781A462B4B55219954284B55229A706420E0
:4006000004F0FCFB254B09225A7041E0234B5B781A46234B55219954204B55229A70642004F0ECFB1D4B0A225A7031E00023BB711AE0BB791A4AD35C502B12D0BB79184A1A
:40064000D35C552B0DD0BB79154AD35C492B08D0124B5B781A46124B662199540F4B66229A70BB790133BB71BB79092BE1D90B4B5B781A460A4B9B5C662B08D0074B5B787A
:400680001A46074B70219954044B70229A70FEE7002318460837BD4680BD00BF68DCFF1F14C3FF1F80B500AF002004F01DFF00F027F80246094B1A60084B1B6893F8453015
:4006C000FF2B07D1054B1B6893F84630FF2B01D1012300E00023184680BD00BF90C2FF1F80B400AF044B054A1A60034B1B681846BD4680BC704700BFF8C2FF1FA8C2FF1FF8
:4007000080B400AF044B054A1A60034B1B681846BD4680BC704700BF90C2FF1F40C2FF1F80B400AF044B054A1A60034B1B681846BD4680BC704700BFA4C2FF1F94C2FF1F73
:4007400080B582B000AF0023FB710FE0FB795B00FA790F49895C0F4AD154FB795B0001330C4A2021D154FB790133FB71FB790A2BECD91621074805F003F90D2005F0A2F874
:400780000A2005F09FF800BF0837BD4680BD00BF14C3FF1F20C3FF1F80B500AF05F0E0FE03461A462C4B1A702B4B1A782B4B1B789A4206D12A4B1B780133DAB2284B1A70A6
:4007C00002E0274B00221A70254B1B78022B06D9214B1A78234B1A70214B00221A701E4B1A781E4B1A701F4B1B78012B09D11E4B01221A701D4B1B780133DAB21B4B1A702A
:4008000005E0194B00221A70184B00221A70174B1B784B2B0BD9164B5B781A46154B46219954134B46229A70104B00221A70124B1B78012B07D10C4B1B78002B03D10F4B0F
:4008400001221A7002E00D4B00221A70064B1A78094B1A7000BF80BD36C3FF1F37C3FF1F38C3FF1F39C3FF1F10C3FF1F3AC3FF1F68DCFF1F14C3FF1F3BC3FF1F11C3FF1F55
:4008800080B400AF184B1B8801339AB2164B1A80164B5B781A46164B33F81220124B1B889A4210D2104B00221A80124B1B88012B14D10E4B5B781A460F4B462199540B4B0C
:4008C00046229A700AE0084B1B884FF6E852934206D9054B00221A8000BF01E000BF00E000BFBD4680BC70470CC3FF1F68DCFF1FCCC0FF1F0EC3FF1F14C3FF1F80B500AFB2
:40090000FFF71EFF02F072FA0F4B5B78002B0BD00D4B5B78012B07D00B4B5B78022B03D0094B5B78032B01D100F04AFE064B5B78072B03D0044B5B780A2B02D100F06EFEAE
:4009400000BF00BF80BD00BF68DCFF1F80B400AF094B5B781A46094B42219954064B42229A70074B00221A80064B01221A8000BFBD4680BC704700BF68DCFF1F14C3FF1FE7
:400980000CC3FF1F0EC3FF1F80B400AF0B4B00221A800B4B5B781A460A4B9B5C462B09D0074B5B781A46074B50219954044B50229A7000BF00BFBD4680BC70470EC3FF1FE4
:4009C00068DCFF1F14C3FF1F80B500AF164B5B781A46164B57219954134B57229A700FE0134B1B78002B0BD00F4B5B781A460F4B502199540C4B50229A700D4B00221A707F
:400A0000094B5B781A46094B9B5C502B06D0064B5B781A46054B9B5C462BE1D1002004F02BFE00BF80BD00BF68DCFF1F14C3FF1F11C3FF1F80B400AF044B054A1A60034B1B
:400A40001B681846BD4680BC704700BF08C3FF1FFCC2FF1F80B582B000AF0346FB71FFF73FFE02466D4B1A60FFF74AFE02466C4B1A60FB79002B40F0D580684B1B68FF2271
:400A800083F82D20654B1B68FF2283F82A20634B1B68FF2283F82720604B1B68FF2283F824205E4B1B68FF2283F821205B4B1B68FF229A77594B1B68FF22DA76574B1B6812
:400AC000FF221A76554B1B68FF225A75534B1B68FF229A74514B1B68FF22DA734F4B1B68FF221A734D4B1B68FF225A724B4B1B68FF229A71494B1B68FF22DA70474B1B68A6
:400B0000FF221A70454B1B68002283F82F20434B1B68002283F82C20404B1B68002283F829203E4B1B68002283F826203B4B1B68002283F82320394B1B68002283F8202061
:400B4000364B1B6800225A77344B1B6800229A76324B1B680022DA75304B1B6800221A752E4B1B6800225A742C4B1B6800229A732A4B1B680022DA72284B1B6800221A720B
:400B8000264B1B6800225A71244B1B6800229A70224B1B68002283F82E20204B1B68002283F82B201D4B1B68002283F828201B4B1B68002283F82520184B1B68002283F867
:400BC0002220164B1B680022DA77144B1B6800221A77124B1B6800225A76104B1B6800229A750E4B1B680022DA740C4B1B6800221A740A4B1B6800225A73084B1B68002251
:400C00009A72064B1B680022DA71044B1B6800221A71024B1B6800225A7084E2F8C2FF1F90C2FF1FFB79012B40F0D480684B1B68002283F82D20664B1B68002283F82A201F
:400C4000634B1B68002283F82720614B1B68002283F824205E4B1B68002283F821205C4B1B6800229A775A4B1B680022DA76584B1B6800221A76564B1B6800225A75544BC2
:400C80001B6800229A74524B1B680022DA73504B1B6800221A734E4B1B6800225A724C4B1B6800229A714A4B1B680022DA70484B1B6800221A70464B1B68FF2283F82F208F
:400CC000434B1B68FF2283F82C20414B1B68FF2283F829203E4B1B68FF2283F826203C4B1B68FF2283F82320394B1B68FF2283F82020374B1B68FF225A77354B1B68FF2232
:400D00009A76334B1B68FF22DA75314B1B68FF221A752F4B1B68FF225A742D4B1B68FF229A732B4B1B68FF22DA72294B1B68FF221A72274B1B68FF225A71254B1B68FF226F
:400D40009A70234B1B68002283F82E20204B1B68002283F82B201E4B1B68002283F828201B4B1B68002283F82520194B1B68002283F82220164B1B680022DA77144B1B681C
:400D800000221A77124B1B6800225A76104B1B6800229A750E4B1B680022DA740C4B1B6800221A740A4B1B6800225A73084B1B6800229A72064B1B680022DA71044B1B68EB
:400DC00000221A71024B1B6800225A70ABE100BFF8C2FF1FFB79022B40F0D480684B1B68002283F82D20664B1B68002283F82A20634B1B68002283F82720614B1B680022A1
:400E000083F824205E4B1B68002283F821205C4B1B6800229A775A4B1B680022DA76584B1B6800221A76564B1B6800225A75544B1B6800229A74524B1B680022DA73504B89
:400E40001B6800221A734E4B1B6800225A724C4B1B6800229A714A4B1B680022DA70484B1B6800221A70464B1B68002283F82F20434B1B68002283F82C20414B1B6800227E
:400E800083F829203E4B1B68002283F826203C4B1B68002283F82320394B1B68002283F82020374B1B6800225A77354B1B6800229A76334B1B680022DA75314B1B680022F1
:400EC0001A752F4B1B6800225A742D4B1B6800229A732B4B1B680022DA72294B1B6800221A72274B1B6800225A71254B1B6800229A70234B1B68FF2283F82E20204B1B6876
:400F0000FF2283F82B201E4B1B68FF2283F828201B4B1B68FF2283F82520194B1B68FF2283F82220164B1B68FF22DA77144B1B68FF221A77124B1B68FF225A76104B1B68D2
:400F4000FF229A750E4B1B68FF22DA740C4B1B68FF221A740A4B1B68FF225A73084B1B68FF229A72064B1B68FF22DA71044B1B68FF221A71024B1B68FF225A70D3E000BFB9
:400F8000F8C2FF1F694B1B68002283F82D20674B1B68002283F82A20644B1B68002283F82720624B1B68002283F824205F4B1B68002283F821205D4B1B6800229A775B4BE6
:400FC0001B680022DA76594B1B6800221A76574B1B6800225A75554B1B6800229A74534B1B680022DA73514B1B6800221A734F4B1B6800225A724D4B1B6800229A714B4B73
:401000001B680022DA70494B1B6800221A70474B1B68002283F82F20444B1B68002283F82C20424B1B68002283F829203F4B1B68002283F826203D4B1B68002283F8232031
:401040003A4B1B68002283F82020384B1B6800225A77364B1B6800229A76344B1B680022DA75324B1B6800221A75304B1B6800225A742E4B1B6800229A732C4B1B68002203
:40108000DA722A4B1B6800221A72284B1B6800225A71264B1B6800229A70244B1B68002283F82E20214B1B68002283F82B201F4B1B68002283F828201C4B1B68002283F82E
:4010C00025201A4B1B68002283F82220174B1B680022DA77154B1B6800221A77134B1B6800225A76114B1B6800229A750F4B1B680022DA740D4B1B6800221A740B4B1B6862
:4011000000225A73094B1B6800229A72074B1B680022DA71054B1B6800221A71034B1B6800225A7000BF0837BD4680BDF8C2FF1F80B582B000AF0023FB7104F017F9034634
:40114000FB71134B1B781946124AFB795354104B1B780133DAB20E4B1A700D4B1B78632B02D90B4B00221A70FB79184600F014F8FB79184600F0BCF904F0E6F8034603F002
:401180002003002BD9D100BF0837BD4680BD00BFCCC3FF1FD0C3FF1F80B582B000AF0346FB719C4B1B78012B78D0022B00F09780002B00D070E1984B1B78002B20D1974B2F
:4011C0001B78FA799A420ED0944B5B79FA799A4209D0924B9B7AFA799A4204D08F4BDB7BFA799A420CD18C4B1B7819468C4AFB795354894B1B780133DAB2874B1A704CE07A
:40120000854B1B78012B41D1844B5B78FA799A420ED0824B9B79FA799A4209D07F4BDB7AFA799A4204D07D4B1B7CFA799A422DD1794B1B7819467A4AFB795354764B1B785E
:401240000133DAB2744B1A70724B01221A70734B9B79FA799A4203D1724B01221A701CE06E4BDB7AFA799A4203D16E4B02221A7013E06A4B1B7CFA799A4203D1694B0322CD
:401280001A700AE0674B00221A7006E0624B00221A70644B00221A70FEE0FDE05E4B1B7819465F4AFB7953545B4B1B780133DAB2594B1A70584B1B7818465A4B1B78194656
:4012C000564A0B469B000B44134402331B7802339842C0F2E0804F4B02221A70DBE04E4B1B7818464F4B1B7819464C4A0B469B000B44134402331B780233984219D1494B3D
:401300001B781946454A0B469B000B44134403331B78FA799A420CD13F4B1B781946404AFB7953543C4B1B780133DAB23A4B1A70B0E0394B1B7818463A4B1B781946374A9E
:401340000B469B000B44134402331B780333984240F09680334B1B781946304A0B469B000B44134404331B78FA799A4240F08880294B1B7819462A4AFB795354294B1B78F4
:40138000002B15D1FFF7BCF90246274B1A60264B1B6803F14500214B9B781A46234905F0D5FC234B1B8801339AB2214B1A805DE01C4B1B78012B14D101F090F902461D4BF6
:4013C0001A601C4B1B681846144BDB791A46174905F0BCFC164B5B8801339AB2144B5A8044E0104B1B78022B28D101F097F90246114B1A60104B1B681846084B1B7B1A46B2
:401400000A4905F0A3FC0A4B9B8801339AB2084B9A802BE034C4FF1F35C4FF1FE4C0FF1F38C4FF1F4BC4FF1F98C3FF1F3AC4FF1F3CC3FF1FACC3FF1FB8C3FF1F184B1B7851
:40144000032B13D101F06AF90246164B1A60154B1B681846144B5B7C1A46144905F076FC134BDB8801339AB2114BDA80114B00221A70114B00221A70094B00221A7009E058
:401480000C4B00221A700C4B00221A70044B00221A7001E000E000BF00BF0837BD4680BD4BC4FF1FB8C3FF1FE4C0FF1F3AC4FF1F3CC3FF1F35C4FF1F34C4FF1F80B483B018
:4014C00000AF0346FB71FB79084A32F81330042B06D9FB79054A002122F81310012300E0002318460C37BD4680BC70473CC3FF1F80B483B000AF0346FB712C4B1B78012B4A
:4015000027D02B4B1B78FA799A4202D1294B00221A70284B1B781A46254B9B5CFA799A4202D0244B00221A70224B1B780133DAB2204B1A701F4B1B78062B0AD91D4B002210
:401540001A700023FB711C4B00221A70174B01221A70164B1B78012B22D1174B1B782C2B1BD1FB79412B07D1144B01221A700F4B00221A70012314E0FB79562B07D10F4BDC
:4015800000221A70094B00221A70002309E0074B00221A70094B00221A70074AFB791370002318460C37BD4680BC70474CC4FF1FF8C0FF1F4DC4FF1F4EC4FF1F44C3FF1FEB
:4015C00080B582B000AFFFF7ABF80246124B1A60002004F09BFA7E2003F0EAFE442003F0E7FE0023FB7109E00B4B1A68FB79D35C184603F0DDFEFB790133FB71FB790E2BDF
:40160000F2D90D2003F0D4FE0A2003F0D1FE00BF0837BD4680BD00BF50C4FF1F80B582B000AFFFF75DF80246214B1A60002004F06DFA204B00221A7010E01D4B1B681D4A6F
:4016400012789A5C1C4B1B785340DAB21A4B1A70184B1B780133DAB2164B1A70154B1B784F2BEAD97E2003F0A3FE492003F0A0FE0023FB7109E00E4B1A68FB79D35C184691
:4016800003F096FEFB790133FB71FB794E2BF2D9094B1B78184603F08BFE0D2003F088FE0A2003F085FE00BF0837BD4680BD00BF64C4FF1F68C4FF1F69C4FF1F80B582B091
:4016C00000AF00F0FBFF02462C4B1A600023FB710023BB7109E0294B1A68BB79D25CFB795340FB71BB790133BB71BB794D2BF2D900237B7145233B7109E0204B1A683B79CE
:40170000D25C7B7953407B713B7901333B713B794E2BF2D97E2003F04BFE492003F048FE174B00221A800DE0144B1B68144A12889B5C184603F03CFE114B1B8801339AB21A
:401740000F4B1A800E4B1B884E2BEDD9FB79184603F02EFE0D2003F02BFE0A2003F028FE7B79184603F024FE0D2003F021FE0A2003F01EFE00BF0837BD4680BDBCC4FF1F02
:40178000C0C4FF1F80B500AF022004F0BFF900F0B5FF0246124B1A607E2003F009FE482003F006FE0F4B00221A800DE00C4B1B680C4A12889B5C184603F0FAFD094B1B8818
:4017C00001339AB2074B1A80064B1B88042BEDD90D2003F0EDFD0A2003F0EAFD00BF80BDC4C3FF1F14C5FF1F80B400AF064B1B78012B04D1044B00221A70012300E0002304
:401800001846BD4680BC704744C3FF1F80B582B000AFA74B5B780A2B00F22B8201A252F823F000BF511800004919000069190000A7190000F7190000491A0000631A0000C4
:401840007D1A0000971A0000BD1A0000191C00000023FB7106E0FB79964A5F21D154FB790133FB71FB790A2BF5D9914B5B781A46904B492199548E4B49229A70012003F078
:401880002BFB002005F092F9002005F0ADF900F015FF0246884B1A6007E0874B1A68BB790021D154BB790133BB71BB794E2BF4D9814B1B687E2283F835207F4B1B683322EA
:4018C00083F836207C4B1B680D2283F83A207A4B1B680A2283F83B20774B1B687E2283F83C20754B1B68532283F83D20724B1B680D2283F84120704B1B680A2283F84220A1
:401900006D4B1B687E2283F843206B4B1B68502283F84420684B1B680D2283F84D20664B1B680A2283F84E20614B5B781A46614B502199545E4B50229A70642003F05EFAF1
:401940005B4B01225A7094E1594B5B781A46594B50219954564B50229A70642003F04EFA534B02225A7084E100F0DEFA032003F0BBFD0220FFF7A2FD00BF0220FFF79EFDFA
:401980000346002B06D14A4B5B781A46494B9B5C462BF2D100F0E6FA642003F02FFA444B03225A7065E1032004F0B0F800F086FE0246414B1A60404B1B68012283F83E2096
:4019C0003B4B5B781A463B4B42219954384B42229A704FF47A7003F011FA00F06FFA364B1B68002283F83E20642003F007FA304B04225A703DE1032004F088F800F05EFE00
:401A000002462D4B1A602C4B1B68012283F83F20274B5B781A46274B42219954244B42229A704FF47A7003F0E9F900F047FA224B1B68002283F83F204FF47A7003F0DEF91B
:401A40001B4B05225A7014E1194B5B781A46194B55219954164B55229A70154B06225A7007E1134B5B781A46124B55219954104B55229A700E4B07225A70FAE00C4B5B7823
:401A80001A460C4B55219954094B55229A70084B08225A70EDE0064B5B781A46054B55219954034B55229A70014B09225A70E0E068DCFF1F78C5FF1FD4C5FF1F032003F092
:401AC00013FD032004F022F800F02EFA002005F06DF8012005F088F8642003F08FF900F0EDFD0246654B1A60644B1B68002283F83E20624B1B68012283F83F20642003F061
:401B00007DF900F00BFE02465D4B1A6000BF5C4B1B681B79012B06D05A4B5B781A465A4B9B5C462BF3D100F01DFA002005F03EF8002005F059F84FF47A7003F05FF9002054
:401B400005F034F8002005F04FF84C4B1B68002283F83E20494B1B68002283F83F20494B5B781A46484B42219954464B42229A7000BF434B1B68DB78002BFAD1404B1B68F0
:401B80001B79002BF5D100F0CFF9012005F00EF8002005F029F8642003F030F900F08EFD0246364B1A60354B1B68012283F83E20324B1B68002283F83F20642003F01EF9AF
:401BC00000F0ACFD02462E4B1A6000BF2C4B1B68DB78012B06D02B4B5B781A462A4B9B5C462BF3D100F0BEF9002004F0DFFF002004F0FAFF4FF47A7003F000F91F4B1B680D
:401C0000002283F83E201D4B1B68002283F83F201C4B0A225A702CE000237B7115E07B79194AD35C502B0DD07B79174AD35C552B08D0144B5B781A46134B66219954114BDB
:401C400066229A707B7901337B717B79092BE6D90C4B5B781A460C4B9B5C662B08D0094B5B781A46084B70219954064B70229A70FEE7002318460837BD4680BDD4C5FF1FB5
:401C8000F4C5FF1F68DCFF1F78C5FF1F80B500AF04F066FC03461A462C4B1A702B4B1A782B4B1B789A4206D12A4B1B780133DAB2284B1A7002E0274B00221A70254B1B7820
:401CC000022B06D9214B1A78234B1A70214B00221A701E4B1A781E4B1A701F4B1B78012B09D11E4B01221A701D4B1B780133DAB21B4B1A7005E0194B00221A70184B00229E
:401D00001A70174B1B784B2B0BD9164B5B781A46154B46219954134B46229A70104B00221A70124B1B78012B07D10C4B1B78002B03D10F4B01221A7002E00D4B00221A70E1
:401D4000064B1A78094B1A7000BF80BDF8C5FF1FF9C5FF1FFAC5FF1FFBC5FF1F74C5FF1FFCC5FF1F68DCFF1F78C5FF1FFDC5FF1F75C5FF1F80B500AF044B5B78072B02D1FE
:401D800000F0F6FF00BF00BF80BD00BF68DCFF1F80B400AF184B1B8801339AB2164B1A80164B5B781A46164B33F81220124B1B889A4210D2104B00221A80124B1B88012BAB
:401DC00014D10E4B5B781A460F4B462199540B4B46229A700AE0084B1B884FF6E852934206D9054B00221A8000BF01E000BF00E000BFBD4680BC704770C5FF1F68DCFF1F34
:401E000000C1FF1F72C5FF1F78C5FF1F80B500AF00F028F8124B5B78002B1BD0104B5B78032B17D00E4B5B78042B13D00C4B5B78052B0FD00A4B5B78072B0BD0084B5B78C4
:401E4000082B07D0064B5B78092B03D0044B5B780A2B02D1FFF732FC00BF00BF80BD00BF68DCFF1F80B582B000AF0023FB710FE0FB795B00FA790F49895C0F4AD154FB79FE
:401E80005B0001330C4A2021D154FB790133FB71FB790A2BECD91621074803F071FD0D2003F010FD0A2003F00DFD00BF0837BD4680BD00BF78C5FF1F00C6FF1F80B500AFFA
:401EC000164B5B781A46164B57219954134B57229A700FE0134B1B78002B0BD00F4B5B781A460F4B502199540C4B50229A700D4B00221A70094B5B781A46094B9B5C502B58
:401F000006D0064B5B781A46054B9B5C462BE1D1002003F0B1FB00BF80BD00BF68DCFF1F78C5FF1F75C5FF1F80B400AF094B5B781A46094B42219954064B42229A70074B2F
:401F400000221A80064B01221A8000BFBD4680BC704700BF68DCFF1F78C5FF1F70C5FF1F72C5FF1F80B400AF0B4B00221A800B4B5B781A460A4B9B5C462B09D0074B5B7885
:401F80001A46074B50219954044B50229A7000BF00BFBD4680BC704772C5FF1F68DCFF1F78C5FF1F80B582B000AFB34B5B780A2B00F2088201A252F823F000BFE91F000061
:401FC000CF200000152100005B210000A1210000ED2100003322000085220000CB22000029230000752300000023FB7106E0FB79A24A5F21D154FB790133FB71FB790A2B6C
:40200000F5D99D4B5B781A469C4B492199549A4B49229A7000F052FB0246994B1A6007E0974B1A68BB790021D154BB790133BB71BB794E2BF4D9924B1B687E2283F8352099
:402040008F4B1B68332283F836208D4B1B680D2283F83A208A4B1B680A2283F83B20884B1B687E2283F83C20854B1B68532283F83D20834B1B680D2283F84120804B1B680D
:402080000A2283F842207E4B1B687E2283F843207B4B1B68502283F84420794B1B680D2283F84D20764B1B680A2283F84E20724B5B781A46714B502199546F4B50229A70BC
:4020C000642002F09BFE6C4B01225A707AE100F05BFC00BF02F05AFF0346002B06D1664B5B781A46654B9B5C462BF3D100F06AFC642002F083FE604B5B781A465F4B9B5CAA
:40210000462B03D15C4B0A225A705BE15A4B02225A7057E100F038FC00BF00F05DF90346002B06D1544B5B781A46544B9B5C462BF3D100F047FC642002F060FE4E4B5B7832
:402140001A464E4B9B5C462B03D14B4B0A225A7038E1494B03225A7034E100F015FC00BF00F06EF90346002B06D1434B5B781A46424B9B5C462BF3D100F024FC642002F08B
:402180003DFE3D4B5B781A463C4B9B5C462B03D1394B0A225A7015E1374B04225A7011E100F0F2FB012003F04DFE00BF00F07CF90346002B06D1304B5B781A462F4B9B5CC8
:4021C000462BF3D100F0FEFB642002F017FE2A4B5B781A46294B9B5C462B03D1264B0A225A70EFE0244B05225A70EBE000F0CCFB00BF00F083F90346002B06D11E4B5B7814
:402200001A461E4B9B5C462BF3D100F0DBFB642002F0F4FD184B5B781A46184B9B5C462B03D1154B0A225A70CCE0134B06225A70C8E000F0A9FB00BF00F0A8F90346002BF5
:4022400006D10D4B5B781A460C4B9B5C462BF3D100F0B8FB642002F0D1FD074B5B781A46064B9B5C462B03D1034B0A225A70A9E0014B07225A70A5E068DCFF1F24C7FF1F84
:4022800090C6FF1F00F080FB00BF00F0A9F90346002B06D14E4B5B781A464E4B9B5C462BF3D100F08FFB642002F0A8FD484B5B781A46484B9B5C462B03D1454B0A225A7062
:4022C00080E0434B08225A707CE0012000F01CFB642002F093FD00F057FB00BF00F0A0F90346002B06D13A4B5B781A46394B9B5C462BF3D100F066FB002000F005FB642050
:4023000002F07CFD642002F079FD314B5B781A46304B9B5C462B03D12D4B0A225A7051E02B4B0A225A704DE000F02EFB012003F0DBF800BFFFF758FA0346002B06D1244BE7
:402340005B781A46234B9B5C462BF3D100F03AFB642002F053FD1E4B5B781A461D4B9B5C462B03D11A4B0A225A702BE0184B0A225A7027E000237B7110E07B79154AD35C1E
:40238000502B08D0124B5B781A46124B662199540F4B66229A707B7901337B717B79082BEBD90B4B5B781A460A4B9B5C662B08D0074B5B781A46074B70219954044B70220A
:4023C0009A70FEE7002318460837BD4680BD00BF68DCFF1F24C7FF1F80B584B000AF0023FB6000237B60012000F08EFA0023FB7214E0FB7A184600F08FFE012002F0FEFCB6
:4024000004F0B4FB03467B60FB7A7A6802FA03F3FA681343FB60FB7A0133FB72FB7A1F2BE7D9002000F070FAFB68B3F1FF3F01D1012300E0002318461037BD4680BD00BF88
:4024400080B500AF002004F0A1FB00BF002000F02DFE0346002B06D1114B5B781A46114B9B5C462BF2D1012004F090FB00BF002000F01CFE0346002B06D1094B5B781A4612
:40248000084B9B5C462BF2D1054B5B781A46054B9B5C462B01D0012300E00023184680BD68DCFF1F24C7FF1F80B582B000AF0023FB7116E0FB790233DBB2184603F0B2FC95
:4024C00000BF012000F01AFC0346002B06D1094B5B781A46084B9B5C462BF2D1FB790133FB71FB79072BE5D9012318460837BD4680BD00BF68DCFF1F24C7FF1F80B500AF1F
:4025000000F0FCF802461C4B1A601B4B1B6873221A70194B1B6873225A70174B1B6873229A70154B1B687322DA70134B1B6873221A71012002F0D8FF00F0D0F802460F4BB5
:402540001A6000BF0E4B1B681B7A732B10D00C4B1B685B7A732B0BD0094B1B689B7A732B06D0084B5B781A46074B9B5C462BE9D10123184680BD00BF9CC6FF1F28C6FF1FA7
:402580003CC6FF1F68DCFF1F24C7FF1F80B500AF012003F0BBFA00F091F802460D4B1A600C4B1B68FF2283F84920012000F02AFA012002F099FF00F071F80246064B1A6025
:4025C000064B1B68DB79FF2B01D1012300E00023184680BD90C6FF1F28C6FF1F3CC6FF1F80B582B000AF012002F07EFF00F076F802460A4B1A600023FB71084B1B681B7941
:40260000FB71FB797D2B04D8FB79722B01D9012300E0002318460837BD4680BD3CC6FF1F80B582B000AF0023FB7100237B71012002F05AFF00F052F80246164B1A60012089
:4026400003F064FA00F03AF80246134B1A600023BB7110E0BB79184600F09CF803467B71FB795B005AB297F9053013435BB2FB71BB790133BB71BB79032BEBD9FB7903F0AD
:402680000F030F2B01D1012300E0002318460837BD4680BD3CC6FF1F90C6FF1F80B400AF044B054A1A60034B1B681846BD4680BC704700BF28C6FF1F18C6FF1F80B400AF9A
:4026C000044B054A1A60034B1B681846BD4680BC704700BF90C6FF1F40C6FF1F80B400AF044B054A1A60034B1B681846BD4680BC704700BF3CC6FF1F2CC6FF1F80B400AF54
:40270000044B054A1A60034B1B681846BD4680BC704700BF9CC6FF1F94C6FF1F80B400AF044B054A1A60034B1B681846BD4680BC704700BFA8C6FF1FA0C6FF1F80B582B04F
:4027400000AF0023FB710FE0FB795B00FA790F49895C0F4AD154FB795B0001330C4A2021D154FB790133FB71FB790A2BECD91621074803F005F90D2003F0A4F80A2003F09E
:40278000A1F800BF0837BD4680BD00BF24C7FF1F30C7FF1F80B584B000AF0346FB710023FB73FFF79BFF0246184B1A60FB79002B04D1164B1B681B78FB7319E0FB79012B60
:4027C00004D1124B1B685B78FB7311E0FB79022B04D10E4B1B689B78FB7309E0FB79032B04D10A4B1B68DB78FB7301E0002308E0FB7B0A2B04D8FB7B072B01D9012300E02D
:40280000002318461037BD4680BD00BF3CC6FF1F80B500AF044B5B78042B02D100F088FA00BF00BF80BD00BF68DCFF1F80B500AF1A4B5B78042B01D100F07AFA184B1B88D4
:4028400001339AB2164B1A80144B5B781A46154B33F81220124B1B889A4210D2104B00221A80114B1B88012B14D10C4B5B781A460E4B46219954094B46229A700AE0084B6F
:402880001B884FF6E852934206D9054B00221A8000BF01E000BF00E000BF80BD68DCFF1F20C7FF1F18C1FF1F22C7FF1F24C7FF1F80B500AFFFF742FF124B5B78002B13D034
:4028C000104B5B78022B0FD00E4B5B78032B0BD00C4B5B78052B07D00A4B5B78062B03D0084B5B78082B01D1FEF7E8FE052002F085FA044B5B78052B02D1FEF743FF00BF55
:4029000000BF80BD68DCFF1F80B582B000AF0346FB71012003F0FAF8FFF7D0FE0246194B1A60FB79012B14D1164B1B68FF2283F84520144B1B68FF2283F84620114B1B6851
:40294000FF2283F847200F4B1B68FF2283F8482014E00C4B1B68002283F84520094B1B68002283F84620074B1B68002283F84720044B1B68002283F8482000BF0837BD4618
:4029800080BD00BF90C6FF1F80B400AF094B5B781A46094B42219954064B42229A70074B00221A80064B01221A8000BFBD4680BC704700BF68DCFF1F24C7FF1F20C7FF1FDA
:4029C00022C7FF1F80B400AF0B4B00221A800B4B5B781A460A4B9B5C462B09D0074B5B781A46074B50219954044B50229A7000BF00BFBD4680BC704722C7FF1F68DCFF1FDF
:402A000024C7FF1F80B582B000AF0346FB71FB79012B18D1012002F0E7FA012002F01CFB012002F0FFFA012002F034FB012002F04FFB012002F06AFB012002F085FB012044
:402A400002F0A0FB18E0002002F0CEFA002002F003FB002002F0E6FA002002F01BFB002002F036FB002002F051FB002002F06CFB002002F087FB00BF0837BD4680BD00BF22
:402A800080B582B000AF0023FB7103F027F90346FB71114B1B781946104AFB7953540E4B1B780133DAB20C4B1A700B4B1B78632B02D9094B00221A70FB79184600F010F83D
:402AC00003F0FAF8034603F02003002BDDD100BF0837BD4680BD00BFD4C7FF1FD8C7FF1F80B483B000AF0346FB717E4B1B78012B5AD0022B78D0002B00D0EDE07A4B1B7834
:402B0000002B16D1794B1B78FA799A4204D0774B5B79FA799A420CD1734B1B781946744AFB795354704B1B780133DAB26E4B1A7039E06D4B1B78012B2ED16C4B5B78FA79E1
:402B40009A4204D0694B9B79FA799A4224D1664B1B781946664AFB795354634B1B780133DAB2614B1A705F4B01221A705F4B5B78FA799A4203D15F4B00221A7013E05B4B0E
:402B80009B79FA799A4203D15A4B01221A700AE0584B00221A7006E0534B00221A70554B00221A7098E097E04F4B1B781946504AFB7953544C4B1B780133DAB24A4B1A709E
:402BC000494B1B7818464B4B1B781946474A0B469B000B44134402331B78023398427ADB404B02221A7076E03F4B1B781846414B1B7819463D4A0B469B000B4413440233A3
:402C00001B780233984219D13A4B1B781946374A0B469B000B44134403331B78FA799A420CD1314B1B781946314AFB7953542E4B1B780133DAB22C4B1A704BE02A4B1B7885
:402C400018462C4B1B781946284A0B469B000B44134402331B780333984231D1254B1B781946224A0B469B000B44134404331B78FA799A4224D11C4B1B7819461C4AFB790E
:402C800053541C4B1B78002B06D11B4B1B8801339AB2194B1A8009E0164B1B78012B05D1154B5B8801339AB2134B5A800E4B00221A700C4B00221A700E4B00221A7009E01A
:402CC000094B00221A70074B00221A70094B00221A7001E000E000BF00BF0C37BD4680BC704700BF3CC8FF1F3DC8FF1F30C1FF1F40C8FF1FB3C8FF1F48C7FF1F80B483B0F8
:402D000000AF0346FB71FB79084A32F81330042B06D9FB79054A002122F81310012300E0002318460C37BD4680BC704748C7FF1F80B582B000AF7E2002F0F2FF4C2002F0ED
:402D4000EFFF0023FB7106E0FB79184602F0E8FFFB790133FB71FB796E2BF5D90D2002F0DFFF0A2002F0DCFF00BF0837BD4680BD80B400AF084B1B8801339AB2064B1A80E0
:402D8000054B1B88642B03D9034B00221A8000BF00BFBD4680BC7047B4C8FF1F80B582B000AF002003F04EF87E2002F0B9FF022002F0B6FF0023FB7105E0002002F0B0FFE8
:402DC000FB790133FB71FB79062BF6D9402002F0A7FF422002F0A4FF0D2002F0A1FF0A2002F09EFF00BF0837BD4680BD80B582B000AF002003F026F8FDF71CFE02461C4BA2
:402E00001A600123FB710023BB7109E0184B1A68BB79D25CFB795340FB71BB790133BB71BB79072BF2D9124B1B68FA791A727E2002F076FF012002F073FF00237B7109E070
:402E40000B4B1A687B79D35C184602F069FF7B7901337B717B79082BF2D90D2002F060FF0A2002F05DFF00BF0837BD4680BD00BF80C9FF1F80B582B000AF0023FB7102F0A8
:402E8000FFFC0346FB71114B1B781946104AFB7953540E4B1B780133DAB20C4B1A700B4B1B78632B02D9094B00221A70FB79184600F010F802F0D2FC034603F02003002BAC
:402EC000DDD100BF0837BD4680BD00BF97C9FF1F98C9FF1F80B483B000AF0346FB716D4B1B78012B43D0022B61D0002B00D0CBE0694B1B78002B11D1684B1B78FA799A42E8
:402F00000CD1654B1B781946654AFB795354624B1B780133DAB2604B1A7027E05E4B1B78012B1CD15D4B5B78FA799A4217D15A4B1B7819465A4AFB795354574B1B78013346
:402F4000DAB2554B1A70534B01221A70534B5B78FA799A420AD1534B00221A7006E04E4B00221A704F4B00221A708DE08CE04A4B1B7819464A4AFB795354474B1B78013392
:402F8000DAB2454B1A70444B1B781846454B1B781946424A0B469B000B44134402331B78023398426FDB3B4B02221A706BE03A4B1B7818463B4B1B781946384A0B469B004F
:402FC0000B44134402331B780233984219D1354B1B781946314A0B469B000B44134403331B78FA799A420CD12B4B1B7819462C4AFB795354284B1B780133DAB2264B1A703C
:4030000040E0254B1B781846264B1B781946234A0B469B000B44134402331B780333984226D1204B1B7819461C4A0B469B000B44134404331B78FA799A4219D1164B1B7892
:403040001946174AFB795354164B1B78002B05D1154B1B8801339AB2134B1A800E4B00221A700C4B00221A700E4B00221A7009E0094B00221A70074B00221A70094B00229B
:403080001A7001E000E000BF00BF0C37BD4680BC704700BFFCC9FF1FFDC9FF1F3CC1FF1F00CAFF1F07CAFF1F90C9FF1F80B483B000AF0346FB71FB790E4A32F81330052BEB
:4030C00006D1FB790B4A002122F8131001230BE0FB79084A32F81330052B04D9FB79054A002122F81310002318460C37BD4680BC704700BF90C9FF1F80B483B000AF034613
:40310000FB71FB79034AD35C18460C37BD4680BC704700BF44C1FF1F80B584B000AF0346FB710023FB73FB791846FFF7E5FF0346FB73FB7B072B25D8002003F0A1FC012083
:4031400003F080FC012003F061FC012003F044FCFB7B9B10DBB203F00103DBB2184603F0ABFCFB7B5B10DBB203F00103DBB2184603F0C0FCFB7B03F00103DBB2184603F0A7
:40318000D7FC83E0FB7B072B28D9FB7B0F2B25D8012003F075FC002003F054FC012003F035FC012003F018FCFB7B9B10DBB203F00103DBB2184603F07FFCFB7B5B10DBB2C2
:4031C00003F00103DBB2184603F094FCFB7B03F00103DBB2184603F0ABFC57E0FB7B0F2B28D9FB7B172B25D8012003F049FC012003F028FC002003F009FC012003F0ECFB37
:40320000FB7B9B10DBB203F00103DBB2184603F053FCFB7B5B10DBB203F00103DBB2184603F068FCFB7B03F00103DBB2184603F07FFC2BE0FB7B172B28D9FB7B1F2B25D8CE
:40324000012003F01DFC012003F0FCFB012003F0DDFB002003F0C0FBFB7B9B10DBB203F00103DBB2184603F027FCFB7B5B10DBB203F00103DBB2184603F03CFCFB7B03F0D2
:403280000103DBB2184603F053FCFFE700BF1037BD4680BD80B582B000AFAA4B5B780A2B00F2228201A252F823F000BFD93200001F3300007F3300009F33000075340000BF
:4032C000D334000055350000A3350000453600006536000085360000012001F01BFE002001F036FE0023FB7106E0FB79964A5F21D154FB790133FB71FB790A2BF5D9914B4F
:403300005B781A46904B492199548E4B49229A70642001F073FD8B4B01225A70E4E100F07FFA002002F0E0F800BF0020FEF7C6F80346002B06D1834B5B781A46824B9B5C78
:40334000462BF2D100F08AFAFDF774FB02467F4B1A607E4B1B6802225A71642001F04EFD784B5B781A46784B9B5C462B03D1754B0A225A70B8E1734B02225A70B4E1714B7A
:403380005B781A46704B552199546E4B55229A70642001F033FD6B4B03225A70A4E1002002F0A2F8FDF7ACF90246694B1A60FDF741FB0246654B1A6000F032FA012001F028
:4033C000A9FD002001F0C4FD604B1B6800225A7100BF5F4B1B6893F84A30002B06D0594B5B781A46584B9B5C462BF2D1012001F091FD012001F0ACFD544B1B6802225A7137
:4034000000BF534B1B6893F84A30012B06D04D4B5B781A464C4B9B5C462BF2D1012001F079FD002001F094FD484B1B6802225A7100BF474B1B6893F84A30012B06D0414B82
:403440005B781A46404B9B5C462BF2D100F006FA642001F0D3FC3B4B5B781A463A4B9B5C462B03D1374B0A225A703DE1354B04225A7039E100F0D4F9002002F035F8FDF7A5
:403480003FF90246324B1A6001E0FFF787FC304B1B6893F848305BB2002B06DB294B5B781A46294B9B5C462BEFD100F0D7F9642001F0A4FC234B5B781A46234B9B5C462B92
:4034C00003D1204B0A225A700EE11E4B05225A700AE11C4B5B781A461B4B57219954194B57229A7000BFFDF7DDF80346002B06D1144B5B781A46144B9B5C462BF3D1114BCB
:403500005B781A46104B9B5C462B08D00D4B5B781A460D4B502199540A4B50229A70642001F06CFC074B5B781A46074B9B5C462B03D1044B0A225A70D6E0024B06225A7081
:40354000D2E000BF68DCFF1FDCCAFF1FD0CAFF1F58CAFF1F00F064F9002002F063FC00BF0120FFF7CBFB0346002B06D1614B5B781A46614B9B5C462BF2D100F06FF9642085
:4035800001F03CFC5B4B5B781A465B4B9B5C462B03D1584B0A225A70A6E0564B07225A70A2E00020FDF756FA524B5B781A46524B422199544F4B42229A7041F2883001F0ED
:4035C0001DFCFDF701FA0120FDF744FA494B5B781A46494B42219954464B42229A7041F2883001F00BFCFDF7EFF90220FDF732FA404B5B781A46404B422199543D4B422240
:403600009A7041F2883001F0F9FBFDF7DDF9394B5B781A46384B50219954364B50229A70642001F0EBFB334B5B781A46324B9B5C462B03D12F4B0A225A7055E02D4B082245
:403640005A7051E02B4B5B781A462B4B55219954284B55229A70642001F0D0FB254B09225A7041E0234B5B781A46234B55219954204B55229A70642001F0C0FB1D4B0A22F1
:403680005A7031E00023BB711AE0BB791A4AD35C502B12D0BB79184AD35C552B0DD0BB79154AD35C492B08D0124B5B781A46124B662199540F4B66229A70BB790133BB71B1
:4036C000BB79092BE1D90B4B5B781A460A4B9B5C662B08D0074B5B781A46074B70219954044B70229A70FEE7002318460837BD4680BD00BF68DCFF1FDCCAFF1F80B582B0F9
:4037000000AF0023FB710FE0FB795B00FA790F49895C0F4AD154FB795B0001330C4A2021D154FB790133FB71FB790A2BECD91621074802F025F90D2002F0C4F80A2002F091
:40374000C1F800BF0837BD4680BD00BFDCCAFF1FE8CAFF1F80B400AF184B1B8801339AB2164B1A80164B5B781A46164B33F81220124B1B889A4210D2104B00221A80124B17
:403780001B88012B14D10E4B5B781A460F4B462199540B4B46229A700AE0084B1B884FF6E852934206D9054B00221A8000BF01E000BF00E000BFBD4680BC7047D4CAFF1F84
:4037C00068DCFF1F64C1FF1FD6CAFF1FDCCAFF1F80B500AFFFF792FFFFF708FB0F4B5B78002B0BD00D4B5B78012B07D00B4B5B78022B03D0094B5B78032B01D1FDF7E0FEBB
:40380000064B5B78072B03D0044B5B780A2B02D1FDF704FF00BF00BF80BD00BF68DCFF1F80B400AF094B5B781A46094B42219954064B42229A70074B00221A80064B012213
:403840001A8000BFBD4680BC704700BF68DCFF1FDCCAFF1FD4CAFF1FD6CAFF1F80B400AF0B4B00221A800B4B5B781A460A4B9B5C462B09D0074B5B781A46074B5021995451
:40388000044B50229A7000BF00BFBD4680BC7047D6CAFF1F68DCFF1FDCCAFF1F80B582B000AFAA4B5B780F2B00F2CA8301A252F823F000BFF5380000E73900002D3A00001B
:4038C000733A0000BF3A0000053B0000593B0000B73B0000ED3B00005F3C0000D13C00004B3D0000913D0000253E0000C73F0000E73F0000012001F0EFFAFA2001F07EFA29
:403900000023FB7106E0FB79914A5F21D154FB790133FB71FB790F2BF5D98C4B5B781A468B4B49219954894B49229A70FEF7C6FE0246884B1A6007E0864B1A68BB79002131
:40394000D154BB790133BB71BB794E2BF4D9814B1B687E2283F835207E4B1B68332283F836207C4B1B680D2283F83A20794B1B680A2283F83B20774B1B687E2283F83C2090
:40398000744B1B68532283F83D20724B1B680D2283F841206F4B1B680A2283F842206D4B1B687E2283F843206A4B1B68502283F84420684B1B680D2283F84D20654B1B6825
:4039C0000A2283F84E20614B5B781A46604B502199545E4B50229A70642001F00FFA5B4B01225A702CE300F085FC00BFFEF7F4FC0346002B06D1554B5B781A46544B9B5CBC
:403A0000462BF3D100F094FC642001F0F7F94F4B5B781A464E4B9B5C462B03D14B4B0F225A700DE3494B02225A7009E300F062FC00BF00F013FB0346002B06D1434B5B7824
:403A40001A46434B9B5C462BF3D100F071FC642001F0D4F93D4B5B781A463D4B9B5C462B03D13A4B0F225A70EAE2384B03225A70E6E200F03FFC012002F0E4F900BFFEF7B9
:403A800013FD0346002B06D1304B5B781A46304B9B5C462BF3D100F04BFC642001F0AEF92A4B5B781A462A4B9B5C462B03D1274B0F225A70C4E2254B04225A70C0E200F0A5
:403AC00019FC00BFFEF762FD0346002B06D11F4B5B781A461E4B9B5C462BF3D100F028FC642001F08BF9194B5B781A46184B9B5C462B03D1154B0F225A70A1E2134B05227B
:403B00005A709DE200F0F6FB00BFFEF769FD0346002B06D10D4B5B781A460D4B9B5C462BF3D100F005FC642001F068F9074B5B781A46074B9B5C462B03D1044B0F225A70C3
:403B40007EE2024B06225A707AE200BF68DCFF1F10CCFF1F78CBFF1F0120FEF7D5FE00F0C9FB00BFFEF75CFD0346002B06D1AA4B5B781A46A94B9B5C462BF3D100F0D8FBCE
:403B8000642001F03BF90020FEF7BEFE642001F035F9A14B5B781A46A04B9B5C462B03D19D4B0F225A704BE29B4B0E225A709A4B07225A7044E2984B5B781A46974B552146
:403BC0009954954B55229A70642001F017F9924B5B781A46914B9B5C462B03D18E4B0F225A702DE28C4B08225A7029E2002001F073F9FA2001F002F9012001F087FFFEF701
:403C00005DFD0246864B1A60854B1B68012283F83E20814B5B781A46804B422199547E4B42229A704FF47A7001F0E8F800F0A0FB7B4B1B68002283F83E20642001F0DEF8DF
:403C4000754B5B781A46754B9B5C462B03D1724B0F225A70F4E1704B09225A70F0E1002001F03AF9FA2001F0C9F8012001F04EFFFEF724FD02466A4B1A60694B1B680122F1
:403C800083F83F20644B5B781A46644B42219954614B42229A704FF47A7001F0AFF800F067FB5F4B1B68002283F83F20642001F0A5F8594B5B781A46584B9B5C462B03D127
:403CC000554B0F225A70BBE1534B0A225A70B7E1514B5B781A46514B422199544E4B42229A70012001F0F8F8FA2001F087F8012001F00CFFFEF7E2FC0246494B1A60484B3A
:403D00001B68012283F84B2002F07EFC4FF47A7001F074F800F02CFB02F088FC404B1B68002283F84B20642001F068F83A4B5B781A463A4B9B5C462B03D1374B0F225A7093
:403D40007EE1354B0B225A707AE1012001F0C4F8FA2001F053F8304B5B781A462F4B572199542D4B57229A7000F002FB642001F045F8294B5B781A46284B9B5C462B03D171
:403D8000254B0F225A705BE1234B0C225A7057E1214B5B781A46214B422199541E4B42229A70012001F098F8FA2001F027F8012001F0ACFEFEF782FC0246194B1A60184B08
:403DC0001B68102283F83E20154B1B68102283F83F204FF47A7001F011F800F0C9FA104B1B68002283F83E200D4B1B68002283F83F20642001F002F8074B5B781A46074B76
:403E00009B5C462B03D1044B0F225A7018E1024B0D225A7014E100BF68DCFF1F10CCFF1F78CBFF1F894B5B781A46894B42219954864B42229A7041F2883000F0DFFF002009
:403E400001F04AF8FA2000F0D9FF012001F04CFB012001F05BFE00F04DFA002002F0A6FE012002F0C1FE642000F0C8FFFEF726FC0246784B1A60774B1B68002283F83E2093
:403E8000744B1B68012283F83F20642000F0B6FFFEF724FC0246704B1A6000BF6E4B1B689B79012B06D0694B5B781A46684B9B5C462BF3D100F03CFA002002F077FE002064
:403EC00002F092FE4FF47A7000F098FF002002F06DFE002002F088FE5E4B1B68002283F83E205C4B1B68002283F83F20574B5B781A46574B9B5C462B02D1544B0F225A70DE
:403F0000524B5B781A46524B422199544F4B42229A7000BF504B1B685B79002BFAD14E4B1B689B79002BF5D100F0E4F9012002F03DFE002002F058FE642000F05FFFFEF7AA
:403F4000BDFB0246434B1A60424B1B68012283F83E20404B1B68002283F83F20642000F04DFF00BF3C4B1B685B79012B06D0374B5B781A46364B9B5C462BF3D100F0D8F9A1
:403F8000002002F013FE002002F02EFE314B1B68002283F83E202F4B1B68002283F83F204FF47A7000F02AFF284B5B781A46284B9B5C462B03D1254B0F225A7040E0234B19
:403FC0000E225A703CE0214B5B781A46204B552199541E4B55229A70642000F00FFF1B4B0F225A702CE000237B7115E07B79184AD35C502B0DD07B79154AD35C552B08D0AA
:40400000124B5B781A46124B662199540F4B66229A707B7901337B717B790E2BE6D90B4B5B781A460A4B9B5C662B08D0074B5B781A46074B70219954044B70229A70FEE7D0
:40404000002318460837BD4680BD00BF68DCFF1F10CCFF1F78CBFF1F24CBFF1F80B500AF002002F093FD00BF0020FFF71FF80346002B06D1114B5B781A46114B9B5C462BA7
:40408000F2D1012002F082FD00BF0020FFF70EF80346002B06D1094B5B781A46084B9B5C462BF2D1054B5B781A46054B9B5C462B01D0012300E00023184680BD68DCFF1F50
:4040C00010CCFF1F80B582B000AF0023FB710FE0FB795B00FA790F49895C0F4AD154FB795B0001330C4A2021D154FB790133FB71FB790F2BECD92021074801F041FC0D2004
:4041000001F0E0FB0A2001F0DDFB00BF0837BD4680BD00BF10CCFF1F20CCFF1F80B500AF02F01EFA03461A462C4B1A702B4B1A782B4B1B789A4206D12A4B1B780133DAB29B
:40414000284B1A7002E0274B00221A70254B1B78022B06D9214B1A78234B1A70214B00221A701E4B1A781E4B1A701F4B1B78012B09D11E4B01221A701D4B1B780133DAB263
:404180001B4B1A7005E0194B00221A70184B00221A70174B1B784B2B0BD9164B5B781A46154B46219954134B46229A70104B00221A70124B1B78012B07D10C4B1B78002B94
:4041C00003D10F4B01221A7002E00D4B00221A70064B1A78094B1A7000BF80BD40CCFF1F41CCFF1F42CCFF1F43CCFF1F0CCCFF1F44CCFF1F68DCFF1F10CCFF1F45CCFF1FE4
:404200000DCCFF1F80B500AF1A4B5B78032B01D1FEF78EFD184B1B8801339AB2164B1A80144B5B781A46154B33F81220124B1B889A4210D2104B00221A80114B1B88012B1B
:4042400014D10C4B5B781A460E4B46219954094B46229A700AE0084B1B884FF6E852934206D9054B00221A8000BF01E000BF00E000BF80BD68DCFF1F08CCFF1F7CC1FF1F53
:404280000ACCFF1F10CCFF1F80B500AFFFF71AFF174B5B78002B23D0154B5B78012B1FD0134B5B78022B1BD0114B5B78042B17D00F4B5B78062B13D00D4B5B78082B0FD070
:4042C0000B4B5B78092B0BD0094B5B780A2B07D0074B5B780C2B03D0054B5B780D2B01D1FDF7ECF9052000F089FD00BF80BD00BF68DCFF1F80B400AF094B5B781A46094BA8
:4043000042219954064B42229A70074B00221A80064B01221A8000BFBD4680BC704700BF68DCFF1F10CCFF1F08CCFF1F0ACCFF1F80B400AF0B4B00221A800B4B5B781A461E
:404340000A4B9B5C462B09D0074B5B781A46074B50219954044B50229A7000BF00BFBD4680BC70470ACCFF1F68DCFF1F10CCFF1F80B500AF164B5B781A46164B57219954A5
:40438000134B57229A700FE0134B1B78002B0BD00F4B5B781A460F4B502199540C4B50229A700D4B00221A70094B5B781A46094B9B5C502B06D0064B5B781A46054B9B5C2C
:4043C000462BE1D1002001F057F900BF80BD00BF68DCFF1F10CCFF1F0DCCFF1F80B582B000AF786039603A680021786802F0B9FC00BF0837BD4680BD80B584B000AFF860AC
:40440000B9607A607A68B968F86802F09FFC00BF1037BD4680BD00BF80B483B000AF0346FB71FEE780B487B000AF7860396000233B6100237B6127E07B699B007A681344DC
:404440001B68BB60BB68FB73BB6823F0FF03BB6014E03B695B003A6813441B781A46BB68134419463B695B003A6813445B780B703B6901333B61FB7B013BFB73FB7B002B87
:40448000E7D17B6901337B617B69252BD4D900BF1C37BD4680BC704780B582B000AF414B4BF67F321A80404B18221A703F4B0C221A803F4B18221A703E4B19221A803E4B63
:4044C00018221A703D4B33221A803D4B18221A703C4B40F2DF121A803B4B18221A703B4B40F2CF721A803A4B18221A70394B06221A70394B52221A70384B394A1278D2B2FF
:404500001A70384B4FF4E2621A80374B41F251221A800023FB7019237B6014E0FB785B00DAB2324B1B78DBB203F00103DBB21343DBB203F00303FB704FF4F07002F074FB2C
:404540007B68013B7B607B68002B02D0FB78032BE4D17B68002B02D10320FFF75DFF244B4FF480721A80224B07221A70214B00221A70214B48221A701D4B00221A701F4B61
:4045800000221A701E4B02221A701E4A1D4B1B78DBB243F03F03DBB2137000BF0837BD4680BD00BF80400040824000408440004086400040884000408A4000408C4000409C
:4045C0008E400040904000409240004094400040964000400043004000420040A14600400F01004922420040204200402542004004400040064000400840004009400040D4
:4046000001400040A243004080B483B000AF114B1B78FB71104AFB7903F00703DBB213700E4AFB791B09DBB213700D4B04221A700C4B10221A700C4B14221A700B4B1022CE
:404640001A700B4B44221A7000BF0C37BD4680BC704700BFCF0100496E5800406F5800401D510040905A0040285B0040585B00407658004080B586B000AF72B60023FB751C
:4046800013E0FA7D13465B0013445B00574A13443B613B691A683B699B889BB219461046FFF79CFEFB7D0133FB75FB7D072BE8D90023FB751CE0FA7D13469B0013445B00E4
:4046C0004B4A1344FB60FB681B68BB60FB685B687B60FB681A7A5B7A1B0213437B807B881A467968B868FFF787FEFB7D0133FB75FB7D012BDFD93F494FF09040FFF792FEC3
:404700003D4B20221A7004213C48FFF767FE04213B48FFF763FE3B4A3A4B1B78DBB243F00203DBB21370384A374B1B78DBB243F00203DBB21370354A344B1B78DBB243F0F3
:404740004003DBB21370324A314B1B78DBB243F01003DBB2137008222E492F48FFF74CFE0A222E492E48FFF747FE0A222D492E48FFF742FE08222D492D48FFF73DFE08220E
:404780002C492D48FFF738FE08222C492C48FFF733FE08222B492C48FFF72EFE08222B492B48FFF729FE08222A492B48FFF724FE2A4A2A4B1B78DBB243F00803DBB21370C8
:4047C000274B61221A70FFF767FE254BC1221A70244B01221A70FFF717FF0E220B492248FFF70AFE00BF1837BD4680BD786D0000A86D00009800004812600040007600405E
:40480000087600400350014013500140A0430040C2430040DC0B004802510040E40B0048C0510040F00B0048F0510040FC0B004812510040040C0048225100400C0C0048AF
:4048400032510040140C0048425100401C0C004852510040240C004862510040224300400048004004000840B043004080B500AF02F040FA03461B680C2B00D1FEE7FEE722
:4048800080B586B000AF224B7B61224B3B61204B7B6135E03B691B68FB603B695B68BB603B699B683B6000237B600CE0FB681A68BB681A60BB680433BB60FB680433FB6014
:4048C0007B6804337B607A683B689A42EED13B69DB683B6000237B6008E0BB6800221A60BB680433BB607B6804337B607A683B689A42F2D13B6910333B617B69013B7B616F
:404900007B69002BC6D102F0FBF9FBF7BBFBFEE701000000AC6E000080B582B000AF194B194A1A60194A194B1B6843F40073136000237B600FE07B68032B04D8144A7B686A
:4049400052F8233000E0134B13497A6841F822307B6801337B607B682F2BECD90F4B1B78DAB20F4B1A700F4B0B4A1A60FFF782FE00F01CF80C4B00221A6000BF0837BD46AB
:4049800080BD00BF0CED00E00004FA0514ED00E0000000006D48000000C0FF1FBC760040C4C0FF1F08ED00E0C0C0FF1F80B483B000AF134B7F221A70124B80221A707F235A
:4049C000FB710CE0FB79DB0003F1804303F5F043FA79013AD2B21A70FB79013BFB71FB79002BEFD1FB79DB0003F1804303F5F04300221A7000BF0C37BD4680BC704700BF63
:404A00009DC1FF1F9CC1FF1F80B485B000AF03460A46FB711346BB710123FB60FB79172B2FD8BB79002B0ED0FB791A01184B1344FA791101164A0A441278D2B242F0200286
:404A4000D2B21A700DE0FB791A01114B1344FA7911010F4A0A441278D2B222F02002D2B21A70FB791A010A4B1344FA791101084A0A441278D2B242F00102D2B21A700023A9
:404A8000FB60FB6818461437BD4680BC704700BF1070004080B485B000AF0346FB710123FB60FB79172B1DD8FB791A01104B1344FA7911010E4A0A441278D2B222F0010294
:404AC000D2B21A70FB791A01094B1344FA791101074A0A441278D2B222F02002D2B21A700023FB60FB6818461437BD4680BC70471070004080B485B000AF03460A46FB719D
:404B00001346BB710123FB60FB79172B1BD8FB791A01104B13441B78DBB223F00E03FB72FB791A010B4B1344BA795200D2B252B202F00E0251B297F90B200A4352B2D2B2F8
:404B40001A700023FB60FB6818461437BD4680BC704700BF1070004080B485B000AF0346FB710B46BB8013467B800123FB60BB8841F6FF72934202D14FF40053BB807B8819
:404B800041F6FF72934202D14FF400537B80FB79172B17D8FB79DB0003F1804303F5EC430433BB60BB68BA881A80FB79DB0003F1804303F5EC430633BB60BB687A881A80B1
:404BC0000023FB60FB6818461437BD4680BC704780B485B000AF03460A46FB711346BB710123FB60FB79172B07D8FB791A01064B1344BA795A720023FB60FB6818461437BF
:404C0000BD4680BC704700BF1070004090B484B000AF0446084611461A462346FB710346BB710B467B7113463B710123FB60FB79172B34D8FB79DB0003F1804303F5EC438F
:404C4000BA7902F07F02D1B27A79D201D2B20A43D2B21A70FB79DB0003F1804303F5EC433A7E1201D1B23A7902F00F02D2B20A43D2B25A70FB79DB0003F1804303F5EC43E9
:404C80003A7F02F00F02D2B29A70FB79DB0003F1804303F5EC430022DA700023FB60FB6818461037BD4690BC704700BF80B582B000AFFF23FB7101F0BFFF0346BB71104BA3
:404CC0001B78182B12D90F4B1B78FB710C4B1B78013BDAB20A4B1A70FB79DB0003F1804303F5F0431B78DAB2064B1A70BB79184601F0A6FFFB7918460837BD4680BD00BFA6
:404D00009CC1FF1F9DC1FF1F90B484B000AF0446084611461A462346FB710346BB800B46BB711346FB700123FB6097F90730002B23DBBB8823F47F6323F00F039BB2002B24
:404D40001BD1FB79DB0003F1804303F5F043BB60BB68BA881A80FB79DB0003F1804303F5F043BA799A70FB79DB0003F1804303F5F043FA78DA700023FB60FB68184610371B
:404D8000BD4690BC704700BF80B485B000AF0346FB710B46BB8013467B800123FB6097F90730002B17DBFB79DB0003F1804303F5F0430433BB60BB68BA881A80FB79DB004D
:404DC00003F1804303F5F0430633BB60BB687A881A800023FB60FB6818461437BD4680BC704700BF80B483B000AF0346FB7101BE00BF0C37BD4680BC704700BF80B582B0D7
:404E000000AF786008E00C4B1B68184601F00CFF7B68A3F500437B607B68B3F5004FF2D8064B1B687A6802FB03F3184601F0FCFE00BF0837BD4680BDB0C1FF1FA8C1FF1F4C
:404E400080B584B000AF03463960FB710F4B1B68FB60FB791F2B02D90020FFF7C3FFFB7903F01F0310339B00FA6813441B68BB60FB7903F01F0310339B00FA6813443A68A3
:404E80001A60BB6818461037BD4680BD08ED00E080B582B000AF03460A46FB711346BB71BB79072B02D90020FFF79CFFFB791F2B02D90020FFF796FFFB7903F01F0303F148
:404EC000604303F56443BA795201D2B21A7000BF0837BD4680BD00BF80B485B000AF0346FB710B4B1B78DBB223F00203FB730849FB795B00DBB203F00203DAB2FB7B134319
:404F0000DBB20B7000BF1437BD4680BC704700BF0051004080B485B000AF0346FB710B4B1B78DBB223F01003FB730849FB791B01DBB203F01003DAB2FB7B1343DBB20B706E
:404F400000BF1437BD4680BC704700BF2051004080B485B000AF0346FB710B4B1B78DBB223F00803FB730849FB79DB00DBB203F00803DAB2FB7B1343DBB20B7000BF14375D
:404F8000BD4680BC704700BF6051004080B400AF044B1B78DBB203F00103DBB21846BD4680BC70470151004080B400AF054B1B78DBB203F020035B09DBB21846BD4680BC98
:404FC000704700BF4151004080B400AF054B1B78DBB203F040039B09DBB21846BD4680BC704700BF4151004080B485B000AF0346FB710B4B1B78DBB223F00803FB730849AA
:40500000FB79DB00DBB203F00803DAB2FB7B1343DBB20B7000BF1437BD4680BC704700BFC051004080B485B000AF0346FB71094B1B78DBB203F07F03FB730649FB79DB0163
:40504000DAB2FB7B1343DBB20B7000BF1437BD4680BC70473051004080B485B000AF0346FB710B4B1B78DBB223F00403FB730849FB799B00DBB203F00403DAB2FB7B134305
:40508000DBB20B7000BF1437BD4680BC704700BFC051004080B485B000AF0346FB710B4B1B78DBB223F04003FB730849FB799B01DBB203F04003DAB2FB7B1343DBB20B704D
:4050C00000BF1437BD4680BC704700BF3051004080B485B000AF0346FB710B4B1B78DBB223F00803FB730849FB79DB00DBB203F00803DAB2FB7B1343DBB20B7000BF1437CC
:40510000BD4680BC704700BFF051004080B485B000AF0346FB710B4B1B78DBB223F00403FB730849FB799B00DBB203F00403DAB2FB7B1343DBB20B7000BF1437BD4680BCDE
:40514000704700BFF051004080B485B000AF0346FB710B4B1B78DBB223F00203FB730849FB795B00DBB203F00203DAB2FB7B1343DBB20B7000BF1437BD4680BC704700BFAB
:40518000C051004080B485B000AF0346FB710A4B1B78DBB223F00103FB730749FB7903F00103DAB2FB7B1343DBB20B7000BF1437BD4680BC704700BFC051004080B500AFC8
:4051C00000F042F8044800F00FF8022000F01EF800F02EF800BF80BDDD51000080B500AFFBF7A6FF00BF80BD80B485B000AF7860054B1B68FB60FB685C337A681A6000BF38
:405200001437BD4680BC704708ED00E080B483B000AF0346FB71054AFB795B01DBB2137000BF0C37BD4680BC704700BF07E400E080B400AF034B80221A6000BFBD4680BC91
:40524000704700BF00E100E080B400AF034B80221A6000BFBD4680BC704700BF80E100E080B500AF064B1B78002B04D100F00AF8034B01221A7000F02DF800BF80BD00BF70
:4052800046CCFF1F80B500AF0C4B72221A700C4B20221A700B490120FFF7D2FD03210120FFF7F6FD084B06221A70084B47221A70074B02221A7000BF80BD00BF84640040AC
:4052C00086640040455400002B6400403B6400408A64004080B582B000AF01F0ADFC0346FB71144A134B1B78DBB243F02003DBB21370114A104B1B78DBB243F01003DBB2BF
:4053000013700E4A0D4B1B78DBB243F01003DBB213700B4B02221A600A4B02221A6000F0C9F8FB79184601F08BFC00BF0837BD4680BD00BF94640040966400409A64004035
:4053400080E200E000E100E080B483B000AF064B1B78DBB203F07F03FB71FB7918460C37BD4680BC704700BF6664004080B483B000AF0023FB710C4B1B78BB71BB7903F00C
:405380002003002B09D0094B1B78FB71BB7903F01E03002B01D00023FB71FB7918460C37BD4680BC704700BF666400404564004080B483B000AF0346FB711A4B1B78002BF5
:4053C0002BD0194B02221A60184B1B889AB2184B1B889A420AD1174B1B78DBB203F00403002B03D1144AFB79137013E0104B1B88B3F5806F02D30E4B00221A800C4B1B8865
:4054000019460E4AFB795354094B1B8801339AB2074B1A800A4B02221A6000BF0C37BD4680BC704746CCFF1F80E100E048CCFF1F4ACCFF1F6A6400404464004068CCFF1F2D
:4054400000E100E080B400AF18E0154B1B889BB2B3F5806F02D3124B00221A80114B104A128892B21146104A525CD2B21A700C4B1B889BB201339AB2094B1A80084B1B880F
:405480009AB20A4B1B889A4206D0094B1B78DBB203F00403002BD8D000BFBD4680BC704748CCFF1F4464004068CCFF1F4ACCFF1F6A64004080B400AF094A094B1B78DBB2A8
:4054C00043F00403DBB21370064A064B1B78DBB243F00403DBB2137000BFBD4680BC7047A2430040B243004080B483B000AF0346FB71044AFB79137000BF0C37BD4680BCF7
:40550000704700BF7564004080B500AF224A224B1B78DBB203F00103DBB213701F4A1F4B1B78DBB223F00303DBB213701C4A1C4B1B78DBB223F03003DBB21370184A184BD4
:405540001B78DBB243F03003DBB21370144A144B1B78DBB223F00F03DBB21370104A104B1B78DBB243F00F03DBB213700D4A0D4B1B78DBB243F00103DBB2137040F2DF1022
:4055800000F058F840F2DF1000F066F8082000F041F800BF80BD00BF0C4F00400E4F0040174F00400D4F004080B400AF0D4A0D4B1B78DBB243F00203DBB213700A4A0A4B13
:4055C0001B78DBB243F00203DBB21370074A074B1B78DBB243F00103DBB2137000BFBD4680BC7047A3430040B34300400C4F004080B500AF064B1B78002B04D1FFF784FF4C
:40560000034B01221A70FFF7CFFF00BF80BD00BF4DCCFF1F80B483B000AF0346FB71044AFB79137000BF0C37BD4680BC704700BF0F4F004080B485B000AF0346FB80FB88F5
:40564000FB81044AFB89138000BF1437BD4680BC704700BF104F004080B483B000AF0346FB80044AFB88138000BF0C37BD4680BC704700BF124F004080B485B000AF0346F4
:40568000FB710B4B1B78DBB223F01003FB730849FB791B01DBB203F01003DAB2FB7B1343DBB20B7000BF1437BD4680BC704700BF0051004080B500AF00F050F8044800F0F8
:4056C0001DF8052000F02CF800F03CF800BF80BDD556000080B500AFFBF7D2F8FDF7A6F8FCF756FBFEF736F8FEF78CFDFBF754F8FCF7CCFAFEF712FD00BF80BD80B485B09A
:4057000000AF7860054B1B68FB60FB6850337A681A6000BF1437BD4680BC704708ED00E080B483B000AF0346FB71054AFB795B01DBB2137000BF0C37BD4680BC704700BFEC
:4057400004E400E080B400AF034B10221A6000BFBD4680BC704700BF00E100E080B400AF034B10221A6000BFBD4680BC704700BF80E100E080B500AF064B1B78002B04D1F5
:4057800000F00AF8034B01221A7000F02DF800BF80BD00BF4ECCFF1F80B500AF0C4B72221A700C4B20221A700B490020FFF748FB04210020FFF76CFB084B06221A70084BD1
:4057C00047221A70074B02221A7000BF80BD00BF896400408F640040C55900002C6400403C6400408B64004080B582B000AF01F023FA0346FB71144A134B1B78DBB243F0B6
:405800002003DBB21370114A104B1B78DBB243F01003DBB213700E4A0D4B1B78DBB243F01003DBB213700B4B01221A600A4B01221A6000F051F9FB79184601F001FA00BF47
:405840000837BD4680BD00BF996400409F6400409B64004080E200E000E100E080B483B000AF064B1B78DBB203F07F03FB71FB7918460C37BD4680BC704700BF6F640040E3
:4058800080B483B000AF0023FB710C4B1B78BB71BB7903F02003002B09D0094B1B78FB71BB7903F01E03002B01D00023FB71FB7918460C37BD4680BC704700BF6F640040DC
:4058C0004F64004080B485B000AF0346FB71264B1B88FB81254B1B88BB81FA89BB899A4208D2FA89BB89013B9A420CBF01230023DBB209E0FA89BB89D31A40F2FF32934239
:405900000CBF01230023DBB2002BE0D1BA89FB899A420AD1164B1B78DBB203F00403002B03D1144AFB79137019E0FB89B3F5806F01D30023FB81FB890F49FA79CA54FB8927
:405940000133FB81084AFB891380094B1B78DBB203F00203002B02D0084B01221A6000BF1437BD4680BC704752CCFF1F50CCFF1F6B6400404864004068D0FF1F00E200E02C
:4059800080B584B000AF78600B467B800023FB810B4B1B78002B0ED009E0FB897A6813441B781846FFF78EFFFB890133FB81FA897B889A42F1D300BF1037BD4680BD00BFA1
:4059C0004ECCFF1F80B400AF18E0154B1B889BB2B3F5806F02D3124B00221A80114B104A128892B21146104A525CD2B21A700C4B1B889BB201339AB2094B1A80084B1B8813
:405A00009AB20A4B1B889A4206D0094B1B78DBB203F00403002BD8D000BFBD4680BC704750CCFF1F4864004068D0FF1F52CCFF1F6B64004080B500AF00F042F8044800F069
:405A40000FF8022000F01EF800F02EF800BF80BD555A000080B500AFFDF70CFA00BF80BD80B485B000AF7860054B1B68FB60FB6858337A681A6000BF1437BD4680BC7047F4
:405A800008ED00E080B483B000AF0346FB71054AFB795B01DBB2137000BF0C37BD4680BC704700BF06E400E080B400AF034B40221A6000BFBD4680BC704700BF00E100E054
:405AC00080B400AF034B40221A6000BFBD4680BC704700BF80E100E080B400AF094A094B1B78DBB243F00803DBB21370064A064B1B78DBB243F00803DBB2137000BFBD461B
:405B000080BC7047A2430040B243004080B483B000AF0346FB71044AFB79137000BF0C37BD4680BC704700BF7865004080B500AF00F042F8044800F00FF8022000F01EF8BB
:405B400000F02EF800BF80BD4D5B000080B500AFFCF796FF00BF80BD80B485B000AF7860054B1B68FB60FB6860337A681A6000BF1437BD4680BC704708ED00E080B483B057
:405B800000AF0346FB71054AFB795B01DBB2137000BF0C37BD4680BC704700BF08E400E080B400AF034B4FF480721A6000BFBD4680BC704700E100E080B400AF034B4FF405
:405BC00080721A6000BFBD4680BC704780E100E080B500AF064B1B78002B04D100F00AF8034B01221A7000F02DF800BF80BD00BF56CCFF1F80B500AF0C4B72221A700C4BCE
:405C000020221A700B490220FFF71AF903210220FFF73EF9084B06221A70084B47221A70074B02221A7000BF80BD00BF8A65004088640040B55D00002A6400403A64004087
:405C40008D64004080B582B000AF00F0F5FF0346FB71144A134B1B78DBB243F02003DBB21370114A104B1B78DBB243F01003DBB213700E4A0D4B1B78DBB243F01003DBB233
:405C800013700B4B04221A600A4B04221A6000F0E9F8FB79184600F0D3FF00BF0837BD4680BD00BF9A650040986400409D64004080E200E000E100E080B483B000AF064BEE
:405CC0001B78DBB203F07F03FB71FB7918460C37BD4680BC704700BF6864004080B483B000AF0023FB710C4B1B78BB71BB7903F02003002B09D0094B1B78FB71BB7903F04A
:405D00001E03002B01D00023FB71FB7918460C37BD4680BC704700BF686400404965004080B483B000AF0346FB711A4B1B78002B2BD0194B04221A60184B1B889AB2184B51
:405D40001B889A420AD1174B1B78DBB203F00403002B03D1144AFB79137013E0104B1B88B3F5006F02D30E4B00221A800C4B1B8819460E4AFB795354094B1B8801339AB2C4
:405D8000074B1A800A4B04221A6000BF0C37BD4680BC704756CCFF1F80E100E058CCFF1F5ACCFF1F6D6400404D64004068D4FF1F00E100E080B400AF18E0154B1B889BB2BB
:405DC000B3F5006F02D3124B00221A80114B104A128892B21146104A525CD2B21A700C4B1B889BB201339AB2094B1A80084B1B889AB20A4B1B889A4206D0094B1B78DBB288
:405E000003F00403002BD8D000BFBD4680BC704758CCFF1F4D64004068D4FF1F5ACCFF1F6D64004080B483B000AF0346FB71044AFB79137000BF0C37BD4680BC704700BF37
:405E40007965004080B483B000AF0346FB71044AFB79137000BF0C37BD4680BC704700BF7D64004080B400AF094A094B1B78DBB243F00203DBB21370064A064B1B78DBB269
:405E800043F00203DBB2137000BFBD4680BC7047A2430040B243004080B500AF214A214B1B78DBB203F00103DBB213701E4A1E4B1B78DBB223F00303DBB213701B4A1B4BC4
:405EC0001B78DBB223F03003DBB21370174A174B1B78DBB243F03003DBB21370134A134B1B78DBB223F00F03DBB213700F4A0F4B1B78DBB243F00F03DBB213700C4A0C4BEE
:405F00001B78DBB243F00103DBB21370EF2000F057F8EF2000F066F8082000F041F800BF80BD00BF004F0040024F00400B4F0040014F004080B400AF0D4A0D4B1B78DBB247
:405F400043F00103DBB213700A4A0A4B1B78DBB243F00103DBB21370074A074B1B78DBB243F00103DBB2137000BFBD4680BC7047A3430040B3430040004F004080B500AF3C
:405F8000064B1B78002B04D1FFF786FF034B01221A70FFF7CFFF00BF80BD00BF5DCCFF1F80B483B000AF0346FB71044AFB79137000BF0C37BD4680BC704700BF034F004068
:405FC00080B485B000AF0346FB80FB88FB81044AFB89138000BF1437BD4680BC704700BF044F004080B483B000AF0346FB80044AFB88138000BF0C37BD4680BC704700BF1A
:40600000064F004080B500AF00F044F8044800F011F8042000F020F800F030F800BF80BD2560000080B500AFFCF7F2FBFBF7A2FE00BF80BD80B485B000AF7860054B1B689C
:40604000FB60FB684C337A681A6000BF1437BD4680BC704708ED00E080B483B000AF0346FB71054AFB795B01DBB2137000BF0C37BD4680BC704700BF03E400E080B400AF57
:40608000034B08221A6000BFBD4680BC704700BF00E100E080B400AF034B08221A6000BFBD4680BC704700BF80E100E080B500AF224A224B1B78DBB203F00103DBB213704B
:4060C0001F4A1F4B1B78DBB223F00303DBB213701C4A1C4B1B78DBB223F03003DBB21370184A184B1B78DBB243F03003DBB21370144A144B1B78DBB223F00F03DBB21370D4
:40610000104A104B1B78DBB243F00F03DBB213700D4A0D4B1B78DBB243F00103DBB2137040F2AF4000F058F840F2AF4000F066F8082000F041F800BF80BD00BF184F00409C
:406140001A4F0040234F0040194F004080B400AF0D4A0D4B1B78DBB243F00403DBB213700A4A0A4B1B78DBB243F00403DBB21370074A074B1B78DBB243F00103DBB2137003
:4061800000BFBD4680BC7047A3430040B3430040184F004080B500AF064B1B78002B04D1FFF784FF034B01221A70FFF7CFFF00BF80BD00BF5ECCFF1F80B483B000AF0346C5
:4061C000FB71044AFB79137000BF0C37BD4680BC704700BF1B4F004080B485B000AF0346FB80FB88FB81044AFB89138000BF1437BD4680BC704700BF1C4F004080B483B07C
:4062000000AF0346FB80044AFB88138000BF0C37BD4680BC704700BF1E4F004080B500AF00F092F9044800F05FF9072000F06EF900F07EF900BF80BD3D62000080B500AFCC
:40624000A74B1B780133DAB2A54B1A70A54B1B78002B02D1FAF752FB1AE0A24B1B78012B02D1FCF725FB13E09E4B1B78022B02D1FBF7CCFD0CE09B4B1B78032B02D1FDF790
:40628000A7FA05E0974B1B78042B01D1FDF7FCFF944B9B78492B07D0924B9B78422B03D0904B9B78552B09D1002000F0CDFC012000F0E8FC002000F0FFFC08E1894B9B7895
:4062C000572B28D1864B1B78012B09D8002000F0BBFC012000F0D6FC002000F0EDFCF6E07F4B1B78022B0DD97D4B1B78032B09D8002000F0A9FC002000F0C4FC002000F0CA
:40630000DBFCE4E0764B1B78042B40F2E080744B00221A70DBE0734B9B78502B3AD1714B1B78012B2CD16F4B5B780A2B28D16C4B1B78012B09D8002000F086FC002000F004
:40634000A1FC012000F0B8FCC0E0654B1B78022B0DD9634B1B78032B09D8002000F074FC002000F08FFC002000F0A6FCAEE05C4B1B78042B40F2AA80594B00221A70A5E080
:40638000002000F061FC002000F07CFC012000F093FC9CE0534B9B78462B09D1012000F053FC002000F06EFC002000F085FC8EE04C4B9B78702B27D1494B1B78012B09D886
:4063C000002000F041FC002000F05CFC012000F073FC7CE0424B1B78022B0DD9404B1B78032B09D8002000F02FFC002000F04AFC002000F061FC6AE0394B1B78042B66D9DF
:40640000374B00221A7062E0364B9B78662B27D1334B1B78012B09D8012000F015FC002000F030FC002000F047FC50E02C4B1B78022B0DD92A4B1B78032B09D8002000F08C
:4064400003FC002000F01EFC002000F035FC3EE0234B1B78042B3AD9214B00221A7036E0204B9B78722B27D11D4B1B78012B09D8012000F0E9FB012000F004FC012000F0F1
:406480001BFC24E0164B1B78022B0DD9144B1B78032B09D8002000F0D7FB002000F0F2FB002000F009FC12E00D4B1B78042B0ED90B4B00221A700AE0002000F0C5FB0020F6
:4064C00000F0E0FB002000F0F7FB00E000BF044B1B78642B02D9024B00221A7000BF80BD5FCCFF1F68DCFF1F80B485B000AF7860054B1B68FB60FB6854337A681A6000BF21
:406500001437BD4680BC704708ED00E080B483B000AF0346FB71054AFB795B01DBB2137000BF0C37BD4680BC704700BF05E400E080B400AF034B20221A6000BFBD4680BCE0
:40654000704700BF00E100E080B400AF034B20221A6000BFBD4680BC704700BF80E100E080B400AF054B1B78DBB203F00803DB08DBB21846BD4680BC704700BF415100409C
:4065800080B500AF00F068F9022000F0B7F9042000F0D4F9FEF78AFB03461A46084B1A70FEF784FB03461A46064B1A706421064800F052F86421054800F082F800BF80BDC6
:4065C00063CCFF1F64CCFF1FBC6D0000206E000080B500AF00F05EF9094B1B7801211846FEF712FA074B1B7801211846FEF70CFA002000F0C3F900F097F800BF80BD00BF50
:4066000061CCFF1F62CCFF1F80B500AF064B1B78002B04D1FFF7B4FF034B01221A70FFF7D7FF00BF80BD00BF60CCFF1F80B500AF00F094F8064B1B781846FEF72BFA054B7A
:406640001B781846FEF726FA00F03EF900BF80BD61CCFF1F62CCFF1F80B582B000AF78600B467B807B681B0C9AB24FF480430121012000F08DF803461A460F4B1A700F4B25
:4066800018780E4B1A7879880123FEF73DFB0B4B1B787A6891B245F682321846FEF774FB054B1A78054B1B7819461046FEF790FA00BF0837BD4680BD61CCFF1F63CCFF1F7F
:4066C00080B582B000AF78600B467B807B681B0C9AB24FF480430121012000F08BF803461A460F4B1A700F4B18780E4B1A7879880123FEF709FB0B4B1B787A6891B245F685
:4067000082321846FEF740FB054B1A78054B1B7819461046FEF75CFA00BF0837BD4680BD62CCFF1F64CCFF1F80B400AF094A094B1B78DBB243F01003DBB21370064A064BD9
:406740001B78DBB243F01003DBB2137000BFBD4680BC7047A2430040B243004080B400AF094A094B1B78DBB223F01003DBB21370064A064B1B78DBB223F01003DBB21370BD
:4067800000BFBD4680BC7047A2430040B243004090B585B002AF0446084611461A462346FB710346BB710B46BB8013467B80104B00221A700E4B1878BA79F97900230193DA
:4067C000002300930023FEF721FA094B1B787A88B9881846FEF7C0F9054B1B7802211846FEF788F9024B1B7818460C37BD4690BDB4C1FF1F90B585B002AF04460846114622
:406800001A462346FB710346BB710B46BB8013467B80104B01221A700E4B1878BA79F97900230193002300930023FEF7EFF9094B1B787A88B9881846FEF78EF9054B1B78E4
:4068400002211846FEF756F9024B1B7818460C37BD4690BDB5C1FF1F80B500AF0A4B00221A700A4B00221A70094A094B1B78DBB243F00803DBB21370002000F05FF802206A
:4068800000F03CF800BF80BD2858004029580040975A004080B400AF094A094B1B78DBB243F00403DBB21370064A064B1B78DBB243F00403DBB2137000BFBD4680BC704752
:4068C000A8430040B843004080B400AF094A094B1B78DBB223F00403DBB21370064A064B1B78DBB223F00403DBB2137000BFBD4680BC7047A8430040B843004080B483B0F1
:4069000000AF0346FB710C4A0B4B1B78DBB223F00203DBB213700849074B1B78DAB2FB7903F00203DBB21343DBB20B7000BF0C37BD4680BC704700BF2858004080B582B008
:4069400000AF0346FB710C4A0B4B1B78DBB223F00C03DBB213700849074B1B78DAB2FB7903F00C03DBB21343DBB20B7000F016F800BF0837BD4680BD2858004080B483B02F
:4069800000AF0346FB71044AFB79137000BF0C37BD4680BC704700BF825B004080B483B000AF0B4B1B78DBB203F00C039B08DBB20633FB71074AFB7903F1924303F594736A
:4069C0001B78DBB2137000BF0C37BD4680BC7047285800400A46004080B485B000AF0346FB71094B1B78DBB203F07F03FB730649FB79DB01DAB2FB7B1343DBB20B7000BFCA
:406A00001437BD4680BC7047F051004080B485B000AF0346FB710A4B1B78DBB223F00103FB730749FB7903F00103DAB2FB7B1343DBB20B7000BF1437BD4680BC704700BFF3
:406A40005051004080B485B000AF0346FB710B4B1B78DBB223F04003FB730849FB799B01DBB203F04003DAB2FB7B1343DBB20B7000BF1437BD4680BC704700BFF05100406A
:406A800080B485B000AF0346FB710A4B1B78DBB223F00103FB730749FB7903F00103DAB2FB7B1343DBB20B7000BF1437BD4680BC704700BFF051004080B485B000AF034653
:406AC000FB710B4B1B78DBB223F00203FB730849FB795B00DBB203F00203DAB2FB7B1343DBB20B7000BF1437BD4680BC704700BF5051004080B485B000AF0346FB710B4B66
:406B00001B78DBB223F00403FB730849FB799B00DBB203F00403DAB2FB7B1343DBB20B7000BF1437BD4680BC704700BF5051004080B485B000AF0346FB710B4B1B78DBB283
:406B400023F00803FB730849FB79DB00DBB203F00803DAB2FB7B1343DBB20B7000BF1437BD4680BC704700BF5051004080B400AF054B1B78DBB203F08003DB09DBB21846C6
:406B8000BD4680BC704700BF6151004080B483B000AF0346FB71044AFB79137000BF0C37BD4680BC704700BF7C64004080B485B000AF0346FB710B4B1B78DBB223F00203EC
:406BC000FB730849FB795B00DBB203F00203DAB2FB7B1343DBB20B7000BF1437BD4680BC704700BF6051004080B485B000AF0346FB710B4B1B78DBB223F00403FB73084956
:406C0000FB799B00DBB203F00403DAB2FB7B1343DBB20B7000BF1437BD4680BC704700BF60510040000000000230800803D000BF01380046FCD17047EFF3108072B670470E
:406C400080F31088704700BF80B485B000AF0346FB710B4B1B78DBB223F04003FB730849FB799B01DBB203F04003DAB2FB7B1343DBB20B7000BF1437BD4680BC704700BF49
:406C80000051004080B485B000AF0346FB71094B1B78DBB203F07F03FB730649FB79DB01DAB2FB7B1343DBB20B7000BF1437BD4680BC70470051004080B485B000AF03462E
:406CC000FB710B4B1B78DBB223F00403FB730849FB799B00DBB203F00403DAB2FB7B1343DBB20B7000BF1437BD4680BC704700BF40510040014B1868704700BF18C2FF1F19
:406D00000E4B70B51E460E4C0025E41AA410A54204D056F8253098470135F8E700F0B4F8084B094C1E46E41AA4100025A54204D056F8253098470135F8E770BD946E0000EE
:406D4000946E0000946E00009C6E000010B5431E0A44914204D011F8014B03F8014FF8E710BD03460244934202D003F8011BFAE77047000000000000004F00402400000006
:406D800001408004000501408009000F0140000100140140000800400140000A004C0140000200500140200080040140DC0A00488000800E01405C0B004880009F9F9F9FD9
:406DC0009F9F9F9F9F9F9F9F9F9F9F9F9F9F9F9F9F9F9F9F9F9F9F9F9F9F9F9F9F9F9F9F9F9F9F9F9F9F9F9F9F9F9F9F9F9F60606060606060606060606060606060606041
:406E0000606060606060606060606060606060606060606060606060606060606060606080848A8F94989EA2A8ACB2B6BCC0C6CAD0D5DADEE4E8EEF2F8FCF8F2EEE8E4DE82
:406E4000DAD4D0CAC6C0BCB6B2ADA8A29E98948F8A84807A76706B66615D58534E49443E39342F2A25211C17120D0803080D12171C21252A2F34393E44494E53585D6166D8
:406E80006B70767A43000000F8B500BFF8BC08BC9E4670474D00000019490000F8B500BFF8BC08BC9E46704729000000C06E0000C8C0FF1F58010000501A00000000000057
:406EC000000000003200D00764003200320032003200320032003200320000007E50080D0A7E440F0D0A7E48050D0A7E53030D0A244750524D432C00320032002C01320067
:406F000032003200320032003200640032000000320032006400C80032006400640032006400983A320000007E410A0D0A7E4C6F0D0A00007E33030D0A0000000D0F0E0C6C
:406F4000020100031D1F1E1C0B08090A1B18191A0507060413101112141617153200D00764003200640032003200320032003200320000003200F401C80032006400320071
:406F80006400320032003200320032003200E80332003200807F000003000000006CDC0280BB0000300000000000C05DFFFF00000000000000000000000000000000000020
:406FC00000000000000000000000000000000000846E000000000000000000000000000000000000000000000000000000000000000000000000000000000000000000009F
:4070000000000000000000000000000000000000B8C1FF1F0000000000000000000000000000000000000000000000000000000000000000000000000000000000000000B9
:407040000000000000000000000000000000000000000000000000000000000000000000000000000000000000000000000000000000000000000000000000000000000010
:4070800000000000000000000000000000000000000000000000000000000000000000000000000000000000000000000000000000000000000000000000000000000000D0
:4070C0000000000000000000000000000000000000000000000000000000000000000000000000000000000000000000000000000000000000000000000000000000000090
:40710000000000000000000000000000000000000000000000000000000000000000000000000000000000000000000000000000000000000000000000000000000000004F
:020000040001F9
:0200000480007A
:40000000064F004006520040015A0040086400400165004005030140140401403A0501404806014048070140540801404C090140630A0140500B0140610C01404A0D0140A2
:400040000D0E0140370F01400815014008170140591801403F190140471A0140551B01400D40014015410140134201400B43014008440140134501400646014003470140B9
:4000800009480140084901400A4C0140184D0140085001400451014001500A360D5016361950223601081088110A208021806020970184728638883889728A0F8B0F8D0F62
