:400000000040002011000000DD150000DD15000080B500AF024A034B1B68136001F0E8FABC760040FA46004010B5054C237833B9044B13B10448AFF300800123237010BD90
:4000400070C1FF1F0000000070250000084B10B51BB108490848AFF300800848036803B910BD074B002BFBD0BDE81040184700BF0000000074C1FF1F70250000C8C0FF1FC8
:400080000000000080B500AF00F014F862B6084B01221A70064B1B78002B02D0012B03D005E000F023F802E000F0ACFA00BFEEE78CC1FF1F80B500AF012001F073FD01F0AA
:4000C0002DFF01F0D9FE01F0F3FB01F09FFB02F067F902F0A9F901F007FE01F067FE02F055F802F097F800BF80BD00BF80B500AF264B1B78082B47D801A252F823F000BFFC
:40010000250100002D01000089010000470100008901000089010000890100008901000081010000194B01221A702CE000F0FEF900BF002000F00EFA0346002BF9D0134B79
:4001400003221A701FE000F029F803461A46104B1A70104B1B781A460D4B1B7899B20E4B23F812100B4B1B780133DAB2094B1A70084B1B78C72B05D9064B00221A7001E0FD
:4001800000BF00E000BF00BF00BF80BD50C3FF1FB0C1FF1F44C3FF1FB4C1FF1F80B500AF00F00AF80246034B1A60024B1B685B79184680BD98C1FF1F80B400AF044B054A91
:4001C0001A60034B1B681846BD4680BC704700BF98C1FF1F90C1FF1F80B400AF00BFBD4680BC704780B582B000AF0023FB7101F0E5FB0346FB71164B1B781946154AFB79D2
:400200005354134B1B780133DAB2114B1A70104B1B78632B02D90E4B00221A70FB79184600F01AF8FB79184600F0B4F90346002B02D0002001F09CFD01F0AEFB034603F01B
:400240002003002BD3D100BF0837BD4680BD00BF98C3FF1F9CC3FF1F80B582B000AF0346FB719E4B1B78012B78D0022B00F09780002B00D050E19A4B1B78002B20D1994B06
:400280001B78FA799A420ED0964B5B79FA799A4209D0944B9B7AFA799A4204D0914BDB7BFA799A420CD18E4B1B7819468E4AFB7953548B4B1B780133DAB2894B1A704CE0BB
:4002C000874B1B78012B41D1864B5B78FA799A420ED0844B9B79FA799A4209D0814BDB7AFA799A4204D07F4B1B7CFA799A422DD17B4B1B7819467C4AFB795354784B1B789E
:400300000133DAB2764B1A70744B01221A70754B9B79FA799A4203D1744B01221A701CE0704BDB7AFA799A4203D1704B02221A7013E06C4B1B7CFA799A4203D16B4B03220C
:400340001A700AE0694B00221A7006E0644B00221A70664B00221A70DEE0DDE0604B1B781946614AFB7953545D4B1B780133DAB25B4B1A705A4B1B7818465C4B1B781946D3
:40038000584A0B469B000B44134402331B7802339842C0F2C080514B02221A70BBE0504B1B781846514B1B7819464E4A0B469B000B44134402331B780233984219D14B4BC0
:4003C0001B781946474A0B469B000B44134403331B78FA799A420CD1414B1B781946424AFB7953543E4B1B780133DAB23C4B1A7090E03B4B1B7818463C4B1B781946394AFE
:400400000B469B000B44134402331B780333984276D1364B1B781946324A0B469B000B44134404331B78FA799A4269D12C4B1B7819462D4AFB7953542C4B1B78002B14D122
:40044000FFF7BAFE02462A4B1A60294B1B681846244B9B781A46274902F076F8264B1B8801339AB2244B1A802DE0204B1B78012B14D100F00DFC0246204B1A601F4B1B68C4
:400480001846184BDB791A461A4902F05DF81A4B5B8801339AB2184B5A8014E0134B1B78022B06D1144B9B8801339AB2124B9A8009E00E4B1B78032B05D10F4BDB880133EC
:4004C0009AB20D4BDA80064B00221A70034B00221A70064B00221A701CE000BF00C4FF1F01C4FF1FCCC0FF1F04C4FF1F17C4FF1F74C3FF1F06C4FF1F64C3FF1F88C3FF1F16
:40050000074B00221A70074B00221A70064B00221A7001E000E000BF00BF0837BD4680BD01C4FF1F00C4FF1F17C4FF1F80B400AF074B00221A80064B00225A80044B002297
:400540009A80034B0022DA8000BFBD4680BC704764C3FF1F80B483B000AF0346FB71FB79002B06D1FB79002B03D1084B1A88084B1A80074B1B88042B01D9012300E00023E2
:4005800018460C37BD4680BC704700BF64C3FF1F70C4FF1F80B483B000AF0346FB71144B1B78FA799A4202D1124B00221A70114B1B781A460E4B9B5CFA799A4202D00D4B4E
:4005C00000221A700B4B1B780133DAB2094B1A70084B1B78062B04D9064B00221A70012300E0002318460C37BD4680BC704700BFE0C0FF1F72C4FF1F80B400AF00BFBD46A3
:4006000080BC704780B582B000AF964B1B780A2B00F2208201A252F823F000BF490600000B0700004B070000B10700000B0800007D080000D7080000310900008B09000005
:40064000F1090000530A0000874B00221A800023FB7106E0FB79854A5F21D154FB790133FB71FB79092BF5D900F032FB0246804B1A6007E07E4B1A68BB79B979D154BB7913
:400680000133BB71BB794E2BF4D9794B1B687E2283F83520764B1B68332283F83620744B1B680D2283F83A20714B1B680A2283F83B206F4B1B687E2283F83C206C4B1B68CA
:4006C000532283F83D206A4B1B680D2283F84120674B1B680A2283F84220654B1B687E2283F84320624B1B68502283F84420604B1B680D2283F84D205D4B1B680A2283F8E3
:400700004E20584B01221A70A4E1564B1B781A46564B42219954574B00221A80564B01221A80554B00221A804E4B1B781A464F4B9B5C462B05D04B4B1B781A464B4B5021E6
:400740009954484B02221A7084E1012000F07EFB444B1B781A46454B42219954454B00221A80454B01221A8000BF00F07FF90346002B06D13B4B1B781A463C4B9B5C462B87
:40078000F3D13D4B00221A80002000F05FFB354B1B781A46354B9B5C462B05D0314B1B781A46324B502199542E4B03221A7051E12C4B1B781A462D4B422199542D4B002227
:4007C0001A802D4B01221A8000BF00F099F90346002B06D1234B1B781A46244B9B5C462BF3D1254B00221A801E4B1B781A461F4B9B5C462B05D01B4B1B781A461B4B502143
:400800009954184B04221A7024E1164B1B781A46164B42219954174B00221A80164B01221A8000BF00F074F90346002B06D10D4B1B781A460D4B9B5C462BF3D10E4B0022C1
:400840001A80084B1B781A46084B9B5C462B05D0044B1B781A46054B50219954014B05221A70F7E072C5FF1FA8C6FF1F68C5FF1FD8C4FF1F64C5FF1F66C5FF1F774B1B7879
:400880001A46774B42219954764B00221A80764B01221A8000BF00F04FF90346002B06D16E4B1B781A466E4B9B5C462BF3D16E4B00221A80694B1B781A46694B9B5C462BC0
:4008C00005D0664B1B781A46654B50219954634B06221A70BEE0614B1B781A46604B42219954604B00221A805F4B01221A8000BF00F048F90346002B06D1584B1B781A463A
:40090000574B9B5C462BF3D1574B00221A80534B1B781A46524B9B5C462B05D04F4B1B781A464F4B502199544C4B07221A7091E04A4B1B781A464A4B42219954494B0022BD
:400940001A80494B01221A8000BF00F043F90346002B06D1414B1B781A46414B9B5C462BF3D1414B00221A803C4B1B781A463C4B9B5C462B05D0394B1B781A46384B50212E
:400980009954364B08221A7064E0012000F05EFA324B1B781A46324B42219954314B00221A80314B01221A8000BF00F031F90346002B06D1294B1B781A46294B9B5C462B53
:4009C000F3D1294B00221A80002000F03FFA234B1B781A46224B9B5C462B05D01F4B1B781A461F4B502199541C4B09221A7031E01A4B1B781A461A4B42219954194B0022CA
:400A00001A80194B01221A8000BF00F039F90346002B06D1114B1B781A46114B9B5C462BF3D1114B00221A800C4B1B781A460C4B9B5C462B05D0094B1B781A46084B5021F7
:400A400099544FF47A7000F073FE044B00221A7000E000BF00BF0837BD4680BD72C5FF1F68C5FF1F64C5FF1F66C5FF1F80B582B000AF00F02DF90246204B1A601F4B1B68AD
:400A8000FF2283F845201D4B1B68FF2283F848201A4B1B68FF2283F84620184B1B68FF2283F8472000233B600023FB7102E0FB790133FB71FB791F2BF9D9104B1B680022A0
:400AC00083F845200D4B1B68002283F846200B4B1B68002283F84720084B1B68002283F848203B686FF07F42934201D1012300E0002318460837BD4680BD00BFD8C4FF1F99
:400B000080B400AF01231846BD4680BC704700BF80B582B000AF0023FB7102E0FB790133FB71FB79072BF9D9032000F043FB034618460837BD4680BD80B500AF022001F01A
:400B40008BF9012001F04CF800F0B2F802460C4B1A600B4B1B6800221A70094B1B6801225A70074B1B6802229A70054B1B680122DA70034B1B6801221A710023184680BD1F
:400B8000E4C4FF1F80B500AF00F082F802460F4B1A60012001F060F900F09AF802460C4B1A600B4B1B68002283F84920084B1B68FF2283F84920054B1B68DB79FF2B01D023
:400BC000002300E00123184680BD00BF84C4FF1FD8C4FF1F80B582B000AF00F059F802460A4B1A600023FB71084B1B681B79FB71FB797C2B04D8FB79732B01D9012300E09A
:400C0000002318460837BD4680BD00BF84C4FF1F80B582B000AF0023FB7100237B7100F037F80246144B1A6000F052F80246134B1A600023BB7110E0BB79184600F086F802
:400C400003467B71FB795B005AB297F9053013435BB2FB71BB790133BB71BB79032BEBD9FB7903F00F030F2B01D1012300E0002318460837BD4680BD84C4FF1FD8C4FF1F6D
:400C800080B400AF00231846BD4680BC704700BF80B400AF044B054A1A60034B1B681846BD4680BC704700BF84C4FF1F74C4FF1F80B400AF044B054A1A60034B1B68184656
:400CC000BD4680BC704700BFE4C4FF1FDCC4FF1F80B400AF044B054A1A60034B1B681846BD4680BC704700BFD8C4FF1F88C4FF1F80B582B000AF0023FB710FE0FB795B0055
:400D0000FA791049895C104AD154FB795B0001330D4A2021D154FB790133FB71FB79092BECD9022001F098F81421074800F0C6FE0D2000F065FE0A2000F062FE00BF08376F
:400D4000BD4680BD68C5FF1F78C5FF1F80B584B000AF0346FB710023FB73FFF799FF0246184B1A60FB79002B04D1164B1B681B78FB7319E0FB79012B04D1124B1B685B7802
:400D8000FB7311E0FB79022B04D10E4B1B689B78FB7309E0FB79032B04D10A4B1B68DB78FB7301E0002308E0FB7B0A2B04D8FB7B072B01D9012300E0002318461037BD4644
:400DC00080BD00BF84C4FF1F80B500AF044B1B78042B02D100F004FA00BF00BF80BD00BF72C5FF1F80B400AF144B1B8801339AB2124B1A80114B1B88322B0DD90F4B0022F2
:400E00001A800F4B1B88012B11D10E4B1B781A460D4B462199540AE0084B1B884FF6E852934206D9054B00221A8000BF01E000BF00E000BFBD4680BC704700BF64C5FF1FFC
:400E400066C5FF1F72C5FF1F68C5FF1F80B483B000AF0346FB71FB79012B14D1164B1B68FF2283F84520144B1B68FF2283F84620114B1B68FF2283F847200F4B1B68FF2290
:400E800083F8482014E00C4B1B68002283F84520094B1B68002283F84620074B1B68002283F84720044B1B68002283F8482000BF0C37BD4680BC7047D8C4FF1F80B582B0DC
:400EC00000AF0023FB7101F09DF80346FB71114B1B781946104AFB7953540E4B1B780133DAB20C4B1A700B4B1B78632B02D9094B00221A70FB79184600F010F801F070F8B4
:400F0000034603F02003002BDDD100BF0837BD4680BD00BF18C6FF1F1CC6FF1F80B483B000AF0346FB719D4B1B78012B00F08280022B00F0A080002B00D02AE1984B1B7863
:400F4000002B20D1974B1B78FA799A420ED0954B5B79FA799A4209D0924B9B7AFA799A4204D0904BDB7BFA799A420CD18C4B1B7819468D4AFB795354894B1B780133DAB283
:400F8000874B1A7055E0864B1B78012B4AD1854B5B78FA799A420ED0824B9B79FA799A4209D0804BDB7AFA799A4204D07D4B1B7CFA799A4236D17A4B1B7819467A4AFB7935
:400FC0005354774B1B780133DAB2754B1A70734B01221A70734B5B78FA799A4203D1734B00221A7025E06F4B9B79FA799A4203D16E4B01221A701CE06A4BDB7AFA799A42B1
:4010000003D16A4B02221A7013E0664B1B7CFA799A4203D1654B03221A700AE0634B00221A7006E05E4B00221A70604B00221A70AFE0AEE05A4B1B7819465B4AFB79535472
:40104000574B1B780133DAB2554B1A70544B1B781846564B1B781946524A0B469B000B44134402331B7802339842C0F291804B4B02221A708CE04A4B1B7818464B4B1B7807
:401080001946484A0B469B000B44134402331B780233984219D1454B1B781946414A0B469B000B44134403331B78FA799A420CD13B4B1B7819463C4AFB795354384B1B7829
:4010C0000133DAB2364B1A7061E0354B1B781846364B1B781946334A0B469B000B44134402331B780333984247D1304B1B7819462C4A0B469B000B44134404331B78FA794F
:401100009A423AD1264B1B781946274AFB795354264B1B78002B06D1254B1B8801339AB2234B1A801FE0214B1B78012B06D1204B5B8801339AB21E4B5A8014E01B4B1B7839
:40114000022B06D11A4B9B8801339AB2184B9A8009E0164B1B78032B05D1154BDB8801339AB2134BDA800E4B00221A700B4B00221A700E4B00221A7009E0094B00221A7015
:40118000064B00221A70094B00221A7001E000E000BF00BF0C37BD4680BC704780C6FF1F81C6FF1FE8C0FF1F84C6FF1F97C6FF1F8CC5FF1F80B483B000AF0346FB71FB799A
:4011C000064A32F81330042B01D9012300E0002318460C37BD4680BC704700BF8CC5FF1F80B500AF7E2000F02FFF4C2000F02CFF0D4B00221A800BE00B4B1B88DBB2184633
:4012000000F022FF084B1B8801339AB2064B1A80054B1B886E2BEFD90D2000F015FF0A2000F012FF00BF80BD9AC6FF1F80B582B000AF786039603A680021786801F08FF96F
:4012400000BF0837BD4680BD80B584B000AFF860B9607A607A68B968F86801F075F900BF1037BD4680BD00BF80B483B000AF0346FB71FEE780B487B000AF786039600023A8
:401280003B6100237B6127E07B699B007A6813441B68BB60BB68FB73BB6823F0FF03BB6014E03B695B003A6813441B781A46BB68134419463B695B003A6813445B780B7054
:4012C0003B6901333B61FB7B013BFB73FB7B002BE7D17B6901337B617B69182BD4D900BF1C37BD4680BC704780B582B000AF3A4B4BF67F321A80394B18221A70384B0C2211
:401300001A80384B18221A70374B19221A80374B18221A70364B40F2CF721A80354B18221A70354B06221A70344B52221A70344B344A1278D2B21A70334B4FF4E2621A807A
:40134000324B41F251221A800023FB7019237B6014E0FB785B00DAB22D4B1B78DBB203F00103DBB21343DBB203F00303FB704FF4F07001F0ADF87B68013B7B607B68002B19
:4013800002D0FB78032BE4D17B68002B02D10320FFF76AFF1F4B4FF480721A801D4B07221A701D4B00221A701C4B48221A70194B00221A701A4B00221A701A4B02221A70AB
:4013C000194A194B1B78DBB243F00F03DBB2137000BF0837BD4680BD80400040824000408440004086400040884000408A4000408C4000408E400040004300400042004036
:40140000A14600400F0100492242004020420040254200400440004006400040084000400940004001400040A243004080B483B000AF0B4B1B78FB710A4AFB7903F007034E
:40144000DBB21370084AFB791B09DBB21370074B44221A7000BF0C37BD4680BC704700BFCF0100496E5800406F5800407658004080B586B000AF72B60023FB7513E0FA7DF6
:4014800013465B0013445B00434A13443B613B691A683B699B889BB219461046FFF7C6FEFB7D0133FB75FB7D092BE8D90023FB751CE0FA7D13469B0013445B00374A134490
:4014C000FB60FB681B68BB60FB685B687B60FB681A7A5B7A1B0213437B807B881A467968B868FFF7B1FEFB7D0133FB75FB7D002BDFD02B494FF09040FFF7BCFE294A294BC4
:401500001B78DBB243F00203DBB21370264A264B1B78DBB243F00203DBB21370234A234B1B78DBB243F04003DBB21370204A204B1B78DBB243F01003DBB2137008221D499E
:401540001D48FFF781FE08221C491D48FFF77CFE08221C491C48FFF777FE1C4A1B4B1B78DBB243F00803DBB21370194B61221A70FFF7BAFE164BC1221A70164B01221A709A
:40158000FFF754FF0E2209491348FFF75DFE00BF1837BD4680BD00BF74250000B0250000640000480350014013500140A0430040C243004048060048025100405006004826
:4015C000C25100405806004822510040224300400048004004000840B043004080B500AF00F086FF03461B680C2B00D1FEE7FEE780B586B000AF224B7B61224B3B61204BC5
:401600007B6135E03B691B68FB603B695B68BB603B699B683B6000237B600CE0FB681A68BB681A60BB680433BB60FB680433FB607B6804337B607A683B689A42EED13B69E4
:40164000DB683B6000237B6008E0BB6800221A60BB680433BB607B6804337B607A683B689A42F2D13B6910333B617B69013B7B617B69002BC6D100F041FFFEF703FDFEE72A
:4016800001000000E025000080B582B000AF184B184A1A60184A184B1B6843F40073136000237B600FE07B68032B04D8134A7B6852F8233000E0124B12497A6841F82230AE
:4016C0007B6801337B607B682F2BECD90E4B1B78DAB20E4B1A700E4B0A4A1A60FFF7C8FE0C4B00221A6000BF0837BD4680BD00BF0CED00E00004FA0514ED00E0000000000B
:40170000DD15000000C0FF1FBC760040C4C0FF1F08ED00E0C0C0FF1F80B483B000AF0346FB7101BE00BF0C37BD4680BC704700BF80B582B000AF786008E00C4B1B68184603
:4017400000F0C6FE7B68A3F500437B607B68B3F5004FF2D8064B1B687A6802FB03F3184600F0B6FE00BF0837BD4680BD08C1FF1F00C1FF1F80B584B000AF03463960FB7163
:401780000F4B1B68FB60FB791F2B02D90020FFF7C3FFFB7903F01F0310339B00FA6813441B68BB60FB7903F01F0310339B00FA6813443A681A60BB6818461037BD4680BD7E
:4017C00008ED00E080B582B000AF03460A46FB711346BB71BB79072B02D90020FFF79CFFFB791F2B02D90020FFF796FFFB7903F01F0303F1604303F56443BA795201D2B275
:401800001A7000BF0837BD4680BD00BF80B500AF00F042F8044800F00FF8022000F01EF800F02EF800BF80BD2D18000080B500AFFEF7D8FC00BF80BD80B485B000AF7860B8
:40184000054B1B68FB60FB6850337A681A6000BF1437BD4680BC704708ED00E080B483B000AF0346FB71054AFB795B01DBB2137000BF0C37BD4680BC704700BF04E400E0AA
:4018800080B400AF034B10221A6000BFBD4680BC704700BF00E100E080B400AF034B10221A6000BFBD4680BC704700BF80E100E080B500AF064B1B78002B04D100F00AF8CA
:4018C000034B01221A7000F02DF800BF80BD00BF9CC6FF1F80B500AF0C4B72221A700C4B20221A700B490020FFF744FF03210020FFF768FF084B06221A70084B47221A7088
:40190000074B02221A7000BF80BD00BF8264004085640040011B000021640040316400408064004080B582B000AF00F0D9FD0346FB71144A134B1B78DBB243F02003DBB273
:401940001370114A104B1B78DBB243F01003DBB213700E4A0D4B1B78DBB243F01003DBB213700B4B01221A600A4B01221A6000F0FFF8FB79184600F0B7FD00BF0837BD464F
:4019800080BD00BF92640040956400409064004080E200E000E100E080B483B000AF064B1B78DBB203F07F03FB71FB7918460C37BD4680BC704700BF6564004080B483B0E3
:4019C00000AF0023FB710C4B1B78BB71BB7903F02003002B09D0094B1B78FB71BB7903F01E03002B01D00023FB71FB7918460C37BD4680BC704700BF656400404564004063
:401A000080B485B000AF0346FB71264B1B88FB81254B1B88BB81FA89BB899A4208D2FA89BB89013B9A420CBF01230023DBB209E0FA89BB89D31A40F2FF3293420CBF01233B
:401A40000023DBB2002BE0D1BA89FB899A420AD1164B1B78DBB203F00403002B03D1144AFB79137019E0FB89B3F5806F01D30023FB81FB890F49FA79CA54FB890133FB8165
:401A8000084AFB891380094B1B78DBB203F00203002B02D0084B01221A6000BF1437BD4680BC7047A0C6FF1F9EC6FF1F6064004044640040ACC6FF1F00E200E080B584B0B7
:401AC00000AF78600B467B800023FB810B4B1B78002B0ED009E0FB897A6813441B781846FFF78EFFFB890133FB81FA897B889A42F1D300BF1037BD4680BD00BF9CC6FF1F89
:401B000080B400AF18E0154B1B889BB2B3F5806F02D3124B00221A80114B104A128892B21146104A525CD2B21A700C4B1B889BB201339AB2094B1A80084B1B889AB20A4BA8
:401B40001B889A4206D0094B1B78DBB203F00403002BD8D000BFBD4680BC70479EC6FF1F44640040ACC6FF1FA0C6FF1F6064004080B400AF094A094B1B78DBB243F00403B4
:401B8000DBB21370064A064B1B78DBB243F00403DBB2137000BFBD4680BC7047A2430040B243004080B485B000AF0346FB710B4B1B78DBB223F01003FB730849FB791B0143
:401BC000DBB203F01003DAB2FB7B1343DBB20B7000BF1437BD4680BC704700BF0051004080B483B000AF0346FB71044AFB79137000BF0C37BD4680BC704700BF70640040C7
:401C000080B500AF224A224B1B78DBB203F00103DBB213701F4A1F4B1B78DBB223F00303DBB213701C4A1C4B1B78DBB223F03003DBB21370184A184B1B78DBB243F0300316
:401C4000DBB21370144A144B1B78DBB223F00F03DBB21370104A104B1B78DBB243F00F03DBB213700D4A0D4B1B78DBB243F00103DBB2137040F2DF1000F058F840F2DF1080
:401C800000F066F8082000F041F800BF80BD00BF0C4F00400E4F0040174F00400D4F004080B400AF0D4A0D4B1B78DBB243F00203DBB213700A4A0A4B1B78DBB243F0020355
:401CC000DBB21370074A074B1B78DBB243F00103DBB2137000BFBD4680BC7047A3430040B34300400C4F004080B500AF064B1B78002B04D1FFF784FF034B01221A70FFF7EC
:401D0000CFFF00BF80BD00BFA3C6FF1F80B483B000AF0346FB71044AFB79137000BF0C37BD4680BC704700BF0F4F004080B485B000AF0346FB80FB88FB81044AFB891380EE
:401D400000BF1437BD4680BC704700BF104F004080B483B000AF0346FB80044AFB88138000BF0C37BD4680BC704700BF124F004080B485B000AF0346FB710B4B1B78DBB22C
:401D800023F02003FB730849FB795B01DBB203F02003DAB2FB7B1343DBB20B7000BF1437BD4680BC704700BF2051004080B500AF00F046F8044800F013F8052000F022F863
:401DC00000F032F800BF80BDCD1D000080B500AFFEF702FAFFF706F8FEF70EFC00BF80BD80B485B000AF7860054B1B68FB60FB6848337A681A6000BF1437BD4680BC7047C7
:401E000008ED00E080B483B000AF0346FB71054AFB795B01DBB2137000BF0C37BD4680BC704700BF02E400E080B400AF034B04221A6000BFBD4680BC704700BF00E100E050
:401E400080B400AF034B04221A6000BFBD4680BC704700BF80E100E080B483B000AF0346FB71044AFB79137000BF0C37BD4680BC704700BF7665004080B500AF00F042F8EC
:401E8000044800F00FF8072000F01EF800F02EF800BF80BD991E000080B500AFFFF70EF800BF80BD80B485B000AF7860054B1B68FB60FB6854337A681A6000BF1437BD469C
:401EC00080BC704708ED00E080B483B000AF0346FB71054AFB795B01DBB2137000BF0C37BD4680BC704700BF05E400E080B400AF034B20221A6000BFBD4680BC704700BF3F
:401F000000E100E080B400AF034B20221A6000BFBD4680BC704700BF80E100E080B500AF064B1B78002B04D100F00AF8034B01221A7000F025F800BF80BD00BFA4C6FF1F39
:401F400080B400AF094B72221A70094B20221A70084B06221A70084B47221A70074B00221A7000BFBD4680BC704700BF876500408665004020640040306400408364004019
:401F800080B582B000AF00F0ABFA0346FB71114A104B1B78DBB243F02003DBB213700E4A0D4B1B78DBB243F01003DBB213700B4A0A4B1B78DBB243F01003DBB2137000F04F
:401FC00059F8FB79184600F08FFA00BF0837BD4680BD00BF97650040966500409364004080B483B000AF064B1B78DBB203F07F03FB71FB7918460C37BD4680BC704700BF68
:402000006665004080B483B000AF0023FB710C4B1B78BB71BB7903F02003002B09D0094B1B78FB71BB7903F01E03002B01D00023FB71FB7918460C37BD4680BC704700BF9C
:40204000666500404765004080B483B000AF0346FB71064B1B78002B02D0054AFB79137000BF0C37BD4680BC704700BFA4C6FF1F4364004080B400AF094A094B1B78DBB2A7
:4020800043F00203DBB21370064A064B1B78DBB243F00203DBB2137000BFBD4680BC7047A2430040B243004080B500AF214A214B1B78DBB203F00103DBB213701E4A1E4B0D
:4020C0001B78DBB223F00303DBB213701B4A1B4B1B78DBB223F03003DBB21370174A174B1B78DBB243F03003DBB21370134A134B1B78DBB223F00F03DBB213700F4A0F4B3A
:402100001B78DBB243F00F03DBB213700C4A0C4B1B78DBB243F00103DBB21370EF2000F057F8EF2000F066F8082000F041F800BF80BD00BF004F0040024F00400B4F0040A5
:40214000014F004080B400AF0D4A0D4B1B78DBB243F00103DBB213700A4A0A4B1B78DBB243F00103DBB21370074A074B1B78DBB243F00103DBB2137000BFBD4680BC704707
:40218000A3430040B3430040004F004080B500AF064B1B78002B04D1FFF786FF034B01221A70FFF7CFFF00BF80BD00BFA6C6FF1F80B483B000AF0346FB71044AFB791370DD
:4021C00000BF0C37BD4680BC704700BF034F004080B485B000AF0346FB80FB88FB81044AFB89138000BF1437BD4680BC704700BF044F004080B483B000AF0346FB80044ADC
:40220000FB88138000BF0C37BD4680BC704700BF064F004080B500AF00F042F8044800F00FF8042000F01EF800F02EF800BF80BD3522000080B500AFFEF7C6FD00BF80BDC0
:4022400080B485B000AF7860054B1B68FB60FB6844337A681A6000BF1437BD4680BC704708ED00E080B483B000AF0346FB71054AFB795B01DBB2137000BF0C37BD4680BCFA
:40228000704700BF01E400E080B400AF034B02221A6000BFBD4680BC704700BF00E100E080B400AF034B02221A6000BFBD4680BC704700BF80E100E080B500AF224A224B9E
:4022C0001B78DBB203F00103DBB213701F4A1F4B1B78DBB223F00303DBB213701C4A1C4B1B78DBB223F03003DBB21370184A184B1B78DBB243F03003DBB21370144A144B40
:402300001B78DBB223F00F03DBB21370104A104B1B78DBB243F00F03DBB213700D4A0D4B1B78DBB243F00103DBB2137040F2AF4000F058F840F2AF4000F066F8082000F020
:4023400041F800BF80BD00BF184F00401A4F0040234F0040194F004080B400AF0D4A0D4B1B78DBB243F00403DBB213700A4A0A4B1B78DBB243F00403DBB21370074A074B0D
:402380001B78DBB243F00103DBB2137000BFBD4680BC7047A3430040B3430040184F004080B500AF064B1B78002B04D1FFF784FF034B01221A70FFF7CFFF00BF80BD00BF43
:4023C000A7C6FF1F80B483B000AF0346FB71044AFB79137000BF0C37BD4680BC704700BF1B4F004080B485B000AF0346FB80FB88FB81044AFB89138000BF1437BD4680BC58
:40240000704700BF1C4F004080B483B000AF0346FB80044AFB88138000BF0C37BD4680BC704700BF1E4F004080B500AF00F042F8044800F00FF8072000F01EF800F02EF845
:4024400000BF80BD4924000080B500AFFEF750FC00BF80BD80B485B000AF7860054B1B68FB60FB684C337A681A6000BF1437BD4680BC704708ED00E080B483B000AF034642
:40248000FB71054AFB795B01DBB2137000BF0C37BD4680BC704700BF03E400E080B400AF034B08221A6000BFBD4680BC704700BF00E100E080B400AF034B08221A6000BF65
:4024C000BD4680BC704700BF80E100E0000000000230800803D000BF01380046FCD17047EFF3108072B6704780F31088704700BF014B1868704700BF6CC1FF1F0E4B70B5BA
:402500001E460E4C0025E41AA410A54204D056F8253098470135F8E700F050F8084B094C1E46E41AA4100025A54204D056F8253098470135F8E770BDC8250000C825000040
:40254000C8250000D025000010B5431E0A44914204D011F8014B03F8014FF8E710BD03460244934202D003F8011BFAE77047000000000000004F00402400105100401000C9
:40258000305100404000F0510040100000000140001000140140800200170140000500400140000A004C0140000200500140200080160140C805004880004300F8B500BF1E
:4025C000F8BC08BC9E4670474D00000089160000F8B500BFF8BC08BC9E46704729000000F0250000C8C0FF1FA800000040090000000000007E50080D0A7E440F0D0A7E48ED
:40260000030D0A7E53030D0A2447504D524300007E410A0D0A7E4C6F0D0A7E59090D0A7E43040D0A006CDC0280BB0000300000000000C05D00000000000000000000000023
:402640000000000000000000000000000000000000000000BA250000000000000000000000000000000000000000000000000000000000000000000000000000000000007B
:4026800000000000000000000000000000000000000000000CC1FF1F000000000000000000000000000000000000000000000000000000000000000000000000000000002F
:4026C00000000000000000000000000000000000000000000000000000000000000000000000000000000000000000000000000000000000000000000000000000000000DA
:402700000000000000000000000000000000000000000000000000000000000000000000000000000000000000000000000000000000000000000000000000000000000099
:402740000000000000000000000000000000000000000000000000000000000000000000000000000000000000000000000000000000000000000000000000000000000059
:402780000000000000000000000000000000000000000000000000000000000000000000000000000000000000000000000000000000000000000000000000000000000019
:020000040001F9
:0200000480007A
:40000000064F00400152004004640040026500406E0001403C0101405702014056030140630401404505014009070140020D0140040E0140010F01400315014018160140A8
:4000400048170140074001400A41014013420140014301400448014003490140055001400251014001300A4B0D30164B1930224B6004800F8272830F853886388772040A98
:40008000061408030A140CE00F201215130314131514160C19701A601B0C1D101E08222024E0255C27022813296C2A042B112C802D092E202F103010311F320F34C03560C3
:4000C0003620382039203A083E513F104002454049FF4A074BFF4C404D204EF04F05500854015604580459045A045B045C115D215F01604061A862406320828984098624CC
:40010000873588098A128D138FE491CA9334951396B1976C9A469D039F04A489AB80AE89AFC8B1F0B238B30FB407B6C0BA28BB0ABE40C006C640C9FFCA07CBFFCC40CD203B
:40014000CEF0CF05D008D804D904DA04DC22DD02DF01E040E1A8E240E32000A0032004280740084009200A200B840C400E140F021004110812821580170819401A601B1899
:400180001D801E16200421022504260A28042B252D802E203080310A3210368A38803C803F04400448804F24504053405620580159505A08608069F06B088C80C077C26F17
:4001C000C4AFCA3ECCDFCE58D004D220D60FD801E210011F021C0460052008FC09200A020C400F1911181283147C1502168119061A041B191CFF1D20201021042420250640
:40020000289F290E2A602B112C082D192F06312032E0330E347F350737103A203B2856025713580459045B045C225D205F01841C8623904092039421961698219A0E9E1C55
:40024000A208A901B060B21AB301B40FB802BA28BF04C035C106C50CC60EC70BC815C9FFCAFFCBFFCEF0CF44D00CD401D804D904DA04DB04DC01DD11DF01E6C0EA40EB02AD
:4002800002400360051A060208600A200B800C040D120E200F01109013041540164017181B251D101E10220424402503261027162A102C042D082E022F023510364137089C
:4002C0003C403D283F01430848104A044B8451085380581159045A405E016C146D286E8075087602770878217A047B849170926093809428960898409A209D809E109F4009
:40030000A080A1A0A20BA308A450A508A680A725B001B210B510B680C0F4C2FFC4F8CAF4CCF0CEF0D002D20CD68FEE0E0004070109030E0112081401150318021C011F02C3
:4003400028082E083008320435013603370238803E0440624104450B46EC480D49FF4AFF4BFF4EF04F44500C580459045A045C125D025F0166C06A406B0284068720880403
:400380008A028B038D0C8E018F7191DC9322951097AC99149A01A404A602A806A910AB40AD09AFD0B002B201B51FB604B7E0B802BB88BE44C024C103C206C401C5CEC803B6
:4003C000C9FFCAFFCBFFCC62CDA0CEF0CF41D00CD418D604D804D904DA04DB04DC22DD22DF01E640E702E910EA30EB10ED10EE10EF1202020380044005100720080A0960A9
:400400000F081150171419861C401E011F0420042240255827292D802E2032443408361A380439203C803D203E04412042044301458947104A184F1A52905E105F1266405A
:400440006748800283408740915092109601970199109A209B169D869E109F40A1A1A20AA380A440A680AB12C0E9C24FC463CA30CCEACE76D0F5D224D680D8B0929095202E
:4004800096089B089E40A301AB21AC40AF01AB20AF28B828BE14D804DF011F28A801AA10AE840301060408010B01100116041E022202260130043202360137013A203E45B8
:4004C0003F4054185604580459045B045C015D105F010004010104400504070A08A00AA50E400F111080132415021704180419111A211D801E041F052040212023112701F2
:40050000288029102A883006314032403310388A39203E103F0240A041204640470149444B10510159015F026502670A680269206A086B106E406F0470C472087324840478
:4005400085A39290952096089B089E40A301C06CC2BFC43ECA0FCC0FCEAFD007D20CD681D8B03220330436883B208E20CCF0CE103380934297209F04A301A688AB01AF410B
:40058000CC10EE700408128817046342670280048710934297209F04A301A688A780C020C470D6C0D840E480E640A78084048780A780E6507404A004DE20000608060A0652
:4005C00010021A0200AB010F000671310E0661000008000000040000010800000F0050117F08000079100600043100060202000006070030003700000810460736080720DD
:400600000080A8000000010042030600050C00E021FFFFFF62A0F0410C000000000002130404040411110001000000000000400200103010001010120000000000000000EC
:400640000000000000000000001010000000000008040400040000000020200000000000000000000000000000000000000000000000000000000000000000000000000006
:40068000000000000000000000000000000000000000000000000000000000000000000000000000000000000000000000000000000000000000000000000000000000003A
:4006C00000000000000000000000000000000000000000000000000000000000000000000000000000000000000000000000000000000000000000000000000000000000FA
:4007000000000000000000000000000000000000000000000000000000000000000000000000000000000000000000000000000000000000000000000000000000000000B9
:400740000000000000000000000000000000000000000000000000000000000000000000000000000000000000000000000000000000000000000000000000000000000079
:0200000490006A
:0400000000004003B9
:0200000490105A
:04000000BC90ACAF55
:0200000490303A
:020000001CF0F2
:0200000490402A
:400000005555555555555555555555555555555555555555555555555555555555555555555555555555555555555555555555555555555555555555555555555555555580
:400040005555555555555555555555555555555555555555555555555555555555555555555555555555555555555555555555555555555555555555555555555555555540
:0200000490501A
:0C00000000012E16C06900012E26DD59FB
:00000001FF