:400000000040002011000000294800002948000080B500AF024A034B1B68136004F00EFCBC760040FA46004010B5054C237833B9044B13B10448AFF300800123237010BD67
:4000400018C2FF1F00000000446D0000084B10B51BB108490848AFF300800848036803B910BD074B002BFBD0BDE81040184700BF000000001CC2FF1F446D0000C8C0FF1F3E
:400080000000000080B500AF5E4B01221A7000F0C1F862B604F066FF03461A465A4B1A7004F070FF03461A46584B1A70554B1B78002B29D104F056FF0346012B08D104F0F8
:4000C00061FF0346002B03D1514B00221A7048E004F048FF0346002B08D104F053FF0346002B03D14A4B01221A703AE004F03AFF0346002B35D104F045FF0346012B30D121
:40010000434B02221A702CE03E4B1B78012B28D104F028FF0346012B08D104F033FF0346002B03D13A4B03221A701AE004F01AFF0346002B08D104F025FF0346002B03D177
:40014000334B04221A700CE004F00CFF0346002B07D104F017FF0346012B02D12C4B05221A702B4B1B78052B94D801A252F823F0890100009D010000B1010000C50100005B
:40018000D9010000ED010000214B00225A7000BF00F05EF80346002BFAD031E01C4B00225A7000BF01F06CFE0346002BFAD027E0174B00225A7000BF01F096FA0346002B17
:4001C000FAD01DE0124B00225A7000BF02F0D2FF0346002BFAD013E00D4B00225A7000BF03F04AFA0346002BFAD009E0084B00225A7000BF03F0FCFE0346002BFAD000BFF3
:4002000048E700BF34C2FF1F35C2FF1F36C2FF1F2CDDFF1F80B500AF05F0BAFC05F066FC04F0FCFF04F0A8FF05F084FA05F0E2FB05F090FF05F0D2FF05F0B8F905F018FABE
:4002400005F07CFE05F0BEFE06F0C6F900BF80BD80B582B000AFAE4B5B78062B00F28F8101A252F823F000BF85020000CB0200002B0300009B030000F90300004704000072
:4002800009050000012004F023FE002004F03EFE0023FB7106E0FB799E4A5F21D154FB790133FB71FB79062BF5D9994B5B781A46984B49219954964B49229A70642004F08E
:4002C0007BFD934B01225A7059E100F0ADFA002005F0E8F800BF002001F05EF80346002B06D18B4B5B781A468A4B9B5C462BF2D100F0B8FA00F00CFB0246874B1A60864B7D
:400300001B6802225A71642004F056FD804B5B781A46804B9B5C462B03D17D4B06225A702DE17B4B02225A7029E1794B5B781A46784B57219954764B57229A7000BF00F0E3
:4003400027F90346002B06D1714B5B781A46714B9B5C462BF3D16E4B5B781A466D4B9B5C462B08D06A4B5B781A466A4B50219954674B50229A70642004F01EFD644B5B7819
:400380001A46644B9B5C462B03D1614B06225A70F5E05F4B03225A70F1E000F045FA002005F080F800F022F902465C4B1A6001E002F064FC594B1B6893F848305BB2002B50
:4003C00006DB534B5B781A46524B9B5C462BEFD100F048FA642004F0EFFC4D4B5B781A464C4B9B5C462B03D1494B06225A70C6E0474B04225A70C2E000F016FA002005F0EE
:40040000F1FC00BF012002F0E9FB0346002B06D13F4B5B781A463F4B9B5C462BF2D100F021FA642004F0C8FC394B5B781A46394B9B5C462B03D1364B06225A709FE0344B2D
:4004400005225A709BE0002000F072FA304B5B781A46304B422199542D4B42229A7041F2883004F0A9FC00F01DFA012000F060FA274B5B781A46274B42219954244B422205
:400480009A7041F2883004F097FC00F00BFA022000F04EFA1E4B5B781A461E4B422199541B4B42229A7041F2883004F085FC00F0F9F9032000F03CFA154B5B781A46154BCA
:4004C00042219954124B42229A7041F2883004F073FC0F4B5B781A460E4B502199540C4B50229A70642004F067FC094B5B781A46084B9B5C462B03D1054B06225A703EE02B
:40050000034B06225A703AE00023BB7123E000BF2CDDFF1F0CC3FF1F00C3FF1F88C2FF1FBB79194AD35C502B12D0BB79164AD35C552B0DD0BB79144AD35C492B08D0134B45
:400540005B781A46104B66219954104B66229A70BB790133BB71BB79052BE1D90B4B5B781A46094B9B5C662B08D0084B5B781A46054B70219954054B70229A70FEE7002355
:4005800018460837BD4680BD0CC3FF1F2CDDFF1F80B500AF002004F085FF00F027F80246094B1A60084B1B6893F84530FF2B07D1054B1B6893F84630FF2B01D1012300E0FD
:4005C0000023184680BD00BF88C2FF1F80B400AF044B054A1A60034B1B681846BD4680BC704700BFF0C2FF1FA0C2FF1F80B400AF044B054A1A60034B1B681846BD4680BC7E
:40060000704700BF88C2FF1F38C2FF1F80B400AF044B054A1A60034B1B681846BD4680BC704700BF9CC2FF1F8CC2FF1F80B582B000AF0023FB710FE0FB795B00FA790F49CF
:40064000895C0F4AD154FB795B0001330C4A2021D154FB790133FB71FB79062BECD90E21074805F06DF90D2005F00CF90A2005F009F900BF0837BD4680BD00BF0CC3FF1FCF
:4006800014C3FF1F80B500AF05F052FF03461A462C4B1A702B4B1A782B4B1B789A4206D12A4B1B780133DAB2284B1A7002E0274B00221A70254B1B78022B06D9214B1A78DB
:4006C000234B1A70214B00221A701E4B1A781E4B1A701F4B1B78012B09D11E4B01221A701D4B1B780133DAB21B4B1A7005E0194B00221A70184B00221A70174B1B784B2BC9
:400700000BD9164B5B781A46154B46219954134B46229A70104B00221A70124B1B78012B07D10C4B1B78002B03D10F4B01221A7002E00D4B00221A70064B1A78094B1A702B
:4007400000BF80BD22C3FF1F23C3FF1F24C3FF1F25C3FF1F08C3FF1F26C3FF1F2CDDFF1F0CC3FF1F27C3FF1F09C3FF1F80B400AF184B1B8801339AB2164B1A80164B5B78DD
:400780001A46164B33F81220124B1B889A4210D2104B00221A80124B1B88012B14D10E4B5B781A460F4B462199540B4B46229A700AE0084B1B884FF6E852934206D9054BD0
:4007C00000221A8000BF01E000BF00E000BFBD4680BC704704C3FF1F2CDDFF1FCCC0FF1F06C3FF1F0CC3FF1F80B500AFFFF71EFF02F06CFA0B4B5B78002B03D0094B5B7822
:40080000012B01D100F04AFE064B5B78052B03D0044B5B78062B02D100F06EFE00BF00BF80BD00BF2CDDFF1F80B400AF094B5B781A46094B42219954064B42229A70074B19
:4008400000221A80064B01221A8000BFBD4680BC704700BF2CDDFF1F0CC3FF1F04C3FF1F06C3FF1F80B400AF0B4B00221A800B4B5B781A460A4B9B5C462B09D0074B5B7821
:400880001A46074B50219954044B50229A7000BF00BFBD4680BC704706C3FF1F2CDDFF1F0CC3FF1F80B500AF164B5B781A46164B57219954134B57229A700FE0134B1B78EF
:4008C000002B0BD00F4B5B781A460F4B502199540C4B50229A700D4B00221A70094B5B781A46094B9B5C502B06D0064B5B781A46054B9B5C462BE1D1002004F09BFE00BF59
:4009000080BD00BF2CDDFF1F0CC3FF1F09C3FF1F80B400AF044B054A1A60034B1B681846BD4680BC704700BF00C3FF1FF4C2FF1F80B582B000AF0346FB71FFF747FE0246DB
:400940006D4B1A60FFF752FE02466C4B1A60FB79002B40F0D580684B1B68FF2283F82D20654B1B68FF2283F82A20634B1B68FF2283F82720604B1B68FF2283F824205E4B5F
:400980001B68FF2283F821205B4B1B68FF229A77594B1B68FF22DA76574B1B68FF221A76554B1B68FF225A75534B1B68FF229A74514B1B68FF22DA734F4B1B68FF221A7353
:4009C0004D4B1B68FF225A724B4B1B68FF229A71494B1B68FF22DA70474B1B68FF221A70454B1B68002283F82F20434B1B68002283F82C20404B1B68002283F829203E4BF2
:400A00001B68002283F826203B4B1B68002283F82320394B1B68002283F82020364B1B6800225A77344B1B6800229A76324B1B680022DA75304B1B6800221A752E4B1B683C
:400A400000225A742C4B1B6800229A732A4B1B680022DA72284B1B6800221A72264B1B6800225A71244B1B6800229A70224B1B68002283F82E20204B1B68002283F82B20A3
:400A80001D4B1B68002283F828201B4B1B68002283F82520184B1B68002283F82220164B1B680022DA77144B1B6800221A77124B1B6800225A76104B1B6800229A750E4BB0
:400AC0001B680022DA740C4B1B6800221A740A4B1B6800225A73084B1B6800229A72064B1B680022DA71044B1B6800221A71024B1B6800225A7084E2F0C2FF1F88C2FF1F94
:400B0000FB79012B40F0D480684B1B68002283F82D20664B1B68002283F82A20634B1B68002283F82720614B1B68002283F824205E4B1B68002283F821205C4B1B680022DB
:400B40009A775A4B1B680022DA76584B1B6800221A76564B1B6800225A75544B1B6800229A74524B1B680022DA73504B1B6800221A734E4B1B6800225A724C4B1B680022E9
:400B80009A714A4B1B680022DA70484B1B6800221A70464B1B68FF2283F82F20434B1B68FF2283F82C20414B1B68FF2283F829203E4B1B68FF2283F826203C4B1B68FF22DF
:400BC00083F82320394B1B68FF2283F82020374B1B68FF225A77354B1B68FF229A76334B1B68FF22DA75314B1B68FF221A752F4B1B68FF225A742D4B1B68FF229A732B4B7E
:400C00001B68FF22DA72294B1B68FF221A72274B1B68FF225A71254B1B68FF229A70234B1B68002283F82E20204B1B68002283F82B201E4B1B68002283F828201B4B1B68B5
:400C4000002283F82520194B1B68002283F82220164B1B680022DA77144B1B6800221A77124B1B6800225A76104B1B6800229A750E4B1B680022DA740C4B1B6800221A7429
:400C80000A4B1B6800225A73084B1B6800229A72064B1B680022DA71044B1B6800221A71024B1B6800225A70ABE100BFF0C2FF1FFB79022B40F0D480684B1B68002283F8DA
:400CC0002D20664B1B68002283F82A20634B1B68002283F82720614B1B68002283F824205E4B1B68002283F821205C4B1B6800229A775A4B1B680022DA76584B1B6800221E
:400D00001A76564B1B6800225A75544B1B6800229A74524B1B680022DA73504B1B6800221A734E4B1B6800225A724C4B1B6800229A714A4B1B680022DA70484B1B68002253
:400D40001A70464B1B68002283F82F20434B1B68002283F82C20414B1B68002283F829203E4B1B68002283F826203C4B1B68002283F82320394B1B68002283F82020374BBB
:400D80001B6800225A77354B1B6800229A76334B1B680022DA75314B1B6800221A752F4B1B6800225A742D4B1B6800229A732B4B1B680022DA72294B1B6800221A72274BD1
:400DC0001B6800225A71254B1B6800229A70234B1B68FF2283F82E20204B1B68FF2283F82B201E4B1B68FF2283F828201B4B1B68FF2283F82520194B1B68FF2283F8222055
:400E0000164B1B68FF22DA77144B1B68FF221A77124B1B68FF225A76104B1B68FF229A750E4B1B68FF22DA740C4B1B68FF221A740A4B1B68FF225A73084B1B68FF229A724C
:400E4000064B1B68FF22DA71044B1B68FF221A71024B1B68FF225A70D3E000BFF0C2FF1F694B1B68002283F82D20674B1B68002283F82A20644B1B68002283F82720624BB7
:400E80001B68002283F824205F4B1B68002283F821205D4B1B6800229A775B4B1B680022DA76594B1B6800221A76574B1B6800225A75554B1B6800229A74534B1B68002245
:400EC000DA73514B1B6800221A734F4B1B6800225A724D4B1B6800229A714B4B1B680022DA70494B1B6800221A70474B1B68002283F82F20444B1B68002283F82C20424BB3
:400F00001B68002283F829203F4B1B68002283F826203D4B1B68002283F823203A4B1B68002283F82020384B1B6800225A77364B1B6800229A76344B1B680022DA75324B69
:400F40001B6800221A75304B1B6800225A742E4B1B6800229A732C4B1B680022DA722A4B1B6800221A72284B1B6800225A71264B1B6800229A70244B1B68002283F82E2036
:400F8000214B1B68002283F82B201F4B1B68002283F828201C4B1B68002283F825201A4B1B68002283F82220174B1B680022DA77154B1B6800221A77134B1B6800225A7634
:400FC000114B1B6800229A750F4B1B680022DA740D4B1B6800221A740B4B1B6800225A73094B1B6800229A72074B1B680022DA71054B1B6800221A71034B1B6800225A70BD
:4010000000BF0837BD4680BDF0C2FF1F80B582B000AF0023FB7104F087F90346FB71134B1B781946124AFB795354104B1B780133DAB20E4B1A700D4B1B78632B02D90B4BD2
:4010400000221A70FB79184600F014F8FB79184600F0BCF904F056F9034603F02003002BD9D100BF0837BD4680BD00BFB8C3FF1FBCC3FF1F80B582B000AF0346FB719C4B23
:401080001B78012B78D0022B00F09780002B00D070E1984B1B78002B20D1974B1B78FA799A420ED0944B5B79FA799A4209D0924B9B7AFA799A4204D08F4BDB7BFA799A4206
:4010C0000CD18C4B1B7819468C4AFB795354894B1B780133DAB2874B1A704CE0854B1B78012B41D1844B5B78FA799A420ED0824B9B79FA799A4209D07F4BDB7AFA799A42C3
:4011000004D07D4B1B7CFA799A422DD1794B1B7819467A4AFB795354764B1B780133DAB2744B1A70724B01221A70734B9B79FA799A4203D1724B01221A701CE06E4BDB7A6A
:40114000FA799A4203D16E4B02221A7013E06A4B1B7CFA799A4203D1694B03221A700AE0674B00221A7006E0624B00221A70644B00221A70FEE0FDE05E4B1B7819465F4A3F
:40118000FB7953545B4B1B780133DAB2594B1A70584B1B7818465A4B1B781946564A0B469B000B44134402331B7802339842C0F2E0804F4B02221A70DBE04E4B1B7818461A
:4011C0004F4B1B7819464C4A0B469B000B44134402331B780233984219D1494B1B781946454A0B469B000B44134403331B78FA799A420CD13F4B1B781946404AFB795354BD
:401200003C4B1B780133DAB23A4B1A70B0E0394B1B7818463A4B1B781946374A0B469B000B44134402331B780333984240F09680334B1B781946304A0B469B000B4413449C
:4012400004331B78FA799A4240F08880294B1B7819462A4AFB795354294B1B78002B15D1FFF7C4F90246274B1A60264B1B6803F14500214B9B781A46234905F04FFD234B02
:401280001B8801339AB2214B1A805DE01C4B1B78012B14D101F092F902461D4B1A601C4B1B681846144BDB791A46174905F036FD164B5B8801339AB2144B5A8044E0104BB8
:4012C0001B78022B28D101F099F90246114B1A60104B1B681846084B1B7B1A460A4905F01DFD0A4B9B8801339AB2084B9A802BE020C4FF1F21C4FF1FDCC0FF1F24C4FF1F78
:4013000037C4FF1F84C3FF1F26C4FF1F28C3FF1F98C3FF1FA4C3FF1F184B1B78032B13D101F06CF90246164B1A60154B1B681846144B5B7C1A46144905F0F0FC134BDB88C9
:4013400001339AB2114BDA80114B00221A70114B00221A70094B00221A7009E00C4B00221A700C4B00221A70044B00221A7001E000E000BF00BF0837BD4680BD37C4FF1F66
:40138000A4C3FF1FDCC0FF1F26C4FF1F28C3FF1F21C4FF1F20C4FF1F80B483B000AF0346FB71FB79084A32F81330042B06D9FB79054A002122F81310012300E00023184626
:4013C0000C37BD4680BC704728C3FF1F80B483B000AF0346FB712C4B1B78012B27D02B4B1B78FA799A4202D1294B00221A70284B1B781A46254B9B5CFA799A4202D0244B0B
:4014000000221A70224B1B780133DAB2204B1A701F4B1B78062B0AD91D4B00221A700023FB711C4B00221A70174B01221A70164B1B78012B22D1174B1B782C2B1BD1FB79B6
:40144000412B07D1144B01221A700F4B00221A70012314E0FB79562B07D10F4B00221A70094B00221A70002309E0074B00221A70094B00221A70074AFB7913700023184658
:401480000C37BD4680BC704738C4FF1FF0C0FF1F39C4FF1F3AC4FF1F30C3FF1F80B582B000AFFFF7B3F80246124B1A60002004F00DFB7E2003F05AFF442003F057FF002317
:4014C000FB7109E00B4B1A68FB79D35C184603F04DFFFB790133FB71FB790E2BF2D90D2003F044FF0A2003F041FF00BF0837BD4680BD00BF3CC4FF1F80B582B000AFFFF70C
:4015000065F80246214B1A60002004F0DFFA204B00221A7010E01D4B1B681D4A12789A5C1C4B1B785340DAB21A4B1A70184B1B780133DAB2164B1A70154B1B784F2BEAD981
:401540007E2003F013FF492003F010FF0023FB7109E00E4B1A68FB79D35C184603F006FFFB790133FB71FB794E2BF2D9094B1B78184603F0FBFE0D2003F0F8FE0A2003F0E1
:40158000F5FE00BF0837BD4680BD00BF50C4FF1F54C4FF1F55C4FF1F80B582B000AF00F0FDFF02462C4B1A600023FB710023BB7109E0294B1A68BB79D25CFB795340FB71CF
:4015C000BB790133BB71BB794D2BF2D900237B7145233B7109E0204B1A683B79D25C7B7953407B713B7901333B713B794E2BF2D97E2003F0BBFE492003F0B8FE174B002226
:401600001A800DE0144B1B68144A12889B5C184603F0ACFE114B1B8801339AB20F4B1A800E4B1B884E2BEDD9FB79184603F09EFE0D2003F09BFE0A2003F098FE7B7918468A
:4016400003F094FE0D2003F091FE0A2003F08EFE00BF0837BD4680BDA8C4FF1FACC4FF1F80B500AF022004F031FA00F0B7FF0246124B1A607E2003F079FE482003F076FE76
:401680000F4B00221A800DE00C4B1B680C4A12889B5C184603F06AFE094B1B8801339AB2074B1A80064B1B88042BEDD90D2003F05DFE0A2003F05AFE00BF80BDB0C3FF1FE4
:4016C00000C5FF1F80B400AF064B1B78012B04D1044B00221A70012300E000231846BD4680BC704730C3FF1F80B582B000AFA74B5B780A2B00F22B8201A252F823F000BF4A
:401700002D170000251800004518000083180000D3180000251900003F190000591900007319000099190000F51A00000023FB7106E0FB79964A5F21D154FB790133FB716E
:40174000FB790A2BF5D9914B5B781A46904B492199548E4B49229A70012003F09BFB002005F00CFA002005F027FA00F017FF0246884B1A6007E0874B1A68BB790021D15418
:40178000BB790133BB71BB794E2BF4D9814B1B687E2283F835207F4B1B68332283F836207C4B1B680D2283F83A207A4B1B680A2283F83B20774B1B687E2283F83C20754BD5
:4017C0001B68532283F83D20724B1B680D2283F84120704B1B680A2283F842206D4B1B687E2283F843206B4B1B68502283F84420684B1B680D2283F84D20664B1B680A2297
:4018000083F84E20614B5B781A46614B502199545E4B50229A70642003F0CEFA5B4B01225A7094E1594B5B781A46594B50219954564B50229A70642003F0BEFA534B022283
:401840005A7084E100F0DEFA032003F02BFE0220FFF7A2FD00BF0220FFF79EFD0346002B06D14A4B5B781A46494B9B5C462BF2D100F0E6FA642003F09FFA444B03225A70D9
:4018800065E1032004F022F900F088FE0246414B1A60404B1B68012283F83E203B4B5B781A463B4B42219954384B42229A704FF47A7003F081FA00F06FFA364B1B68002248
:4018C00083F83E20642003F077FA304B04225A703DE1032004F0FAF800F060FE02462D4B1A602C4B1B68012283F83F20274B5B781A46274B42219954244B42229A704FF48F
:401900007A7003F059FA00F047FA224B1B68002283F83F204FF47A7003F04EFA1B4B05225A7014E1194B5B781A46194B55219954164B55229A70154B06225A7007E1134BCE
:401940005B781A46124B55219954104B55229A700E4B07225A70FAE00C4B5B781A460C4B55219954094B55229A70084B08225A70EDE0064B5B781A46054B55219954034BC0
:4019800055229A70014B09225A70E0E02CDDFF1F64C5FF1FC0C5FF1F032003F083FD032004F094F800F02EFA002005F0E7F8012005F002F9642003F0FFF900F0EFFD0246AB
:4019C000654B1A60644B1B68002283F83E20624B1B68012283F83F20642003F0EDF900F00DFE02465D4B1A6000BF5C4B1B681B79012B06D05A4B5B781A465A4B9B5C462B3D
:401A0000F3D100F01DFA002005F0B8F8002005F0D3F84FF47A7003F0CFF9002005F0AEF8002005F0C9F84C4B1B68002283F83E20494B1B68002283F83F20494B5B781A46CE
:401A4000484B42219954464B42229A7000BF434B1B68DB78002BFAD1404B1B681B79002BF5D100F0CFF9012005F088F8002005F0A3F8642003F0A0F900F090FD0246364B84
:401A80001A60354B1B68012283F83E20324B1B68002283F83F20642003F08EF900F0AEFD02462E4B1A6000BF2C4B1B68DB78012B06D02B4B5B781A462A4B9B5C462BF3D185
:401AC00000F0BEF9002005F059F8002005F074F84FF47A7003F070F91F4B1B68002283F83E201D4B1B68002283F83F201C4B0A225A702CE000237B7115E07B79194AD35C0D
:401B0000502B0DD07B79174AD35C552B08D0144B5B781A46134B66219954114B66229A707B7901337B717B79092BE6D90C4B5B781A460C4B9B5C662B08D0094B5B781A465C
:401B4000084B70219954064B70229A70FEE7002318460837BD4680BDC0C5FF1FE0C5FF1F2CDDFF1F64C5FF1F80B500AF04F0E0FC03461A462C4B1A702B4B1A782B4B1B787F
:401B80009A4206D12A4B1B780133DAB2284B1A7002E0274B00221A70254B1B78022B06D9214B1A78234B1A70214B00221A701E4B1A781E4B1A701F4B1B78012B09D11E4B36
:401BC00001221A701D4B1B780133DAB21B4B1A7005E0194B00221A70184B00221A70174B1B784B2B0BD9164B5B781A46154B46219954134B46229A70104B00221A70124BBE
:401C00001B78012B07D10C4B1B78002B03D10F4B01221A7002E00D4B00221A70064B1A78094B1A7000BF80BDE4C5FF1FE5C5FF1FE6C5FF1FE7C5FF1F60C5FF1FE8C5FF1F4A
:401C40002CDDFF1F64C5FF1FE9C5FF1F61C5FF1F80B500AF044B5B78072B02D100F0F8FF00BF00BF80BD00BF2CDDFF1F80B400AF184B1B8801339AB2164B1A80164B5B78BB
:401C80001A46164B33F81220124B1B889A4210D2104B00221A80124B1B88012B14D10E4B5B781A460F4B462199540B4B46229A700AE0084B1B884FF6E852934206D9054BBB
:401CC00000221A8000BF01E000BF00E000BFBD4680BC70475CC5FF1F2CDDFF1FF8C0FF1F5EC5FF1F64C5FF1F80B500AF00F028F8124B5B78002B1BD0104B5B78032B17D0F3
:401D00000E4B5B78042B13D00C4B5B78052B0FD00A4B5B78072B0BD0084B5B78082B07D0064B5B78092B03D0044B5B780A2B02D1FFF732FC00BF00BF80BD00BF2CDDFF1FAD
:401D400080B582B000AF0023FB710FE0FB795B00FA790F49895C0F4AD154FB795B0001330C4A2021D154FB790133FB71FB790A2BECD91621074803F0E3FD0D2003F082FD99
:401D80000A2003F07FFD00BF0837BD4680BD00BF64C5FF1FECC5FF1F80B500AF164B5B781A46164B57219954134B57229A700FE0134B1B78002B0BD00F4B5B781A460F4B8B
:401DC000502199540C4B50229A700D4B00221A70094B5B781A46094B9B5C502B06D0064B5B781A46054B9B5C462BE1D1002003F021FC00BF80BD00BF2CDDFF1F64C5FF1F44
:401E000061C5FF1F80B400AF094B5B781A46094B42219954064B42229A70074B00221A80064B01221A8000BFBD4680BC704700BF2CDDFF1F64C5FF1F5CC5FF1F5EC5FF1F13
:401E400080B400AF0B4B00221A800B4B5B781A460A4B9B5C462B09D0074B5B781A46074B50219954044B50229A7000BF00BFBD4680BC70475EC5FF1F2CDDFF1F64C5FF1F2B
:401E800080B582B000AFB34B5B780A2B00F2088201A252F823F000BFC51E0000AB1F0000F11F0000372000007D200000C92000000F21000061210000A72100000522000090
:401EC000512200000023FB7106E0FB79A24A5F21D154FB790133FB71FB790A2BF5D99D4B5B781A469C4B492199549A4B49229A7000F054FB0246994B1A6007E0974B1A6887
:401F0000BB790021D154BB790133BB71BB794E2BF4D9924B1B687E2283F835208F4B1B68332283F836208D4B1B680D2283F83A208A4B1B680A2283F83B20884B1B687E2217
:401F400083F83C20854B1B68532283F83D20834B1B680D2283F84120804B1B680A2283F842207E4B1B687E2283F843207B4B1B68502283F84420794B1B680D2283F84D2075
:401F8000764B1B680A2283F84E20724B5B781A46714B502199546F4B50229A70642002F00BFF6C4B01225A707AE100F05DFC00BF02F0CAFF0346002B06D1664B5B781A4617
:401FC000654B9B5C462BF3D100F06CFC642002F0F3FE604B5B781A465F4B9B5C462B03D15C4B0A225A705BE15A4B02225A7057E100F03AFC00BF00F05DF90346002B06D168
:40200000544B5B781A46544B9B5C462BF3D100F049FC642002F0D0FE4E4B5B781A464E4B9B5C462B03D14B4B0A225A7038E1494B03225A7034E100F017FC00BF00F06EF993
:402040000346002B06D1434B5B781A46424B9B5C462BF3D100F026FC642002F0ADFE3D4B5B781A463C4B9B5C462B03D1394B0A225A7015E1374B04225A7011E100F0F4FB37
:40208000012003F0BFFE00BF00F07CF90346002B06D1304B5B781A462F4B9B5C462BF3D100F000FC642002F087FE2A4B5B781A46294B9B5C462B03D1264B0A225A70EFE017
:4020C000244B05225A70EBE000F0CEFB00BF00F085F90346002B06D11E4B5B781A461E4B9B5C462BF3D100F0DDFB642002F064FE184B5B781A46184B9B5C462B03D1154B1E
:402100000A225A70CCE0134B06225A70C8E000F0ABFB00BF00F0AAF90346002B06D10D4B5B781A460C4B9B5C462BF3D100F0BAFB642002F041FE074B5B781A46064B9B5C9D
:40214000462B03D1034B0A225A70A9E0014B07225A70A5E02CDDFF1F10C7FF1F7CC6FF1F00F082FB00BF00F0ABF90346002B06D14E4B5B781A464E4B9B5C462BF3D100F081
:4021800091FB642002F018FE484B5B781A46484B9B5C462B03D1454B0A225A7080E0434B08225A707CE0012000F01EFB642002F003FE00F059FB00BF00F0A2F90346002B0B
:4021C00006D13A4B5B781A46394B9B5C462BF3D100F068FB002000F007FB642002F0ECFD642002F0E9FD314B5B781A46304B9B5C462B03D12D4B0A225A7051E02B4B0A22D9
:402200005A704DE000F030FB012003F04BF900BFFFF758FA0346002B06D1244B5B781A46234B9B5C462BF3D100F03CFB642002F0C3FD1E4B5B781A461D4B9B5C462B03D109
:402240001A4B0A225A702BE0184B0A225A7027E000237B7110E07B79154AD35C502B08D0124B5B781A46124B662199540F4B66229A707B7901337B717B79082BEBD90B4B22
:402280005B781A460A4B9B5C662B08D0074B5B781A46074B70219954044B70229A70FEE7002318460837BD4680BD00BF2CDDFF1F10C7FF1F80B584B000AF0023FB6000237D
:4022C0007B60012000F090FA0023FB7214E0FB7A184600F091FE012002F06EFD04F02EFC03467B60FB7A7A6802FA03F3FA681343FB60FB7A0133FB72FB7A1F2BE7D90020C1
:4023000000F072FAFB68B3F1FF3F01D1012300E0002318461037BD4680BD00BF80B500AF002004F01BFC00BF002000F02FFE0346002B06D1114B5B781A46114B9B5C462BB6
:40234000F2D1012004F00AFC00BF002000F01EFE0346002B06D1094B5B781A46084B9B5C462BF2D1054B5B781A46054B9B5C462B01D0012300E00023184680BD2CDDFF1F4F
:4023800010C7FF1F80B582B000AF0023FB7119E0FB790233DBB2184603F024FD052002F00BFD00BF012000F019FC0346002B06D1084B5B781A46084B9B5C462BF2D1FB791B
:4023C0000133FB71FB79072BE2D9012318460837BD4680BD2CDDFF1F10C7FF1F80B500AF00F0FCF802461C4B1A601B4B1B6873221A70194B1B6873225A70174B1B68732206
:402400009A70154B1B687322DA70134B1B6873221A71012003F046F800F0D0F802460F4B1A6000BF0E4B1B681B7A732B10D00C4B1B685B7A732B0BD0094B1B689B7A732B49
:4024400006D0084B5B781A46074B9B5C462BE9D10123184680BD00BF88C6FF1F14C6FF1F28C6FF1F2CDDFF1F10C7FF1F80B500AF012003F02BFB00F091F802460D4B1A60D1
:402480000C4B1B68FF2283F84920012000F02AFA012003F007F800F071F80246064B1A60064B1B68DB79FF2B01D1012300E00023184680BD7CC6FF1F14C6FF1F28C6FF1F3F
:4024C00080B582B000AF012002F0ECFF00F076F802460A4B1A600023FB71084B1B681B79FB71FB79932B04D8FB79802B01D9012300E0002318460837BD4680BD28C6FF1FD7
:4025000080B582B000AF0023FB7100237B71012002F0C8FF00F052F80246164B1A60012003F0D4FA00F03AF80246134B1A600023BB7110E0BB79184600F09CF803467B7102
:40254000FB795B005AB297F9053013435BB2FB71BB790133BB71BB79032BEBD9FB7903F00F030F2B01D1012300E0002318460837BD4680BD28C6FF1F7CC6FF1F80B400AF5A
:40258000044B054A1A60034B1B681846BD4680BC704700BF14C6FF1F04C6FF1F80B400AF044B054A1A60034B1B681846BD4680BC704700BF7CC6FF1F2CC6FF1F80B400AF0D
:4025C000044B054A1A60034B1B681846BD4680BC704700BF28C6FF1F18C6FF1F80B400AF044B054A1A60034B1B681846BD4680BC704700BF88C6FF1F80C6FF1F80B400AF45
:40260000044B054A1A60034B1B681846BD4680BC704700BF94C6FF1F8CC6FF1F80B582B000AF0023FB710FE0FB795B00FA790F49895C0F4AD154FB795B0001330C4A20218B
:40264000D154FB790133FB71FB790A2BECD91621074803F075F90D2003F014F90A2003F011F900BF0837BD4680BD00BF10C7FF1F1CC7FF1F80B584B000AF0346FB71002395
:40268000FB73FFF79BFF0246184B1A60FB79002B04D1164B1B681B78FB7319E0FB79012B04D1124B1B685B78FB7311E0FB79022B04D10E4B1B689B78FB7309E0FB79032BC0
:4026C00004D10A4B1B68DB78FB7301E0002308E0FB7B0B2B04D8FB7B082B01D9012300E0002318461037BD4680BD00BF28C6FF1F80B500AF044B5B78042B02D100F088FA24
:4027000000BF00BF80BD00BF2CDDFF1F80B500AF1A4B5B78042B01D100F07AFA184B1B8801339AB2164B1A80144B5B781A46154B33F81220124B1B889A4210D2104B00226C
:402740001A80114B1B88012B14D10C4B5B781A460E4B46219954094B46229A700AE0084B1B884FF6E852934206D9054B00221A8000BF01E000BF00E000BF80BD2CDDFF1F31
:402780000CC7FF1F10C1FF1F0EC7FF1F10C7FF1F80B500AFFFF742FF124B5B78002B13D0104B5B78022B0FD00E4B5B78032B0BD00C4B5B78052B07D00A4B5B78062B03D02C
:4027C000084B5B78082B01D1FEF7E6FE052002F0F3FA044B5B78052B02D1FEF741FF00BF00BF80BD2CDDFF1F80B582B000AF0346FB71012003F06AF9FFF7D0FE0246194BE3
:402800001A60FB79012B14D1164B1B68FF2283F84520144B1B68FF2283F84620114B1B68FF2283F847200F4B1B68FF2283F8482014E00C4B1B68002283F84520094B1B6866
:40284000002283F84620074B1B68002283F84720044B1B68002283F8482000BF0837BD4680BD00BF7CC6FF1F80B400AF094B5B781A46094B42219954064B42229A70074B29
:4028800000221A80064B01221A8000BFBD4680BC704700BF2CDDFF1F10C7FF1F0CC7FF1F0EC7FF1F80B400AF0B4B00221A800B4B5B781A460A4B9B5C462B09D0074B5B78A1
:4028C0001A46074B50219954044B50229A7000BF00BFBD4680BC70470EC7FF1F2CDDFF1F10C7FF1F80B582B000AF0346FB71FB79012B18D1012002F055FB012002F08AFB2B
:40290000012002F06DFB012002F0A2FB012002F0BDFB012002F0D8FB012002F0F3FB012002F00EFC18E0002002F03CFB002002F071FB002002F054FB002002F089FB0020C7
:4029400002F0A4FB002002F0BFFB002002F0DAFB002002F0F5FB00BF0837BD4680BD00BF80B582B000AF0023FB7103F097F90346FB71114B1B781946104AFB7953540E4B1B
:402980001B780133DAB20C4B1A700B4B1B78632B02D9094B00221A70FB79184600F010F803F06AF9034603F02003002BDDD100BF0837BD4680BD00BFC0C7FF1FC4C7FF1FEE
:4029C00080B483B000AF0346FB717E4B1B78012B5AD0022B78D0002B00D0EDE07A4B1B78002B16D1794B1B78FA799A4204D0774B5B79FA799A420CD1734B1B781946744A09
:402A0000FB795354704B1B780133DAB26E4B1A7039E06D4B1B78012B2ED16C4B5B78FA799A4204D0694B9B79FA799A4224D1664B1B781946664AFB795354634B1B780133FF
:402A4000DAB2614B1A705F4B01221A705F4B5B78FA799A4203D15F4B00221A7013E05B4B9B79FA799A4203D15A4B01221A700AE0584B00221A7006E0534B00221A70554B1C
:402A800000221A7098E097E04F4B1B781946504AFB7953544C4B1B780133DAB24A4B1A70494B1B7818464B4B1B781946474A0B469B000B44134402331B78023398427ADBD5
:402AC000404B02221A7076E03F4B1B781846414B1B7819463D4A0B469B000B44134402331B780233984219D13A4B1B781946374A0B469B000B44134403331B78FA799A42D2
:402B00000CD1314B1B781946314AFB7953542E4B1B780133DAB22C4B1A704BE02A4B1B7818462C4B1B781946284A0B469B000B44134402331B780333984231D1254B1B780C
:402B40001946224A0B469B000B44134404331B78FA799A4224D11C4B1B7819461C4AFB7953541C4B1B78002B06D11B4B1B8801339AB2194B1A8009E0164B1B78012B05D1AE
:402B8000154B5B8801339AB2134B5A800E4B00221A700C4B00221A700E4B00221A7009E0094B00221A70074B00221A70094B00221A7001E000E000BF00BF0C37BD4680BC65
:402BC000704700BF28C8FF1F29C8FF1F28C1FF1F2CC8FF1F9FC8FF1F34C7FF1F80B483B000AF0346FB71FB79084A32F81330042B06D9FB79054A002122F81310012300E05A
:402C0000002318460C37BD4680BC704734C7FF1F80B582B000AF7E2003F062F84C2003F05FF80023FB7106E0FB79184603F058F8FB790133FB71FB796E2BF5D90D2003F071
:402C40004FF80A2003F04CF800BF0837BD4680BD80B400AF084B1B8801339AB2064B1A80054B1B88642B03D9034B00221A8000BF00BFBD4680BC7047A0C8FF1F80B582B061
:402C800000AF002003F0BEF87E2003F029F8022003F026F80023FB7105E0002003F020F8FB790133FB71FB79062BF6D9402003F017F8422003F014F80D2003F011F80A207A
:402CC00003F00EF800BF0837BD4680BD80B582B000AF002003F096F8FDF71AFE02461C4B1A600123FB710023BB7109E0184B1A68BB79D25CFB795340FB71BB790133BB719B
:402D0000BB79072BF2D9124B1B68FA791A727E2002F0E6FF012002F0E3FF00237B7109E00B4B1A687B79D35C184602F0D9FF7B7901337B717B79082BF2D90D2002F0D0FF0A
:402D40000A2002F0CDFF00BF0837BD4680BD00BF6CC9FF1F80B582B000AF0023FB7102F06FFD0346FB71114B1B781946104AFB7953540E4B1B780133DAB20C4B1A700B4BBD
:402D80001B78632B02D9094B00221A70FB79184600F010F802F042FD034603F02003002BDDD100BF0837BD4680BD00BF83C9FF1F84C9FF1F80B483B000AF0346FB716D4B8F
:402DC0001B78012B43D0022B61D0002B00D0CBE0694B1B78002B11D1684B1B78FA799A420CD1654B1B781946654AFB795354624B1B780133DAB2604B1A7027E05E4B1B7853
:402E0000012B1CD15D4B5B78FA799A4217D15A4B1B7819465A4AFB795354574B1B780133DAB2554B1A70534B01221A70534B5B78FA799A420AD1534B00221A7006E04E4BA3
:402E400000221A704F4B00221A708DE08CE04A4B1B7819464A4AFB795354474B1B780133DAB2454B1A70444B1B781846454B1B781946424A0B469B000B44134402331B786A
:402E8000023398426FDB3B4B02221A706BE03A4B1B7818463B4B1B781946384A0B469B000B44134402331B780233984219D1354B1B781946314A0B469B000B4413440333C2
:402EC0001B78FA799A420CD12B4B1B7819462C4AFB795354284B1B780133DAB2264B1A7040E0254B1B781846264B1B781946234A0B469B000B44134402331B78033398429E
:402F000026D1204B1B7819461C4A0B469B000B44134404331B78FA799A4219D1164B1B781946174AFB795354164B1B78002B05D1154B1B8801339AB2134B1A800E4B002288
:402F40001A700C4B00221A700E4B00221A7009E0094B00221A70074B00221A70094B00221A7001E000E000BF00BF0C37BD4680BC704700BFE8C9FF1FE9C9FF1F34C1FF1FEF
:402F8000ECC9FF1FF3C9FF1F7CC9FF1F80B483B000AF0346FB71FB790E4A32F81330052B06D1FB790B4A002122F8131001230BE0FB79084A32F81330052B04D9FB79054ABD
:402FC000002122F81310002318460C37BD4680BC704700BF7CC9FF1F80B483B000AF0346FB71FB79034AD35C18460C37BD4680BC704700BF3CC1FF1F80B584B000AF03460A
:40300000FB710023FB73FB791846FFF7E5FF0346FB73FB7B072B25D8002003F019FD012003F0F8FC012003F0D9FC012003F0BCFCFB7B9B10DBB203F00103DBB2184603F022
:4030400023FDFB7B5B10DBB203F00103DBB2184603F038FDFB7B03F00103DBB2184603F04FFD83E0FB7B072B28D9FB7B0F2B25D8012003F0EDFC002003F0CCFC012003F07C
:40308000ADFC012003F090FCFB7B9B10DBB203F00103DBB2184603F0F7FCFB7B5B10DBB203F00103DBB2184603F00CFDFB7B03F00103DBB2184603F023FD57E0FB7B0F2BB3
:4030C00028D9FB7B172B25D8012003F0C1FC012003F0A0FC002003F081FC012003F064FCFB7B9B10DBB203F00103DBB2184603F0CBFCFB7B5B10DBB203F00103DBB21846FB
:4031000003F0E0FCFB7B03F00103DBB2184603F0F7FC2BE0FB7B172B28D9FB7B1F2B25D8012003F095FC012003F074FC012003F055FC002003F038FCFB7B9B10DBB203F08B
:403140000103DBB2184603F09FFCFB7B5B10DBB203F00103DBB2184603F0B4FCFB7B03F00103DBB2184603F0CBFCFFE700BF1037BD4680BD80B582B000AFA74B5B78072B94
:4031800000F2AB8101A252F823F000BFAD310000F3310000533200007332000049330000A73300002934000077340000012001F08FFE002001F0AAFE0023FB7106E0FB7967
:4031C000964A5F21D154FB790133FB71FB79072BF5D9914B5B781A46904B492199548E4B49229A70642001F0E7FD8B4B01225A7073E100F003FA002002F054F900BF002098
:40320000FEF7CAF80346002B06D1834B5B781A46824B9B5C462BF2D100F00EFAFDF778FB02467F4B1A607E4B1B6802225A71642001F0C2FD784B5B781A46784B9B5C462B18
:4032400003D1754B07225A7047E1734B02225A7043E1714B5B781A46704B552199546E4B55229A70642001F0A7FD6B4B03225A7033E1002002F016F9FDF7B8F90246694BF4
:403280001A60FDF745FB0246654B1A6000F0B6F9012001F01DFE002001F038FE604B1B6800225A7100BF5F4B1B6893F84A30002B06D0594B5B781A46584B9B5C462BF2D129
:4032C000012001F005FE012001F020FE544B1B6802225A7100BF534B1B6893F84A30012B06D04D4B5B781A464C4B9B5C462BF2D1012001F0EDFD002001F008FE484B1B68DB
:4033000002225A7100BF474B1B6893F84A30012B06D0414B5B781A46404B9B5C462BF2D100F08AF9642001F047FD3B4B5B781A463A4B9B5C462B03D1374B07225A70CCE087
:40334000354B04225A70C8E000F058F9002002F0A9F8FDF74BF90246324B1A6001E0FFF78DFC304B1B6893F848305BB2002B06DB294B5B781A46294B9B5C462BEFD100F01D
:403380005BF9642001F018FD234B5B781A46234B9B5C462B03D1204B07225A709DE01E4B05225A7099E01C4B5B781A461B4B57219954194B57229A7000BFFDF7E9F803460D
:4033C000002B06D1144B5B781A46144B9B5C462BF3D1114B5B781A46104B9B5C462B08D00D4B5B781A460D4B502199540A4B50229A70642001F0E0FC074B5B781A46074B4A
:403400009B5C462B03D1044B07225A7065E0024B06225A7061E000BF2CDDFF1FC8CAFF1FBCCAFF1F44CAFF1F00F0E8F8002002F0D9FC00BF0120FFF7D1FB0346002B06D13F
:40344000284B5B781A46284B9B5C462BF2D100F0F3F8642001F0B0FC224B5B781A46224B9B5C462B03D11F4B07225A7035E01D4B07225A7031E00023BB711AE0BB791A4A04
:40348000D35C502B12D0BB79174AD35C552B0DD0BB79154AD35C492B08D0124B5B781A46114B662199540F4B66229A70BB790133BB71BB79062BE1D90A4B5B781A460A4B75
:4034C0009B5C662B08D0074B5B781A46064B70219954044B70229A70FEE7002318460837BD4680BD2CDDFF1FC8CAFF1F80B582B000AF0023FB710FE0FB795B00FA790F4943
:40350000895C0F4AD154FB795B0001330C4A2021D154FB790133FB71FB79072BECD91021074802F00DFA0D2002F0ACF90A2002F0A9F900BF0837BD4680BD00BFC8CAFF1F42
:40354000D0CAFF1F80B400AF184B1B8801339AB2164B1A80164B5B781A46164B33F81220124B1B889A4210D2104B00221A80124B1B88012B14D10E4B5B781A460F4B4621AA
:4035800099540B4B46229A700AE0084B1B884FF6E852934206D9054B00221A8000BF01E000BF00E000BFBD4680BC7047C0CAFF1F2CDDFF1F5CC1FF1FC2CAFF1FC8CAFF1FDF
:4035C00080B500AFFFF792FFFFF780FB0A4B5B78002B0BD0084B5B78012B07D0064B5B78022B03D0044B5B78032B02D1FDF756FF00BF00BF80BD00BF2CDDFF1F80B400AF84
:40360000094B5B781A46094B42219954064B42229A70074B00221A80064B01221A8000BFBD4680BC704700BF2CDDFF1FC8CAFF1FC0CAFF1FC2CAFF1F80B400AF0B4B00228C
:403640001A800B4B5B781A460A4B9B5C462B09D0074B5B781A46074B50219954044B50229A7000BF00BFBD4680BC7047C2CAFF1F2CDDFF1FC8CAFF1F80B582B000AFA84B93
:403680005B780D2B00F2F08201A252F823F000BFC9360000BB370000013800004738000093380000D93800002D39000085390000F7390000693A0000E33A0000293B0000DF
:4036C000AF3B0000013C0000012001F0E3FBFA2001F072FB0023FB7106E0FB79914A5F21D154FB790133FB71FB790D2BF5D98C4B5B781A468B4B49219954894B49229A70C4
:40370000FEF74CFF0246884B1A6007E0864B1A68BB790021D154BB790133BB71BB794E2BF4D9814B1B687E2283F835207E4B1B68332283F836207C4B1B680D2283F83A2073
:40374000794B1B680A2283F83B20774B1B687E2283F83C20744B1B68532283F83D20724B1B680D2283F841206F4B1B680A2283F842206D4B1B687E2283F843206A4B1B6833
:40378000502283F84420684B1B680D2283F84D20654B1B680A2283F84E20614B5B781A46604B502199545E4B50229A70642001F003FB5B4B01225A7056E200F0A5FB00BF89
:4037C000FEF778FD0346002B06D1554B5B781A46544B9B5C462BF3D100F0B4FB642001F0EBFA4F4B5B781A464E4B9B5C462B03D14B4B0D225A7037E2494B02225A7033E29C
:4038000000F082FB00BF00F039FA0346002B06D1434B5B781A46434B9B5C462BF3D100F091FB642001F0C8FA3D4B5B781A463D4B9B5C462B03D13A4B0D225A7014E2384B4A
:4038400003225A7010E200F05FFB012002F0DAFA00BFFEF797FD0346002B06D1304B5B781A46304B9B5C462BF3D100F06BFB642001F0A2FA2A4B5B781A462A4B9B5C462B62
:4038800003D1274B0D225A70EEE1254B04225A70EAE100F039FB00BFFEF7E8FD0346002B06D11F4B5B781A461E4B9B5C462BF3D100F048FB642001F07FFA194B5B781A46DD
:4038C000184B9B5C462B03D1154B0D225A70CBE1134B05225A70C7E100F016FB00BFFEF7EFFD0346002B06D10D4B5B781A460D4B9B5C462BF3D100F025FB642001F05CFA57
:40390000074B5B781A46074B9B5C462B03D1044B0D225A70A8E1024B06225A70A4E100BF2CDDFF1FF0CBFF1F58CBFF1F0120FEF75BFF00F0E9FA00BFFEF7E2FD0346002B95
:4039400006D1B14B5B781A46B04B9B5C462BF3D100F0F8FA642001F02FFA0020FEF744FF642001F029FAA84B5B781A46A74B9B5C462B03D1A44B0D225A7075E1A24B072202
:403980005A7071E1002001F085FAFA2001F014FA012002F09BF8FEF701FE02469C4B1A609B4B1B68012283F83E20974B5B781A46964B42219954944B42229A704FF47A70DA
:4039C00001F0FAF900F0DEFA914B1B68002283F83E20642001F0F0F98B4B5B781A468B4B9B5C462B03D1884B0D225A703CE1864B08225A7038E1002001F04CFAFA2001F01F
:403A0000DBF9012002F062F8FEF7C8FD0246804B1A607F4B1B68012283F83F207A4B5B781A467A4B42219954774B42229A704FF47A7001F0C1F900F0A5FA754B1B680022AB
:403A400083F83F20642001F0B7F96F4B5B781A466E4B9B5C462B03D16B4B0D225A7003E1694B09225A70FFE0674B5B781A46674B42219954644B42229A70012001F00AFA30
:403A8000FA2001F099F9012002F020F8FEF786FD02465F4B1A605E4B1B68012283F84B2002F09AFD4FF47A7001F086F900F06AFA02F0A4FD564B1B68002283F84B20642068
:403AC00001F07AF9504B5B781A46504B9B5C462B03D14D4B0D225A70C6E04B4B0A225A70C2E0012001F0D6F9FA2001F065F9464B5B781A46454B57219954434B57229A7044
:403B000000F040FA642001F057F93F4B5B781A463E4B9B5C462B03D13B4B0D225A70A3E0394B0B225A709FE0374B5B781A46374B42219954344B42229A70012001F0AAF9EF
:403B4000FA2001F039F9012001F0C0FFFEF726FD02462F4B1A602E4B1B68102283F83E202B4B1B68102283F83F204FF47A7001F023F900F007FA264B1B68002283F83E20BD
:403B8000234B1B68002283F83F20642001F014F91D4B5B781A461D4B9B5C462B03D11A4B0D225A7060E0184B0C225A705CE0164B5B781A46154B42219954134B42229A7012
:403BC000012001F06FFC00BFFDF77CFD0346002B06D10D4B5B781A460C4B9B5C462BF3D1094B5B781A46094B50219954064B50229A70642001F0E0F8034B0D225A7033E016
:403C000000237B711CE000BF2CDDFF1FF0CBFF1F58CBFF1F7B79174AD35C502B0DD07B79144AD35C552B08D0134B5B781A46114B66219954104B66229A707B7901337B7162
:403C40007B790C2BE6D90C4B5B781A46094B9B5C662B08D0084B5B781A46064B70219954054B70229A70FEE7002318460837BD4680BD00BFF0CBFF1F2CDDFF1F80B500AF53
:403C8000002002F06BFF00BF0020FFF77FF90346002B06D1114B5B781A46114B9B5C462BF2D1012002F05AFF00BF0020FFF76EF90346002B06D1094B5B781A46084B9B5C16
:403CC000462BF2D1054B5B781A46054B9B5C462B01D0012300E00023184680BD2CDDFF1FF0CBFF1F80B582B000AF0023FB710FE0FB795B00FA790F49895C0F4AD154FB79BD
:403D00005B0001330C4A2021D154FB790133FB71FB790D2BECD91C21074801F011FE0D2001F0B0FD0A2001F0ADFD00BF0837BD4680BD00BFF0CBFF1F00CCFF1F80B500AFF3
:403D400002F0F6FB03461A462C4B1A702B4B1A782B4B1B789A4206D12A4B1B780133DAB2284B1A7002E0274B00221A70254B1B78022B06D9214B1A78234B1A70214B00229A
:403D80001A701E4B1A781E4B1A701F4B1B78012B09D11E4B01221A701D4B1B780133DAB21B4B1A7005E0194B00221A70184B00221A70174B1B784B2B0BD9164B5B781A46E0
:403DC000154B46219954134B46229A70104B00221A70124B1B78012B07D10C4B1B78002B03D10F4B01221A7002E00D4B00221A70064B1A78094B1A7000BF80BD1CCCFF1FAB
:403E00001DCCFF1F1ECCFF1F1FCCFF1FECCBFF1F20CCFF1F2CDDFF1FF0CBFF1F21CCFF1FEDCBFF1F80B500AF1A4B5B78032B01D1FEF7EEFE184B1B8801339AB2164B1A802C
:403E4000144B5B781A46154B33F81220124B1B889A4210D2104B00221A80114B1B88012B14D10C4B5B781A460E4B46219954094B46229A700AE0084B1B884FF6E8529342DD
:403E800006D9054B00221A8000BF01E000BF00E000BF80BD2CDDFF1FE8CBFF1F6CC1FF1FEACBFF1FF0CBFF1F80B500AFFFF71AFF144B5B78002B1FD0124B5B78012B1BD067
:403EC000104B5B78022B17D00E4B5B78042B13D00C4B5B78062B0FD00A4B5B78072B0BD0084B5B78082B07D0064B5B78092B03D0044B5B780B2B02D1FDF74EFB00BF00BF92
:403F000080BD00BF2CDDFF1F80B400AF094B5B781A46094B42219954064B42229A70074B00221A80064B01221A8000BFBD4680BC704700BF2CDDFF1FF0CBFF1FE8CBFF1F30
:403F4000EACBFF1F80B400AF0B4B00221A800B4B5B781A460A4B9B5C462B09D0074B5B781A46074B50219954044B50229A7000BF00BFBD4680BC7047EACBFF1F2CDDFF1FEC
:403F8000F0CBFF1F80B500AF164B5B781A46164B57219954134B57229A700FE0134B1B78002B0BD00F4B5B781A460F4B502199540C4B50229A700D4B00221A70094B5B78E0
:403FC0001A46094B9B5C502B06D0064B5B781A46054B9B5C462BE1D1002001F02BFB00BF80BD00BF2CDDFF1FF0CBFF1FEDCBFF1F80B582B000AF854B5B78042B00F20181B3
:4040000001A252F823F000BF1D40000063400000C9400000274100009F410000012000F057FF002000F072FF0023FB7106E0FB79774A5F21D154FB790133FB71FB79042B82
:40404000F5D9724B5B781A46714B492199546F4B49229A70642000F0AFFE6C4B01225A70CFE000F05BF9002001F01CFA00BF0020FDF792F90346002B06D1644B5B781A46D6
:40408000634B9B5C462BF2D100F066F9002001F01DFDFCF7BBFA02465E4B1A605D4B1B680122DA71642000F087FE584B5B781A46574B9B5C462B03D1544B04225A70A0E045
:4040C000524B02225A709CE000F028F9002001F0E9F9FCF78BFA02464F4B1A6001E0FEF7CDFD4D4B1B6893F848305BB2002B06DB464B5B781A46464B9B5C462BEFD100F09D
:404100002BF9642000F058FE404B5B781A46404B9B5C462B03D13D4B04225A7071E03B4B03225A706DE0394B5B781A46384B57219954364B57229A70002001F053FE00BFBD
:404140000120FEF74BFD0346002B06D12F4B5B781A462F4B9B5C462BF2D12C4B5B781A462B4B9B5C462B08D0284B5B781A46284B50219954254B50229A70642000F01CFEF3
:40418000224B5B781A46224B9B5C462B03D11F4B04225A7035E01D4B04225A7031E00023BB711AE0BB791A4AD35C502B12D0BB79174AD35C552B0DD0BB79154AD35C492B1A
:4041C00008D0124B5B781A46114B662199540F4B66229A70BB790133BB71BB79032BE1D90A4B5B781A460A4B9B5C662B08D0074B5B781A46064B70219954044B70229A706F
:40420000FEE7002318460837BD4680BD2CDDFF1FF8CCFF1F88CCFF1F74CCFF1F80B582B000AF0023FB710FE0FB795B00FA790F49895C0F4AD154FB795B0001330C4A202195
:40424000D154FB790133FB71FB79042BECD90A21074801F075FB0D2001F014FB0A2001F011FB00BF0837BD4680BD00BFF8CCFF1F00CDFF1F80B400AF184B1B8801339AB23B
:40428000164B1A80164B5B781A46164B33F81220124B1B889A4210D2104B00221A80124B1B88012B14D10E4B5B781A460F4B462199540B4B46229A700AE0084B1B884FF6A4
:4042C000E852934206D9054B00221A8000BF01E000BF00E000BFBD4680BC7047F0CCFF1F2CDDFF1F88C1FF1FF2CCFF1FF8CCFF1F80B500AFFFF792FFFEF7E8FC064B5B7842
:40430000002B03D0044B5B78012B02D1FDF7C6F800BF00BF80BD00BF2CDDFF1F80B400AF094B5B781A46094B42219954064B42229A70074B00221A80064B01221A8000BF63
:40434000BD4680BC704700BF2CDDFF1FF8CCFF1FF0CCFF1FF2CCFF1F80B400AF0B4B00221A800B4B5B781A460A4B9B5C462B09D0074B5B781A46074B50219954044B5022BF
:404380009A7000BF00BFBD4680BC7047F2CCFF1F2CDDFF1FF8CCFF1F80B582B000AF786039603A680021786802F0C3FC00BF0837BD4680BD80B584B000AFF860B9607A601E
:4043C0007A68B968F86802F0A9FC00BF1037BD4680BD00BF80B483B000AF0346FB71FEE780B487B000AF7860396000233B6100237B6127E07B699B007A6813441B68BB6068
:40440000BB68FB73BB6823F0FF03BB6014E03B695B003A6813441B781A46BB68134419463B695B003A6813445B780B703B6901333B61FB7B013BFB73FB7B002BE7D17B69C9
:4044400001337B617B69252BD4D900BF1C37BD4680BC704780B582B000AF414B4BF67F321A80404B18221A703F4B0C221A803F4B18221A703E4B19221A803E4B18221A707B
:404480003D4B33221A803D4B18221A703C4B40F2DF121A803B4B18221A703B4B40F2CF721A803A4B18221A70394B06221A70394B52221A70384B394A1278D2B21A70384BF6
:4044C0004FF4E2621A80374B41F251221A800023FB7019237B6014E0FB785B00DAB2324B1B78DBB203F00103DBB21343DBB203F00303FB704FF4F07002F07EFB7B68013B51
:404500007B607B68002B02D0FB78032BE4D17B68002B02D10320FFF75DFF244B4FF480721A80224B07221A70214B00221A70214B48221A701D4B00221A701F4B00221A7014
:404540001E4B02221A701E4A1D4B1B78DBB243F03F03DBB2137000BF0837BD4680BD00BF80400040824000408440004086400040884000408A4000408C4000408E4000407A
:40458000904000409240004094400040964000400043004000420040A14600400F0100492242004020420040254200400440004006400040084000400940004001400040A1
:4045C000A243004080B483B000AF114B1B78FB71104AFB7903F00703DBB213700E4AFB791B09DBB213700D4B04221A700C4B10221A700C4B14221A700B4B10221A700B4BB0
:4046000044221A7000BF0C37BD4680BC704700BFCF0100496E5800406F5800401D510040905A0040285B0040585B00407658004080B586B000AF72B60023FB7513E0FA7DD2
:4046400013465B0013445B00574A13443B613B691A683B699B889BB219461046FFF79CFEFB7D0133FB75FB7D072BE8D90023FB751CE0FA7D13469B0013445B004B4A1344A2
:40468000FB60FB681B68BB60FB685B687B60FB681A7A5B7A1B0213437B807B881A467968B868FFF787FEFB7D0133FB75FB7D012BDFD93F494FF09040FFF792FE3D4B202225
:4046C0001A7004213C48FFF767FE04213B48FFF763FE3B4A3A4B1B78DBB243F00203DBB21370384A374B1B78DBB243F00203DBB21370354A344B1B78DBB243F04003DBB22E
:404700001370324A314B1B78DBB243F01003DBB2137008222E492F48FFF74CFE0A222E492E48FFF747FE0A222D492E48FFF742FE08222D492D48FFF73DFE08222C492D4834
:40474000FFF738FE08222C492C48FFF733FE08222B492C48FFF72EFE08222B492B48FFF729FE08222A492B48FFF724FE2A4A2A4B1B78DBB243F00803DBB21370274B6122FD
:404780001A70FFF767FE254BC1221A70244B01221A70FFF717FF0E220B492248FFF70AFE00BF1837BD4680BD486D0000786D00009800004812600040007600400876004035
:4047C0000350014013500140A0430040C2430040DC0B004802510040E40B0048C0510040F00B0048F0510040FC0B004812510040040C0048225100400C0C004832510040EB
:40480000140C0048425100401C0C004852510040240C004862510040224300400048004004000840B043004080B500AF02F04AFA03461B680C2B00D1FEE7FEE780B586B0B0
:4048400000AF224B7B61224B3B61204B7B6135E03B691B68FB603B695B68BB603B699B683B6000237B600CE0FB681A68BB681A60BB680433BB60FB680433FB607B680433A5
:404880007B607A683B689A42EED13B69DB683B6000237B6008E0BB6800221A60BB680433BB607B6804337B607A683B689A42F2D13B6910333B617B69013B7B617B69002BBA
:4048C000C6D102F005FAFBF7DDFBFEE7010000007C6E000080B582B000AF194B194A1A60194A194B1B6843F40073136000237B600FE07B68032B04D8144A7B6852F8233020
:4049000000E0134B13497A6841F822307B6801337B607B682F2BECD90F4B1B78DAB20F4B1A700F4B0B4A1A60FFF782FE00F01CF80C4B00221A6000BF0837BD4680BD00BF8C
:404940000CED00E00004FA0514ED00E0000000002948000000C0FF1FBC760040C4C0FF1F08ED00E0C0C0FF1F80B483B000AF134B7F221A70124B80221A707F23FB710CE082
:40498000FB79DB0003F1804303F5F043FA79013AD2B21A70FB79013BFB71FB79002BEFD1FB79DB0003F1804303F5F04300221A7000BF0C37BD4680BC704700BF95C1FF1F87
:4049C00094C1FF1F80B485B000AF03460A46FB711346BB710123FB60FB79172B2FD8BB79002B0ED0FB791A01184B1344FA791101164A0A441278D2B242F02002D2B21A703D
:404A00000DE0FB791A01114B1344FA7911010F4A0A441278D2B222F02002D2B21A70FB791A010A4B1344FA791101084A0A441278D2B242F00102D2B21A700023FB60FB6839
:404A400018461437BD4680BC704700BF1070004080B485B000AF0346FB710123FB60FB79172B1DD8FB791A01104B1344FA7911010E4A0A441278D2B222F00102D2B21A7084
:404A8000FB791A01094B1344FA791101074A0A441278D2B222F02002D2B21A700023FB60FB6818461437BD4680BC70471070004080B485B000AF03460A46FB711346BB7166
:404AC0000123FB60FB79172B1BD8FB791A01104B13441B78DBB223F00E03FB72FB791A010B4B1344BA795200D2B252B202F00E0251B297F90B200A4352B2D2B21A70002311
:404B0000FB60FB6818461437BD4680BC704700BF1070004080B485B000AF0346FB710B46BB8013467B800123FB60BB8841F6FF72934202D14FF40053BB807B8841F6FF725E
:404B4000934202D14FF400537B80FB79172B17D8FB79DB0003F1804303F5EC430433BB60BB68BA881A80FB79DB0003F1804303F5EC430633BB60BB687A881A800023FB601B
:404B8000FB6818461437BD4680BC704780B485B000AF03460A46FB711346BB710123FB60FB79172B07D8FB791A01064B1344BA795A720023FB60FB6818461437BD4680BC3E
:404BC000704700BF1070004090B484B000AF0446084611461A462346FB710346BB710B467B7113463B710123FB60FB79172B34D8FB79DB0003F1804303F5EC43BA7902F0EA
:404C00007F02D1B27A79D201D2B20A43D2B21A70FB79DB0003F1804303F5EC433A7E1201D1B23A7902F00F02D2B20A43D2B25A70FB79DB0003F1804303F5EC433A7F02F0A3
:404C40000F02D2B29A70FB79DB0003F1804303F5EC430022DA700023FB60FB6818461037BD4690BC704700BF80B582B000AFFF23FB7101F0C9FF0346BB71104B1B78182BAE
:404C800012D90F4B1B78FB710C4B1B78013BDAB20A4B1A70FB79DB0003F1804303F5F0431B78DAB2064B1A70BB79184601F0B0FFFB7918460837BD4680BD00BF94C1FF1F3F
:404CC00095C1FF1F90B484B000AF0446084611461A462346FB710346BB800B46BB711346FB700123FB6097F90730002B23DBBB8823F47F6323F00F039BB2002B1BD1FB7988
:404D0000DB0003F1804303F5F043BB60BB68BA881A80FB79DB0003F1804303F5F043BA799A70FB79DB0003F1804303F5F043FA78DA700023FB60FB6818461037BD4690BC6C
:404D4000704700BF80B485B000AF0346FB710B46BB8013467B800123FB6097F90730002B17DBFB79DB0003F1804303F5F0430433BB60BB68BA881A80FB79DB0003F1804325
:404D800003F5F0430633BB60BB687A881A800023FB60FB6818461437BD4680BC704700BF80B483B000AF0346FB7101BE00BF0C37BD4680BC704700BF80B582B000AF786047
:404DC00008E00C4B1B68184601F016FF7B68A3F500437B607B68B3F5004FF2D8064B1B687A6802FB03F3184601F006FF00BF0837BD4680BDA8C1FF1FA0C1FF1F80B584B0A6
:404E000000AF03463960FB710F4B1B68FB60FB791F2B02D90020FFF7C3FFFB7903F01F0310339B00FA6813441B68BB60FB7903F01F0310339B00FA6813443A681A60BB68AF
:404E400018461037BD4680BD08ED00E080B582B000AF03460A46FB711346BB71BB79072B02D90020FFF79CFFFB791F2B02D90020FFF796FFFB7903F01F0303F1604303F58A
:404E80006443BA795201D2B21A7000BF0837BD4680BD00BF80B485B000AF0346FB710B4B1B78DBB223F00203FB730849FB795B00DBB203F00203DAB2FB7B1343DBB20B70EC
:404EC00000BF1437BD4680BC704700BF0051004080B485B000AF0346FB710B4B1B78DBB223F01003FB730849FB791B01DBB203F01003DAB2FB7B1343DBB20B7000BF1437AD
:404F0000BD4680BC704700BF2051004080B485B000AF0346FB710B4B1B78DBB223F00803FB730849FB79DB00DBB203F00803DAB2FB7B1343DBB20B7000BF1437BD4680BC68
:404F4000704700BF6051004080B400AF044B1B78DBB203F00103DBB21846BD4680BC70470151004080B400AF054B1B78DBB203F020035B09DBB21846BD4680BC704700BFA1
:404F80004151004080B400AF054B1B78DBB203F040039B09DBB21846BD4680BC704700BF4151004080B485B000AF0346FB710B4B1B78DBB223F00803FB730849FB79DB0011
:404FC000DBB203F00803DAB2FB7B1343DBB20B7000BF1437BD4680BC704700BFC051004080B485B000AF0346FB71094B1B78DBB203F07F03FB730649FB79DB01DAB2FB7BF1
:405000001343DBB20B7000BF1437BD4680BC70473051004080B485B000AF0346FB710B4B1B78DBB223F00403FB730849FB799B00DBB203F00403DAB2FB7B1343DBB20B703F
:4050400000BF1437BD4680BC704700BFC051004080B485B000AF0346FB710B4B1B78DBB223F04003FB730849FB799B01DBB203F04003DAB2FB7B1343DBB20B7000BF14378B
:40508000BD4680BC704700BF3051004080B485B000AF0346FB710B4B1B78DBB223F00803FB730849FB79DB00DBB203F00803DAB2FB7B1343DBB20B7000BF1437BD4680BCD7
:4050C000704700BFF051004080B485B000AF0346FB710B4B1B78DBB223F00403FB730849FB799B00DBB203F00403DAB2FB7B1343DBB20B7000BF1437BD4680BC704700BFE8
:40510000F051004080B485B000AF0346FB710B4B1B78DBB223F00203FB730849FB795B00DBB203F00203DAB2FB7B1343DBB20B7000BF1437BD4680BC704700BFC051004010
:4051400080B485B000AF0346FB710A4B1B78DBB223F00103FB730749FB7903F00103DAB2FB7B1343DBB20B7000BF1437BD4680BC704700BFC051004080B500AF00F042F82F
:40518000044800F00FF8022000F01EF800F02EF800BF80BD9951000080B500AFFBF736FF00BF80BD80B485B000AF7860054B1B68FB60FB685C337A681A6000BF1437BD4608
:4051C00080BC704708ED00E080B483B000AF0346FB71054AFB795B01DBB2137000BF0C37BD4680BC704700BF07E400E080B400AF034B80221A6000BFBD4680BC704700BFAA
:4052000000E100E080B400AF034B80221A6000BFBD4680BC704700BF80E100E080B500AF064B1B78002B04D100F00AF8034B01221A7000F02DF800BF80BD00BF0ACDFF1F31
:4052400080B500AF0C4B72221A700C4B20221A700B490120FFF7D2FD03210120FFF7F6FD084B06221A70084B47221A70074B02221A7000BF80BD00BF8464004086640040F2
:40528000015400002B6400403B6400408A64004080B582B000AF01F0B7FC0346FB71144A134B1B78DBB243F02003DBB21370114A104B1B78DBB243F01003DBB213700E4A88
:4052C0000D4B1B78DBB243F01003DBB213700B4B02221A600A4B02221A6000F0C9F8FB79184601F095FC00BF0837BD4680BD00BF94640040966400409A64004080E200E005
:4053000000E100E080B483B000AF064B1B78DBB203F07F03FB71FB7918460C37BD4680BC704700BF6664004080B483B000AF0023FB710C4B1B78BB71BB7903F02003002B40
:4053400009D0094B1B78FB71BB7903F01E03002B01D00023FB71FB7918460C37BD4680BC704700BF666400404564004080B483B000AF0346FB711A4B1B78002B2BD0194B24
:4053800002221A60184B1B889AB2184B1B889A420AD1174B1B78DBB203F00403002B03D1144AFB79137013E0104B1B88B3F5806F02D30E4B00221A800C4B1B8819460E4A4D
:4053C000FB795354094B1B8801339AB2074B1A800A4B02221A6000BF0C37BD4680BC70470ACDFF1F80E100E00CCDFF1F0ECDFF1F6A640040446400402CCDFF1F00E100E050
:4054000080B400AF18E0154B1B889BB2B3F5806F02D3124B00221A80114B104A128892B21146104A525CD2B21A700C4B1B889BB201339AB2094B1A80084B1B889AB20A4B6F
:405440001B889A4206D0094B1B78DBB203F00403002BD8D000BFBD4680BC70470CCDFF1F446400402CCDFF1F0ECDFF1F6A64004080B400AF094A094B1B78DBB243F0040300
:40548000DBB21370064A064B1B78DBB243F00403DBB2137000BFBD4680BC7047A2430040B243004080B483B000AF0346FB71044AFB79137000BF0C37BD4680BC704700BFFB
:4054C0007564004080B500AF224A224B1B78DBB203F00103DBB213701F4A1F4B1B78DBB223F00303DBB213701C4A1C4B1B78DBB223F03003DBB21370184A184B1B78DBB26B
:4055000043F03003DBB21370144A144B1B78DBB223F00F03DBB21370104A104B1B78DBB243F00F03DBB213700D4A0D4B1B78DBB243F00103DBB2137040F2DF1000F058F842
:4055400040F2DF1000F066F8082000F041F800BF80BD00BF0C4F00400E4F0040174F00400D4F004080B400AF0D4A0D4B1B78DBB243F00203DBB213700A4A0A4B1B78DBB273
:4055800043F00203DBB21370074A074B1B78DBB243F00103DBB2137000BFBD4680BC7047A3430040B34300400C4F004080B500AF064B1B78002B04D1FFF784FF034B01223B
:4055C0001A70FFF7CFFF00BF80BD00BF11CDFF1F80B483B000AF0346FB71044AFB79137000BF0C37BD4680BC704700BF0F4F004080B485B000AF0346FB80FB88FB81044A18
:40560000FB89138000BF1437BD4680BC704700BF104F004080B483B000AF0346FB80044AFB88138000BF0C37BD4680BC704700BF124F004080B485B000AF0346FB710B4B3C
:405640001B78DBB223F01003FB730849FB791B01DBB203F01003DAB2FB7B1343DBB20B7000BF1437BD4680BC704700BF0051004080B500AF00F052F8044800F01FF80520BC
:4056800000F02EF800F03EF800BF80BD9156000080B500AFFBF76AF8FDF738F8FCF7E6FAFDF750FFFEF7BEFBFEF7E4FDFAF7EAFFFCF75AFAFEF742FB00BF80BD80B485B01D
:4056C00000AF7860054B1B68FB60FB6850337A681A6000BF1437BD4680BC704708ED00E080B483B000AF0346FB71054AFB795B01DBB2137000BF0C37BD4680BC704700BF2D
:4057000004E400E080B400AF034B10221A6000BFBD4680BC704700BF00E100E080B400AF034B10221A6000BFBD4680BC704700BF80E100E080B500AF064B1B78002B04D135
:4057400000F00AF8034B01221A7000F02DF800BF80BD00BF12CDFF1F80B500AF0C4B72221A700C4B20221A700B490020FFF746FB04210020FFF76AFB084B06221A70084B50
:4057800047221A70074B02221A7000BF80BD00BF896400408F640040855900002C6400403C6400408B64004080B582B000AF01F02BFA0346FB71144A134B1B78DBB243F02E
:4057C0002003DBB21370114A104B1B78DBB243F01003DBB213700E4A0D4B1B78DBB243F01003DBB213700B4B01221A600A4B01221A6000F051F9FB79184601F009FA00BF80
:405800000837BD4680BD00BF996400409F6400409B64004080E200E000E100E080B483B000AF064B1B78DBB203F07F03FB71FB7918460C37BD4680BC704700BF6F64004023
:4058400080B483B000AF0023FB710C4B1B78BB71BB7903F02003002B09D0094B1B78FB71BB7903F01E03002B01D00023FB71FB7918460C37BD4680BC704700BF6F6400401C
:405880004F64004080B485B000AF0346FB71264B1B88FB81254B1B88BB81FA89BB899A4208D2FA89BB89013B9A420CBF01230023DBB209E0FA89BB89D31A40F2FF32934279
:4058C0000CBF01230023DBB2002BE0D1BA89FB899A420AD1164B1B78DBB203F00403002B03D1144AFB79137019E0FB89B3F5806F01D30023FB81FB890F49FA79CA54FB8968
:405900000133FB81084AFB891380094B1B78DBB203F00203002B02D0084B01221A6000BF1437BD4680BC704716CDFF1F14CDFF1F6B640040486400402CD1FF1F00E200E01D
:4059400080B584B000AF78600B467B800023FB810B4B1B78002B0ED009E0FB897A6813441B781846FFF78EFFFB890133FB81FA897B889A42F1D300BF1037BD4680BD00BFE1
:4059800012CDFF1F80B400AF18E0154B1B889BB2B3F5806F02D3124B00221A80114B104A128892B21146104A525CD2B21A700C4B1B889BB201339AB2094B1A80084B1B888E
:4059C0009AB20A4B1B889A4206D0094B1B78DBB203F00403002BD8D000BFBD4680BC704714CDFF1F486400402CD1FF1F16CDFF1F6B64004080B500AF00F042F8044800F05B
:405A00000FF8022000F01EF800F02EF800BF80BD155A000080B500AFFDF79CF900BF80BD80B485B000AF7860054B1B68FB60FB6858337A681A6000BF1437BD4680BC7047E5
:405A400008ED00E080B483B000AF0346FB71054AFB795B01DBB2137000BF0C37BD4680BC704700BF06E400E080B400AF034B40221A6000BFBD4680BC704700BF00E100E094
:405A800080B400AF034B40221A6000BFBD4680BC704700BF80E100E080B400AF094A094B1B78DBB243F00803DBB21370064A064B1B78DBB243F00803DBB2137000BFBD465B
:405AC00080BC7047A2430040B243004080B483B000AF0346FB71044AFB79137000BF0C37BD4680BC704700BF7865004080B500AF00F042F8044800F00FF8022000F01EF8FC
:405B000000F02EF800BF80BD0D5B000080B500AFFCF726FF00BF80BD80B485B000AF7860054B1B68FB60FB6860337A681A6000BF1437BD4680BC704708ED00E080B483B047
:405B400000AF0346FB71054AFB795B01DBB2137000BF0C37BD4680BC704700BF08E400E080B400AF034B4FF480721A6000BFBD4680BC704700E100E080B400AF034B4FF445
:405B800080721A6000BFBD4680BC704780E100E080B500AF064B1B78002B04D100F00AF8034B01221A7000F02DF800BF80BD00BF1ACDFF1F80B500AF0C4B72221A700C4B49
:405BC00020221A700B490220FFF718F903210220FFF73CF9084B06221A70084B47221A70074B02221A7000BF80BD00BF8A65004088640040755D00002A6400403A6400400C
:405C00008D64004080B582B000AF00F0FDFF0346FB71144A134B1B78DBB243F02003DBB21370114A104B1B78DBB243F01003DBB213700E4A0D4B1B78DBB243F01003DBB26B
:405C400013700B4B04221A600A4B04221A6000F0E9F8FB79184600F0DBFF00BF0837BD4680BD00BF9A650040986400409D64004080E200E000E100E080B483B000AF064B26
:405C80001B78DBB203F07F03FB71FB7918460C37BD4680BC704700BF6864004080B483B000AF0023FB710C4B1B78BB71BB7903F02003002B09D0094B1B78FB71BB7903F08A
:405CC0001E03002B01D00023FB71FB7918460C37BD4680BC704700BF686400404965004080B483B000AF0346FB711A4B1B78002B2BD0194B04221A60184B1B889AB2184B92
:405D00001B889A420AD1174B1B78DBB203F00403002B03D1144AFB79137013E0104B1B88B3F5006F02D30E4B00221A800C4B1B8819460E4AFB795354094B1B8801339AB204
:405D4000074B1A800A4B04221A6000BF0C37BD4680BC70471ACDFF1F80E100E01CCDFF1F1ECDFF1F6D6400404D6400402CD5FF1F00E100E080B400AF18E0154B1B889BB2E7
:405D8000B3F5006F02D3124B00221A80114B104A128892B21146104A525CD2B21A700C4B1B889BB201339AB2094B1A80084B1B889AB20A4B1B889A4206D0094B1B78DBB2C8
:405DC00003F00403002BD8D000BFBD4680BC70471CCDFF1F4D6400402CD5FF1F1ECDFF1F6D64004080B483B000AF0346FB71044AFB79137000BF0C37BD4680BC704700BF29
:405E00007965004080B483B000AF0346FB71044AFB79137000BF0C37BD4680BC704700BF7D64004080B400AF094A094B1B78DBB243F00203DBB21370064A064B1B78DBB2A9
:405E400043F00203DBB2137000BFBD4680BC7047A2430040B243004080B500AF214A214B1B78DBB203F00103DBB213701E4A1E4B1B78DBB223F00303DBB213701B4A1B4B04
:405E80001B78DBB223F03003DBB21370174A174B1B78DBB243F03003DBB21370134A134B1B78DBB223F00F03DBB213700F4A0F4B1B78DBB243F00F03DBB213700C4A0C4B2E
:405EC0001B78DBB243F00103DBB21370EF2000F057F8EF2000F066F8082000F041F800BF80BD00BF004F0040024F00400B4F0040014F004080B400AF0D4A0D4B1B78DBB288
:405F000043F00103DBB213700A4A0A4B1B78DBB243F00103DBB21370074A074B1B78DBB243F00103DBB2137000BFBD4680BC7047A3430040B3430040004F004080B500AF7C
:405F4000064B1B78002B04D1FFF786FF034B01221A70FFF7CFFF00BF80BD00BF21CDFF1F80B483B000AF0346FB71044AFB79137000BF0C37BD4680BC704700BF034F0040E3
:405F800080B485B000AF0346FB80FB88FB81044AFB89138000BF1437BD4680BC704700BF044F004080B483B000AF0346FB80044AFB88138000BF0C37BD4680BC704700BF5A
:405FC000064F004080B500AF00F044F8044800F011F8042000F020F800F030F800BF80BDE55F000080B500AFFCF782FBFBF730FE00BF80BD80B485B000AF7860054B1B6800
:40600000FB60FB684C337A681A6000BF1437BD4680BC704708ED00E080B483B000AF0346FB71054AFB795B01DBB2137000BF0C37BD4680BC704700BF03E400E080B400AF97
:40604000034B08221A6000BFBD4680BC704700BF00E100E080B400AF034B08221A6000BFBD4680BC704700BF80E100E080B500AF224A224B1B78DBB203F00103DBB213708B
:406080001F4A1F4B1B78DBB223F00303DBB213701C4A1C4B1B78DBB223F03003DBB21370184A184B1B78DBB243F03003DBB21370144A144B1B78DBB223F00F03DBB2137014
:4060C000104A104B1B78DBB243F00F03DBB213700D4A0D4B1B78DBB243F00103DBB2137040F2AF4000F058F840F2AF4000F066F8082000F041F800BF80BD00BF184F0040DD
:406100001A4F0040234F0040194F004080B400AF0D4A0D4B1B78DBB243F00403DBB213700A4A0A4B1B78DBB243F00403DBB21370074A074B1B78DBB243F00103DBB2137043
:4061400000BFBD4680BC7047A3430040B3430040184F004080B500AF064B1B78002B04D1FFF784FF034B01221A70FFF7CFFF00BF80BD00BF22CDFF1F80B483B000AF034640
:40618000FB71044AFB79137000BF0C37BD4680BC704700BF1B4F004080B485B000AF0346FB80FB88FB81044AFB89138000BF1437BD4680BC704700BF1C4F004080B483B0BC
:4061C00000AF0346FB80044AFB88138000BF0C37BD4680BC704700BF1E4F004080B500AF00F09AF9044800F067F9072000F076F900F086F900BF80BDFD61000080B500AF2E
:40620000AB4B1B780133DAB2A94B1A70A94B1B78002B02D1FAF7E8FA21E0A64B1B78012B02D1FCF7B5FA1AE0A24B1B78022B02D1FBF75AFD13E09F4B1B78032B02D1FDF7F1
:40624000BFF90CE09B4B1B78042B02D1FDF72CFE05E0984B1B78052B01D1FEF749F8954B9B78492B07D0934B9B78422B03D0914B9B78552B09D1002000F0CEFC012000F0AB
:40628000E9FC002000F000FD08E18A4B9B78572B28D1874B1B78012B09D8002000F0BCFC012000F0D7FC002000F0EEFCF6E0804B1B78022B0DD97E4B1B78032B09D80020B6
:4062C00000F0AAFC002000F0C5FC002000F0DCFCE4E0774B1B78042B40F2E080744B00221A70DBE0734B9B78502B3AD1714B1B78012B2CD16F4B5B780A2B28D16C4B1B787B
:40630000012B09D8002000F087FC002000F0A2FC012000F0B9FCC0E0654B1B78022B0DD9634B1B78032B09D8002000F075FC002000F090FC002000F0A7FCAEE05C4B1B786B
:40634000042B40F2AA805A4B00221A70A5E0002000F062FC002000F07DFC012000F094FC9CE0544B9B78462B09D1012000F054FC002000F06FFC002000F086FC8EE04D4B37
:406380009B78702B27D14A4B1B78012B09D8002000F042FC002000F05DFC012000F074FC7CE0434B1B78022B0DD9414B1B78032B09D8002000F030FC002000F04BFC002059
:4063C00000F062FC6AE03A4B1B78042B66D9384B00221A7062E0374B9B78662B27D1344B1B78012B09D8012000F016FC002000F031FC002000F048FC50E02D4B1B78022BB5
:406400000DD92B4B1B78032B09D8002000F004FC002000F01FFC002000F036FC3EE0244B1B78042B3AD9224B00221A7036E0214B9B78722B27D11E4B1B78012B09D8012012
:4064400000F0EAFB012000F005FC012000F01CFC24E0174B1B78022B0DD9154B1B78032B09D8002000F0D8FB002000F0F3FB002000F00AFC12E00E4B1B78042B0ED90C4BBC
:4064800000221A700AE0002000F0C6FB002000F0E1FB002000F0F8FB00E000BF044B1B78642B02D9024B00221A7000BF80BD00BF23CDFF1F2CDDFF1F80B485B000AF7860C2
:4064C000054B1B68FB60FB6854337A681A6000BF1437BD4680BC704708ED00E080B483B000AF0346FB71054AFB795B01DBB2137000BF0C37BD4680BC704700BF05E400E0D9
:4065000080B400AF034B20221A6000BFBD4680BC704700BF00E100E080B400AF034B20221A6000BFBD4680BC704700BF80E100E080B400AF054B1B78DBB203F00803DB0863
:40654000DBB21846BD4680BC704700BF4151004080B500AF00F068F9022000F0B7F9042000F0D4F9FEF780FB03461A46084B1A70FEF77AFB03461A46064B1A70642106481A
:4065800000F052F86421054800F082F800BF80BD27CDFF1F28CDFF1F8C6D0000F06D000080B500AF00F05EF9094B1B7801211846FEF708FA074B1B7801211846FEF702FA0F
:4065C000002000F0C3F900F097F800BF80BD00BF25CDFF1F26CDFF1F80B500AF064B1B78002B04D1FFF7B4FF034B01221A70FFF7D7FF00BF80BD00BF24CDFF1F80B500AF8E
:4066000000F094F8064B1B781846FEF721FA054B1B781846FEF71CFA00F03EF900BF80BD25CDFF1F26CDFF1F80B582B000AF78600B467B807B681B0C9AB24FF48043012144
:40664000012000F08DF803461A460F4B1A700F4B18780E4B1A7879880123FEF733FB0B4B1B787A6891B245F682321846FEF76AFB054B1A78054B1B7819461046FEF786FA36
:4066800000BF0837BD4680BD25CDFF1F27CDFF1F80B582B000AF78600B467B807B681B0C9AB24FF480430121012000F08BF803461A460F4B1A700F4B18780E4B1A787988CB
:4066C0000123FEF7FFFA0B4B1B787A6891B245F682321846FEF736FB054B1A78054B1B7819461046FEF752FA00BF0837BD4680BD26CDFF1F28CDFF1F80B400AF094A094B60
:406700001B78DBB243F01003DBB21370064A064B1B78DBB243F01003DBB2137000BFBD4680BC7047A2430040B243004080B400AF094A094B1B78DBB223F01003DBB21370DD
:40674000064A064B1B78DBB223F01003DBB2137000BFBD4680BC7047A2430040B243004090B585B002AF0446084611461A462346FB710346BB710B46BB8013467B80104B14
:4067800000221A700E4B1878BA79F97900230193002300930023FEF717FA094B1B787A88B9881846FEF7B6F9054B1B7802211846FEF77EF9024B1B7818460C37BD4690BD3C
:4067C000ACC1FF1F90B585B002AF0446084611461A462346FB710346BB710B46BB8013467B80104B01221A700E4B1878BA79F97900230193002300930023FEF7E5F9094B1D
:406800001B787A88B9881846FEF784F9054B1B7802211846FEF74CF9024B1B7818460C37BD4690BDADC1FF1F80B500AF0A4B00221A700A4B00221A70094A094B1B78DBB20A
:4068400043F00803DBB21370002000F05FF8022000F03CF800BF80BD2858004029580040975A004080B400AF094A094B1B78DBB243F00403DBB21370064A064B1B78DBB2BA
:4068800043F00403DBB2137000BFBD4680BC7047A8430040B843004080B400AF094A094B1B78DBB223F00403DBB21370064A064B1B78DBB223F00403DBB2137000BFBD46F2
:4068C00080BC7047A8430040B843004080B483B000AF0346FB710C4A0B4B1B78DBB223F00203DBB213700849074B1B78DAB2FB7903F00203DBB21343DBB20B7000BF0C3765
:40690000BD4680BC704700BF2858004080B582B000AF0346FB710C4A0B4B1B78DBB223F00C03DBB213700849074B1B78DAB2FB7903F00C03DBB21343DBB20B7000F016F8F8
:4069400000BF0837BD4680BD2858004080B483B000AF0346FB71044AFB79137000BF0C37BD4680BC704700BF825B004080B483B000AF0B4B1B78DBB203F00C039B08DBB277
:406980000633FB71074AFB7903F1924303F594731B78DBB2137000BF0C37BD4680BC7047285800400A46004080B485B000AF0346FB71094B1B78DBB203F07F03FB73064947
:4069C000FB79DB01DAB2FB7B1343DBB20B7000BF1437BD4680BC7047F051004080B485B000AF0346FB710A4B1B78DBB223F00103FB730749FB7903F00103DAB2FB7B13438C
:406A0000DBB20B7000BF1437BD4680BC704700BF5051004080B485B000AF0346FB710B4B1B78DBB223F04003FB730849FB799B01DBB203F04003DAB2FB7B1343DBB20B7023
:406A400000BF1437BD4680BC704700BFF051004080B485B000AF0346FB710A4B1B78DBB223F00103FB730749FB7903F00103DAB2FB7B1343DBB20B7000BF1437BD4680BCAB
:406A8000704700BFF051004080B485B000AF0346FB710B4B1B78DBB223F00203FB730849FB795B00DBB203F00203DAB2FB7B1343DBB20B7000BF1437BD4680BC704700BF52
:406AC0005051004080B485B000AF0346FB710B4B1B78DBB223F00403FB730849FB799B00DBB203F00403DAB2FB7B1343DBB20B7000BF1437BD4680BC704700BF5051004003
:406B000080B485B000AF0346FB710B4B1B78DBB223F00803FB730849FB79DB00DBB203F00803DAB2FB7B1343DBB20B7000BF1437BD4680BC704700BF5051004080B400AF78
:406B4000054B1B78DBB203F08003DB09DBB21846BD4680BC704700BF6151004080B483B000AF0346FB71044AFB79137000BF0C37BD4680BC704700BF7C64004080B485B069
:406B800000AF0346FB710B4B1B78DBB223F00203FB730849FB795B00DBB203F00203DAB2FB7B1343DBB20B7000BF1437BD4680BC704700BF6051004080B485B000AF03465F
:406BC000FB710B4B1B78DBB223F00403FB730849FB799B00DBB203F00403DAB2FB7B1343DBB20B7000BF1437BD4680BC704700BF60510040000000000230800803D000BFE8
:406C000001380046FCD17047EFF3108072B6704780F31088704700BF80B485B000AF0346FB710B4B1B78DBB223F04003FB730849FB799B01DBB203F04003DAB2FB7B1343FC
:406C4000DBB20B7000BF1437BD4680BC704700BF0051004080B485B000AF0346FB71094B1B78DBB203F07F03FB730649FB79DB01DAB2FB7B1343DBB20B7000BF1437BD468C
:406C800080BC70470051004080B485B000AF0346FB710B4B1B78DBB223F00403FB730849FB799B00DBB203F00403DAB2FB7B1343DBB20B7000BF1437BD4680BC704700BF7F
:406CC00040510040014B1868704700BF10C2FF1F0E4B70B51E460E4C0025E41AA410A54204D056F8253098470135F8E700F0B4F8084B094C1E46E41AA4100025A54204D0F2
:406D000056F8253098470135F8E770BD646E0000646E0000646E00006C6E000010B5431E0A44914204D011F8014B03F8014FF8E710BD03460244934202D003F8011BFAE7AA
:406D40007047000000000000004F00402400000001408004000501408009000F0140000100140140000800400140000A004C0140000200500140200080040140DC0A0048A9
:406D80008000800E01405C0B004880009F9F9F9F9F9F9F9F9F9F9F9F9F9F9F9F9F9F9F9F9F9F9F9F9F9F9F9F9F9F9F9F9F9F9F9F9F9F9F9F9F9F9F9F9F9F9F9F9F9F606087
:406DC00060606060606060606060606060606060606060606060606060606060606060606060606060606060606060606060606080848A8F94989EA2A8ACB2B6BCC0C6CA42
:406E0000D0D5DADEE4E8EEF2F8FCF8F2EEE8E4DEDAD4D0CAC6C0BCB6B2ADA8A29E98948F8A84807A76706B66615D58534E49443E39342F2A25211C17120D0803080D1217A9
:406E40001C21252A2F34393E44494E53585D61666B70767A43000000F8B500BFF8BC08BC9E4670474D000000D5480000F8B500BFF8BC08BC9E46704729000000906E000065
:406E8000C8C0FF1F50010000181B000000000000000000003200D0073200320032003200320000007E50080D0A7E440F0D0A7E48050D0A7E53030D0A244750524D432C003A
:406EC000320032002C013200320032003200320032006400320000003200C8006400C80032006400640032006400983A320000007E410A0D0A7E4C6F0D0A00007E33030D94
:406F00000A0000000D0F0E0C020100031D1F1E1C0B08090A1B18191A0507060413101112141617153200D0076400320064003200320032003200F401F401640064003200A8
:406F4000640032003200320032003200320032003200D0076400320032000000807F000003000000006CDC0280BB0000300000000000C05DFFFF00000000000000000000AC
:406F8000000000000000000000000000000000000000000000000000546E00000000000000000000000000000000000000000000000000000000000000000000000000000F
:406FC000000000000000000000000000000000000000000000000000B0C1FF1F00000000000000000000000000000000000000000000000000000000000000000000000002
:407000000000000000000000000000000000000000000000000000000000000000000000000000000000000000000000000000000000000000000000000000000000000050
:407040000000000000000000000000000000000000000000000000000000000000000000000000000000000000000000000000000000000000000000000000000000000010
:4070800000000000000000000000000000000000000000000000000000000000000000000000000000000000000000000000000000000000000000000000000000000000D0
:4070C0000000000000000000000000000000000000000000000000000000000000000000000000000000000000000000000000000000000000000000000000000000000090
:020000040001F9
:0200000480007A
:40000000064F004006520040015A0040086400400165004005030140140401403A0501404806014048070140540801404C090140630A0140500B0140610C01404A0D0140A2
:400040000D0E0140370F01400815014008170140591801403F190140471A0140551B01400D40014015410140134201400B43014008440140134501400646014003470140B9
:4000800009480140084901400A4C0140184D0140085001400451014001500A360D5016361950223601081088110A208021806020970184728638883889728A0F8B0F8D0F62
:4000C0008F388A728B209040B440E602EE0C4042410645BC470E481349FF4AFF4BFF4EF04F44500C560257115A045B045D225F0166C06A406B02041207100D800E44159A16
