:4000000000400020110000005D3500005D35000080B500AF024A034B1B68136003F0A8FABC760040FA46004010B5054C237833B9044B13B10448AFF300800123237010BD8E
:40004000E0C1FF1F0000000074530000084B10B51BB108490848AFF300800848036803B910BD074B002BFBD0BDE81040184700BF00000000E4C1FF1F74530000C8C0FF1F84
:400080000000000080B500AF00F064F862B603F015FC03461A462C4B1A7003F01FFC03461A462A4B1A7003F009FC0346012B08D103F014FC0346002B03D1254B00221A70E7
:4000C0001AE003F0FBFB0346002B08D103F006FC0346002B03D11E4B01221A700CE003F0EDFB0346002B07D103F0F8FB0346012B02D1174B02221A70154B1B78012B0DD030
:40010000022B15D0002B1DD1114B00225A7000BF00F03EF80346002BFAD013E00C4B00225A7000BF01F0AAFE0346002BFAD009E0074B00225A7000BF01F088FA0346002B90
:40014000FAD000BFA3E700BFFCC1FF1FFDC1FF1FE4D9FF1F80B500AF04F0BEF904F06AF903F008FD03F0B4FC03F088FF04F0E6F804F094FC04F0D6FC03F0C4FE03F024FF39
:4001800004F080FB04F0C2FB04F0E2FE00BF80BD80B582B000AF9E4B5B780A2B00F2028201A252F823F000BFD50100001B0200005302000077020000370300007F03000096
:4001C000D903000021040000D5040000F504000015050000012003F027FB002003F042FB0023FB7106E0FB798A4A5F21D154FB790133FB71FB790A2BF5D9854B5B781A469C
:40020000844B49219954824B49229A70642003F07FFA7F4B01225A70C4E100F01DFB002003F0ECFD00BF002001F0CEF80346002B06D1774B5B781A46764B9B5C462BF2D144
:4002400000F028FB642003F063FA714B02225A70A8E100F075FB02466F4B1A606E4B1B6802225A7100F036FB642003F051FA684B03225A7096E1002003F0C0FD00F0CAF9DE
:400280000246664B1A6000F05BFB0246624B1A6000F0E2FA012003F0C7FA002003F0E2FA5D4B1B6800225A7100BF5C4B1B6893F84A30002B06D0564B5B781A46554B9B5C14
:4002C000462BF2D1012003F0AFFA012003F0CAFA514B1B6802225A7100BF504B1B6893F84A30012B06D04A4B5B781A46494B9B5C462BF2D1012003F097FA002003F0B2FA58
:40030000454B1B6802225A7100BF444B1B6893F84A30012B06D03E4B5B781A463D4B9B5C462BF2D100F0B6FA642003F0F1F9384B04225A7036E100F08FFA002003F05EFD02
:4003400000F068F90246354B1A6001E002F048FC324B1B6893F848305BB2002B06DB2C4B5B781A462B4B9B5C462BEFD100F092FA642003F0CDF9264B05225A7012E1244BF2
:400380005B781A46234B57219954214B57229A7000BF00F011F90346002B06D11C4B5B781A461C4B9B5C462BF3D1194B5B781A46184B9B5C462B08D0154B5B781A46154BEA
:4003C00050219954124B50229A70642003F0A0F90F4B06225A70E5E000F03EFA002004F0A5F900BF012002F0ABFB0346002B06D1074B5B781A46074B9B5C462BF2D100F016
:4004000049FA642003F084F9014B07225A70C9E0E4D9FF1FD4C2FF1FC8C2FF1F50C2FF1F00F058FA002000F09BFA614B5B781A46604B422199545E4B42229A7041F2883073
:4004400003F066F900F046FA012000F089FA584B5B781A46574B42219954554B42229A7041F2883003F054F900F034FA022000F077FA4F4B5B781A464E4B422199544C4B77
:4004800042229A7041F2883003F042F900F022FA032000F065FA464B5B781A46454B42219954434B42229A7041F2883003F030F900F010FA3E4B5B781A463E4B50219954F3
:4004C0003B4B50229A70642003F022F9384B08225A7067E0364B5B781A46364B55219954334B55229A70642003F012F9304B09225A7057E02E4B5B781A462E4B5521995462
:400500002B4B55229A70642003F002F9284B0A225A7047E00023BB711AE0BB79254AD35C502B12D0BB79234AD35C552B0DD0BB79204AD35C492B08D01D4B5B781A461D4B01
:40054000662199541A4B66229A70BB790133BB71BB79092BE1D9164B5B781A46154B9B5C662B08D0124B5B781A46124B702199540F4B70229A7000BF04F068FC0346012B19
:40058000FAD10B4B5B781A460A4B72219954084B72229A704FF47A7003F0BAF8044B00225A7000BF002318460837BD4680BD00BFE4D9FF1FD4C2FF1F80B500AF002003F010
:4005C0001DFC00F027F80246094B1A60084B1B6893F84530FF2B07D1054B1B6893F84630FF2B01D1012300E00023184680BD00BF50C2FF1F80B400AF044B054A1A60034B1B
:400600001B681846BD4680BC704700BFB8C2FF1F68C2FF1F80B400AF044B054A1A60034B1B681846BD4680BC704700BF50C2FF1F00C2FF1F80B400AF044B054A1A60034B0C
:400640001B681846BD4680BC704700BF64C2FF1F54C2FF1F80B582B000AF0023FB710FE0FB795B00FA790F49895C0F4AD154FB795B0001330C4A2021D154FB790133FB7108
:40068000FB790A2BECD91621074803F0FDFD0D2003F09CFD0A2003F099FD00BF0837BD4680BD00BFD4C2FF1FE0C2FF1F80B500AF04F0CCFB03461A462C4B1A702B4B1A782B
:4006C0002B4B1B789A4206D12A4B1B780133DAB2284B1A7002E0274B00221A70254B1B78022B06D9214B1A78234B1A70214B00221A701E4B1A781E4B1A701F4B1B78012B45
:4007000009D11E4B01221A701D4B1B780133DAB21B4B1A7005E0194B00221A70184B00221A70174B1B784B2B0BD9164B5B781A46154B46219954134B46229A70104B002236
:400740001A70124B1B78012B07D10C4B1B78002B03D10F4B01221A7002E00D4B00221A70064B1A78094B1A7000BF80BDF6C2FF1FF7C2FF1FF8C2FF1FF9C2FF1FD0C2FF1F5A
:40078000FAC2FF1FE4D9FF1FD4C2FF1FFBC2FF1FD1C2FF1F80B400AF184B1B8801339AB2164B1A80164B5B781A46164B33F81220124B1B889A4210D2104B00221A80124B5C
:4007C0001B88012B14D10E4B5B781A460F4B462199540B4B46229A700AE0084B1B884FF6E852934206D9054B00221A8000BF01E000BF00E000BFBD4680BC7047CCC2FF1F84
:40080000E4D9FF1FCCC0FF1FCEC2FF1FD4C2FF1F80B500AFFFF71EFF02F00AFA0D4B5B78002B0BD00B4B5B78012B07D0094B5B78022B03D0074B5B78032B01D100F014FE39
:40084000044B5B78072B02D100F03CFE00BF00BF80BD00BFE4D9FF1F80B400AF094B5B781A46094B42219954064B42229A70074B00221A80064B01221A8000BFBD4680BCEB
:40088000704700BFE4D9FF1FD4C2FF1FCCC2FF1FCEC2FF1F80B400AF0B4B00221A800B4B5B781A460A4B9B5C462B09D0074B5B781A46074B50219954044B50229A7000BF06
:4008C00000BFBD4680BC7047CEC2FF1FE4D9FF1FD4C2FF1F80B500AF164B5B781A46164B57219954134B57229A700FE0134B1B78002B0BD00F4B5B781A460F4B50219954BC
:400900000C4B50229A700D4B00221A70094B5B781A46094B9B5C502B06D0064B5B781A46054B9B5C462BE1D1002003F02FFB00BF80BD00BFE4D9FF1FD4C2FF1FD1C2FF1F97
:4009400080B400AF044B054A1A60034B1B681846BD4680BC704700BFC8C2FF1FBCC2FF1F80B582B000AF0346FB71FFF743FE02466D4B1A60FFF74EFE02466C4B1A60FB79A9
:40098000002B40F0D580684B1B68FF2283F82D20654B1B68FF2283F82A20634B1B68FF2283F82720604B1B68FF2283F824205E4B1B68FF2283F821205B4B1B68FF229A77C9
:4009C000594B1B68FF22DA76574B1B68FF221A76554B1B68FF225A75534B1B68FF229A74514B1B68FF22DA734F4B1B68FF221A734D4B1B68FF225A724B4B1B68FF229A7181
:400A0000494B1B68FF22DA70474B1B68FF221A70454B1B68002283F82F20434B1B68002283F82C20404B1B68002283F829203E4B1B68002283F826203B4B1B68002283F8F2
:400A40002320394B1B68002283F82020364B1B6800225A77344B1B6800229A76324B1B680022DA75304B1B6800221A752E4B1B6800225A742C4B1B6800229A732A4B1B68F7
:400A80000022DA72284B1B6800221A72264B1B6800225A71244B1B6800229A70224B1B68002283F82E20204B1B68002283F82B201D4B1B68002283F828201B4B1B68002299
:400AC00083F82520184B1B68002283F82220164B1B680022DA77144B1B6800221A77124B1B6800225A76104B1B6800229A750E4B1B680022DA740C4B1B6800221A740A4B79
:400B00001B6800225A73084B1B6800229A72064B1B680022DA71044B1B6800221A71024B1B6800225A7084E2B8C2FF1F50C2FF1FFB79012B40F0D480684B1B68002283F89E
:400B40002D20664B1B68002283F82A20634B1B68002283F82720614B1B68002283F824205E4B1B68002283F821205C4B1B6800229A775A4B1B680022DA76584B1B6800229F
:400B80001A76564B1B6800225A75544B1B6800229A74524B1B680022DA73504B1B6800221A734E4B1B6800225A724C4B1B6800229A714A4B1B680022DA70484B1B680022D5
:400BC0001A70464B1B68FF2283F82F20434B1B68FF2283F82C20414B1B68FF2283F829203E4B1B68FF2283F826203C4B1B68FF2283F82320394B1B68FF2283F82020374B43
:400C00001B68FF225A77354B1B68FF229A76334B1B68FF22DA75314B1B68FF221A752F4B1B68FF225A742D4B1B68FF229A732B4B1B68FF22DA72294B1B68FF221A72274B5A
:400C40001B68FF225A71254B1B68FF229A70234B1B68002283F82E20204B1B68002283F82B201E4B1B68002283F828201B4B1B68002283F82520194B1B68002283F82220D3
:400C8000164B1B680022DA77144B1B6800221A77124B1B6800225A76104B1B6800229A750E4B1B680022DA740C4B1B6800221A740A4B1B6800225A73084B1B6800229A72C6
:400CC000064B1B680022DA71044B1B6800221A71024B1B6800225A70ABE100BFB8C2FF1FFB79022B40F0D480684B1B68002283F82D20664B1B68002283F82A20634B1B6804
:400D0000002283F82720614B1B68002283F824205E4B1B68002283F821205C4B1B6800229A775A4B1B680022DA76584B1B6800221A76564B1B6800225A75544B1B6800228D
:400D40009A74524B1B680022DA73504B1B6800221A734E4B1B6800225A724C4B1B6800229A714A4B1B680022DA70484B1B6800221A70464B1B68002283F82F20434B1B6861
:400D8000002283F82C20414B1B68002283F829203E4B1B68002283F826203C4B1B68002283F82320394B1B68002283F82020374B1B6800225A77354B1B6800229A76334BED
:400DC0001B680022DA75314B1B6800221A752F4B1B6800225A742D4B1B6800229A732B4B1B680022DA72294B1B6800221A72274B1B6800225A71254B1B6800229A70234BBD
:400E00001B68FF2283F82E20204B1B68FF2283F82B201E4B1B68FF2283F828201B4B1B68FF2283F82520194B1B68FF2283F82220164B1B68FF22DA77144B1B68FF221A7727
:400E4000124B1B68FF225A76104B1B68FF229A750E4B1B68FF22DA740C4B1B68FF221A740A4B1B68FF225A73084B1B68FF229A72064B1B68FF22DA71044B1B68FF221A7138
:400E8000024B1B68FF225A70D3E000BFB8C2FF1F694B1B68002283F82D20674B1B68002283F82A20644B1B68002283F82720624B1B68002283F824205F4B1B68002283F83F
:400EC00021205D4B1B6800229A775B4B1B680022DA76594B1B6800221A76574B1B6800225A75554B1B6800229A74534B1B680022DA73514B1B6800221A734F4B1B680022D9
:400F00005A724D4B1B6800229A714B4B1B680022DA70494B1B6800221A70474B1B68002283F82F20444B1B68002283F82C20424B1B68002283F829203F4B1B68002283F8B9
:400F400026203D4B1B68002283F823203A4B1B68002283F82020384B1B6800225A77364B1B6800229A76344B1B680022DA75324B1B6800221A75304B1B6800225A742E4BA1
:400F80001B6800229A732C4B1B680022DA722A4B1B6800221A72284B1B6800225A71264B1B6800229A70244B1B68002283F82E20214B1B68002283F82B201F4B1B680022AB
:400FC00083F828201C4B1B68002283F825201A4B1B68002283F82220174B1B680022DA77154B1B6800221A77134B1B6800225A76114B1B6800229A750F4B1B680022DA747D
:401000000D4B1B6800221A740B4B1B6800225A73094B1B6800229A72074B1B680022DA71054B1B6800221A71034B1B6800225A7000BF0837BD4680BDB8C2FF1F80B582B09C
:4010400000AF0023FB7102F01BFE0346FB71134B1B781946124AFB795354104B1B780133DAB20E4B1A700D4B1B78632B02D90B4B00221A70FB79184600F014F8FB79184624
:4010800000F0BCF902F0EAFD034603F02003002BD9D100BF0837BD4680BD00BF8CC3FF1F90C3FF1F80B582B000AF0346FB719C4B1B78012B78D0022B00F09780002B00D0BB
:4010C00070E1984B1B78002B20D1974B1B78FA799A420ED0944B5B79FA799A4209D0924B9B7AFA799A4204D08F4BDB7BFA799A420CD18C4B1B7819468C4AFB795354894B91
:401100001B780133DAB2874B1A704CE0854B1B78012B41D1844B5B78FA799A420ED0824B9B79FA799A4209D07F4BDB7AFA799A4204D07D4B1B7CFA799A422DD1794B1B7816
:4011400019467A4AFB795354764B1B780133DAB2744B1A70724B01221A70734B9B79FA799A4203D1724B01221A701CE06E4BDB7AFA799A4203D16E4B02221A7013E06A4BCF
:401180001B7CFA799A4203D1694B03221A700AE0674B00221A7006E0624B00221A70644B00221A70FEE0FDE05E4B1B7819465F4AFB7953545B4B1B780133DAB2594B1A70EF
:4011C000584B1B7818465A4B1B781946564A0B469B000B44134402331B7802339842C0F2E0804F4B02221A70DBE04E4B1B7818464F4B1B7819464C4A0B469B000B44134468
:4012000002331B780233984219D1494B1B781946454A0B469B000B44134403331B78FA799A420CD13F4B1B781946404AFB7953543C4B1B780133DAB23A4B1A70B0E0394B33
:401240001B7818463A4B1B781946374A0B469B000B44134402331B780333984240F09680334B1B781946304A0B469B000B44134404331B78FA799A4240F08880294B1B7801
:4012800019462A4AFB795354294B1B78002B15D1FFF7C0F90246274B1A60264B1B6803F14500214B9B781A46234904F04FF8234B1B8801339AB2214B1A805DE01C4B1B78C4
:4012C000012B14D101F02CF902461D4B1A601C4B1B681846144BDB791A46174904F036F8164B5B8801339AB2144B5A8044E0104B1B78022B28D101F033F90246114B1A6050
:40130000104B1B681846084B1B7B1A460A4904F01DF80A4B9B8801339AB2084B9A802BE0F4C3FF1FF5C3FF1FE4C0FF1FF8C3FF1F0BC4FF1F58C3FF1FFAC3FF1FFCC2FF1F39
:401340006CC3FF1F78C3FF1F184B1B78032B13D101F006F90246164B1A60154B1B681846144B5B7C1A46144903F0F0FF134BDB8801339AB2114BDA80114B00221A70114B3B
:4013800000221A70094B00221A7009E00C4B00221A700C4B00221A70044B00221A7001E000E000BF00BF0837BD4680BD0BC4FF1F78C3FF1FE4C0FF1FFAC3FF1FFCC2FF1F1A
:4013C000F5C3FF1FF4C3FF1F80B483B000AF0346FB71FB79084A32F81330042B06D9FB79054A002122F81310012300E0002318460C37BD4680BC7047FCC2FF1F80B483B014
:4014000000AF0346FB71154B1B78FA799A4202D1134B00221A70124B1B781A460F4B9B5CFA799A4202D00E4B00221A700C4B1B780133DAB20A4B1A70094B1B78052B07D9E2
:40144000074B00221A70074B01221A70012300E0002318460C37BD4680BC7047F8C0FF1F0CC4FF1F04C3FF1F80B582B000AFFFF7E1F80246124B1A60002002F0CBFF7E208A
:4014800002F020FC442002F01DFC0023FB7109E00B4B1A68FB79D35C184602F013FCFB790133FB71FB790E2BF2D90D2002F00AFC0A2002F007FC00BF0837BD4680BD00BF90
:4014C00010C4FF1F80B582B000AFFFF793F80246214B1A60002002F09DFF204B00221A7010E01D4B1B681D4A12789A5C1C4B1B785340DAB21A4B1A70184B1B780133DAB2F0
:40150000164B1A70154B1B784F2BEAD97E2002F0D9FB492002F0D6FB0023FB7109E00E4B1A68FB79D35C184602F0CCFBFB790133FB71FB794E2BF2D9094B1B78184602F0F0
:40154000C1FB0D2002F0BEFB0A2002F0BBFB00BF0837BD4680BD00BF24C4FF1F28C4FF1F29C4FF1F80B500AF00F0CAFF0246134B1A607E2002F0A6FB492002F0A3FB104BAB
:4015800000221A800DE00D4B1B680D4A12889B5C184602F097FB0A4B1B8801339AB2084B1A80074B1B884E2BEDD90D2002F08AFB0A2002F087FB00BF80BD00BF7CC4FF1FE9
:4015C00080C4FF1F80B500AF022002F023FF00F0B7FF0246124B1A607E2002F073FB482002F070FB0F4B00221A800DE00C4B1B680C4A12889B5C184602F064FB094B1B887D
:4016000001339AB2074B1A80064B1B88042BEDD90D2002F057FB0A2002F054FB00BF80BD84C3FF1FD4C4FF1F80B400AF064B1B78012B04D1044B00221A70012300E0002378
:401640001846BD4680BC704704C3FF1F80B582B000AFBC4B5B780A2B00F2768201A252F823F000BF911600008B170000AD170000ED1700003F18000091180000AB1800008F
:40168000C5180000DF18000051190000AD1A00000023FB7106E0FB79AB4A5F21D154FB790133FB71FB790A2BF5D9A64B5B781A46A54B49219954A34B49229A70012002F036
:4016C00095F8002003F072FD002003F08DFD00F017FF02469D4B1A6007E09C4B1A68BB790021D154BB790133BB71BB794E2BF4D9964B1B687E2283F83520944B1B6833222B
:4017000083F83620914B1B680D2283F83A208F4B1B680A2283F83B208C4B1B687E2283F83C208A4B1B68532283F83D20874B1B680D2283F84120854B1B680A2283F84220E4
:40174000824B1B687E2283F84320804B1B68502283F844207D4B1B680D2283F84D207B4B1B680A2283F84E20764B5B781A46764B50219954734B50229A704FF47A7001F0D1
:40178000C7FF704B01225A70DEE16E4B5B781A466D4B502199546B4B50229A704FF47A7001F0B6FF674B02225A70CDE100F028FB032002F023FB0220FFF706FE00BF022064
:4017C000FFF702FE0346002B06D15E4B5B781A465D4B9B5C462BF2D100F030FB4FF47A7001F096FF574B03225A70ADE1032002F011FE00F085FE0246544B1A60534B1B68F3
:40180000012283F83E204F4B5B781A464E4B422199544C4B42229A704FF47A7001F078FF00F0B8FA494B1B68002283F83E204FF47A7001F06DFF434B04225A7084E1032018
:4018400002F0E8FD00F05CFE0246404B1A603F4B1B68012283F83F203A4B5B781A463A4B42219954374B42229A704FF47A7001F04FFF00F08FFA354B1B68002283F83F208F
:401880004FF47A7001F044FF2E4B05225A705BE12C4B5B781A462C4B55219954294B55229A70284B06225A704EE1264B5B781A46254B55219954234B55229A70214B072219
:4018C0005A7041E11F4B5B781A461F4B552199541C4B55229A701B4B08225A7034E1032002F098FD00F00CFE0246184B1A60174B1B68162283F83E20144B1B68162283F8E7
:401900003F20104B5B781A460F4B422199540D4B42229A704FF47A7001F0FAFE00F03AFA0A4B1B68002283F83E20084B1B68002283F83F204FF47A7001F0EAFE014B0922EE
:401940005A7001E1E4D9FF1F38C5FF1F94C5FF1F032002F053FA032002F05CFD00F050FA002003F023FC012003F03EFC642001F0CFFE00F0C5FD0246764B1A60754B1B680A
:40198000002283F83E20734B1B68012283F83F20642001F0BDFE00F0E3FD02466E4B1A6000BF6D4B1B681B79012B06D06B4B5B781A466B4B9B5C462BF3D100F03FFA0020CF
:4019C00003F0F4FB002003F00FFC4FF47A7001F09FFE002003F0EAFB002003F005FC5D4B1B68002283F83E205A4B1B68002283F83F205A4B5B781A46594B42219954574B68
:401A000042229A7000BF544B1B68DB78002BFAD1514B1B681B79002BF5D100F0F1F9012003F0C4FB002003F0DFFB642001F070FE00F066FD0246474B1A60464B1B6801220F
:401A400083F83E20434B1B68002283F83F20642001F05EFE00F084FD02463F4B1A6000BF3D4B1B68DB78012B06D03C4B5B781A463B4B9B5C462BF3D100F0E0F9002003F08B
:401A800095FB002003F0B0FB4FF47A7001F040FE304B1B68002283F83E202E4B1B68002283F83F202D4B0A225A704DE000237B7115E07B792A4AD35C502B0DD07B79284A97
:401AC000D35C552B08D0254B5B781A46244B66219954224B66229A707B7901337B717B79092BE6D91D4B5B781A461D4B9B5C662B08D01A4B5B781A46194B70219954174BA0
:401B000070229A7000BF03F0A1F90346012BFAD1124B5B781A46124B722199540F4B72229A704FF47A7001F0F3FD00BF0A4B1B68DB78002BFAD1084B1B681B79002BF5D1CF
:401B4000064B00225A7000BF002318460837BD4680BD00BF94C5FF1FB4C5FF1FE4D9FF1F38C5FF1F80B500AF03F070F903461A462C4B1A702B4B1A782B4B1B789A4206D1F8
:401B80002A4B1B780133DAB2284B1A7002E0274B00221A70254B1B78022B06D9214B1A78234B1A70214B00221A701E4B1A781E4B1A701F4B1B78012B09D11E4B01221A703C
:401BC0001D4B1B780133DAB21B4B1A7005E0194B00221A70184B00221A70174B1B784B2B0BD9164B5B781A46154B46219954134B46229A70104B00221A70124B1B78012BAC
:401C000007D10C4B1B78002B03D10F4B01221A7002E00D4B00221A70064B1A78094B1A7000BF80BDB8C5FF1FB9C5FF1FBAC5FF1FBBC5FF1F34C5FF1FBCC5FF1FE4D9FF1F36
:401C400038C5FF1FBDC5FF1F35C5FF1F80B500AF044B5B78072B02D100F0ACFF00BF00BF80BD00BFE4D9FF1F80B400AF184B1B8801339AB2164B1A80164B5B781A46164B3D
:401C800033F81220124B1B889A4210D2104B00221A80124B1B88012B14D10E4B5B781A460F4B462199540B4B46229A700AE0084B1B884FF6E852934206D9054B00221A80C0
:401CC00000BF01E000BF00E000BFBD4680BC704730C5FF1FE4D9FF1F00C1FF1F32C5FF1F38C5FF1F80B500AF00F028F8124B5B78002B1BD0104B5B78032B17D00E4B5B784A
:401D0000042B13D00C4B5B78052B0FD00A4B5B78072B0BD0084B5B78082B07D0064B5B78092B03D0044B5B780A2B02D1FFF71AFC00BF00BF80BD00BFE4D9FF1F80B582B0D6
:401D400000AF0023FB710FE0FB795B00FA790F49895C0F4AD154FB795B0001330C4A2021D154FB790133FB71FB790A2BECD91621074802F089FA0D2002F028FA0A2002F0A0
:401D800025FA00BF0837BD4680BD00BF38C5FF1FC0C5FF1F80B500AF164B5B781A46164B57219954134B57229A700FE0134B1B78002B0BD00F4B5B781A460F4B50219954FF
:401DC0000C4B50229A700D4B00221A70094B5B781A46094B9B5C502B06D0064B5B781A46054B9B5C462BE1D1002002F0CFF800BF80BD00BFE4D9FF1F38C5FF1F35C5FF1F59
:401E000080B400AF094B5B781A46094B42219954064B42229A70074B00221A80064B01221A8000BFBD4680BC704700BFE4D9FF1F38C5FF1F30C5FF1F32C5FF1F80B400AF44
:401E40000B4B00221A800B4B5B781A460A4B9B5C462B09D0074B5B781A46074B50219954044B50229A7000BF00BFBD4680BC704732C5FF1FE4D9FF1F38C5FF1F80B582B04B
:401E800000AFB34B5B780A2B00F2C28101A252F823F000BFC11E0000A91F0000DB1F00000D2000003F20000077200000A9200000DB2000000D2100005D210000952100008F
:401EC0000023FB7106E0FB79A24A5F21D154FB790133FB71FB790A2BF5D99D4B5B781A469C4B492199549A4B49229A7000F008FB0246994B1A6007E0974B1A68BB790021F1
:401F0000D154BB790133BB71BB794E2BF4D9924B1B687E2283F835208F4B1B68332283F836208D4B1B680D2283F83A208A4B1B680A2283F83B20884B1B687E2283F83C2095
:401F4000854B1B68532283F83D20834B1B680D2283F84120804B1B680A2283F842207E4B1B687E2283F843207B4B1B68502283F84420794B1B680D2283F84D20764B1B6808
:401F80000A2283F84E20724B5B781A46714B502199546F4B50229A704FF4C87001F0B8FB6B4B01225A7033E100F010FC00BF01F077FC0346002B06D1654B5B781A46654BF9
:401FC0009B5C462BF3D100F01FFC4FF4C87001F09FFB5F4B02225A701AE100F0F7FB00BF00F020F90346002B06D1594B5B781A46584B9B5C462BF3D100F006FC4FF4C87009
:4020000001F086FB524B03225A7001E100F0DEFB00BF00F037F90346002B06D14C4B5B781A464C4B9B5C462BF3D100F0EDFB4FF4C87001F06DFB464B04225A70E8E000F05B
:40204000C5FB012002F082FB00BF00F04FF90346002B06D13E4B5B781A463E4B9B5C462BF3D100F0D1FB4FF4C87001F051FB384B05225A70CCE000F0A9FB00BF00F060F92D
:402080000346002B06D1324B5B781A46314B9B5C462BF3D100F0B8FB4FF4C87001F038FB2B4B06225A70B3E000F090FB00BF00F08FF90346002B06D1254B5B781A46254B30
:4020C0009B5C462BF3D100F09FFB4FF4C87001F01FFB1F4B07225A709AE000F077FB00BF00F0A0F90346002B06D1194B5B781A46184B9B5C462BF3D100F086FB4FF4C870C6
:4021000001F006FB124B08225A7081E0012000F01DFB00F05BFB00BF00F0A4F90346002B06D10B4B5B781A460A4B9B5C462BF3D100F06AFB4FF4C87001F0EAFA002000F036
:4021400005FB642001F0E4FA014B0A225A705FE0E4D9FF1FE4C6FF1F50C6FF1F00F036FB012001F04BFE00BFFFF75EFA0346002B06D12A4B5B781A46294B9B5C462BF3D198
:4021800000F042FB4FF4C87001F0C2FA234B0A225A703DE000237B7110E07B79204AD35C502B08D01D4B5B781A461D4B662199541A4B66229A707B7901337B717B79082BC1
:4021C000EBD9164B5B781A46154B9B5C662B08D0124B5B781A46124B702199540F4B70229A7000BF02F032FE0346012BFAD10B4B5B781A460A4B72219954084B72229A70F6
:402200004FF47A7001F084FA044B00225A7000BF002318460837BD4680BD00BFE4D9FF1FE4C6FF1F80B584B000AF0023FB6000237B60012000F08AFA0023FB7214E0FB7A84
:40224000184600F08BFE012001F062FA02F08EFF03467B60FB7A7A6802FA03F3FA681343FB60FB7A0133FB72FB7A1F2BE7D9FB68B3F1FF3F01D1012300E0002318461037A2
:40228000BD4680BD80B500AF002002F07FFF00BF002000F02DFE0346002B06D1114B5B781A46114B9B5C462BF2D1012002F06EFF00BF002000F01CFE0346002B06D1094B07
:4022C0005B781A46084B9B5C462BF2D1054B5B781A46054B9B5C462B01D0012300E00023184680BDE4D9FF1FE4C6FF1F80B582B000AF0023FB7116E0FB790233DBB218468D
:4023000002F014FA00BF012000F01AFC0346002B06D1094B5B781A46084B9B5C462BF2D1FB790133FB71FB79072BE5D9012318460837BD4680BD00BFE4D9FF1FE4C6FF1F8C
:4023400080B500AF00F0FCF802461C4B1A601B4B1B6873221A70194B1B6873225A70174B1B6873229A70154B1B687322DA70134B1B6873221A71012001F040FD00F0D0F8D0
:4023800002460F4B1A6000BF0E4B1B681B7A732B10D00C4B1B685B7A732B0BD0094B1B689B7A732B06D0084B5B781A46074B9B5C462BE9D10123184680BD00BF5CC6FF1F13
:4023C000E8C5FF1FFCC5FF1FE4D9FF1FE4C6FF1F80B500AF012002F01DF800F091F802460D4B1A600C4B1B68FF2283F84920012000F02AFA012001F001FD00F071F802462C
:40240000064B1A60064B1B68DB79FF2B01D1012300E00023184680BD50C6FF1FE8C5FF1FFCC5FF1F80B582B000AF012001F0E6FC00F076F802460A4B1A600023FB71084BAC
:402440001B681B79FB71FB797C2B04D8FB79732B01D9012300E0002318460837BD4680BDFCC5FF1F80B582B000AF0023FB7100237B71012001F0C2FC00F052F80246164BAC
:402480001A60012001F0C6FF00F03AF80246134B1A600023BB7110E0BB79184600F09CF803467B71FB795B005AB297F9053013435BB2FB71BB790133BB71BB79032BEBD9D6
:4024C000FB7903F00F030F2B01D1012300E0002318460837BD4680BDFCC5FF1F50C6FF1F80B400AF044B054A1A60034B1B681846BD4680BC704700BFE8C5FF1FD8C5FF1FDB
:4025000080B400AF044B054A1A60034B1B681846BD4680BC704700BF50C6FF1F00C6FF1F80B400AF044B054A1A60034B1B681846BD4680BC704700BFFCC5FF1FECC5FF1F17
:4025400080B400AF044B054A1A60034B1B681846BD4680BC704700BF5CC6FF1F54C6FF1F80B400AF044B054A1A60034B1B681846BD4680BC704700BF68C6FF1F60C6FF1F95
:4025800080B582B000AF0023FB710FE0FB795B00FA790F49895C0F4AD154FB795B0001330C4A2021D154FB790133FB71FB790A2BECD91621074801F067FE0D2001F006FE4B
:4025C0000A2001F003FE00BF0837BD4680BD00BFE4C6FF1FF0C6FF1F80B584B000AF0346FB710023FB73FFF79BFF0246184B1A60FB79002B04D1164B1B681B78FB7319E0C1
:40260000FB79012B04D1124B1B685B78FB7311E0FB79022B04D10E4B1B689B78FB7309E0FB79032B04D10A4B1B68DB78FB7301E0002308E0FB7B0A2B04D8FB7B072B01D952
:40264000012300E0002318461037BD4680BD00BFFCC5FF1F80B500AF044B5B78042B02D100F088FA00BF00BF80BD00BFE4D9FF1F80B500AF1A4B5B78042B01D100F07AFA60
:40268000184B1B8801339AB2164B1A80144B5B781A46154B33F81220124B1B889A4210D2104B00221A80114B1B88012B14D10C4B5B781A460E4B46219954094B46229A7068
:4026C0000AE0084B1B884FF6E852934206D9054B00221A8000BF01E000BF00E000BF80BDE4D9FF1FE0C6FF1F18C1FF1FE2C6FF1FE4C6FF1F80B500AFFFF742FF124B5B7811
:40270000002B13D0104B5B78022B0FD00E4B5B78032B0BD00C4B5B78052B07D00A4B5B78062B03D0084B5B78082B01D1FEF71AFF052000F0EDFF044B5B78052B02D1FEF76B
:4027400041FF00BF00BF80BDE4D9FF1F80B582B000AF0346FB71012001F05CFEFFF7D0FE0246194B1A60FB79012B14D1164B1B68FF2283F84520144B1B68FF2283F8462014
:40278000114B1B68FF2283F847200F4B1B68FF2283F8482014E00C4B1B68002283F84520094B1B68002283F84620074B1B68002283F84720044B1B68002283F8482000BF3D
:4027C0000837BD4680BD00BF50C6FF1F80B400AF094B5B781A46094B42219954064B42229A70074B00221A80064B01221A8000BFBD4680BC704700BFE4D9FF1FE4C6FF1F67
:40280000E0C6FF1FE2C6FF1F80B400AF0B4B00221A800B4B5B781A460A4B9B5C462B09D0074B5B781A46074B50219954044B50229A7000BF00BFBD4680BC7047E2C6FF1FC0
:40284000E4D9FF1FE4C6FF1F80B582B000AF0346FB71FB79012B18D1012001F04FF8012001F084F8012001F067F8012001F09CF8012001F0B7F8012001F0D2F8012001F0B4
:40288000EDF8012001F008F918E0002001F036F8002001F06BF8002001F04EF8002001F083F8002001F09EF8002001F0B9F8002001F0D4F8002001F0EFF800BF0837BD4653
:4028C00080BD00BF80B582B000AF0023FB7101F089FE0346FB71114B1B781946104AFB7953540E4B1B780133DAB20C4B1A700B4B1B78632B02D9094B00221A70FB79184696
:4029000000F010F801F05CFE034603F02003002BDDD100BF0837BD4680BD00BF94C7FF1F98C7FF1F80B483B000AF0346FB717E4B1B78012B5AD0022B78D0002B00D0EDE06F
:402940007A4B1B78002B16D1794B1B78FA799A4204D0774B5B79FA799A420CD1734B1B781946744AFB795354704B1B780133DAB26E4B1A7039E06D4B1B78012B2ED16C4B91
:402980005B78FA799A4204D0694B9B79FA799A4224D1664B1B781946664AFB795354634B1B780133DAB2614B1A705F4B01221A705F4B5B78FA799A4203D15F4B00221A7023
:4029C00013E05B4B9B79FA799A4203D15A4B01221A700AE0584B00221A7006E0534B00221A70554B00221A7098E097E04F4B1B781946504AFB7953544C4B1B780133DAB2E6
:402A00004A4B1A70494B1B7818464B4B1B781946474A0B469B000B44134402331B78023398427ADB404B02221A7076E03F4B1B781846414B1B7819463D4A0B469B000B44D1
:402A4000134402331B780233984219D13A4B1B781946374A0B469B000B44134403331B78FA799A420CD1314B1B781946314AFB7953542E4B1B780133DAB22C4B1A704BE0C3
:402A80002A4B1B7818462C4B1B781946284A0B469B000B44134402331B780333984231D1254B1B781946224A0B469B000B44134404331B78FA799A4224D11C4B1B781946A2
:402AC0001C4AFB7953541C4B1B78002B06D11B4B1B8801339AB2194B1A8009E0164B1B78012B05D1154B5B8801339AB2134B5A800E4B00221A700C4B00221A700E4B002275
:402B00001A7009E0094B00221A70074B00221A70094B00221A7001E000E000BF00BF0C37BD4680BC704700BFFCC7FF1FFDC7FF1F30C1FF1F00C8FF1F73C8FF1F08C7FF1FEF
:402B400080B483B000AF0346FB71FB79084A32F81330042B06D9FB79054A002122F81310012300E0002318460C37BD4680BC704708C7FF1F80B582B000AF7E2001F054FD87
:402B80004C2001F051FD0023FB7106E0FB79184601F04AFDFB790133FB71FB796E2BF5D90D2001F041FD0A2001F03EFD00BF0837BD4680BD80B400AF084B1B8801339AB2B3
:402BC000064B1A80054B1B88642B03D9034B00221A8000BF00BFBD4680BC704774C8FF1F80B582B000AF002001F0B0FD7E2001F01BFD022001F018FD0023FB7105E000207D
:402C000001F012FDFB790133FB71FB79062BF6D9402001F009FD422001F006FD0D2001F003FD0A2001F000FD00BF0837BD4680BD80B582B000AF002001F088FDFDF780FECD
:402C400002461C4B1A600123FB710023BB7109E0184B1A68BB79D25CFB795340FB71BB790133BB71BB79072BF2D9124B1B68FA791A727E2001F0D8FC012001F0D5FC00239C
:402C80007B7109E00B4B1A687B79D35C184601F0CBFC7B7901337B717B79082BF2D90D2001F0C2FC0A2001F0BFFC00BF0837BD4680BD00BF40C9FF1F80B582B000AF002319
:402CC000FB7101F061FA0346FB71114B1B781946104AFB7953540E4B1B780133DAB20C4B1A700B4B1B78632B02D9094B00221A70FB79184600F010F801F034FA034603F0A0
:402D00002003002BDDD100BF0837BD4680BD00BF57C9FF1F58C9FF1F80B483B000AF0346FB716D4B1B78012B43D0022B61D0002B00D0CBE0694B1B78002B11D1684B1B782A
:402D4000FA799A420CD1654B1B781946654AFB795354624B1B780133DAB2604B1A7027E05E4B1B78012B1CD15D4B5B78FA799A4217D15A4B1B7819465A4AFB795354574B80
:402D80001B780133DAB2554B1A70534B01221A70534B5B78FA799A420AD1534B00221A7006E04E4B00221A704F4B00221A708DE08CE04A4B1B7819464A4AFB795354474B54
:402DC0001B780133DAB2454B1A70444B1B781846454B1B781946424A0B469B000B44134402331B78023398426FDB3B4B02221A706BE03A4B1B7818463B4B1B781946384A36
:402E00000B469B000B44134402331B780233984219D1354B1B781946314A0B469B000B44134403331B78FA799A420CD12B4B1B7819462C4AFB795354284B1B780133DAB20C
:402E4000264B1A7040E0254B1B781846264B1B781946234A0B469B000B44134402331B780333984226D1204B1B7819461C4A0B469B000B44134404331B78FA799A4219D14D
:402E8000164B1B781946174AFB795354164B1B78002B05D1154B1B8801339AB2134B1A800E4B00221A700C4B00221A700E4B00221A7009E0094B00221A70074B00221A70DF
:402EC000094B00221A7001E000E000BF00BF0C37BD4680BC704700BFBCC9FF1FBDC9FF1F3CC1FF1FC0C9FF1FC7C9FF1F50C9FF1F80B483B000AF0346FB71FB790E4A32F8EC
:402F00001330052B06D1FB790B4A002122F8131001230BE0FB79084A32F81330052B04D9FB79054A002122F81310002318460C37BD4680BC704700BF50C9FF1F80B483B099
:402F400000AF0346FB71FB79034AD35C18460C37BD4680BC704700BF44C1FF1F80B584B000AF0346FB710023FB73FB791846FFF7E5FF0346FB73FB7B072B25D8002002F00C
:402F80007FF8012002F05EF8012002F03FF8012002F022F8FB7B9B10DBB203F00103DBB2184602F089F8FB7B5B10DBB203F00103DBB2184602F09EF8FB7B03F00103DBB2E5
:402FC000184602F0B5F883E0FB7B072B28D9FB7B0F2B25D8012002F053F8002002F032F8012002F013F8012001F0F6FFFB7B9B10DBB203F00103DBB2184602F05DF8FB7B0F
:403000005B10DBB203F00103DBB2184602F072F8FB7B03F00103DBB2184602F089F857E0FB7B0F2B28D9FB7B172B25D8012002F027F8012002F006F8002001F0E7FF012097
:4030400001F0CAFFFB7B9B10DBB203F00103DBB2184602F031F8FB7B5B10DBB203F00103DBB2184602F046F8FB7B03F00103DBB2184602F05DF82BE0FB7B172B28D9FB7B92
:403080001F2B25D8012001F0FBFF012001F0DAFF012001F0BBFF002001F09EFFFB7B9B10DBB203F00103DBB2184602F005F8FB7B5B10DBB203F00103DBB2184602F01AF885
:4030C000FB7B03F00103DBB2184602F031F8FFE700BF1037BD4680BD80B582B000AF786039603A680021786802F03BF900BF0837BD4680BD80B584B000AFF860B9607A6040
:403100007A68B968F86802F021F900BF1037BD4680BD00BF80B483B000AF0346FB71FEE780B487B000AF7860396000233B6100237B6127E07B699B007A6813441B68BB60C5
:40314000BB68FB73BB6823F0FF03BB6014E03B695B003A6813441B781A46BB68134419463B695B003A6813445B780B703B6901333B61FB7B013BFB73FB7B002BE7D17B699C
:4031800001337B617B69252BD4D900BF1C37BD4680BC704780B582B000AF414B4BF67F321A80404B18221A703F4B0C221A803F4B18221A703E4B19221A803E4B18221A704E
:4031C0003D4B33221A803D4B18221A703C4B40F2DF121A803B4B18221A703B4B40F2CF721A803A4B18221A70394B06221A70394B52221A70384B394A1278D2B21A70384BC9
:403200004FF4E2621A80374B41F251221A800023FB7019237B6014E0FB785B00DAB2324B1B78DBB203F00103DBB21343DBB203F00303FB704FF4F07001F0F6FF7B68013BA8
:403240007B607B68002B02D0FB78032BE4D17B68002B02D10320FFF75DFF244B4FF480721A80224B07221A70214B00221A70214B48221A701D4B00221A701F4B00221A70E7
:403280001E4B02221A701E4A1D4B1B78DBB243F03F03DBB2137000BF0837BD4680BD00BF80400040824000408440004086400040884000408A4000408C4000408E4000404D
:4032C000904000409240004094400040964000400043004000420040A14600400F010049224200402042004025420040044000400640004008400040094000400140004074
:40330000A243004080B483B000AF0F4B1B78FB710E4AFB7903F00703DBB213700C4AFB791B09DBB213700B4B24221A700A4B01221A700A4B01221A70094B44221A7000BFF5
:403340000C37BD4680BC7047CF0100496E5800406F5800401C510040835A00405B5B00407658004080B586B000AF72B60023FB7513E0FA7D13465B0013445B00574A134483
:403380003B613B691A683B699B889BB219461046FFF7A2FEFB7D0133FB75FB7D062BE8D90023FB751CE0FA7D13469B0013445B004B4A1344FB60FB681B68BB60FB685B684C
:4033C0007B60FB681A7A5B7A1B0213437B807B881A467968B868FFF78DFEFB7D0133FB75FB7D002BDFD03F494FF09040FFF798FE3D4B20221A7004213C48FFF76DFE0421BF
:403400003B48FFF769FE3B4A3A4B1B78DBB243F00203DBB21370384A374B1B78DBB243F00203DBB21370354A344B1B78DBB243F04003DBB21370324A314B1B78DBB243F0DF
:403440001003DBB2137008222E492F48FFF752FE0A222E492E48FFF74DFE0A222D492E48FFF748FE08222D492D48FFF743FE08222C492D48FFF73EFE08222C492C48FFF782
:4034800039FE08222B492C48FFF734FE08222B492B48FFF72FFE08222A492B48FFF72AFE2A4A2A4B1B78DBB243F00803DBB21370274B61221A70FFF76DFE254BC1221A7025
:4034C000244B01221A70FFF71DFF0E220B492248FFF710FE00BF1837BD4680BD78530000A4530000980000481260004000760040087600400350014013500140A04300403B
:40350000C2430040680B004802510040700B0048C05100407C0B0048F0510040880B004812510040900B004822510040980B004832510040A00B004842510040A80B004811
:4035400052510040B00B004862510040224300400048004004000840B043004080B500AF01F0C8FE03461B680C2B00D1FEE7FEE780B586B000AF224B7B61224B3B61204BB6
:403580007B6135E03B691B68FB603B695B68BB603B699B683B6000237B600CE0FB681A68BB681A60BB680433BB60FB680433FB607B6804337B607A683B689A42EED13B6945
:4035C000DB683B6000237B6008E0BB6800221A60BB680433BB607B6804337B607A683B689A42F2D13B6910333B617B69013B7B617B69002BC6D101F083FEFCF743FDFEE70B
:4036000001000000D453000080B582B000AF194B194A1A60194A194B1B6843F40073136000237B600FE07B68032B04D8144A7B6852F8233000E0134B13497A6841F82230E5
:403640007B6801337B607B682F2BECD90F4B1B78DAB20F4B1A700F4B0B4A1A60FFF782FE00F01CF80C4B00221A6000BF0837BD4680BD00BF0CED00E00004FA0514ED00E0A9
:40368000000000005D35000000C0FF1FBC760040C4C0FF1F08ED00E0C0C0FF1F80B483B000AF134B7F221A70124B80221A707F23FB710CE0FB79DB0003F1804303F5F043C0
:4036C000FA79013AD2B21A70FB79013BFB71FB79002BEFD1FB79DB0003F1804303F5F04300221A7000BF0C37BD4680BC704700BF65C1FF1F64C1FF1F80B483B000AF034619
:40370000FB7101BE00BF0C37BD4680BC704700BF80B582B000AF786008E00C4B1B68184601F082FD7B68A3F500437B607B68B3F5004FF2D8064B1B687A6802FB03F31846E5
:4037400001F072FD00BF0837BD4680BD78C1FF1F70C1FF1F80B584B000AF03463960FB710F4B1B68FB60FB791F2B02D90020FFF7C3FFFB7903F01F0310339B00FA681344D6
:403780001B68BB60FB7903F01F0310339B00FA6813443A681A60BB6818461037BD4680BD08ED00E080B582B000AF03460A46FB711346BB71BB79072B02D90020FFF79CFFC0
:4037C000FB791F2B02D90020FFF796FFFB7903F01F0303F1604303F56443BA795201D2B21A7000BF0837BD4680BD00BF80B485B000AF0346FB710B4B1B78DBB223F00203DA
:40380000FB730849FB795B00DBB203F00203DAB2FB7B1343DBB20B7000BF1437BD4680BC704700BF0051004080B485B000AF0346FB710B4B1B78DBB223F01003FB7308499D
:40384000FB791B01DBB203F01003DAB2FB7B1343DBB20B7000BF1437BD4680BC704700BF2051004080B485B000AF0346FB710B4B1B78DBB223F00803FB730849FB79DB00E6
:40388000DBB203F00803DAB2FB7B1343DBB20B7000BF1437BD4680BC704700BF6051004080B400AF044B1B78DBB203F00103DBB21846BD4680BC70470151004080B400AFCE
:4038C000054B1B78DBB203F020035B09DBB21846BD4680BC704700BF4151004080B400AF054B1B78DBB203F040039B09DBB21846BD4680BC704700BF4151004080B485B064
:4039000000AF0346FB710B4B1B78DBB223F00803FB730849FB79DB00DBB203F00803DAB2FB7B1343DBB20B7000BF1437BD4680BC704700BFC051004080B485B000AF034625
:40394000FB71094B1B78DBB203F07F03FB730649FB79DB01DAB2FB7B1343DBB20B7000BF1437BD4680BC70473051004080B485B000AF0346FB710B4B1B78DBB223F0040367
:40398000FB730849FB799B00DBB203F00403DAB2FB7B1343DBB20B7000BF1437BD4680BC704700BFC051004080B485B000AF0346FB710B4B1B78DBB223F04003FB730849EA
:4039C000FB799B01DBB203F04003DAB2FB7B1343DBB20B7000BF1437BD4680BC704700BF3051004080B485B000AF0346FB710B4B1B78DBB223F00803FB730849FB79DB00A5
:403A0000DBB203F00803DAB2FB7B1343DBB20B7000BF1437BD4680BC704700BFF051004080B485B000AF0346FB710B4B1B78DBB223F00403FB730849FB799B00DBB203F0B0
:403A40000403DAB2FB7B1343DBB20B7000BF1437BD4680BC704700BFF051004080B485B000AF0346FB710B4B1B78DBB223F00203FB730849FB795B00DBB203F00203DAB2A5
:403A8000FB7B1343DBB20B7000BF1437BD4680BC704700BFC051004080B485B000AF0346FB710A4B1B78DBB223F00103FB730749FB7903F00103DAB2FB7B1343DBB20B7040
:403AC00000BF1437BD4680BC704700BFC051004080B500AF00F042F8044800F00FF8022000F01EF800F02EF800BF80BDF13A000080B500AFFDF7A2FA00BF80BD80B485B027
:403B000000AF7860054B1B68FB60FB685C337A681A6000BF1437BD4680BC704708ED00E080B483B000AF0346FB71054AFB795B01DBB2137000BF0C37BD4680BC704700BFFC
:403B400007E400E080B400AF034B80221A6000BFBD4680BC704700BF00E100E080B400AF034B80221A6000BFBD4680BC704700BF80E100E080B500AF064B1B78002B04D12E
:403B800000F00AF8034B01221A7000F02DF800BF80BD00BFC8C9FF1F80B500AF0C4B72221A700C4B20221A700B490120FFF7D2FD03210120FFF7F6FD084B06221A70084B5D
:403BC00047221A70074B02221A7000BF80BD00BF886400408B640040593D00002A6400403A6400408A64004080B582B000AF01F023FB0346FB71144A134B1B78DBB243F063
:403C00002003DBB21370114A104B1B78DBB243F01003DBB213700E4A0D4B1B78DBB243F01003DBB213700B4B02221A600A4B02221A6000F0C9F8FB79184601F001FB00BFE9
:403C40000837BD4680BD00BF986400409B6400409A64004080E200E000E100E080B483B000AF064B1B78DBB203F07F03FB71FB7918460C37BD4680BC704700BF6B64004009
:403C800080B483B000AF0023FB710C4B1B78BB71BB7903F02003002B09D0094B1B78FB71BB7903F01E03002B01D00023FB71FB7918460C37BD4680BC704700BF6B640040FC
:403CC0004C64004080B483B000AF0346FB711A4B1B78002B2BD0194B02221A60184B1B889AB2184B1B889A420AD1174B1B78DBB203F00403002B03D1144AFB79137013E017
:403D0000104B1B88B3F5806F02D30E4B00221A800C4B1B8819460E4AFB795354094B1B8801339AB2074B1A800A4B02221A6000BF0C37BD4680BC7047C8C9FF1F80E100E0FA
:403D4000CAC9FF1FCCC9FF1F6A64004049640040E4C9FF1F00E100E080B400AF18E0154B1B889BB2B3F5806F02D3124B00221A80114B104A128892B21146104A525CD2B231
:403D80001A700C4B1B889BB201339AB2094B1A80084B1B889AB20A4B1B889A4206D0094B1B78DBB203F00403002BD8D000BFBD4680BC7047CAC9FF1F49640040E4C9FF1F79
:403DC000CCC9FF1F6A64004080B400AF094A094B1B78DBB243F00403DBB21370064A064B1B78DBB243F00403DBB2137000BFBD4680BC7047A2430040B243004080B483B08D
:403E000000AF0346FB71044AFB79137000BF0C37BD4680BC704700BF7C64004080B500AF224A224B1B78DBB203F00103DBB213701F4A1F4B1B78DBB223F00303DBB2137002
:403E40001C4A1C4B1B78DBB223F03003DBB21370184A184B1B78DBB243F03003DBB21370144A144B1B78DBB223F00F03DBB21370104A104B1B78DBB243F00F03DBB2137068
:403E80000D4A0D4B1B78DBB243F00103DBB2137040F2DF1000F058F840F2DF1000F066F8082000F041F800BF80BD00BF0C4F00400E4F0040174F00400D4F004080B400AFB3
:403EC0000D4A0D4B1B78DBB243F00203DBB213700A4A0A4B1B78DBB243F00203DBB21370074A074B1B78DBB243F00103DBB2137000BFBD4680BC7047A3430040B34300407F
:403F00000C4F004080B500AF064B1B78002B04D1FFF784FF034B01221A70FFF7CFFF00BF80BD00BFCFC9FF1F80B483B000AF0346FB71044AFB79137000BF0C37BD4680BC24
:403F4000704700BF0F4F004080B485B000AF0346FB80FB88FB81044AFB89138000BF1437BD4680BC704700BF104F004080B483B000AF0346FB80044AFB88138000BF0C374F
:403F8000BD4680BC704700BF124F004080B485B000AF0346FB710B4B1B78DBB223F01003FB730849FB791B01DBB203F01003DAB2FB7B1343DBB20B7000BF1437BD4680BCB7
:403FC000704700BF0051004080B500AF00F04AF8044800F017F8052000F026F800F036F800BF80BDE93F000080B500AFFCF7D2FBFEF73EFBFDF738FEFCF758FBFDF7B2FDFF
:4040000000BF80BD80B485B000AF7860054B1B68FB60FB6850337A681A6000BF1437BD4680BC704708ED00E080B483B000AF0346FB71054AFB795B01DBB2137000BF0C3753
:40404000BD4680BC704700BF04E400E080B400AF034B10221A6000BFBD4680BC704700BF00E100E080B400AF034B10221A6000BFBD4680BC704700BF80E100E080B500AF3B
:40408000064B1B78002B04D100F00AF8034B01221A7000F02DF800BF80BD00BFD0C9FF1F80B500AF0C4B72221A700C4B20221A700B490020FFF74EFB04210020FFF772FBD1
:4040C000084B06221A70084B47221A70074B02221A7000BF80BD00BF8E6400408B650040CD42000027640040376400408664004080B582B000AF01F09FF80346FB71144AC8
:40410000134B1B78DBB243F02003DBB21370114A104B1B78DBB243F01003DBB213700E4A0D4B1B78DBB243F01003DBB213700B4B01221A600A4B01221A6000F051F9FB79B6
:40414000184601F07DF800BF0837BD4680BD00BF9E6400409B6500409664004080E200E000E100E080B483B000AF064B1B78DBB203F07F03FB71FB7918460C37BD4680BC03
:40418000704700BF6B65004080B483B000AF0023FB710C4B1B78BB71BB7903F02003002B09D0094B1B78FB71BB7903F01E03002B01D00023FB71FB7918460C37BD4680BCF6
:4041C000704700BF6B6500404B64004080B485B000AF0346FB71264B1B88FB81254B1B88BB81FA89BB899A4208D2FA89BB89013B9A420CBF01230023DBB209E0FA89BB89F3
:40420000D31A40F2FF3293420CBF01230023DBB2002BE0D1BA89FB899A420AD1164B1B78DBB203F00403002B03D1144AFB79137019E0FB89B3F5806F01D30023FB81FB8986
:404240000F49FA79CA54FB890133FB81084AFB891380094B1B78DBB203F00203002B02D0084B01221A6000BF1437BD4680BC7047D4C9FF1FD2C9FF1F6664004046640040F7
:40428000E4CDFF1F00E200E080B584B000AF78600B467B800023FB810B4B1B78002B0ED009E0FB897A6813441B781846FFF78EFFFB890133FB81FA897B889A42F1D300BF6D
:4042C0001037BD4680BD00BFD0C9FF1F80B400AF18E0154B1B889BB2B3F5806F02D3124B00221A80114B104A128892B21146104A525CD2B21A700C4B1B889BB201339AB249
:40430000094B1A80084B1B889AB20A4B1B889A4206D0094B1B78DBB203F00403002BD8D000BFBD4680BC7047D2C9FF1F46640040E4CDFF1FD4C9FF1F6664004080B500AF92
:4043400000F042F8044800F00FF8022000F01EF800F02EF800BF80BD5D43000080B500AFFEF7AAFC00BF80BD80B485B000AF7860054B1B68FB60FB6858337A681A6000BF54
:404380001437BD4680BC704708ED00E080B483B000AF0346FB71054AFB795B01DBB2137000BF0C37BD4680BC704700BF06E400E080B400AF034B40221A6000BFBD4680BC61
:4043C000704700BF00E100E080B400AF034B40221A6000BFBD4680BC704700BF80E100E080B400AF094A094B1B78DBB243F00803DBB21370064A064B1B78DBB243F00803CD
:40440000DBB2137000BFBD4680BC7047A2430040B243004080B483B000AF0346FB71044AFB79137000BF0C37BD4680BC704700BF7A64004080B500AF00F042F8044800F02E
:404440000FF8022000F01EF800F02EF800BF80BD5544000080B500AFFEF734FA00BF80BD80B485B000AF7860054B1B68FB60FB6860337A681A6000BF1437BD4680BC7047EF
:4044800008ED00E080B483B000AF0346FB71054AFB795B01DBB2137000BF0C37BD4680BC704700BF08E400E080B400AF034B4FF480721A6000BFBD4680BC704700E100E054
:4044C00080B400AF034B4FF480721A6000BFBD4680BC704780E100E080B500AF064B1B78002B04D100F00AF8034B01221A7000F02DF800BF80BD00BFD8C9FF1F80B500AFBE
:404500000C4B72221A700C4B20221A700B490220FFF720F903210220FFF744F9084B06221A70084B47221A70074B02221A7000BF80BD00BF8865004089650040BD46000081
:4045400028650040386500408964004080B582B000AF00F071FE0346FB71144A134B1B78DBB243F02003DBB21370114A104B1B78DBB243F01003DBB213700E4A0D4B1B7889
:40458000DBB243F01003DBB213700B4B04221A600A4B04221A6000F0E9F8FB79184600F04FFE00BF0837BD4680BD00BF98650040996500409964004080E200E000E100E095
:4045C00080B483B000AF064B1B78DBB203F07F03FB71FB7918460C37BD4680BC704700BF6965004080B483B000AF0023FB710C4B1B78BB71BB7903F02003002B09D0094B1E
:404600001B78FB71BB7903F01E03002B01D00023FB71FB7918460C37BD4680BC704700BF696500404A65004080B483B000AF0346FB711A4B1B78002B2BD0194B04221A60F4
:40464000184B1B889AB2184B1B889A420AD1174B1B78DBB203F00403002B03D1144AFB79137013E0104B1B88B3F5006F02D30E4B00221A800C4B1B8819460E4AFB7953549D
:40468000094B1B8801339AB2074B1A800A4B04221A6000BF0C37BD4680BC7047D8C9FF1F80E100E0DAC9FF1FDCC9FF1F6964004049650040E4D1FF1F00E100E080B400AFB4
:4046C00018E0154B1B889BB2B3F5006F02D3124B00221A80114B104A128892B21146104A525CD2B21A700C4B1B889BB201339AB2094B1A80084B1B889AB20A4B1B889A42A1
:4047000006D0094B1B78DBB203F00403002BD8D000BFBD4680BC7047DAC9FF1F49650040E4D1FF1FDCC9FF1F6964004080B483B000AF0346FB71044AFB79137000BF0C3749
:40474000BD4680BC704700BF7A65004080B483B000AF0346FB71044AFB79137000BF0C37BD4680BC704700BF7965004080B400AF094A094B1B78DBB243F00203DBB213708E
:40478000064A064B1B78DBB243F00203DBB2137000BFBD4680BC7047A2430040B243004080B500AF214A214B1B78DBB203F00103DBB213701E4A1E4B1B78DBB223F00303F5
:4047C000DBB213701B4A1B4B1B78DBB223F03003DBB21370174A174B1B78DBB243F03003DBB21370134A134B1B78DBB223F00F03DBB213700F4A0F4B1B78DBB243F00F03E7
:40480000DBB213700C4A0C4B1B78DBB243F00103DBB21370EF2000F057F8EF2000F066F8082000F041F800BF80BD00BF004F0040024F00400B4F0040014F004080B400AF70
:404840000D4A0D4B1B78DBB243F00103DBB213700A4A0A4B1B78DBB243F00103DBB21370074A074B1B78DBB243F00103DBB2137000BFBD4680BC7047A3430040B3430040F7
:40488000004F004080B500AF064B1B78002B04D1FFF786FF034B01221A70FFF7CFFF00BF80BD00BFDFC9FF1F80B483B000AF0346FB71044AFB79137000BF0C37BD4680BC95
:4048C000704700BF034F004080B485B000AF0346FB80FB88FB81044AFB89138000BF1437BD4680BC704700BF044F004080B483B000AF0346FB80044AFB88138000BF0C37DE
:40490000BD4680BC704700BF064F004080B500AF00F044F8044800F011F8042000F020F800F030F800BF80BD2D49000080B500AFFDF790FEFDF78AF900BF80BD80B485B0E0
:4049400000AF7860054B1B68FB60FB684C337A681A6000BF1437BD4680BC704708ED00E080B483B000AF0346FB71054AFB795B01DBB2137000BF0C37BD4680BC704700BFBE
:4049800003E400E080B400AF034B08221A6000BFBD4680BC704700BF00E100E080B400AF034B08221A6000BFBD4680BC704700BF80E100E080B500AF224A224B1B78DBB2BF
:4049C00003F00103DBB213701F4A1F4B1B78DBB223F00303DBB213701C4A1C4B1B78DBB223F03003DBB21370184A184B1B78DBB243F03003DBB21370144A144B1B78DBB219
:404A000023F00F03DBB21370104A104B1B78DBB243F00F03DBB213700D4A0D4B1B78DBB243F00103DBB2137040F2AF4000F058F840F2AF4000F066F8082000F041F800BF21
:404A400080BD00BF184F00401A4F0040234F0040194F004080B400AF0D4A0D4B1B78DBB243F00403DBB213700A4A0A4B1B78DBB243F00403DBB21370074A074B1B78DBB2BE
:404A800043F00103DBB2137000BFBD4680BC7047A3430040B3430040184F004080B500AF064B1B78002B04D1FFF784FF034B01221A70FFF7CFFF00BF80BD00BFE0C9FF1F75
:404AC00080B483B000AF0346FB71044AFB79137000BF0C37BD4680BC704700BF1B4F004080B485B000AF0346FB80FB88FB81044AFB89138000BF1437BD4680BC704700BF46
:404B00001C4F004080B483B000AF0346FB80044AFB88138000BF0C37BD4680BC704700BF1E4F004080B500AF00F084F9044800F051F9072000F060F900F070F900BF80BD8C
:404B4000454B000080B500AFA04B1B780133DAB29E4B1A709E4B1B78002B02D1FBF758FE0CE09B4B1B78012B02D1FDF7C3FD05E0974B1B78022B01D1FDF7B4F8944B9B784B
:404B8000492B07D0924B9B78422B03D0904B9B78552B09D1002000F057FB012000F072FB002000F089FB08E1894B9B78572B28D1864B1B78012B09D8002000F045FB012091
:404BC00000F060FB002000F077FBF6E07F4B1B78022B0DD97D4B1B78032B09D8002000F033FB002000F04EFB002000F065FBE4E0764B1B78042B40F2E080744B00221A70ED
:404C0000DBE0734B9B78502B3AD1714B1B78012B2CD16F4B5B780A2B28D16C4B1B78012B09D8002000F010FB002000F02BFB012000F042FBC0E0654B1B78022B0DD9634B95
:404C40001B78032B09D8002000F0FEFA002000F019FB002000F030FBAEE05C4B1B78042B40F2AA80594B00221A70A5E0002000F0EBFA002000F006FB012000F01DFB9CE058
:404C8000534B9B78462B09D1012000F0DDFA002000F0F8FA002000F00FFB8EE04C4B9B78702B27D1494B1B78012B09D8002000F0CBFA002000F0E6FA012000F0FDFA7CE0EC
:404CC000424B1B78022B0DD9404B1B78032B09D8002000F0B9FA002000F0D4FA002000F0EBFA6AE0394B1B78042B66D9374B00221A7062E0364B9B78662B27D1334B1B7851
:404D0000012B09D8012000F09FFA002000F0BAFA002000F0D1FA50E02C4B1B78022B0DD92A4B1B78032B09D8002000F08DFA002000F0A8FA002000F0BFFA3EE0234B1B7888
:404D4000042B3AD9214B00221A7036E0204B9B78722B27D11D4B1B78012B09D8012000F073FA012000F08EFA012000F0A5FA24E0164B1B78022B0DD9144B1B78032B09D8D5
:404D8000002000F061FA002000F07CFA002000F093FA12E00D4B1B78042B0ED90B4B00221A700AE0002000F04FFA002000F06AFA002000F081FA00E000BF044B1B78642B1E
:404DC00002D9024B00221A7000BF80BDE1C9FF1FE4D9FF1F80B485B000AF7860054B1B68FB60FB6854337A681A6000BF1437BD4680BC704708ED00E080B483B000AF0346A8
:404E0000FB71054AFB795B01DBB2137000BF0C37BD4680BC704700BF05E400E080B400AF034B20221A6000BFBD4680BC704700BF00E100E080B400AF034B20221A6000BF89
:404E4000BD4680BC704700BF80E100E080B400AF054B1B78DBB203F00803DB08DBB21846BD4680BC704700BF4151004080B500AF214A214B1B78DBB203F00103DBB21370B4
:404E80001E4A1E4B1B78DBB223F00303DBB213701B4A1B4B1B78DBB223F03003DBB21370174A174B1B78DBB243F03003DBB21370134A134B1B78DBB223F00F03DBB213702E
:404EC0000F4A0F4B1B78DBB243F00F03DBB213700C4A0C4B1B78DBB243F00103DBB21370042000F057F8042000F066F8082000F041F800BF80BD00BF244F0040264F00402D
:404F00002F4F0040254F004080B400AF0D4A0D4B1B78DBB243F00803DBB213700A4A0A4B1B78DBB243F00803DBB21370074A074B1B78DBB243F00103DBB2137000BFBD461C
:404F400080BC7047A3430040B3430040244F004080B500AF064B1B78002B04D1FFF786FF034B01221A70FFF7CFFF00BF80BD00BFE2C9FF1F80B483B000AF0346FB71044A90
:404F8000FB79137000BF0C37BD4680BC704700BF274F004080B485B000AF0346FB80FB88FB81044AFB89138000BF1437BD4680BC704700BF284F004080B483B000AF034678
:404FC000FB80044AFB88138000BF0C37BD4680BC704700BF2A4F004080B485B000AF0346FB71094B1B78DBB203F07F03FB730649FB79DB01DAB2FB7B1343DBB20B7000BF80
:405000001437BD4680BC7047F051004080B485B000AF0346FB710A4B1B78DBB223F00103FB730749FB7903F00103DAB2FB7B1343DBB20B7000BF1437BD4680BC704700BF0D
:405040005051004080B485B000AF0346FB710B4B1B78DBB223F04003FB730849FB799B01DBB203F04003DAB2FB7B1343DBB20B7000BF1437BD4680BC704700BFF051004084
:4050800080B485B000AF0346FB710A4B1B78DBB223F00103FB730749FB7903F00103DAB2FB7B1343DBB20B7000BF1437BD4680BC704700BFF051004080B485B000AF03466D
:4050C000FB710B4B1B78DBB223F00203FB730849FB795B00DBB203F00203DAB2FB7B1343DBB20B7000BF1437BD4680BC704700BF5051004080B485B000AF0346FB710B4B80
:405100001B78DBB223F00403FB730849FB799B00DBB203F00403DAB2FB7B1343DBB20B7000BF1437BD4680BC704700BF5051004080B485B000AF0346FB710B4B1B78DBB29D
:4051400023F00803FB730849FB79DB00DBB203F00803DAB2FB7B1343DBB20B7000BF1437BD4680BC704700BF5051004080B400AF054B1B78DBB203F08003DB09DBB21846E0
:40518000BD4680BC704700BF6151004080B483B000AF0346FB71044AFB79137000BF0C37BD4680BC704700BF7D64004080B485B000AF0346FB710B4B1B78DBB223F0020305
:4051C000FB730849FB795B00DBB203F00203DAB2FB7B1343DBB20B7000BF1437BD4680BC704700BF6051004080B485B000AF0346FB710B4B1B78DBB223F00403FB73084970
:40520000FB799B00DBB203F00403DAB2FB7B1343DBB20B7000BF1437BD4680BC704700BF60510040000000000230800803D000BF01380046FCD17047EFF3108072B6704728
:4052400080F31088704700BF80B485B000AF0346FB710B4B1B78DBB223F04003FB730849FB799B01DBB203F04003DAB2FB7B1343DBB20B7000BF1437BD4680BC704700BF63
:405280000051004080B485B000AF0346FB71094B1B78DBB203F07F03FB730649FB79DB01DAB2FB7B1343DBB20B7000BF1437BD4680BC70470051004080B485B000AF034648
:4052C000FB710B4B1B78DBB223F00403FB730849FB799B00DBB203F00403DAB2FB7B1343DBB20B7000BF1437BD4680BC704700BF40510040014B1868704700BFDCC1FF1F70
:405300000E4B70B51E460E4C0025E41AA410A54204D056F8253098470135F8E700F048F8084B094C1E46E41AA4100025A54204D056F8253098470135F8E770BDBC53000067
:40534000BC530000BC530000C453000010B5431E0A44914204D011F8014B03F8014FF8E710BD03460244934202D003F8011BFAE77047000000000000004F004030000000ED
:4053800001400010001401400006801A0140800100400140000A004C014000020050014020000000001A0140E80A004880004300F8B500BFF8BC08BC9E4670474D000000F6
:4053C00009360000F8B500BFF8BC08BC9E46704729000000E8530000C8C0FF1F180100000818000000000000000000003200D00764003200320032003200320032003200E1
:40540000320000007E50080D0A7E440F0D0A7E48050D0A7E53030D0A244750524D430000320032002C01320032003200320032003200640032000000320032003200C8004A
:4054400032006400640032006400983A320000007E410A0D0A7E4C6F0D0A00007E33030D0A0000000D0F0E0C020100031D1F1E1C0B08090A1B18191A050706041310111203
:4054800014161715807F000003000000006CDC0280BB0000300000000000C05D0000000000000000000000000000000000000000000000000000000000000000AE530000C1
:4054C0000000000000000000000000000000000000000000000000000000000000000000000000000000000000000000000000000000000000000000000000007CC1FF1F51
:40550000000000000000000000000000000000000000000000000000000000000000000000000000000000000000000000000000000000000000000000000000000000006B
:40554000000000000000000000000000000000000000000000000000000000000000000000000000000000000000000000000000000000000000000000000000000000002B
:4055800000000000000000000000000000000000000000000000000000000000000000000000000000000000000000000000000000000000000000000000000000000000EB
:4055C00000000000000000000000000000000000000000000000000000000000000000000000000000000000000000000000000000000000000000000000000000000000AB
:020000040001F9
:0200000480007A
:40000000084F004005520040015A00400664004003650040040301400404014006050140620601403F07014058080140500901406B0A0140580B0140580C0140560D0140BA
:40004000510E0140330F01400115014003170140631801404A1901402E1A01404D1B01400D400140164101401742014009430140094401401345014007460140054701408A
:400080000348014002490140094C0140134D0140085001400451014001500A4B0D50164B1950224B25402E4B0008108A1182208021808701860F8872890F8A0F8B388E7229
:4000C000887289388B388C40E202E404EE4039083F0459045F0122048A049440E620E802EE04001C02420640081409030B040C500E0C102011031203130C140915031610EB
:4001000017041C101D0A1F0426402705284C2A112B082D10301F342035103640370F3B803E503F104043410246C047EB483849FF4AFF4BFF4EF04F44500C540156045804B0
:4001400059045A045B045C335D335F0166C06A406B0280028204950897139B099C079D089F15A116A309A408A601A716A807AF02B20CB307B403B71BB828BB8ABE10C00231
:40018000C540C9FFCA07CBFFCC40CD20CEF0CF05D008D804D904DA04DC33DD03DF01E040E1A8E240E3200001040105010614078209400C800E500F02102012181620172086
:4001C000180419041A101E441F4020412208232025402680270A29052B012C202E102F0230203288360837823C103E2040044610472248A04BC0562457025C105D015F48D7
:400200006601820194409604B204C0F8C2B1C466CA7BCCDECE20D0E4D6F0D880E602EA80EC20EE800012022403080640078009200B450C040E0A1153130C150317441828F9
:400240001A141E401F80243F25532704283F290A2B542C01304031303201334034303580360E370F39023B803E013F1456025711580459045B045C125D205F0182808413A9
:40028000866C88038A048C138D018EE4950296C89CCA9E34AA35B0A8B301B40FB502B6F0BAA2BF14C026C104C50CC60BC70EC815C9FFCAFFCBFFCEF0CF44D00CD401D60477
:4002C000D804D904DA04DB04DC02DD12DF01E6C0EA40EB02002401020302040105400620080109100A220B840E0510081540171418041A021B021D481E061F0122042308AB
:40030000255126082742281029042F1433083504368037023B803D023F284004430248185080530858115A485E1063406D406F147614770187409001910192319404960601
:4003400099029A209E149F09A008A280A304A490A508A601A70AA802AB08B352C0BFC2C5C4E2CA60CCD2CEE8D005D204D62FD801EC20EE800303041B0510070C0A010C1B16
:40038000111C130219091B101C101D141E03211028042A092D0C2F113001311F3206341838283E114006454049FF4A074BFF4C404D204EF04F05500854015604580459047A
:4003C0005A045B045C225D225F01604061A862406320807F830284468639870288028B018C088F049479960698109C18A004A301A406AA19AC47AE38B007B240B306B41881
:40040000B501B620B880BE04BF14C036C104C201C402C6C0C70EC818C9FFCAFFCBFFCC62CDA0CEF0CF41D00CD418D604D804D904DA04DB04DC02DD23DF01E640E702E91042
:40044000EA30EB10ED10EE10EF1200240120030205450604080409080A020E060F20100814041612170119101A601E101F91210122022620272029022B022F8030803211A3
:40048000388439023A403C023D203F44420143404460476049124E08500856205704580259205A405B085F02620164086640678069106A8078087A209081910192019344AB
:4004C000951096849702986099459A029E159F01A001A110A288A310A508A603AA80AB04AF20B320C0F7C2E1C4F2CA89CC0DCEF3D0F0D224D68FD8B1EA0102010301080341
:400500000A0C0E1012041A101E2022022A082C052E0A2F013101320F3430360F3A023E503F01406341044205440245C046E0480A49FF4AFF4BFF4C624DA04EF04F41500C62
:400540005608580459045A045B045C025D925F016640670269106A306B106D106E106F128601870889018B028C188D0C8F10901891039604971099189A029B049F03A0032A
:40058000A204A406A601A704A808AA10B007B102B210B301B408B51CBE14BF15D608D804D904DB04DC03DD90DF010202032005400680070408040A800B080C010E06111092
:4005C000130A140815401640180419021B041C111D6320202220238424802B202D802E022F41300432523520362039903B083F02452A4D804F22551058805C405F20624058
:40060000640969806A206B0A6D406F048044878088108F809101920193C89410960498E499049D639E159F01A001A288A310A508A621A780AC04B080B304B601C0D5C2DE0D
:40064000C4DECA12CC0FCE8ED0E0D230D638D838E044EA08EE4001140220030A0426053F06490879093F0A060C270D020E500F05142019091A591B121C7F1D20200424020B
:400680002806303E310732463320360737183A0A56025711580459045B045C335D305F0180FF8108844F85048690890C8A408C418D8C8F73904C916392A394F3960C97638E
:4006C000980299F39B0C9C03A008A1FFA40CA58FA770A804A921AD42AEB3B160B28CB380B40FB50FB67CB710B980BAA8BB20BF04D804D904DC32DF010040010A030404103D
:40070000054508410A280B800C010E060F2010A8158016141701184019081A411D041F602003220E23402501269027142B302C402D282F8132703420361A380139143B4234
:400740003E6A5B1069146A8070A8722A7D038D48C0FFC2F7C4FECAF0CCECCEFFD604E640AD01AF02E6100110021C08010A0E0B200D700E080F0C10011216141C1514160354
:400780001A031B031D091F10256C2711295C2B02320F331F341A356039203A283B803F104003474049FF4A074BFF4C404D204EF04F05500856025711580459045A045B042D
:4007C0005C115D115F01604061A862406320800282018418870288078C048F019001920294189F02A010A208A407AF01B003B204B408B502B610B701BE50BF50C052C106A0
:40080000C50CC60EC70BC815C9FFCAFFCBFFCEF0CF44D00CD418D604D804D904DA04DB04DC01DD11DF01E6C0EA40EB0200080142030805100601074009060D200E100F4056
:4008400011041302181219021B201D101E101F14200422802401250427142B022F143180360837503881390A3D803F624120470449044B60520853405520560157115A0191
:400880005E206004628268046B026D446F087580772880018B208E029101930697A89B409D04A140A710B648C0DFC27CC40CCA68CC78CEBAD044D20CD621D80DE404E6104E
:4008C0008022840C8510880489308C088D089011934694339538974398F39A0C9B089E73A0FFA17FA48FA54FA670A730A8CCA938AA33AB45AD20B04CB280B33EB40FB5702D
:40090000B630B701B980BA20BB28BE04D418D604D804D904DB04DC11DD30DF010008028A05820628072808080B490D0A0E0610AA14441502171419081E251F022081210A7D
:40094000222025802714294A2B082C442D802E0430A0310A3621370439543C803E284011420443024920504051045D016601670668AA69508018820B8680874088048B04E0
:400980008E018F0190109107930694809508960199E29B28A308A582A610A702B161C0FFC2FFC47FCAFFCCEFCE7ED00FD204D680D8B0E205E64E05023318358037023A8043
:4009C0003D4053806704C020CCF0CE30D420D8800301300233203580370456106D106F20810286109540970499029E809F12A788B580C040CCF0D440E240E42011101302E8
:400A00001560168059085D08602064208B04955097049D809E809F16A402A708AB80AF01C4F0D6C0D8C0E840EE20831087089D809F14A708B022B118E220E64008080D0415
:400A4000101030207310C20CC408CC08DC0101020202082056205C40670882208B109710A420AD04B018C00AC202D402D604D801E401EA05944097089902A420AA02B0202E
:400A8000EA01944097089902B020EC048F049D809F048D809D8008200C2080408B04944097089902C203E00108100A200C481108148080088104821084A088508C20982067
:400AC000A020B102C20FC40CE205E608EA01000E01010A080C0E0E0C0F01100A1C0A00BF01FA020310010000000080000070020000012000000104000020101800100864D0
:400B000000010100000140003F40C018C3003C02CC7033005500AA010003FF700003000C00000000000004412306040001000C0E14FFFFFF62A0F0410C000000000000004D
:400B40000404040410010001000000000000400200103010001010120000000000000000000000000000000007DBD800080000001000D02F2F002000000000000000C00DA2
:400B80000D00000000000000C000000000002400459A9A008A00000000C0C000000000006A8D850081000000F00F0F0000000000B08E0E000000000000000000000000006A
:400BC00000000000000000000000000000000000000000000000000000000000000000000000000000000000000000000000000000000000000000000000000000000000F5
:400C000000000000000000000000000000000000000000000000000000000000000000000000000000000000000000000000000000000000000000000000000000000000B4
:400C40000000000000000000000000000000000000000000000000000000000000000000000000000000000000000000000000000000000000000000000000000000000074
:400C80000000000000000000000000000000000000000000000000000000000000000000000000000000000000000000000000000000000000000000000000000000000034
:0200000490006A
:0400000000004003B9
:0200000490105A
:04000000BC90ACAF55
:0200000490303A
:02000000D5C267
:0200000490402A
:400000005555555555555555555555555555555555555555555555555555555555555555555555555555555555555555555555555555555555555555555555555555555580
:400040005555555555555555555555555555555555555555555555555555555555555555555555555555555555555555555555555555555555555555555555555555555540
:0200000490501A
:0C00000000012E16C06900012E3A962B5C
:00000001FF