:400000000040002011000000551E0000551E000080B500AF024A034B1B68136001F024FFBC760040FA46004010B5054C237833B9044B13B10448AFF300800123237010BD4D
:4000400098C1FF1F00000000383D0000084B10B51BB108490848AFF300800848036803B910BD074B002BFBD0BDE81040184700BF000000009CC1FF1F383D0000C8C0FF1FB8
:400080000000000080B500AF00F02EF862B6154B01221A70134B1B78012B0DD0022B15D0002B1DD10F4B00225A7000BF00F03EF80346002BFAD013E00A4B00225A7000BFA0
:4000C00000F050FE0346002BFAD009E0054B00225A7000BF00F07EFB0346002BFAD000BFD5E700BF0CD6FF1F80B500AF012002F011FC02F0BDFD02F069FD02F047FA02F092
:40010000F3F903F097F803F0D9F802F0A5FC02F005FD02F083FF02F0C5FF03F0ABFB03F059FC03F0EBFB00BF80BD00BF80B500AF254B1B78082B43D801A252F823F000BF73
:40014000650100006D010000C101000087010000C1010000C1010000C1010000C1010000C1010000184B01221A7029E000F07AFA00BF002000F08AFA0346002BF9D0124B2D
:4001800003221A701CE000F027F803461A460F4B1A700F4B1B781A460C4B1B7899B20D4B23F812100A4B1B780133DAB2084B1A70074B1B78C72B02D9054B00221A7000BFEF
:4001C0000023184680BD00BF78C3FF1FD4C1FF1F68C3FF1FD8C1FF1F80B500AF00F00AF80246034B1A60024B1B685B79184680BDBCC1FF1F80B400AF044B054A1A60034B6D
:400200001B681846BD4680BC704700BFBCC1FF1FB4C1FF1F80B582B000AF0023FB710FE0FB795B00FA790F49895C0F4AD154FB795B0001330C4A2021D154FB790133FB7196
:40024000FB79072BECD91021074802F0EFFA0D2002F08EFA0A2002F08BFA00BF0837BD4680BD00BF70C3FF1F7CC3FF1F80B400AF144B1B8801339AB2124B1A80114B1B886A
:40028000322B0DD90F4B00221A800F4B1B88012B11D10E4B1B781A460D4B462199540AE0084B1B884FF6E852934206D9054B00221A8000BF01E000BF00E000BFBD4680BC86
:4002C000704700BF6AC3FF1F6CC3FF1F78C3FF1F70C3FF1F80B500AFFFF79CFF00BF80BD80B582B000AF0023FB7102F0D5F90346FB71114B1B781946104AFB7953540E4B9F
:400300001B780133DAB20C4B1A700B4B1B78632B02D9094B00221A70FB79184600F010F802F0A8F9034603F02003002BDDD100BF0837BD4680BD00BFD0C3FF1FD4C3FF1F3F
:4003400080B582B000AF0346FB719C4B1B78012B78D0022B00F09780002B00D070E1984B1B78002B20D1974B1B78FA799A420ED0944B5B79FA799A4209D0924B9B7AFA79D0
:400380009A4204D08F4BDB7BFA799A420CD18C4B1B7819468C4AFB795354894B1B780133DAB2874B1A704CE0854B1B78012B41D1844B5B78FA799A420ED0824B9B79FA7904
:4003C0009A4209D07F4BDB7AFA799A4204D07D4B1B7CFA799A422DD1794B1B7819467A4AFB795354764B1B780133DAB2744B1A70724B01221A70734B9B79FA799A4203D109
:40040000724B01221A701CE06E4BDB7AFA799A4203D16E4B02221A7013E06A4B1B7CFA799A4203D1694B03221A700AE0674B00221A7006E0624B00221A70644B00221A7017
:40044000FEE0FDE05E4B1B7819465F4AFB7953545B4B1B780133DAB2594B1A70584B1B7818465A4B1B781946564A0B469B000B44134402331B7802339842C0F2E0804F4B5B
:4004800002221A70DBE04E4B1B7818464F4B1B7819464C4A0B469B000B44134402331B780233984219D1494B1B781946454A0B469B000B44134403331B78FA799A420CD138
:4004C0003F4B1B781946404AFB7953543C4B1B780133DAB23A4B1A70B0E0394B1B7818463A4B1B781946374A0B469B000B44134402331B780333984240F09680334B1B7834
:400500001946304A0B469B000B44134404331B78FA799A4240F08880294B1B7819462A4AFB795354294B1B78002B14D1FFF762FE0246274B1A60264B1B681846214B9B7898
:400540001A46244903F0E4FB234B1B8801339AB2214B1A805EE01D4B1B78012B14D100F001FF02461D4B1A601C4B1B681846154BDB791A46174903F0CBFB174B5B880133F3
:400580009AB2154B5A8045E0104B1B78022B29D100F008FF0246124B1A60114B1B681846084B1B7B1A460B4903F0B2FB0A4B9B8801339AB2084B9A802CE000BF38C4FF1FA1
:4005C00039C4FF1FCCC0FF1F3CC4FF1F4FC4FF1F9CC3FF1F3EC4FF1F8CC3FF1FB0C3FF1FBCC3FF1F184B1B78032B13D100F0DAFE0246164B1A60154B1B681846144B5B7C45
:400600001A46144903F084FB134BDB8801339AB2114BDA80114B00221A70114B00221A70094B00221A7009E00C4B00221A700C4B00221A70044B00221A7001E000E000BF1A
:4006400000BF0837BD4680BD4FC4FF1FBCC3FF1FCCC0FF1F3EC4FF1F8CC3FF1F39C4FF1F38C4FF1F80B400AF074B00221A80064B00225A80044B00229A80034B0022DA806F
:4006800000BFBD4680BC70478CC3FF1F80B483B000AF0346FB71FB79084A32F81320084B1A80074B1B88042B01D9012300E0002318460C37BD4680BC704700BF8CC3FF1F55
:4006C00050C4FF1F80B500AF00F03CFE0246274B1A60264B1B687E2283F83C20234B1B68532283F83D20214B1B680D2283F841201E4B1B680A2283F842201C4B1B687E2264
:4007000083F84320194B1B68502283F84420174B1B680D2283F84D20144B1B680A2283F84E207E2001F0DAFF492001F0D7FF104B00221A800DE00D4B1B680D4A12889B5C51
:40074000184601F0CBFF0A4B1B8801339AB2084B1A80074B1B884E2BEDD90D2001F0BEFF0A2001F0BBFF00BF80BD00BF54C4FF1F58C4FF1F80B500AF00F004FE0246134B70
:400780001A607E2001F0AAFF482001F0A7FF104B00221A800DE00D4B1B680D4A12889B5C184601F09BFF0A4B1B8801339AB2084B1A80074B1B88042BEDD90D2001F08EFFDE
:4007C0000A2001F08BFF00BF80BD00BFC8C3FF1FACC4FF1F80B582B000AFA74B5B780A2B00F2458101A252F823F000BF19080000430800004B08000061080000A708000004
:40080000ED080000110900006109000069090000A7090000670A00000023FB7106E0FB79964A5F21D154FB790133FB71FB790A2BF5D94FF47A7001F0D5FD8F4B09225A70F4
:4008400015E18D4B02225A7011E100F053FA0220FFF71CFF00F068FA874B03225A7006E100F070FD0246864B1A60854B1B68012283F83E20804B5B781A46804B4221995408
:4008800040F6B83001F0AEFD00F0DCF97C4B1B68002283F83E204FF47A7001F0A3FD764B04225A70E3E000F04DFD0246744B1A60734B1B68012283F83F206F4B5B781A465C
:4008C0006E4B4221995440F6B83001F08BFD00F0B9F96B4B1B68002283F83F204FF47A7001F080FD644B05225A70C0E000F02AFD0246634B1A60624B1B68012283F84B20E6
:4009000000F0D0F900F09EF95B4B06225A70AEE0594B5B781A46594B572199540EE000F0C1F9584B1B78002B08D0534B5B781A46524B50219954534B00221A704E4B5B781E
:400940001A464E4B9B5C502B06D04B4B5B781A464A4B9B5C462BE2D1474B07225A7086E0454B08225A7082E000F0ECFC0246444B1A60434B1B68162283F83E20404B1B6893
:40098000162283F83F203C4B5B781A463B4B4221995440F6B83001F025FD00F053F9364B09225A7063E000F04DF900F0A3F900F0C9FC0246324B1A60314B1B68012283F81C
:4009C0003F2000F0CFFC02462F4B1A6002E0002002F086F82C4B1B685B79002B04D12A4B1B689B79002BF2D0002002F079F8244B1B68002283F83F2000F096F900BF224B4C
:400A00001B685B79002BFAD100F074F900F09AFC02461B4B1A601A4B1B68012283F83E2000F0A0FC0246184B1A6000BF164B1B685B79012B06D0104B5B781A460F4B9B5C71
:400A4000462BF3D10E4B1B68002283F83E2000F06BF900BF0C4B1B689B79002BFAD1064B0A225A7003E0044B00225A7000BF002318460837BD4680BD0CD6FF1F10C5FF1F5C
:400A80006CC5FF1F0DC5FF1F80C5FF1F80B500AF02F07AFC03461A462B4B1A702A4B1A782A4B1B789A4206D1294B1B780133DAB2274B1A7002E0264B00221A70244B1B7819
:400AC000022B06D9204B1A78224B1A70204B00221A701D4B1A781D4B1A701E4B1B78012B09D11D4B01221A701C4B1B780133DAB21A4B1A7005E0184B00221A70174B0022BB
:400B00001A70164B1B784B2B08D9154B5B781A46144B46219954114B00221A70124B1B78012B07D10C4B1B78002B03D10F4B01221A7002E00D4B00221A70074B1A780A4B8F
:400B40001A7000BF80BD00BF84C5FF1F85C5FF1F86C5FF1F87C5FF1F0CC5FF1F88C5FF1F0CD6FF1F10C5FF1F89C5FF1F0DC5FF1F80B500AF054B5B78072B04D103F004F8E8
:400B800000F0D0FE00BF00BF80BD00BF0CD6FF1F80B400AF144B1B8801339AB2124B1A80114B1B88322B0DD90F4B00221A800F4B1B88012B11D10E4B5B781A460D4B4621F3
:400BC00099540AE0084B1B884FF6E852934206D9054B00221A8000BF01E000BF00E000BFBD4680BC704700BF08C5FF1F0AC5FF1F0CD6FF1F10C5FF1F80B500AF104B5B7859
:400C0000002B17D00E4B5B78032B13D00C4B5B78042B0FD00A4B5B78072B0BD0084B5B78082B07D0064B5B78092B03D0044B5B780A2B02D1FFF746FD00BF00BF80BD00BFC0
:400C40000CD6FF1F80B500AF134B5B781A46134B572199540CE0124B1B78002B08D00E4B5B781A460D4B502199540D4B00221A70094B5B781A46094B9B5C502B06D0064BA3
:400C80005B781A46054B9B5C462BE4D1002001F027FF00BF80BD00BF0CD6FF1F10C5FF1F0DC5FF1F80B500AF104B5B781A46104B4221995402F0BAFB052002F0FDFD4FF4A7
:400CC0007A7001F08FFB322002F0F6FD4FF47A7001F088FB4FF4FA7002F0EEFD4FF47A7001F080FB02F0B4FB00BF80BD0CD6FF1F10C5FF1F80B400AF074B5B781A46074B4A
:400D000042219954064B00221A80064B01221A8000BFBD4680BC70470CD6FF1F10C5FF1F08C5FF1F0AC5FF1F80B400AF0A4B00221A800A4B5B781A46094B9B5C462B06D0BA
:400D4000064B5B781A46064B5021995400BF00BFBD4680BC704700BF0AC5FF1F0CD6FF1F10C5FF1F80B582B000AFB14B5B78112B00F2F98101A252F823F000BFC50D00000F
:400D8000810E0000890E0000A10E0000CB0E0000030F00003B0F0000730F000067110000671100006711000067110000AB0F0000D50F0000451000009F100000051100000F
:400DC000671100000023FB7106E0FB79994A5F21D154FB790133FB71FB79112BF5D900F0B1FA0246944B1A6007E0934B1A68BB79B979D154BB790133BB71BB794E2BF4D95C
:400E00008D4B1B687E2283F835208B4B1B68332283F83620884B1B680D2283F83A20864B1B680A2283F83B20834B1B687E2283F83C20814B1B68532283F83D207E4B1B6808
:400E40000D2283F841207C4B1B680A2283F84220794B1B687E2283F84320774B1B68502283F84420744B1B680D2283F84D20724B1B680A2283F84E206D4B02225A7072E112
:400E80006B4B00225A706EE100F096FB00BF00F077F90346002BFAD0654B00225A7062E100F08AFB00BF00F08FF90346002B06D15F4B5B781A465F4B9B5C462BF3D100F0EA
:400EC00099FB5B4B00225A704DE100F075FB012002F008F8022001F0F5FF00BF012000F0E7FC0346002B06D1514B5B781A46514B9B5C462BF2D100F07DFB4D4B05225A709F
:400F000031E100F059FB012001F0ECFF032001F0D9FF00BF012000F0CBFC0346002B06D1434B5B781A46434B9B5C462BF2D100F061FB3F4B06225A7015E100F03DFB01200F
:400F400001F0D0FF042001F0BDFF00BF012000F0AFFC0346002B06D1354B5B781A46354B9B5C462BF2D100F045FB314B07225A70F9E000F021FB012001F0B4FF052001F05D
:400F8000A1FF00BF012000F093FC0346002B06D1274B5B781A46274B9B5C462BF2D100F029FB234B00225A70DDE000F005FB00BF00F012F90346002B06D11D4B5B781A46EA
:400FC0001C4B9B5C462BF3D100F014FB184B00225A70C8E0164B5B781A46164B42219954164B00221A80164B01221A8000BF00F017F90346002B06D10D4B5B781A460D4BFB
:401000009B5C462BF3D10E4B00221A80084B5B781A46084B9B5C462B05D0054B5B781A46044B50219954024B0E225A709BE000BF0CD6FF1FB0C6FF1F1CC6FF1FACC6FF1F84
:40104000AEC6FF1F4A4B5B781A464A4B42219954494B00221A80494B01221A8000BF00F003F90346002B06D1414B5B781A46414B9B5C462BF3D1414B00221A803C4B5B7881
:401080001A463C4B9B5C462B05D0394B5B781A46384B50219954364B0F225A7063E0012000F04EFA324B5B781A46324B42219954314B00221A80314B01221A8000BF00F0BF
:4010C000F1F80346002B06D1294B5B781A46294B9B5C462BF3D1294B00221A80002000F02FFA234B5B781A46224B9B5C462B05D01F4B5B781A461F4B502199541C4B1022C3
:401100005A7030E01A4B5B781A461A4B42219954194B00221A80194B01221A8000BF00F0F9F80346002B06D1114B5B781A46114B9B5C462BF3D1114B00221A800C4B5B7803
:401140001A460C4B9B5C462B05D0094B5B781A46084B502199544FF47A7001F043F9044B00225A7000BF002318460837BD4680BD0CD6FF1FB0C6FF1FACC6FF1FAEC6FF1F39
:4011800080B582B000AF00233B60012000F0D8F90023FB7106E0FB79184600F0E9FBFB790133FB71FB791F2BF5D9002000F0C8F93B686FF07F42934201D1012300E000235C
:4011C00018460837BD4680BD80B400AF01231846BD4680BC704700BF80B500AF00F0D2F802460E4B1A600D4B1B6873221A700B4B1B6873225A70094B1B6873229A70074B45
:401200001B687322DA70054B1B6873221A71012001F09EFB0023184680BD00BF28C6FF1F80B500AF00F07EF802460D4B1A6000F089F802460B4B1A600A4B1B68002283F8C3
:401240004920084B1B68FF2283F84920044B1B68DB79FF2B01D0002300E00123184680BDB4C5FF1F1CC6FF1F80B582B000AF00F059F802460A4B1A600023FB71084B1B68DD
:401280001B79FB71FB797C2B04D8FB79732B01D9012300E0002318460837BD4680BD00BFB4C5FF1F80B582B000AF0023FB7100237B7100F037F80246144B1A6000F042F8D3
:4012C0000246134B1A600023BB7110E0BB79184600F078F803467B71FB795B005AB297F9053013435BB2FB71BB790133BB71BB79032BEBD9FB7903F00F030F2B01D1012396
:4013000000E0002318460837BD4680BDB4C5FF1F1CC6FF1F80B400AF00231846BD4680BC704700BF80B400AF044B054A1A60034B1B681846BD4680BC704700BFB4C5FF1FA7
:40134000A4C5FF1F80B400AF044B054A1A60034B1B681846BD4680BC704700BF1CC6FF1FCCC5FF1F80B400AF044B054A1A60034B1B681846BD4680BC704700BFC8C5FF1FCE
:40138000B8C5FF1F80B400AF044B054A1A60034B1B681846BD4680BC704700BF28C6FF1F20C6FF1F80B400AF044B054A1A60034B1B681846BD4680BC704700BF34C6FF1FAC
:4013C0002CC6FF1F80B584B000AF0346FB710023FB73FFF7A7FF0246184B1A60FB79002B04D1164B1B681B78FB7319E0FB79012B04D1124B1B685B78FB7311E0FB79022B44
:4014000004D10E4B1B689B78FB7309E0FB79032B04D10A4B1B68DB78FB7301E0002308E0FB7B0A2B04D8FB7B072B01D9012300E0002318461037BD4680BD00BFB4C5FF1F2A
:4014400080B400AF00BFBD4680BC704780B500AF254B5B78042B1BD0234B5B78052B17D0214B5B78062B13D01F4B5B78072B0FD01D4B5B78082B0BD01B4B5B78092B07D00D
:40148000194B5B780A2B03D0174B5B780B2B01D100F028FA154B1B8801339AB2134B1A80124B1B88322B10D9104B00221A80104B1B88012B14D10C4B5B781A460D4B46216E
:4014C0009954094B46229A700AE0084B1B884FF6E852934206D9054B00221A8000BF01E000BF00E000BF80BD0CD6FF1FACC6FF1FAEC6FF1FB0C6FF1F80B500AF0F4B5B7818
:40150000022B0FD00D4B5B78032B0BD00B4B5B780C2B07D0094B5B780D2B03D0074B5B780F2B01D1FFF7CEF8044B5B780C2B02D1FFF720F900BF00BF80BD00BF0CD6FF1F60
:4015400080B582B000AF0346FB71FFF7FBFE0246184B1A60FB79012B14D1164B1B68FF2283F84520134B1B68FF2283F84620114B1B68FF2283F847200E4B1B68FF2283F8E5
:40158000482014E00B4B1B68002283F84520094B1B68002283F84620064B1B68002283F84720044B1B68002283F8482000BF0837BD4680BD1CC6FF1F80B400AF094B5B7823
:4015C0001A46094B42219954064B42229A70074B00221A80064B01221A8000BFBD4680BC704700BF0CD6FF1FB0C6FF1FACC6FF1FAEC6FF1F80B400AF0B4B00221A800B4B97
:401600005B781A460A4B9B5C462B09D0074B5B781A46074B50219954044B50229A7000BF00BFBD4680BC7047AEC6FF1F0CD6FF1FB0C6FF1F80B582B000AF0023FB7101F0B1
:401640009DFB0346FB71114B1B781946104AFB7953540E4B1B780133DAB20C4B1A700B4B1B78632B02D9094B00221A70FB79184600F010F801F070FB034603F02003002BCB
:40168000DDD100BF0837BD4680BD00BF78C7FF1F7CC7FF1F80B483B000AF0346FB717E4B1B78012B5AD0022B78D0002B00D0EDE07A4B1B78002B16D1794B1B78FA799A42F7
:4016C00004D0774B5B79FA799A420CD1734B1B781946744AFB795354704B1B780133DAB26E4B1A7039E06D4B1B78012B2ED16C4B5B78FA799A4204D0694B9B79FA799A4227
:4017000024D1664B1B781946664AFB795354634B1B780133DAB2614B1A705F4B01221A705F4B5B78FA799A4203D15F4B00221A7013E05B4B9B79FA799A4203D15A4B01222A
:401740001A700AE0584B00221A7006E0534B00221A70554B00221A7098E097E04F4B1B781946504AFB7953544C4B1B780133DAB24A4B1A70494B1B7818464B4B1B781946E4
:40178000474A0B469B000B44134402331B78023398427ADB404B02221A7076E03F4B1B781846414B1B7819463D4A0B469B000B44134402331B780233984219D13A4B1B7860
:4017C0001946374A0B469B000B44134403331B78FA799A420CD1314B1B781946314AFB7953542E4B1B780133DAB22C4B1A704BE02A4B1B7818462C4B1B781946284A0B46F4
:401800009B000B44134402331B780333984231D1254B1B781946224A0B469B000B44134404331B78FA799A4224D11C4B1B7819461C4AFB7953541C4B1B78002B06D11B4BE3
:401840001B8801339AB2194B1A8009E0164B1B78012B05D1154B5B8801339AB2134B5A800E4B00221A700C4B00221A700E4B00221A7009E0094B00221A70074B00221A7079
:40188000094B00221A7001E000E000BF00BF0C37BD4680BC704700BFE0C7FF1FE1C7FF1FE8C0FF1FE4C7FF1F57C8FF1FECC6FF1F80B483B000AF0346FB71FB79084A32F80F
:4018C0001330042B06D9FB79054A002122F81310012300E0002318460C37BD4680BC7047ECC6FF1F80B582B000AF7E2001F068FA4C2001F065FA0023FB7106E0FB791846DE
:4019000001F05EFAFB790133FB71FB796E2BF5D90D2001F055FA0A2001F052FA00BF0837BD4680BD80B400AF084B1B8801339AB2064B1A80054B1B88642B03D9034B00224B
:401940001A8000BF00BFBD4680BC704758C8FF1F80B483B000AF0346FB71FB79034AD35C18460C37BD4680BC704700BFF4C0FF1F80B584B000AF0346FB710023FB73FB7966
:401980001846FFF7E5FF0346FB73FB7B072B02D8002001F0A5F800BF1037BD4680BD00BF80B582B000AF786039603A680021786802F0B9F900BF0837BD4680BD80B584B08E
:4019C00000AFF860B9607A607A68B968F86802F09FF900BF1037BD4680BD00BF80B483B000AF0346FB71FEE780B487B000AF7860396000233B6100237B6127E07B699B007C
:401A00007A6813441B68BB60BB68FB73BB6823F0FF03BB6014E03B695B003A6813441B781A46BB68134419463B695B003A6813445B780B703B6901333B61FB7B013BFB7359
:401A4000FB7B002BE7D17B6901337B617B691F2BD4D900BF1C37BD4680BC704780B582B000AF4A4B4BF67F321A80494B18221A70484B0C221A80484B18221A70474B192228
:401A80001A80474B18221A70464B40F2DF121A80454B18221A70454B40F2CF721A80444B18221A70042243494348FFF787FF434B06221A70424B52221A70424B424A12787D
:401AC000D2B21A70414B4FF4E2621A80404B41F251221A800023FB7019237B6014E0FB785B00DAB23B4B1B78DBB203F00103DBB21343DBB203F00303FB704FF4F07002F067
:401B0000CBF87B68013B7B607B68002B02D0FB78032BE4D17B68002B02D10320FFF75EFF2D4B4FF480721A802B4B07221A702B4B00221A702A4B48221A70274B00221A7042
:401B4000284B00221A70284B02221A70274B04221A70274A264B1B78DBB243F01F03DBB21370244A234B1B78DBB243F00103DBB21370214A204B1B78DBB263F07F03DBB201
:401B8000137000BF0837BD4680BD00BF80400040824000408440004086400040884000408A4000408C4000408E400040904000409240004070080048004100400043004087
:401BC00000420040A14600400F01004922420040204200402542004004400040064000400840004009400040014000400B400040A2430040A1430040A043004080B582B0FC
:401C000000AF224B1B78FB71214B1B78BB71214B1B787B71204AFB7903F00703DBB213701E4AFB791B09DBB21370194ABB7943F00303DBB21370174A7B7943F00303DBB27D
:401C40001370174B10221A70164B40221A70164B40221A70154B10221A70154B10221A70144B20221A70144B10221A700A2000F0DBFB084A7B791370054ABB7913700F4B92
:401C800044221A7000BF0837BD4680BDCF010049F8460040F94600406E5800406F5800403D5100400159004003590040905A0040205B0040235B0040585B0040765800402B
:401CC00080B586B000AF72B60023FB7513E0FA7D13465B0013445B00494A13443B613B691A683B699B889BB219461046FFF758FEFB7D0133FB75FB7D092BE8D90023FB7562
:401D00001CE0FA7D13469B0013445B003D4A1344FB60FB681B68BB60FB685B687B60FB681A7A5B7A1B0213437B807B881A467968B868FFF743FEFB7D0133FB75FB7D002BBB
:401D4000DFD031494FF09040FFF74EFE04212F48FFF726FE04212E48FFF722FE2D4A2D4B1B78DBB243F00203DBB213702A4A2A4B1B78DBB243F00203DBB21370274A274BF7
:401D80001B78DBB243F04003DBB21370244A244B1B78DBB243F01003DBB21370082221492148FFF70BFE082220492148FFF706FE082220492048FFF701FE08221F4920484E
:401DC000FFF7FCFD1F4A1F4B1B78DBB243F00803DBB213701C4B61221A70FFF73FFE1A4BC1221A70194B01221A70FFF707FF0E220A491748FFF7E2FD00BF1837BD4680BD28
:401E00003C3D0000783D00008000004800760040087600400350014013500140A0430040C2430040500800480251004058080048C25100406008004822510040680800484F
:401E400032510040224300400048004004000840B043004080B500AF01F02EFF03461B680C2B00D1FEE7FEE780B586B000AF224B7B61224B3B61204B7B6135E03B691B6864
:401E8000FB603B695B68BB603B699B683B6000237B600CE0FB681A68BB681A60BB680433BB60FB680433FB607B6804337B607A683B689A42EED13B69DB683B6000237B6098
:401EC00008E0BB6800221A60BB680433BB607B6804337B607A683B689A42F2D13B6910333B617B69013B7B617B69002BC6D101F0E9FEFEF7C7F8FEE701000000743E000064
:401F000080B582B000AF194B194A1A60194A194B1B6843F40073136000237B600FE07B68032B04D8144A7B6852F8233000E0134B13497A6841F822307B6801337B607B684F
:401F40002F2BECD90F4B1B78DAB20F4B1A700F4B0B4A1A60FFF7B4FE00F01CF80C4B00221A6000BF0837BD4680BD00BF0CED00E00004FA0514ED00E000000000551E0000F0
:401F800000C0FF1FBC760040C4C0FF1F08ED00E0C0C0FF1F80B483B000AF134B7F221A70124B80221A707F23FB710CE0FB79DB0003F1804303F5F043FA79013AD2B21A70AD
:401FC000FB79013BFB71FB79002BEFD1FB79DB0003F1804303F5F04300221A7000BF0C37BD4680BC704700BF15C1FF1F14C1FF1F80B485B000AF03460A46FB711346BB7149
:402000000123FB60FB79172B2FD8BB79002B0ED0FB791A01184B1344FA791101164A0A441278D2B242F02002D2B21A700DE0FB791A01114B1344FA7911010F4A0A44127856
:40204000D2B222F02002D2B21A70FB791A010A4B1344FA791101084A0A441278D2B242F00102D2B21A700023FB60FB6818461437BD4680BC704700BF1070004080B485B081
:4020800000AF0346FB710123FB60FB79172B1DD8FB791A01104B1344FA7911010E4A0A441278D2B222F00102D2B21A70FB791A01094B1344FA791101074A0A441278D2B289
:4020C00022F02002D2B21A700023FB60FB6818461437BD4680BC70471070004080B485B000AF03460A46FB711346BB710123FB60FB79172B1BD8FB791A01104B13441B78C0
:40210000DBB223F00E03FB72FB791A010B4B1344BA795200D2B252B202F00E0251B297F90B200A4352B2D2B21A700023FB60FB6818461437BD4680BC704700BF107000401A
:4021400080B485B000AF0346FB710B46BB8013467B800123FB60BB8841F6FF72934202D14FF40053BB807B8841F6FF72934202D14FF400537B80FB79172B17D8FB79DB00F7
:4021800003F1804303F5EC430433BB60BB68BA881A80FB79DB0003F1804303F5EC430633BB60BB687A881A800023FB60FB6818461437BD4680BC704780B485B000AF0346CF
:4021C0000A46FB711346BB710123FB60FB79172B07D8FB791A01064B1344BA795A720023FB60FB6818461437BD4680BC704700BF1070004090B484B000AF0446084611463F
:402200001A462346FB710346BB710B467B7113463B710123FB60FB79172B34D8FB79DB0003F1804303F5EC43BA7902F07F02D1B27A79D201D2B20A43D2B21A70FB79DB0027
:4022400003F1804303F5EC433A7E1201D1B23A7902F00F02D2B20A43D2B25A70FB79DB0003F1804303F5EC433A7F02F00F02D2B29A70FB79DB0003F1804303F5EC43002297
:40228000DA700023FB60FB6818461037BD4690BC704700BF80B582B000AFFF23FB7101F003FD0346BB71104B1B78182B12D90F4B1B78FB710C4B1B78013BDAB20A4B1A7079
:4022C000FB79DB0003F1804303F5F0431B78DAB2064B1A70BB79184601F0EAFCFB7918460837BD4680BD00BF14C1FF1F15C1FF1F90B484B000AF0446084611461A46234674
:40230000FB710346BB800B46BB711346FB700123FB6097F90730002B23DBBB8823F47F6323F00F039BB2002B1BD1FB79DB0003F1804303F5F043BB60BB68BA881A80FB7979
:40234000DB0003F1804303F5F043BA799A70FB79DB0003F1804303F5F043FA78DA700023FB60FB6818461037BD4690BC704700BF80B485B000AF0346FB710B46BB80134679
:402380007B800123FB6097F90730002B17DBFB79DB0003F1804303F5F0430433BB60BB68BA881A80FB79DB0003F1804303F5F0430633BB60BB687A881A800023FB60FB6818
:4023C00018461437BD4680BC704700BF80B483B000AF0346FB7101BE00BF0C37BD4680BC704700BF80B582B000AF786008E00C4B1B68184601F050FC7B68A3F500437B605A
:402400007B68B3F5004FF2D8064B1B687A6802FB03F3184601F040FC00BF0837BD4680BD28C1FF1F20C1FF1F80B582B000AF0346FB80FB88054A127802FB03F3184601F008
:402440002BFC00BF0837BD4680BD00BF24C1FF1F80B584B000AF03463960FB710F4B1B68FB60FB791F2B02D90020FFF7AFFFFB7903F01F0310339B00FA6813441B68BB607C
:40248000FB7903F01F0310339B00FA6813443A681A60BB6818461037BD4680BD08ED00E080B582B000AF03460A46FB711346BB71BB79072B02D90020FFF788FFFB791F2BC7
:4024C00002D90020FFF782FFFB7903F01F0303F1604303F56443BA795201D2B21A7000BF0837BD4680BD00BF80B500AF00F042F8044800F00FF8022000F01EF800F02EF88B
:4025000000BF80BD0925000080B500AFFDF7E8FE00BF80BD80B485B000AF7860054B1B68FB60FB685C337A681A6000BF1437BD4680BC704708ED00E080B483B000AF034617
:40254000FB71054AFB795B01DBB2137000BF0C37BD4680BC704700BF07E400E080B400AF034B80221A6000BFBD4680BC704700BF00E100E080B400AF034B80221A6000BFB0
:40258000BD4680BC704700BF80E100E080B500AF064B1B78002B04D100F00AF8034B01221A7000F02DF800BF80BD00BF24C9FF1F80B500AF0C4B72221A700C4B20221A7019
:4025C0000B490120FFF744FF03210120FFF768FF084B06221A70084B47221A70074B02221A7000BF80BD00BF816400408264004071280000206400403064004087650040DD
:4026000080B582B000AF01F04FFB0346FB71144A134B1B78DBB243F02003DBB21370114A104B1B78DBB243F01003DBB213700E4A0D4B1B78DBB243F01003DBB213700B4BAA
:4026400002221A600A4B02221A6000F049F9FB79184601F02DFB00BF0837BD4680BD00BF91640040926400409765004080E200E000E100E080B483B000AF064B1B78DBB27E
:4026800003F07F03FB71FB7918460C37BD4680BC704700BF6264004080B483B000AF0023FB710C4B1B78BB71BB7903F02003002B09D0094B1B78FB71BB7903F01E03002B9A
:4026C00001D00023FB71FB7918460C37BD4680BC704700BF626400404564004080B483B000AF0346FB711A4B1B78002B2BD0194B02221A60184B1B889AB2184B1B889A42A2
:402700000AD1174B1B78DBB203F00403002B03D1144AFB79137013E0104B1B88B3F5806F02D30E4B00221A800C4B1B8819460E4AFB795354094B1B8801339AB2074B1A804D
:402740000A4B02221A6000BF0C37BD4680BC704724C9FF1F80E100E026C9FF1F28C9FF1F67650040446400400CCAFF1F00E100E080B485B000AF0346FB71264B1B88FB8100
:40278000254B1B88BB81FA89BB899A4208D2FA89BB89013B9A420CBF01230023DBB209E0FA89BB89D31A40F2FF3293420CBF01230023DBB2002BE0D1BA89FB899A420AD101
:4027C000164B1B78DBB203F00403002B03D1144AFB79137019E0FB89B3F5806F01D30023FB81FB890F49FA79CA54FB890133FB81084AFB891380094B1B78DBB203F002030D
:40280000002B02D0084B02221A6000BF1437BD4680BC704728C9FF1F26C9FF1F67650040446400400CCAFF1F00E200E080B584B000AF78600B467B800023FB810B4B1B7820
:40284000002B0ED009E0FB897A6813441B781846FFF78EFFFB890133FB81FA897B889A42F1D300BF1037BD4680BD00BF24C9FF1F80B400AF18E0154B1B889BB2B3F5806F09
:4028800002D3124B00221A80114B104A128892B21146104A525CD2B21A700C4B1B889BB201339AB2094B1A80084B1B889AB20A4B1B889A4206D0094B1B78DBB203F004031A
:4028C000002BD8D000BFBD4680BC704726C9FF1F446400400CCAFF1F28C9FF1F6765004080B400AF094A094B1B78DBB243F00403DBB21370064A064B1B78DBB243F004035D
:40290000DBB2137000BFBD4680BC7047A2430040B243004080B485B000AF0346FB710B4B1B78DBB223F01003FB730849FB791B01DBB203F01003DAB2FB7B1343DBB20B70CD
:4029400000BF1437BD4680BC704700BF0051004080B483B000AF0346FB71044AFB79137000BF0C37BD4680BC704700BF7264004080B500AF224A224B1B78DBB203F0010356
:40298000DBB213701F4A1F4B1B78DBB223F00303DBB213701C4A1C4B1B78DBB223F03003DBB21370184A184B1B78DBB243F03003DBB21370144A144B1B78DBB223F00F034B
:4029C000DBB21370104A104B1B78DBB243F00F03DBB213700D4A0D4B1B78DBB243F00103DBB2137040F2DF1000F058F840F2DF1000F066F8082000F041F800BF80BD00BFAB
:402A00000C4F00400E4F0040174F00400D4F004080B400AF0D4A0D4B1B78DBB243F00203DBB213700A4A0A4B1B78DBB243F00203DBB21370074A074B1B78DBB243F0010317
:402A4000DBB2137000BFBD4680BC7047A3430040B34300400C4F004080B500AF064B1B78002B04D1FFF784FF034B01221A70FFF7CFFF00BF80BD00BF2BC9FF1F80B483B066
:402A800000AF0346FB71044AFB79137000BF0C37BD4680BC704700BF0F4F004080B485B000AF0346FB80FB88FB81044AFB89138000BF1437BD4680BC704700BF104F00407A
:402AC00080B483B000AF0346FB80044AFB88138000BF0C37BD4680BC704700BF124F004080B485B000AF0346FB710B4B1B78DBB223F02003FB730849FB795B01DBB203F0B8
:402B00002003DAB2FB7B1343DBB20B7000BF1437BD4680BC704700BF2051004080B500AF00F048F8044800F015F8052000F024F800F034F800BF80BD3D2B000080B500AFB0
:402B4000FDF794FBFEF782FCFEF722F8FDF79EFF00BF80BD80B485B000AF7860054B1B68FB60FB6854337A681A6000BF1437BD4680BC704708ED00E080B483B000AF03462B
:402B8000FB71054AFB795B01DBB2137000BF0C37BD4680BC704700BF05E400E080B400AF034B20221A6000BFBD4680BC704700BF00E100E080B400AF034B20221A6000BF2C
:402BC000BD4680BC704700BF80E100E080B500AF00F042F8044800F00FF8022000F01EF800F02EF800BF80BDED2B000080B500AFFEF720FD00BF80BD80B485B000AF78605A
:402C0000054B1B68FB60FB6860337A681A6000BF1437BD4680BC704708ED00E080B483B000AF0346FB71054AFB795B01DBB2137000BF0C37BD4680BC704700BF08E400E0C2
:402C400080B400AF034B4FF480721A6000BFBD4680BC704700E100E080B400AF034B4FF480721A6000BFBD4680BC704780E100E080B500AF064B1B78002B04D100F00AF86E
:402C8000034B01221A7000F02DF800BF80BD00BF2CC9FF1F80B500AF0C4B72221A700C4B20221A700B490220FFF7D2FB07210220FFF7F6FB084B06221A70084B47221A7005
:402CC000074B02221A7000BF80BD00BF8565004086650040552E000027650040376500408764004080B582B000AF00F0DDFF0346FB71144A134B1B78DBB243F02003DBB218
:402D00001370114A104B1B78DBB243F01003DBB213700E4A0D4B1B78DBB243F01003DBB213700B4B04221A600A4B04221A6000F0E9F8FB79184600F0BBFF00BF0837BD4685
:402D400080BD00BF95650040966500409764004080E200E000E100E080B483B000AF064B1B78DBB203F07F03FB71FB7918460C37BD4680BC704700BF6665004080B483B000
:402D800000AF0023FB710C4B1B78BB71BB7903F02003002B09D0094B1B78FB71BB7903F01E03002B01D00023FB71FB7918460C37BD4680BC704700BF66650040456500408C
:402DC00080B483B000AF0346FB711A4B1B78002B2BD0194B04221A60184B1B889AB2184B1B889A420AD1174B1B78DBB203F00403002B03D1144AFB79137013E0104B1B8816
:402E0000B3F5006F02D30E4B00221A800C4B1B8819460E4AFB795354094B1B8801339AB2074B1A800A4B04221A6000BF0C37BD4680BC70472CC9FF1F80E100E02EC9FF1F0C
:402E400030C9FF1F67640040476400400CCEFF1F00E100E080B400AF18E0154B1B889BB2B3F5006F02D3124B00221A80114B104A128892B21146104A525CD2B21A700C4B04
:402E80001B889BB201339AB2094B1A80084B1B889AB20A4B1B889A4206D0094B1B78DBB203F00403002BD8D000BFBD4680BC70472EC9FF1F476400400CCEFF1F30C9FF1FC3
:402EC0006764004080B483B000AF0346FB71044AFB79137000BF0C37BD4680BC704700BF7665004080B483B000AF0346FB71044AFB79137000BF0C37BD4680BC704700BF1E
:402F00007464004080B400AF094A094B1B78DBB243F00203DBB21370064A064B1B78DBB243F00203DBB2137000BFBD4680BC7047A2430040B243004080B500AF214A214BB4
:402F40001B78DBB203F00103DBB213701E4A1E4B1B78DBB223F00303DBB213701B4A1B4B1B78DBB223F03003DBB21370174A174B1B78DBB243F03003DBB21370134A134BBB
:402F80001B78DBB223F00F03DBB213700F4A0F4B1B78DBB243F00F03DBB213700C4A0C4B1B78DBB243F00103DBB21370EF2000F057F8EF2000F066F8082000F041F800BFC5
:402FC00080BD00BF004F0040024F00400B4F0040014F004080B400AF0D4A0D4B1B78DBB243F00103DBB213700A4A0A4B1B78DBB243F00103DBB21370074A074B1B78DBB2BF
:4030000043F00103DBB2137000BFBD4680BC7047A3430040B3430040004F004080B500AF064B1B78002B04D1FFF786FF034B01221A70FFF7CFFF00BF80BD00BF33C9FF1FD2
:4030400080B483B000AF0346FB71044AFB79137000BF0C37BD4680BC704700BF034F004080B485B000AF0346FB80FB88FB81044AFB89138000BF1437BD4680BC704700BFF8
:40308000044F004080B483B000AF0346FB80044AFB88138000BF0C37BD4680BC704700BF064F004080B500AF00F044F8044800F011F8042000F020F800F030F800BF80BD5E
:4030C000C530000080B500AFFEF7BAF9FDF750FD00BF80BD80B485B000AF7860054B1B68FB60FB6850337A681A6000BF1437BD4680BC704708ED00E080B483B000AF03467E
:40310000FB71054AFB795B01DBB2137000BF0C37BD4680BC704700BF04E400E080B400AF034B10221A6000BFBD4680BC704700BF00E100E080B400AF034B10221A6000BFC7
:40314000BD4680BC704700BF80E100E080B500AF224A224B1B78DBB203F00103DBB213701F4A1F4B1B78DBB223F00303DBB213701C4A1C4B1B78DBB223F03003DBB2137016
:40318000184A184B1B78DBB243F03003DBB21370144A144B1B78DBB223F00F03DBB21370104A104B1B78DBB243F00F03DBB213700D4A0D4B1B78DBB243F00103DBB2137062
:4031C00040F2AF4000F058F840F2AF4000F066F8082000F041F800BF80BD00BF184F00401A4F0040234F0040194F004080B400AF0D4A0D4B1B78DBB243F00403DBB213704D
:403200000A4A0A4B1B78DBB243F00403DBB21370074A074B1B78DBB243F00103DBB2137000BFBD4680BC7047A3430040B3430040184F004080B500AF064B1B78002B04D1F1
:40324000FFF784FF034B01221A70FFF7CFFF00BF80BD00BF34C9FF1F80B483B000AF0346FB71044AFB79137000BF0C37BD4680BC704700BF1B4F004080B485B000AF03466E
:40328000FB80FB88FB81044AFB89138000BF1437BD4680BC704700BF1C4F004080B483B000AF0346FB80044AFB88138000BF0C37BD4680BC704700BF1E4F004080B500AF3F
:4032C00000F056F8044800F023F8072000F032F800F042F800BF80BDDD32000080B500AF0A4B1B78002B02D1FCF7F4FF0CE0074B1B78012B02D1FEF7FFF805E0034B1B7891
:40330000022B01D1FDF778FC00BF80BD0CD6FF1F80B485B000AF7860054B1B68FB60FB6858337A681A6000BF1437BD4680BC704708ED00E080B483B000AF0346FB71054AD3
:40334000FB795B01DBB2137000BF0C37BD4680BC704700BF06E400E080B400AF034B40221A6000BFBD4680BC704700BF00E100E080B400AF034B40221A6000BFBD4680BC9F
:40338000704700BF80E100E080B400AF054B1B78DBB203F00803DB08DBB21846BD4680BC704700BF3151004080B500AF00F030F9022000F07FF9042000F09CF9FEF76AFF32
:4033C00003461A46084B1A70FEF764FF03461A46064B1A706421064800F04EF86421054800F07EF800BF80BD38C9FF1F39C9FF1F843D0000E83D000080B500AF00F026F916
:40340000084B1B7801211846FEF7F2FD064B1B7801211846FEF7ECFD002000F08BF900BF80BD00BF36C9FF1F37C9FF1F80B500AF064B1B78002B04D1FFF7B6FF034B012292
:403440001A70FFF7D9FF00BF80BD00BF35C9FF1F80B500AF064B1B781846FEF70FFE054B1B781846FEF70AFE00F00AF900BF80BD36C9FF1F37C9FF1F80B582B000AF78609F
:403480000B467B807B681B0C9AB24FF480430121012000F059F803461A460F4B1A700F4B18780E4B1A7879880123FEF721FF0B4B1B787A6891B245F682321846FEF758FF9D
:4034C000054B1A78054B1B7819461046FEF774FE00BF0837BD4680BD36C9FF1F38C9FF1F80B582B000AF78600B467B807B681B0C9AB24FF480430121012000F057F8034610
:403500001A460F4B1A700F4B18780E4B1A7879880123FEF7EDFE0B4B1B787A6891B245F682321846FEF724FF054B1A78054B1B7819461046FEF740FE00BF0837BD4680BD0F
:4035400037C9FF1F39C9FF1F90B585B002AF0446084611461A462346FB710346BB710B46BB8013467B80104B00221A700E4B1878BA79F97900230193002300930023FEF74F
:4035800039FE094B1B787A88B9881846FEF7D8FD054B1B7802211846FEF7A0FD024B1B7818460C37BD4690BD2CC1FF1F90B585B002AF0446084611461A462346FB71034618
:4035C000BB710B46BB8013467B80104B01221A700E4B1878BA79F97900230193002300930023FEF707FE094B1B787A88B9881846FEF7A6FD054B1B7802211846FEF76EFDBB
:40360000024B1B7818460C37BD4690BD2DC1FF1F80B500AF0A4B00221A700A4B00221A70094A094B1B78DBB243F00803DBB21370002000F05FF8022000F03CF800BF80BD09
:403640002858004029580040975A004080B400AF094A094B1B78DBB243F00403DBB21370064A064B1B78DBB243F00403DBB2137000BFBD4680BC7047A8430040B84300407E
:4036800080B400AF094A094B1B78DBB223F00403DBB21370064A064B1B78DBB223F00403DBB2137000BFBD4680BC7047A8430040B843004080B483B000AF0346FB710C4A0F
:4036C0000B4B1B78DBB223F00203DBB213700849074B1B78DAB2FB7903F00203DBB21343DBB20B7000BF0C37BD4680BC704700BF2858004080B582B000AF0346FB710C4A7B
:403700000B4B1B78DBB223F00C03DBB213700849074B1B78DAB2FB7903F00C03DBB21343DBB20B7000F016F800BF0837BD4680BD2858004080B483B000AF0346FB71044AA9
:40374000FB79137000BF0C37BD4680BC704700BF825B004080B483B000AF0B4B1B78DBB203F00C039B08DBB20633FB71074AFB7903F1924303F594731B78DBB2137000BF2C
:403780000C37BD4680BC7047285800400A46004080B500AF214A214B1B78DBB203F00103DBB213701E4A1E4B1B78DBB223F00303DBB213701B4A1B4B1B78DBB223F0300353
:4037C000DBB21370174A174B1B78DBB243F03003DBB21370134A134B1B78DBB223F00F03DBB213700F4A0F4B1B78DBB243F00F03DBB213700C4A0C4B1B78DBB243F0010324
:40380000DBB21370042000F057F8042000F066F8082000F041F800BF80BD00BF244F0040264F00402F4F0040254F004080B400AF0D4A0D4B1B78DBB243F00803DBB21370BD
:403840000A4A0A4B1B78DBB243F00803DBB21370074A074B1B78DBB243F00103DBB2137000BFBD4680BC7047A3430040B3430040244F004080B500AF064B1B78002B04D19B
:40388000FFF786FF034B01221A70FFF7CFFF00BF80BD00BF3AC9FF1F80B483B000AF0346FB71044AFB79137000BF0C37BD4680BC704700BF274F004080B485B000AF034614
:4038C000FB80FB88FB81044AFB89138000BF1437BD4680BC704700BF284F004080B483B000AF0346FB80044AFB88138000BF0C37BD4680BC704700BF2A4F004080B500AFE1
:4039000000F05CF8044800F029F8072000F038F800F048F800BF80BD1D39000098B500AF0C4B1B881C4600F03FF903469AB20A4B23F81420074B1B8801339AB2054B1A8005
:40394000044B1B88642B02D9024B00221A8000BF98BD00BF3CC9FF1F40C9FF1F80B485B000AF7860054B1B68FB60FB684C337A681A6000BF1437BD4680BC704708ED00E094
:4039800080B483B000AF0346FB71054AFB795B01DBB2137000BF0C37BD4680BC704700BF03E400E080B400AF034B08221A6000BFBD4680BC704700BF00E100E080B400AFA2
:4039C000034B08221A6000BFBD4680BC704700BF80E100E080B500AF064B1B78002B04D100F00AF8034B01221A7000F029F800BF80BD00BF08CAFF1F80B500AF102000F0AB
:403A000031F907210020FEF74BFD0A490020FEF71FFD094A084B1B78DBB243F00603DBB213700C2000F086F8044B00221A8000BF80BD00BF593C00000159004012D6FF1FAC
:403A400080B582B000AF00F02FF90346FB712E4A2D4B1B78DBB243F00103DBB213702B4A2A4B1B78DBB243F00103DBB21370284A274B1B78DBB243F00103DBB21370254A01
:403A8000244B1B78DBB243F00103DBB21370224B1B78BB71BB7943F00203BB71BB7943F00103BB711C4ABB7913701C4B18221A701B4A1B4B1B78DBB243F04003DBB213701C
:403AC000174A174B1B78DBB223F00303DBB21370144BC8221A70144B02221A70134A134B1B78DBB243F00803DBB213700A20FEF79BFC0F4B01221A60FB79184600F0D8F872
:403B000000BF0837BD4680BDAB430040BB430040A1430040B14300400359004006590040055900400059004014460040275B004080E200E080B584B000AF0346FB71FB7932
:403B40000A2B07D00C2B02D0082B06D008E0C223FB730BE08223FB7308E04223FB7305E0C223FB730020FEF731FC00BF054AFB7B1370FB79184600F02FF800BF1037BD46C0
:403B800080BD00BF0259004080B400AF054A054B1B78DBB243F00103DBB2137000BFBD4680BC70470059004080B483B000AF084B1B88FB80074B1B881BB29BB2FA88D31A32
:403BC0009BB21BB218460C37BD4680BC704700BFA05B004010D6FF1F80B584B000AF0346FB71FB790A2B08D00C2B02D0082B08D00BE04FF48053FB600DE04FF48063FB60EA
:403C000009E04FF48073FB6005E00023FB600020FEF7DCFB00BF0C4B00221A80FB6842F2107202FB03F303F6C413084A82FB0312D212DB17D31A064A1360064B00221A8096
:403C400000BF1037BD4680BD14D6FF1FAD8BDB6818D6FF1F10D6FF1F80B400AF00BFBD4680BC704780B483B000AF0346FB710949084B1B78DBB25AB297F9073023F0070353
:403C80005BB213435BB2DBB20B7000BF0C37BD4680BC7047024100400230800803D000BF01380046FCD17047EFF3108072B6704780F31088704700BF014B1868704700BFAE
:403CC00090C1FF1F0E4B70B51E460E4C0025E41AA410A54204D056F8253098470135F8E700F0B6F8084B094C1E46E41AA4100025A54204D056F8253098470135F8E770BDF0
:403D00005C3E00005C3E00005C3E0000643E000010B5431E0A44914204D011F8014B03F8014FF8E710BD03460244934202D003F8011BFAE77047000000000000004F004038
:403D40003000105100401000405100403000F0510040100000000140001000140140800000150140000700400140000A004C0140000200500140200080140140D00700488E
:403D800080000000BEBEBEBEBEBEBEBEBEBEBEBEBEBEBEBEBEBEBEBEBEBEBEBEBEBEBEBEBEBEBEBEBEBEBEBEBEBEBEBEBEBEBEBEBEBEBEBEBEBE41414141414141414141DD
:403DC0004141414141414141414141414141414141414141414141414141414141414141414141414141414180848A8F94989EA2A8ACB2B6BCC0C6CAD0D5DADEE4E8EEF241
:403E0000F8FCF8F2EEE8E4DEDAD4D0CAC6C0BCB6B2ADA8A29E98948F8A84807A76706B66615D58534E49443E39342F2A25211C17120D0803080D12171C21252A2F34393E7C
:403E400044494E53585D61666B70767A43000000F8B500BFF8BC08BC9E4670474D000000011F0000F8B500BFF8BC08BC9E46704729000000883E0000C8C0FF1FD0000000BA
:403E80008814000000000000000000007E50080D0A7E440F0D0A7E48050D0A7E53030D0A2447504D524300007E410A0D0A7E4C6F0D0A00000D0F0E0C020100031D1F1E1C45
:403EC0000B08090A1B18191A050706041310111214161715807F000003000000006CDC0280BB0000300000000000C05DFFFF000000000000000000000000000000000000B2
:403F0000000000000000000000000000000000004C3E00000000000000000000000000000000000000000000000000000000000000000000000000000000000000000000F7
:403F40000000000000000000000000000000000030C1FF1F000000000000000000000000000000000000000000000000000000000000000000000000000000000000000032
:403F80000000000000000000000000000000000000000000000000000000000000000000000000000000000000000000000000000000000000000000000000000000000001
:403FC00000000000000000000000000000000000000000000000000000000000000000000000000000000000000000000000000000000000000000000000000000000000C1
:404000000000000000000000000000000000000000000000000000000000000000000000000000000000000000000000000000000000000000000000000000000000000080
:404040000000000000000000000000000000000000000000000000000000000000000000000000000000000000000000000000000000000000000000000000000000000040
:020000040001F9
:0200000480007A
:40000000084F004001520040015A004003640040036500405000014035010140490201404A0301405E0401404F050140500601404207014001090140030D0140040E014042
:40004000010F01400B1401403E1501404E160140501701400840014011410140184201400643014002450140054601400247014004480140034901400550014004510140C9
:4000800001400A4B0D40164B1940224B25302E4B6104970181728238870F85728638870F01080504110E17021D021F0C2101250C2702290C2D0C2F023301370E3B803F04B7
:4000C0004006464049FF4A074BFF4C404D204EF04F05500859045A045C205D025F01604061A86240632080FC8104820284FF89098A048C408F109107921C93089502968386
:40010000981099069C7C9D099E819F06A106A208A309A420A709A860AB10AC9FAD0FAE60B0E0B107B310B47FB508BA20BB02BF04D602D711D804D904DB04DC22DD20DF0125
:4001400004040502060207040D1A0E0217591E401F20200222042302242025202740280129012A202B202C102D022F0A3108334234013601375A3A063D203E423F40441095
:4001800045084820492052205E206C046D406E0876267718810283208521C0F0C2F0C4F0CAFFCCFBCEB3D204D620000105080614071009080A180B200E01110E12021418A9
:4001C000150E16041A041B011E0C1F32200126082A012B0E2E023001310432023503361C373838023A803B803E043F1054185604580459045B045C225D205F0184408708CB
:400200008A0C8C438E30910193069424950C964097039C339D019E449F0EA050A601A703A872AA08AB0CB27CB30FB403B820BA02BB08BE10D804D904DC22DF01005001042F
:40024000022205500610074008040A010C200E410F1010B011081208150416821710181019201B021E411F842208231025122680281429102C08320A33B034403680372524
:4002800039043E203F08480149405D01658067886D806F058408851090089141920893409404952099809B409D219F05A021A224A320A51AA610A70AA810A980C0F7C2F59D
:4002C000C4FECA26CCFBCE62D680D8B0EA03EE01070A09010C010D060F18130115141601170819061B081C011D0126012A012B102D062F083001311E35013B023E013F10D1
:400300004042410145EC460B480749FF4AFF4BFF4EF04F44500C580459045A045B045C205D025F0166C06A406B02810184018502870489028B088D02950298019B0C9D01F7
:40034000A302A501AB02AC01AD01B201B30EB501BB08BF10C013C104C205C402C7ECC830C9FFCAFFCBFFCC62CDA0CEF0CF41D00CD804D904DA04DC22DD02DF01E640E7029B
:40038000E910EA30EB10ED10EE10EF12004004080620080C09040A010E080F081020120C15401A401D0820402101221026102720280229102C482E802F2230303248330131
:4003C0003764384439103C023D803E203F08404E4201451846804740482049034F4050805602570869106B018E109008914092099340944098409B449D119EA29F20A0097D
:40040000A154A20CA322A480A508A610A70CA804AB02AE12B340C021C245C486CAFCCC7FCEFED0FDD210E240EE800108030407010A010F02100117011C0121042308250CC5
:400440002802290C2F02310C33013403350238203F14580459045C125F0184208528882089388B048C208D128F20920894139520960499189B229E159F06A003A214A80A37
:40048000A901AA14AC13AD20AE0CAF18B00FB210B501B620B73EBA02BE04BF10C041C102C6ECC70BC81CC9FFCAFFCBFFCEF0CF44D00CD401D604D804D904DA04DB04DC1132
:4004C000DD11DF01E6C0EA40EB020104030904800605080809800A200B400D010E011080120113101404188019041A021B021D10224023082404250126082A102B022D848C
:400500002F4830083250360438083B503C803D023F084008418043025084521058015B585C045F0463808340910292499680981499029A049C809D10AC80C047C29DC44B77
:40054000CAFCCC4ECEDED00DD60FD801EC20EC20AB80AF80EE01B902BF01D904DF01278010011A011E012801360138803B08580459045C115F010410054509010B0A0E0558
:400580000F501208140215011601172419801D051E011F0522082310261427122D012E042F0534023540360837203D023E093F40450147184E094F40544057045E206C0435
:4005C0006D046F09760977249010910192069408950499409B089D809F03A440A604A70CC0F0C2FBC4F2CAF0CCF0CED0D0E0D230D6200302040E0A010C040E02160118022B
:400600001A0C1C01200822022302240E270128012C013201340E350336013E403F1054185604580459045B045C015D105F0187088A028D718E058F069206930C952C9603CB
:4006400097439D809F13A201A571A70EA806AA01B1C0B207B30FB530B922BA08BB08BF10C002C704C9FFCA07CBFFCC40CD20CEF0CF05D008D401D604D804D904DA04DB0492
:40068000DC11DD21DF01E040E1A8E240E32002040302040805600A200B400E26108013101545171019081A201C101D401E041F502004210822022350270829082F50308060
:4006C0003188320238803A043D034004488050085204581059025A485F0261016480664067046D406E226F10810189209080924A93049504962097D0981099029A409C80A7
:400700009D809F01A101A302A448A580A604A70CA880A904AB50AC01AE58C0E3C2ECC4FACAC2CC0BCE8AD004D68FD8B1E02031013220358036013A403D40CCF0CE303040A7
:400740003208340237808610930495409B049D819E40AA21AB04AF04CCF0E040EAC0EE800610124013801440156052805B045F04630467048E80930495409B049C429D8155
:400780009E509F80B208C020C4F0D420D6C0D8C081019D81AC02B110E220EE409680AA401A8030209680C608CC08B020EC04818088109D80E22008109C10C240000608048B
:4007C0000A0610061A0600FF01EA0203100100004F0F90304C10A300000040004100000B0020B300FF3F000003300000F3010C0002020000040300000C3C00030834000B29
:400800008C007C3800040F0300008A00000000104506020003000E0C14FFFFFF62A0F0410C0000000000021104040404111100010000000000004002001030100010101204
:400840000000000000000000000000000000000000101000000000000804040004000000002020000000000048080000000010001D0018010000000000000000000000006E
:400880000000000000000000000000000000000000000000000000000000000000000000000000000000000000000000000000000000000000000000000000000000000038
:4008C00000000000000000000000000000000000000000000000000000000000000000000000000000000000000000000000000000000000000000000000000000000000F8
:4009000000000000000000000000000000000000000000000000000000000000000000000000000000000000000000000000000000000000000000000000000000000000B7
:400940000000000000000000000000000000000000000000000000000000000000000000000000000000000000000000000000000000000000000000000000000000000077
:0200000490006A
:0400000000004003B9
:0200000490105A
:04000000BC90ACAF55
:0200000490303A
:0200000083D3A8
:0200000490402A
:400000005555555555555555555555555555555555555555555555555555555555555555555555555555555555555555555555555555555555555555555555555555555580
:400040005555555555555555555555555555555555555555555555555555555555555555555555555555555555555555555555555555555555555555555555555555555540
:0200000490501A
:0C00000000012E16C06900012E31443CA6
:00000001FF