:4000000000400020110000006D2C00006D2C000080B500AF024A034B1B68136002F02AFEBC760040FA46004010B5054C237833B9044B13B10448AFF300800123237010BDFB
:40004000C8C1FF1F00000000585F0000084B10B51BB108480849AFF300800848036803B910BD074B002BFBD0BDE81040184700BF00000000585F0000CCC1FF1F08C1FF1F93
:400080000000000080B500AF00F012F862B601F0D1FF04E005F06CF8012004F0EFFF00F053F80346002BF5D000F05AF8F1E700BF80B500AF0320002105F014F8002004F0BF
:4000C000DFFC002004F0F8FC04F022FB05F09AFE00BF03F099FC0346002BFAD003F0F6FC0346002BF5D001F0E7FEFA2004F0C6FF04F060FB002004F075FB05F03BFC002014
:4001000005F050FC03F0E2FE03F032FF04F066FC05F0DEFB04F0FCFD05F096FA05F040FD05F0D2FC05F058FC03F07EFC03F0C6FA03F046FA03F02CFA03F0C0F903F0A6F909
:4001400001F05CFF80BD00BF80B400AF034B1B781846BD465DF8047B704700BFE4C1FF1F80B582B000AF0023FB7172B61DE0002004F086FC002004F09FFC0023FB7110E077
:4001800004F0F6FF012004F0A5FAFA2004F076FF002004F09FFAFA2004F070FFFB790133FB710A22FB799342EAD303F02DFC0346002BDCD003F08AFC0346002BD7D0094B8B
:4001C00000221A7003F0CCFA03F04CFA03F06CFB03F00EFC03F0C4F903F040F962B60837BD4680BDE4C1FF1F80B500AF72B6002004F046FC002004F05FFC002000F05CF99E
:40020000012000F059F9002001F0F0F8012001F0EDF8024B01221A7080BD00BFE4C1FF1F90B583B000AF0446084611461A462346FB710346BB710B467B7113463B71FB793C
:40024000002B02D0FB79012B11D1BB790D2B02D9BB79162B0BD17B79002B02D07B79012B05D13B79002B04D03B79012B01D0002315E1FA798C4913465B001344DB000B4486
:40028000BA791A70FA79884913465B001344DB000B4410337A791A71834B1978824B1A7E3B79084611461A4600F044FBFA797E4913465B001344DB000B441B78002B00F07E
:4002C000ED80FB79002B67D104F016FBFA79764913465B001344DB000B441B780A2B35D9FA79714913465B001344DB000B441B780D2B2BD8FA796C4913465B001344DB003A
:400300000B441B780C2B0AD00D2B0ED00B2B00D011E0664B9B8D184604F03EFB0BE0634B9B8D184604F038FB05E0604B9B8C184604F032FB00BFFA795B4913465B001344FC
:40034000DB000B44103300225A701FE0FA79564913465B001344DB000B441B78162B06D1524BB3F85C30184604F016FB0EE0FA794D4913465B001344DB000B441B784B4AA8
:40038000DB0013449B88184604F006FB002004F029FA03F0B7FB81E0454B1B78012B69D0434B1B78022B03D1424B1B78012B61D105F01CFAFA793C4913465B001344DB0047
:4003C0000B441B780A2B35D9FA79374913465B001344DB000B441B780D2B2BD8FA79324913465B001344DB000B441B780C2B0AD00D2B0ED00B2B00D011E02C4B9B8D184611
:4004000005F044FA0BE0294B9B8D184605F03EFA05E0264B9B8C184605F038FA00BFFA79214913465B001344DB000B44103300225A701FE0FA791C4913465B001344DB00B8
:400440000B441B78162B06D1184BB3F85C30184605F01CFA0EE0FA79134913465B001344DB000B441B78114ADB0013449B88184605F00CFA0E4B1B78022B03D10D4B1B7819
:40048000012B04D1002005F08DFA03F02DFC084B1B78022B02D1074B01221A70012318460C37BD4690BD00BF6CC1FF1F0CC1FF1FE5C1FF1FE6C1FF1F80B582B000AF0346AC
:4004C000FB71FB79002B04D0FB79012B01D000233DE0FB79002B07D0002003F0CBFC03F095FC05F093F906E0002003F0D1FB03F09BFB04F011FA184B00221A70FA791749E8
:4005000013465B001344DB000B44103301221A70FA79124913465B001344DB000B44103300229A70FA790D4913465B001344DB000B44103300225A71FA79084913465B007E
:400540001344DB000B44103300229A71012318460837BD4680BD00BFE5C1FF1F6CC1FF1F80B582B000AF0346FB71FB79002B02D005F080F901E004F003FAFB79002B04D0CC
:40058000FB79012B01D00023C3E004F0F1FDFA79624913465B001344DB000B441B78013B152B00F2B48001A252F823F0050600000506000005060000050600003106000037
:4005C000470600005D06000077060000A3060000A3060000CF060000DD060000EB0600000F0700000F0700000F0700000F0700000F0700000F0700000F0700000F07000023
:40060000F9060000FA7913465B001344DB00434A9818FA79414913465B001344DB000B441B78DB003E4A1344194600F001FA6FE0FA7913465B001344DB00384A134418467D
:4006400000F0C4F964E0FA7913465B001344DB00324A1344184600F063FB59E0FA7913465B001344DB002D4A1344FA791046194600F072FA4CE0FA7913465B001344DB0048
:40068000264A9818FA79254913465B001344DB000B441B78DB00224A1344194600F0D8FA36E0FA7913465B001344DB001B4A9818FA791A4913465B001344DB000B441B7890
:4006C000DB00174A1344194600F0DCFB20E0FB7918461449144A00F07FFC19E0FB7918461049124A00F078FC12E0FB7918460E490E4A00F071FC0BE0FA7913465B0013442C
:40070000DB00064A1344184600F078FD00E000BF012318460837BD4680BD00BF6CC1FF1F0CC1FF1F34C1FF1F2CC1FF1F24C1FF1F80B582B000AF0023FB8003F0C9FA364BD3
:400740005B7D002B49D0354B1B78002B02D0012B2FD032E040F2FA43184600F0A5FD03461A462F4B1B789BB21344FB802D4B1B78012B06D12A4B1B780233DAB2284B1A7008
:4007800005E0274B1B78023BDAB2254B1A70244B1B78002B03D1234B01221A7008E0204B1B781422934203D31E4B00221A7004E003E0194B5B88FB8000BF184B1B78012233
:4007C000934206D2154B1B780133DAB2134B1A7006E0124B00221A7002E00F4B5B88FB80FB88184603F044FAFB885B089BB2184603F04EFA0C4B1B78012B09D1FB88184679
:4008000003F028FBFB885B089BB2184603F032FB0837BD4680BD00BF6CC1FF1FE7C1FF1FE8C1FF1F9CC1FF1FE5C1FF1F80B582B000AF0023FB8003F03DFB314B1B78012B82
:400840005BD0304B93F82D30002B49D02E4B1B78002B02D0012B2FD032E040F2FA43184600F022FD03461A46284B1B789BB21344FB80274B1B78012B06D1244B1B78023377
:40088000DAB2224B1A7005E0204B1B78023BDAB21E4B1A701D4B1B78002B03D11C4B01221A7008E0194B1B781422934203D3184B00221A7004E003E0124B5B8BFB8000BFF5
:4008C000114B1B780122934206D20F4B1B780133DAB20D4B1A7006E00B4B00221A7002E0084B5B8BFB80FB88184603F0B3FAFB885B089BB2184603F0BDFA0837BD4680BDF1
:40090000E5C1FF1F6CC1FF1FE9C1FF1FEAC1FF1F9DC1FF1F80B400AF054B0022DA74044B002283F82B20BD465DF8047B704700BF6CC1FF1F80B483B000AF0346FB710B460D
:40094000BB7113467B71FB790D2B01D9002335E0BB790D2B01D9002330E07B79012B04D07B79002B01D0002328E0FB79002B06D0BB79002B03D0FA79BB799A4203D0124B66
:4009800000221A7019E07B79012B13D1FB79052B08D0FB79072B05D0FB79162B02D0FB790A2B03D9084B01221A7006E0064B02221A7002E0044B01221A70012318460C3703
:4009C000BD465DF8047B7047E5C1FF1F80B582B000AF78607B68002B01D1002321E07B681B7C012B09D1114B5B8D184600F05CFC03461A467B685A8008E00C4B1B8D18469E
:400A000000F052FC03461A467B685A807B681B7C002B0CBF01230023DBB21A467B681A74012318460837BD4680BD00BF0CC1FF1F80B584B000AF786039607B68002B02D0E9
:400A40003B68002B01D1002380E03B681B88184600F02AFC0346FB813B685B88184600F023FC0346BB817B689B7C002B08D1FA89BB89D31A9AB27B689A807B6801229A744D
:400A80003B689B79012B16D17B681B7C012B12D17B689B881A467B689B8803FB02F3F989BA898A1AB3FBF2F39AB2BB8913449AB27B685A8006E07B689A88BB8913449AB2C6
:400AC0007B685A807B681B7C012B26D17B689B88013B9AB27B689A807B689B88002B34D17B6800229A807B681B7C002B0CBF01230023DBB21A467B681A74164B1B78002B88
:400B000023D07B681B780120194600220123FFF787FB104B00221A7017E07B689B8801339AB27B689A807B689B881946FA89BB89D31A994209DB7B681B7C002B0CBF012321
:400B40000023DBB21A467B681A74012318461037BD4680BDE6C1FF1F80B584B000AF03463960FB71FB79002B04D0FB79012B01D0002367E03B68002B01D1002362E0334BEF
:400B80001B8F184600F090FB0346FB812F4B5B8F184600F089FB0346BB813B68DB7C002B08D1FA89BB89D31A9AB23B689A803B680122DA743B68DB7C002B38D03B681B7DFB
:400BC000002B1CD03B689B881A463B689B8803FB02F3F989BA898A1AB3FBF2F39AB2BB8913449AB23B685A803B689B88002B1ED03B689B88013B9AB23B689A8017E03B68CF
:400C00009A88BB8913449AB23B685A803B689B8801339AB23B689A803B689B881946FA89BB89D31A994202DB3B680022DA743B68DB7C002B05D1FFF76DFE01F071FC01F0DC
:400C40007FFC012318461037BD4680BD0CC1FF1F80B582B000AF786039607B68002B02D03B68002B01D1002354E07B689B7C002B05D17B6800229A807B6801229A747B6896
:400C80005B7D002B06D13B68DB79002B02D07B6801225A757B689B88FA2293421DD27B681B7C012B09D13B685B88184600F0FCFA03461A467B685A8008E03B681B8818466F
:400CC00000F0F2FA03461A467B685A807B689B8801339AB27B689A801BE0104B1B78002B0AD07B681B780120194600220123FFF797FA0A4B00221A707B6800229A807B687B
:400D00001B7C002B0CBF01230023DBB21A467B681A74012318460837BD4680BDE6C1FF1F80B584B000AF78600123FB817B68002B01D100239EE0514B1B8E184600F0B4FA69
:400D40000346BB814D4B5B8E184600F0ADFA03467B817B689B7C002B0ED1BA897B89D31A9AB27B689A807B6801229A747B6801225A757B680022DA807B681B7C012B56D19D
:400D80007B689B881A467B689B8803FB02F3B9897A898A1AB3FBF2F39AB27B8913449AB27B685A807B68DB881922934202D20F23FB8101E00123FB817B68DB8801339AB289
:400DC0007B68DA807B689B88002B08D07B689B88FA899A4203D97B68FA899A8006E07B689A88FB89D31A9AB27B689A807B689B88002B3ED17B6800229A807B681B7C002B43
:400E00000CBF01230023DBB21A467B681A741C4B1B78002B2DD07B681B780120194600220123FFF7FDF9164B00221A7021E07B689A887B8913449AB27B685A807B689B887B
:400E400001339AB27B689A807B680022DA807B689B881946BA897B89D31A994209DB7B681B7C002B0CBF01230023DBB21A467B681A74012318461037BD4680BD0CC1FF1F35
:400E8000E6C1FF1F80B584B000AF786039607B68002B02D03B68002B01D1002395E03B681B88184600F000FA0346FB813B685B88184600F0F9F90346BB817B689B7C002B09
:400EC00008D1FA89BB89D31A9AB27B689A807B6801229A747B689B881A467B689B8803FB02F3F989BA898A1AB3FBF2F39AB2BB8913449AB27B685A807B681B7C012B17D12F
:400F00007B689B88013B9AB27B689A807B689B88002B59D17B6800229A807B681B7C002B0CBF01230023DBB21A467B681A744BE07B681B891A463B689B88232101FB03F389
:400F40009A4226DA7B689B88002B22D17B681B8919463B689B88232202FB03F3DA0F13445B1099420ED11B4B1B78002B0AD07B681B780120194600220123FFF751F9154B4E
:400F800000221A707B681B8901339AB27B681A8105E07B689B8801339AB27B689A807B689B881946FA89BB89D31A99420CDB7B6800221A817B681B7C002B0CBF0123002366
:400FC000DBB21A467B681A74012318461037BD4680BD00BFE6C1FF1F80B586B000AF0346B9607A60FB7300237B6100233B61FB7B002B04D0FB7B012B01D00023F4E0BB6882
:40100000002B02D07B68002B01D10023ECE0784ABB689B88B2FBF3F37B61754A7B689B88B2FBF3F33B61FA7B724913465B001344DB000B4410335B78002B6AD0FA7B6D496E
:4010400013465B001344DB000B4408335A683B699A422CD27B68684A93420AD1FA7B13465B001344DB00634A13441846FFF7AEFC0AE0FA7B13465B001344DB005D4A1344DB
:4010800018467968FFF7D4FCFA7B5A4913465B001344DB000B4408335B68591C554813465B001344DB000344083359609BE0FB7B002B05D0BB689B88184604F0E7FB04E05E
:4010C000BB689B88184603F067FCFA7B494913465B001344DB000B44083300225A60FA7BF97B44480B465B000B44DB00034410335B78002B0CBF01230023DBB218463D494D
:4011000013465B001344DB000B44103302465A7069E0FA7B374913465B001344DB000B4408335A687B699A422CD2BB68324A93420AD1FA7B13465B001344DB002D4A13447F
:401140001846FFF743FC0AE0FA7B13465B001344DB00284A13441846B968FFF769FCFA7B244913465B001344DB000B4408335B68591C204813465B001344DB00034408339A
:40118000596030E0FB7B002B05D07B689B88184604F07CFB04E07B689B88184603F0FCFBFA7B144913465B001344DB000B44083300225A60FA7BF97B0E480B465B000B4497
:4011C000DB00034410335B78002B0CBF01230023DBB21846074913465B001344DB000B44103302465A70012318461837BD4680BDFFFF03006CC1FF1F34C1FF1F80B582B0DE
:4012000000AF78607B68002B01D1002346E07B689B7C002B05D17B6800229A807B6801229A747B689B88FA22934213D27B689B7D1A461C4B33F81230184600F035F8034601
:401240001A467B685A807B689B8801339AB27B689A8022E07B6800229A807B681B7C012B06D17B689B7D0133DAB27B689A7505E07B689B7D013BDAB27B689A757B689B7DEE
:40128000172B03D97B6800221A7406E07B689B7D002B02D17B6801221A74012318460837BD4680BD885F000080B483B000AF0346FB80054AFB88B2FBF3F39BB218460C37F5
:4012C000BD465DF8047B704740420F0080B584B000AF0346FB710B46BB7113467B710023FB81FB79002B04D0FB79012B01D000236AE07B79012B04D07B79002B01D0002349
:4013000062E0BB790D2B02D9BB79152B07D9BB79002B02D12E4ABB791370002354E02C4B1B78BA799A4208D1294B1B78BA799A4215D1284B1B78002B11D1BB79184600F095
:4013400033F90346002B01D100233DE0204ABB791370214B00221A60204B00221A70204AFB7913701F4A7B7913701F4B1B780122934228D11C4B5B684FF4FA52934222D1CB
:40138000012003F02FFA012004F00CFB164B5B68184600F03DF90346FB8104F0DFF8FB89184604F017F902F041FF03F0F7F88023184603F061F903F01FF802F059FE80235E
:4013C000184602F0C3FE012318461037BD4680BDECC1FF1FF6C1FF1FF0C1FF1FF7C1FF1FF4C1FF1FF5C1FF1FF8C1FF1F80B582B000AF0346FB71FB79002B04D0FB79012B32
:4014000001D0002312E004F0B9F88023184603F033F903F0D7F802F019FF8023184602F095FE02F039FE02F0F7FF012318460837BD4680BD80B582B000AF0023FB7104F004
:40144000BDF803F095FE4B4B1B68184600F022F90346FB71FB79184603F00EF9FB79184602F074FE434B1B680133434A9268B3FBF2F102FB01F29B1A3E4A13603F4B1B78DE
:401480000E3B072B72D801A252F823F0AD140000051500003D1500003D1500003D1500003D1500003D1500003D150000344B1B78002B02D1324B01221A702E4B1B68002B3F
:4014C00007D12F4B00221A7001F02AF801F038F817E0284B1B6845F68452934211D3254B1B68284A93420CD2274B1B78002B04D042F63A721F4B1A6003E0224A1D4B1A60EE
:4015000035E034E01E4B1B78002B02D11C4B01221A70184B1B68002B0FD1194B00221A701A4B01221A70002003F0AAFA002003F0C3FA0020FFF75AFF19E018E0104B1B788C
:40154000002B02D10E4B01221A700A4B1B68002B0BD10D4B1B78002B07D1094B00221A7000F0DEFF00F0ECFF01E000E000BF0837BD4680BDF0C1FF1FF8C1FF1FECC1FF1F82
:40158000F6C1FF1F0A450100F5C1FF1FF7C1FF1F80B400AF034B00221A70BD465DF8047B704700BFF6C1FF1F80B582B000AF0346FB71FB790D2B02D9FB79152B01D900235A
:4015C0001FE0FB79184600F0C3F80346002B01D1002316E000F02EF803461A460B4B1A7000F034F803461A46084B5A7000F046F80246064B9A6000F035F80246034B5A6061
:40160000012318460837BD4680BD00BFF8C1FF1F80B483B000AF7860054A7B68B2FBF3F39BB218460C37BD465DF8047B704700BF006CDC0280B400AF034BDB68DBB218467C
:40164000BD465DF8047B704748C2FF1F80B400AF034B9B69DBB21846BD465DF8047B704748C2FF1F80B400AF034B1B691846BD465DF8047B704700BF48C2FF1F80B400AF73
:40168000034B5B681846BD465DF8047B704700BF68C2FF1F80B584B000AF78600023BB7300237B7300233B738023FB73254B1B780E3B254A52F823207B6813442C337B6036
:4016C0007B6803F47F024FF480734FF4807101FB03F3B2FBF3F3BB737B6803F47F434FF48072B3FBF2F37B737B683B7303F02CFB034603F01003002B1ED0144B1B78002BF0
:4017000003D0124B00221A7003E003F057FB0346FB730323184603F037FBBB7B184603F033FB7B7B184603F02FFB3B7B184603F02BFB002003F028FBFB7B18461037BD469E
:4017400080BD00BF70C2FF1FE05F0000A0C1FF1F90B587B000AF0346FB7100233B610023FB730023BB7300237B730023FB75FB790D2B02D9FB79152B01D90023DEE0714A89
:40178000FB7913706F4B1B780E3B6F4A52F823303B613B6903F47F024FF480734FF4807101FB03F3B2FBF3F3FB733B6903F47F434FF48072B3FBF2F3BB733B697B73002329
:4017C000FB7527E00323184603F0DEFAFB7B184603F0DAFABB7B184603F0D6FA7A7BFB7D1344DBB2184603F0CFFA002003F0CCFA00BF03F0A9FA034603F01003002BF8D056
:40180000FC7D03F0DBFA03461A46504B1A55FB7D0133FB75FB7D2B2BD4D94D484B494D4A042300F0CFF80346002B01D1002385E049484A490022042300F018F90346002BCF
:4018400001D100237AE046484649474A042300F0B9F80346002B01D100236FE043484449444A042300F0AEF80346002B01D1002364E0414841491022042300F0F7F8034647
:40188000002B01D1002359E03D483E490122022300F0ECF80346002B01D100234EE03A483A490222022300F0E1F80346002B01D1002343E0364837494FF4FA52042300F0C9
:4018C000D5F80346002B01D1002337E0324833490022042300F0CAF80346002B01D100232CE02F482F490022022300F0BFF80346002B01D1002321E02B482C4900220223BF
:4019000000F0B4F80346002B01D1002316E028482849294A042300F055F80346002B01D100230BE0254826490022042300F09EF80346002B01D1002300E0012318461C37D7
:40194000BD4690BD70C2FF1FE05F000010C2FF1F3CC2FF1F0460000040C2FF1F14C2FF1F44C2FF1F18C2FF1F0C60000048C2FF1F1CC2FF1F146000004CC2FF1F20C2FF1FB8
:4019800050C2FF1F24C2FF1F54C2FF1F26C2FF1F58C2FF1F28C2FF1F5CC2FF1F2CC2FF1F60C2FF1F30C2FF1F64C2FF1F32C2FF1F68C2FF1F34C2FF1F1C6000006CC2FF1F67
:4019C00038C2FF1F80B586B000AFF860B9607A60FB700023FB75FB68002B08D0BB68002B05D07B68002B02D0FB78042B01D9002338E007F1100318460021052204F099FA14
:401A00000023FB750CE0FB7DFA7DB9680A44127807F118010B4403F8082CFB7D0133FB75FA7DFB789A42EED307F110031846796804F087FA0346002B01D0002312E00023D1
:401A4000FB750AE0FB7DFA681344FA7DB9680A4412781A70FB7D0133FB75FA7DFB789A42F0D3012318461837BD4680BD80B588B000AFF860B96011461A460B46FB801346C2
:401A80007B710023FB770023BB6100237B61FB68002B05D0BB68002B02D07B79042B01D900232AE00023FB7710E04FF48072BB6902FB03F3BB61FB7FBA6813441B781A46E7
:401AC000BB691344BB61FB7F0133FB77FA7F7B799A42EAD37B79B869194600F013F87861FB88002B05D0FA887B699A4201D2002303E0FB687A691A60012318462037BD46A7
:401B000080BD00BF80B485B000AF78600B46FB700023FB730023BB600023FB7313E04FF48072BB6802FB03F3BB607B68DBB2BA681344BB604FF480727B68B3FBF2F37B60BA
:401B4000FB7B0133FB73FA7BFB789A42E7D3BB6818461437BD465DF8047B704780B582B000AF0023FB7104F0B1F800F055FA114B00221A7003F086FF0346FB710E4B1B78D3
:401B8000002B07D0FB79184602F076FDFB79184602F0DCFAFB79184600F044F803F060FF034603F02003002BE4D104F07FF80837BD4680BD75C2FF1F74C2FF1F80B500AF4C
:401BC00004F040F9074B1B78002B0CBF01230023DBB21A46034B1A70024B1B78184602F079FD80BD76C2FF1F80B500AF04F08EF80B4B1B783222934206D2094B1B78013335
:401C0000DAB2074B1A700AE0054B00221A7000F087FC00F095FC00F0F1F904F057F880BD75C2FF1F80B582B000AF0346FB717D4B1B78012B51D0022B6FD0002B40F0EE800B
:401C4000794B1B78002B16D1784B1B78FA799A4204D0764B5B79FA799A420CD1724B1B781946734AFB7953546F4B1B780133DAB26D4B1A7030E06C4B1B78012B25D16B4BB9
:401C80005B78FA799A4204D0684B9B79FA799A421BD1654B1B781946654AFB795354624B1B780133DAB2604B1A705E4B01221A705E4B5B78FA799A4203D15E4B00221A7041
:401CC0000AE05C4B01221A7006E0574B00221A70584B01221A70A1E0A0E0534B1B781946534AFB795354504B1B780133DAB24E4B1A704D4B1B7818464E4B1B7819464B4A1F
:401D00000B469B000B4413449B780233984203DB444B02221A7081E080E0434B1B781846444B1B781946414A0B469B000B4413449B780233984218D13E4B1B7819463B4AEB
:401D40000B469B000B441344DB78FA799A420CD1354B1B781946364AFB795354324B1B780133DAB2304B1A7057E02F4B1B781846304B1B7819462D4A0B469B000B44134458
:401D80009B78033398423FD12A4B1B781946274A0B469B000B4413441B79FA799A4233D1214B1B781946224AFB795354214B1B78002B10D11E4B9B78AA22934205D11E4B53
:401DC00001221A7000F03AF814E01B4B00221A7000F058F80EE0174B1B78012B0AD1144B9978134BDA78124B1B79084611461A4600F01CFB0C4B00221A700A4B00221A70C3
:401E00000C4B01221A7008E0074B00221A70054B00221A70074B01221A7000BF0837BD4680BD00BF77C2FF1F78C2FF1FA4C1FF1F7CC2FF1FAEC1FF1F74C2FF1F80B500AF6D
:401E400003F09CFB03F052FC012002F0CBFC012003F0A8FD02F0EAF902F0A0FB8023184602F00AFC02F0C8FA02F002F98023184602F06CF9012002F003FE012002F01CFE6F
:401E800080BD00BF80B500AF002002F0F9FD002002F012FE8023184602F0EEFB02F092FB02F0D4F98023184602F050F902F0F4F802F0B2FA80BD00BFB0B582B000AF0023E1
:401EC000FB710023BB71FF237B7100237B8002F019FE0023BB7120E000237B7117E0BB799BB21A46520013445B009AB27B799BB213447B807B88184602F09AFE0346162B64
:401F000002D90123FB7105E07B7901337B717B79052BE4D9BB790133BB71BB79012BDBD9FB79012B08D0FF23184602F081FE03461A46AA239A422CD002F098FE0023BB7126
:401F40001EE000237B7115E0BB799BB21A46520013445B009AB27B799BB213447B807B88244AD25C7B881046194602F0D1FD7B7901337B717B79052BE6D9BB790133BB71F9
:401F8000BB79012BDDD9AA22FF231046194602F0BFFD0023BB7127E000237B711EE0BB799BB21A46520013445B009AB27B799BB213447B80BC797D797B88184602F038FEDF
:401FC000034619460C4A23465B0023445B002B4413440A461A707B7901337B717B79052BDDD9BB790133BB71BB79012BD4D90837BD46B0BD2860000088C2FF1F80B500AFAB
:4020000001F0F6FB01F0C4FB01F096FC01F064FC01F0C8F980BD00BF80B500AF01F0D0FB01F0F6FB01F070FC01F096FC01F0CAF980BD00BF90B583B000AF0023FB7101F0D3
:402040001DFB03461A461A4B1A7001F027FB03461A46174B1B781343DAB2154B1A7001F08BFA034603F00103DAB2114B5A7001F001FA034603F00103DAB20D4BDA7000234E
:40208000FB710CE0FC79FB79184600F0B5FC03461A46074B23445A71FB790133FB71FB79012BEFD900F070FA0C37BD4690BD00BF94C2FF1F80B582B000AF0023FB7100234F
:4020C000BB800023FB700023BB7101F055FB034603F00103DAB23D4B9A703C4B1B78002B70D13A4B5B78002B6CD1384B9B78002B06D0FEF70FFCFFF74BFA00F011FA61E0D5
:4021000002F0B4FD0023BB7157E0BB792F4A13445B79FB70BB799BB21A46520013445B009AB2FB789BB21344BB80FB78FF2B41D0FB79002B1CD1BB88184602F079FD034624
:40214000FB71FB795A1C224B82FB030153181911D317C91A0B465B000B44DB005B1AD11A0B46FB71FB79002B02D1FB790133FB71FA79BB881046194602F0CAFCBA79F97879
:40218000144813465B0013445B000B440344FA791A70BB79BA7910490A4491780E4AD154BB790D4A1344FA799A70BB790A4A134401221A71BB790133BB71BB79012BA4D9D9
:4021C00000F0E2F90837BD4680BD00BF94C2FF1FC94216B288C2FF1F9CC2FF1F80B582B000AF0023FB7101F049FA0346002B04D101F054FA0346002B01D0012300E00023DE
:40220000DAB2164B1A70154B1B78002B20D0FEF781FBFFF7BDF9012002F032FC002002F04BFC0023FB710FE0FB791846FEF744F9FB791846FFF7DAF8FB79094A1344002206
:402240001A71FB790133FB71FB79012BECD901E000F09AF90837BD4680BD00BF94C2FF1F9CC2FF1F80B500AF01F086F9034603F00103DAB2024B5A7000F086F980BD00BF26
:4022800094C2FF1F80B500AF01F0F4F8034603F00103DAB2024BDA7000F076F980BD00BF94C2FF1F80B500AF01F00AFB034603F00103DAB2044B1A71034B1A79034B9A71FD
:4022C00000F062F980BD00BF94C2FF1F9CC2FF1F90B585B000AF0023FB730023BB7301F055F803463B7301F001FC03467B730023FB7389E0FB7BFA7B4849895CFA7B07F17A
:402300001000024412F8042C4A40D2B207F110010B4403F8082CFC7BFB7B07F11002134413F8083C184600F037FC03461A4607F11003234403F80C2CFC7BFB7B184600F0D1
:402340005BFB03461A46364B23445A71FB7B344A13445B79BB73FB7B07F11002134413F8082CFB7B07F110010B4413F8043C1340DBB2002B05D0FB7B2A4A134401221A7160
:4023800018E0BB7BFF2B10D0FB7B07F11002134413F80C3CFF2B0DD0FB7B07F11002134413F80C3CBA7B9A4204D2FB7B1D4A134400221A71FB7BFA7B07F110010A4412F876
:4023C000041C164AD154FB7BFA7B16490A449178144AD154BB7BFF2B0ED0F97BFA7BB87B114C13465B0013445B00034423441A780C4B0B449A7004E0FB7B0A4A13440022E0
:402400009A70FB7B0133FB73FB7B012B7FF672AF00F0BAF81437BD4690BD00BFA4C2FF1F94C2FF1F9CC2FF1F88C2FF1F80B584B000AF0346FB710B46BB7113467B710023B8
:40244000FB730023BB73FB79162B01D9002360E0BB79162B01D900235BE07B79012B04D07B79002B01D0002353E02C4B9A782B4B1A702A4BDA78294B5A70284AFB7993704D
:40248000264ABB79D370254B9B797A799A4201D00123BB73214A7B7993710023FB7323E0FB7B1E4AD35C002B0BD1FB7B1B4A13449B78002B05D0FB7B184A134401221A7192
:4024C0000FE0FB7B154AD35C002B0AD0FB7B134A13449B78002B04D1FB7B104A134400221A71FB7B0133FB73FB7B012BD8D90B4B1A780A4B9B789A4208D1084B5A78074BEC
:40250000DB789A4202D1BB7B012B01D100F03CF8012318461037BD4680BD00BF9CC2FF1F80B500AF0020FDF7C7FF0120FDF7C4FF0020FEF75BFF0120FEF758FF80BD00BF8F
:4025400080B500AFFEF7E6F9FFF722F8002002F097FA002002F0B0FA002000210022FEF7B5FE012000210022FEF7B0FE0020002100220023FDF754FE0120002100220023CF
:40258000FDF74EFE80BD00BF80B500AFFFF7C8FFA94B1B78002B00D0A7E1A84B9B78002B00F0B880A54B9B78184600F0B1FA0346002B1ED0A14B9B78184600F0DBFA034612
:4025C000002B0ED09D4B1B79002B07D09B4B9B7800201946012200F0D1F986E1FFF7B0FF83E1964B9B7800201946012200F0C6F97BE1924BDB78184600F08AFA0346002B78
:402600001ED08E4BDB78184600F0B4FA0346002B0ED08A4B5B79002B07D0884BDB7801201946012200F0AAF95FE1FFF789FF5CE1824BDB7801201946012200F09FF954E1B0
:402640007D4B5B78002B02D0FFF77AFF4DE17A4BDB78002B0CD07A4B1B78002B0CBF01230023DBB21A46764B1A70FFF769FF3CE1734B1B78002B2BD0704B9B78184600F02B
:4026800005FA03461A466D4B9B7900201146012200F030F9694BDB78002B0ED0674BDB78184600F0F3F903461A46644B9B7901201146012200F01EF917E1002002F0FCF997
:4026C0005E4B9B7901200021002200F013F90CE15A4B9A78594B9B7900201146012200F009F9564BDB78002B09D0544BDA78534B9B7901201146012200F0FCF8F5E00020C6
:4027000002F0DAF94D4B9B7901200021002200F0F1F8EAE0494BDB78002B6FD0474BDB78184600F0F5F90346002B1ED0434BDB78184600F01FFA0346002B0ED03F4B5B7955
:40274000002B07D03D4BDB7801201946012200F015F9CAE0FFF7F4FEC7E0384BDB7801201946012200F00AF9BFE0334B5B78002B02D0FFF7E5FEB8E02F4BDB78002B0CD004
:402780002F4B1B78002B0CBF01230023DBB21A462B4B1A70FFF7D4FEA7E0294B1B78002B18D0002002F06CF9244B9B7900200021002200F09FF8214BDB78184600F066F929
:4027C00003461A461C4B1B7901201146012200F091F88AE0002002F053F9184B9B7900200021002200F086F8144BDA78124B1B7901201146012200F07DF876E00E4B5B78ED
:40280000002B02D0FFF79CFE6FE00B4BDB78002B18D00B4B00221A70FEF77CF8002005210022002300F066F8012005210022002300F060F859E000BF94C2FF1F9CC2FF1F00
:40284000A6C2FF1F294B1B78184600F047F90346002B1ED0254B1B78184600F059F90346002B07D0214B1B7800201946002200F085F807E01D4B1B7800201946002200233A
:4028800000F038F8194B00221A70194B00221A702BE0164B5B78184600F020F90346002B1ED0124B5B78184600F032F90346002B07D00E4B5B7801201946002200F05EF8C8
:4028C00007E00A4B5B78012019460022002300F011F8064B00225A70054B00221A7004E0034B00221A70FFF72BFE80BD9CC2FF1FA6C2FF1F90B583B000AF04460846114680
:402900001A462346FB710346BB710B467B7113463B71FB79002B04D0FB79012B01D0002328E0BB79162B01D9002323E07B79012B04D07B79002B01D000231BE0FEF728FE0A
:40294000FB79184600210022FEF7C0FCF879B9797A793B79FDF764FCBB79002B09D0FB79002B03D0012002F0A7F802E0012002F087F8012318460C37BD4690BD80B582B0A7
:4029800000AF0346FB710B46BB7113467B71FB79002B04D0FB79012B01D0002327E0BB79002B02D0BB79162B01D900231FE07B79012B04D07B79002B01D0002317E0FDF74F
:4029C000A9FFFB791846002100220023FDF728FCF979BA797B79084611461A46FEF776FC012002F04DF8012002F066F8012318460837BD4680BD00BF80B584B000AF0346F0
:402A0000FB710023FB73FB79002B04D0FB79012B01D0FF2336E0FB79002B04D001F066F80346FB7303E000F0B1FC0346FB73FB7B03F02003002B01D0052323E0FB7B03F0B1
:402A40001003002B01D004231CE0FB7B03F00803002B01D0032315E0FB7B03F00403002B01D002230EE0FB7B03F00203002B01D0012307E0FB7B03F00103002B01D0002319
:402A800000E0FF2318461037BD4680BD80B582B000AF0346FB71FB79002B09D0FB79184600F036F80346002B02D1FB79162B01D1FB790FE0FB79062B02D0FB790A2B01D1D9
:402AC000042307E0FB790D2B01D10B2302E0FB790133DBB218460837BD4680BD80B582B000AF0346FB71FB79072B09D0FB790E2B06D0FB79184600F029F80346002B01D033
:402B0000012300E0002318460837BD4680BD00BF80B582B000AF0346FB71FB790E2B0DD0FB79184600F026F80346002B06D1FB79184600F00BF80346002B01D0012300E044
:402B4000002318460837BD4680BD00BF80B483B000AF0346FB71FB790F2B04D9FB79152B01D8012300E0002318460C37BD465DF8047B704780B483B000AF0346FB71FB791E
:402B80000F2B01D1012300E0002318460C37BD465DF8047B704700BF80B485B000AF0346FB710023FB73FB79013B1F2B54D801A252F823F0352C00003B2C0000592C000023
:402BC000412C0000592C0000592C0000592C0000472C0000592C0000592C0000592C0000592C0000592C0000592C0000592C00004D2C0000592C0000592C0000592C0000BB
:402C0000592C0000592C0000592C0000592C0000592C0000592C0000592C0000592C0000592C0000592C0000592C0000592C0000532C00000023FB7311E00123FB730EE0D7
:402C40000223FB730BE00323FB7308E00423FB7305E00523FB7302E0FF23FB7300BFFB7B18461437BD465DF8047B704780B400AFFEE700BF80B586B000AF224B7B61224B15
:402C80003B61204B7B6135E03B691B68FB603B695B68BB603B699B683B6000237B600CE0FB681A68BB681A60BB680433BB60FB680433FB607B6804337B607A683B689A42AA
:402CC000EED13B69DB683B6000237B6008E0BB6800221A60BB680433BB607B6804337B607A683B689A42F2D13B6910333B617B69013B7B617B69002BC6D103F0E9F8FDF773
:402D0000C1F9FEE7010000001861000080B582B000AF174B174A1A60174A174B1B6843F40073136000237B600FE07B68032B04D8124A7B6852F8233000E0114B11497A6896
:402D400041F822307B6801337B607B682F2BECD90D4B1B78DAB20D4B1A700D4B094A1A6000F02EFA0B4B00221A600837BD4680BD0CED00E00004FA0514ED00E00000000010
:402D80006D2C000000C0FF1FBC76004004C1FF1F08ED00E000C1FF1F80B582B000AF78603960786800213A6803F0C3F80837BD4680BD00BF80B584B000AFF860B9607A601A
:402DC000F868B9687A6803F0A9F81037BD4680BD80B483B000AF0346FB71FEE780B487B000AF7860396000233B6100237B6127E07B699B007A6813441B68BB60BB68FB736E
:402E0000BB6823F0FF03BB6014E03B695B003A6813441B781A46BB68134419463B695B003A6813445B780B703B6901333B61FB7B013BFB73FB7B002BE7D17B6901337B6160
:402E40007B69292BD4D91C37BD465DF8047B704780B582B000AF444B4BF67F321A80434B18221A70424B05221A80424B18221A70414B2F221A80414B18221A70404B2F22C7
:402E80001A80404B18221A703F4B33221A803F4B18221A703E4B4BF67F321A803D4B18221A703D4B09221A803C4B1F221A703C4B31221A803B4B1F221A703B4B06221A7065
:402EC0003A4B52221A703A4B3A4A1278D2B21A70394B4FF4E2621A80384B41F251221A800023FB7019237B6014E0FB785B00DAB2334B1B78DBB203F00103DBB21343DBB24E
:402F000003F00303FB704FF4F07001F0B1FF7B68013B7B607B68002B02D0FB78032BE4D17B68002B02D10320FFF752FF254B4FF480721A80234B07221A70234B00221A70F4
:402F4000224B48221A701F4B00221A70204B00221A70204B02221A701F4B1B781E4BFF221A700837BD4680BD80400040824000408440004086400040884000408A400040FC
:402F80008C4000408E40004090400040924000409440004096400040984000409A4000409C4000409E4000400043004000420040A14600400F010049224200402042004074
:402FC000254200400440004006400040084000400940004001400040A243004080B483B000AF144B1B78FB71134AFB7903F00703DBB21370114AFB791B09DBB21370104BB9
:4030000010221A700F4B20221A700F4B02221A700E4B02221A700E4B20221A700D4B05221A700D4B44221A700C37BD465DF8047B704700BFCF0100496E5800406F58004073
:403040006D510040005A0040225A0040825A0040905A0040005B00407658004080B483B000AF0346FB71FB79012B0ED8FB79094A52F82330FA79074951F822201178FA790E
:403080000548825C0A43D2B21A700C37BD465DF8047B7047386000004060000080B483B000AF0346FB71FB79012B10D8FB790A4A52F82330FA79084951F822201178FA797E
:4030C0000648825CD243D2B20A40D2B21A700C37BD465DF8047B7047386000004060000080B483B000AF0346FB71FB79012B24D8FA79FB791344FB71FB79124A52F823302C
:40310000FA79104951F822201178FA790E48825C0A43D2B21A70FB790133FB71FB79094A52F82330FA79074951F822201178FA790548825C0A43D2B21A700C37BD465DF8CA
:40314000047B7047446000005460000080B483B000AF0346FB71FB79012B28D8FA79FB791344FB71FB79144A52F82330FA79124951F822201178FA791048825CD243D2B219
:403180000A40D2B21A70FB790133FB71FB790A4A52F82330FA79084951F822201178FA790648825CD243D2B20A40D2B21A700C37BD465DF8047B70474460000054600000AD
:4031C00080B586B000AF72B60023FB7513E0FA7D13465B0013445B00504A13443B613B691A683B699B889BB210461946FFF7D4FDFB7D0133FB75FB7D082BE8D90023FB75CC
:403200001CE0FA7D13469B0013445B00444A1344FB60FB681B68BB60FB685B687B60FB681A7A5B7A1B0213437B807B88B86879681A46FFF7BFFDFB7D0133FB75FB7D042B20
:40324000DFD94FF090403749FFF7C8FD364A364B1B78DBB243F00203DBB21370334A334B1B78DBB243F00203DBB21370304A304B1B78DBB243F04003DBB213702D4A2D4BF6
:403280001B78DBB243F01003DBB213702A482B490A22FFF78FFD2A482A490822FFF78AFD29482A490A22FFF785FD294829490822FFF780FD284829490822FFF77BFD284886
:4032C00028490822FFF776FD274828490A22FFF771FD274827490822FFF76CFD264827490822FFF767FD264A254B1B78DBB243F00803DBB21370234B01221A70FFF7A8FD8C
:40330000204BC1221A70FFF769FE1F4808490E22FFF750FD1837BD4680BD00BF5860000090600000A80000480350014013500140A0430040C243004000510040180E0048A8
:40334000C2510040240E0048F05100402C0E004812510040380E004822510040400E004832510040480E004840510040500E0048525100405C0E004862510040640E0048E9
:403380002243004000480040B043004080B400AF034B1B78DBB21846BD465DF8047B70476764004080B500AF00F04CF8044800F019F8052000F028F800F038F880BD00BFAF
:4033C000D933000080B500AF00F03CF8014800F009F880BD6D2C000080B500AFFEF778FF80BD00BF80B485B000AF7860054B1B68FB60FB6854337A681A601437BD465DF856
:40340000047B704708ED00E080B483B000AF0346FB71054AFB795B01DBB213700C37BD465DF8047B704700BF05E400E080B400AF034B20221A60BD465DF8047B704700BFF4
:4034400000E100E080B400AF034B20221A60BD465DF8047B704700BF80E100E080B400AF034B20221A60BD465DF8047B704700BF80E200E080B400AF034B1B78DBB21846E5
:40348000BD465DF8047B70476465004080B582B000AF01F0F5FC0346FB71074A064B1B78DBB243F01003DBB21370FB79184601F0EBFC0837BD4680BD9465004080B500AF6A
:4034C00000F042F8044800F00FF8042000F01EF800F02EF880BD00BFDD34000080B500AFFEF7D0FE80BD00BF80B485B000AF7860054B1B68FB60FB684C337A681A601437C8
:40350000BD465DF8047B704708ED00E080B483B000AF0346FB71054AFB795B01DBB213700C37BD465DF8047B704700BF03E400E080B400AF034B08221A60BD465DF8047B2B
:40354000704700BF00E100E080B400AF034B08221A60BD465DF8047B704700BF80E100E080B400AF034B08221A60BD465DF8047B704700BF80E200E080B400AF034B1B7889
:40358000DBB21846BD465DF8047B70476665004080B582B000AF01F073FC0346FB71074A064B1B78DBB243F01003DBB21370FB79184601F069FC0837BD4680BD9665004062
:4035C00080B500AF00F042F8044800F00FF8022000F01EF800F02EF880BD00BFE135000080B500AFFEF73EFE80BD00BF80B485B000AF7860054B1B68FB60FB685C337A6827
:403600001A601437BD465DF8047B704708ED00E080B483B000AF0346FB71054AFB795B01DBB213700C37BD465DF8047B704700BF07E400E080B400AF034B80221A60BD46BD
:403640005DF8047B704700BF00E100E080B400AF034B80221A60BD465DF8047B704700BF80E100E080B400AF034B80221A60BD465DF8047B704700BF80E200E080B400AFA5
:40368000054B1B78DBB203F002035B08DBB21846BD465DF8047B70472151004080B400AF054B1B78DBB203F004039B08DBB21846BD465DF8047B70472151004080B500AF15
:4036C00000F042F8044800F00FF8012000F01EF800F02EF880BD00BFDD36000080B500AFFEF77CFD80BD00BF80B485B000AF7860054B1B68FB60FB6860337A681A60143708
:40370000BD465DF8047B704708ED00E080B483B000AF0346FB71054AFB795B01DBB213700C37BD465DF8047B704700BF08E400E080B400AF034B4FF480721A60BD465DF898
:40374000047B704700E100E080B400AF034B4FF480721A60BD465DF8047B704780E100E080B400AF034B4FF480721A60BD465DF8047B704780E200E080B400AF034B1B782F
:40378000DBB21846BD465DF8047B70476364004080B582B000AF01F073FB0346FB71074A064B1B78DBB243F01003DBB21370FB79184601F069FB0837BD4680BD936400406A
:4037C00080B582B000AF01F05BFB0346FB71074A064B1B78DBB223F01003DBB21370FB79184601F051FB0837BD4680BD9364004080B500AF00F04CF8044800F019F8032072
:4038000000F028F800F038F880BD00BF2538000080B500AF00F03CF8014800F009F880BD6D2C000080B500AFFEF744FC80BD00BF80B485B000AF7860054B1B68FB60FB6851
:4038400064337A681A601437BD465DF8047B704708ED00E080B483B000AF0346FB71054AFB795B01DBB213700C37BD465DF8047B704700BF09E400E080B400AF034B4FF4DC
:4038800000721A60BD465DF8047B704700E100E080B400AF034B4FF400721A60BD465DF8047B704780E100E080B400AF034B4FF400721A60BD465DF8047B704780E200E06E
:4038C00080B400AF034B1B78DBB21846BD465DF8047B70476164004080B582B000AF01F0CFFA0346FB71074A064B1B78DBB243F01003DBB21370FB79184601F0C5FA083728
:40390000BD4680BD9164004080B582B000AF01F0B7FA0346FB71074A064B1B78DBB223F01003DBB21370FB79184601F0ADFA0837BD4680BD9164004080B500AF00F04CF877
:40394000044800F019F8042000F028F800F038F880BD00BF6D39000080B500AF00F03CF8014800F009F880BD6D2C000080B500AFFEF798FC80BD00BF80B485B000AF786093
:40398000054B1B68FB60FB6848337A681A601437BD465DF8047B704708ED00E080B483B000AF0346FB71054AFB795B01DBB213700C37BD465DF8047B704700BF02E400E0A1
:4039C00080B400AF034B04221A60BD465DF8047B704700BF00E100E080B400AF034B04221A60BD465DF8047B704700BF80E100E080B400AF034B04221A60BD465DF8047BE1
:403A0000704700BF80E200E080B400AF054B1B78DBB203F00803DB08DBB21846BD465DF8047B70474151004080B500AF00F042F8044800F00FF8002000F01EF800F02EF8C2
:403A400080BD00BF493A000080B500AFFCF7CCFB80BD00BF80B485B000AF7860054B1B68FB60FB6858337A681A601437BD465DF8047B704708ED00E080B483B000AF0346B8
:403A8000FB71054AFB795B01DBB213700C37BD465DF8047B704700BF06E400E080B400AF034B40221A60BD465DF8047B704700BF00E100E080B400AF034B40221A60BD46E6
:403AC0005DF8047B704700BF80E100E080B400AF054B1B78DBB203F004039B08DBB21846BD465DF8047B70474151004080B400AF034B1B78DBB21846BD465DF8047B7047C3
:403B00006464004080B500AF054B1B78002B04D100F008F8024B01221A7000F061F880BDA8C2FF1F80B582B000AF284A274B1B78DBB243F00203DBB21370254B1B78DBB2CC
:403B400023F07003FB71224AFB7943F01003DBB21370204A1F4B1B78DBB223F03003DBB213701C4A1B4B1B78DBB243F03003DBB21370184A174B1B78DBB223F00F03DBB2DB
:403B80001370144A134B1B78DBB243F00F03DBB213704FF47A7000F06BF8002000F078F8082000F085F80C4A0B4B1B78DBB243F00103DBB21370094A084B1B78DBB243F0B0
:403BC0000103DBB213700837BD4680BD004F0040024F00400B4F0040A3430040014F004080B400AF0D4A0D4B1B78DBB243F00103DBB213700A4A0A4B1B78DBB243F00103C9
:403C0000DBB21370074A074B1B78DBB243F00103DBB21370BD465DF8047B7047A3430040B3430040004F004080B400AF0D4A0D4B1B78DBB223F00103DBB213700A4A0A4B6F
:403C40001B78DBB223F00103DBB21370074A074B1B78DBB223F00103DBB21370BD465DF8047B7047004F0040A3430040B343004080B483B000AF0346FB80044AFB8813805C
:403C80000C37BD465DF8047B704700BF044F004080B483B000AF0346FB80044AFB8813800C37BD465DF8047B704700BF064F004080B483B000AF0346FB71044AFB7913706E
:403CC0000C37BD465DF8047B704700BF034F004080B400AF034B1B78DBB21846BD465DF8047B7047034F004080B500AF054B1B78002B04D100F008F8024B01221A7000F032
:403D000061F880BDA9C2FF1F80B582B000AF284A274B1B78DBB243F00203DBB21370254B1B78DBB223F07003FB71224AFB7943F01003DBB21370204A1F4B1B78DBB223F043
:403D40003003DBB213701C4A1B4B1B78DBB243F03003DBB21370184A174B1B78DBB223F00F03DBB21370144A134B1B78DBB243F00F03DBB213704FF47A7000F06BF80020B4
:403D800000F078F8082000F085F80C4A0B4B1B78DBB243F00203DBB21370094A084B1B78DBB243F00103DBB213700837BD4680BD0C4F00400E4F0040174F0040A34300406A
:403DC0000D4F004080B400AF0D4A0D4B1B78DBB243F00203DBB213700A4A0A4B1B78DBB243F00203DBB21370074A074B1B78DBB243F00103DBB21370BD465DF8047B704784
:403E0000A3430040B34300400C4F004080B400AF0D4A0D4B1B78DBB223F00103DBB213700A4A0A4B1B78DBB223F00203DBB21370074A074B1B78DBB223F00203DBB21370D6
:403E4000BD465DF8047B70470C4F0040A3430040B343004080B483B000AF0346FB80044AFB8813800C37BD465DF8047B704700BF104F004080B483B000AF0346FB80044A28
:403E8000FB8813800C37BD465DF8047B704700BF124F004080B483B000AF0346FB71044AFB7913700C37BD465DF8047B704700BF0F4F004080B400AF034B1B78DBB21846CE
:403EC000BD465DF8047B70470F4F004080B500AF00F042F8044800F00FF8072000F01EF800F02EF880BD00BFED3E000080B500AFFCF71EFC80BD00BF80B485B000AF7860FE
:403F0000054B1B68FB60FB6884337A681A601437BD465DF8047B704708ED00E080B483B000AF0346FB71054AFB795B01DBB213700C37BD465DF8047B704700BF11E400E0D0
:403F400080B400AF034B4FF400321A60BD465DF8047B704700E100E080B400AF034B4FF400321A60BD465DF8047B704780E100E080B500AF00F042F8044800F00FF807206B
:403F800000F01EF800F02EF880BD00BF913F000080B500AFFCF74AFC80BD00BF80B485B000AF7860054B1B68FB60FB6888337A681A601437BD465DF8047B704708ED00E0BA
:403FC00080B483B000AF0346FB71054AFB795B01DBB213700C37BD465DF8047B704700BF12E400E080B400AF034B4FF480221A60BD465DF8047B704700E100E080B400AF9F
:40400000034B4FF480221A60BD465DF8047B704780E100E080B500AF064B00221A70064B00221A70042000F071F8002000F04EF880BD00BF285800402958004080B400AFF3
:40404000094A094B1B78DBB243F00403DBB21370064A064B1B78DBB243F00403DBB21370BD465DF8047B7047A8430040B843004080B500AF074B1B78002B04D1FFF7CAFFA8
:40408000044B01221A70FFF7D9FF002000F05EF880BD00BFAAC2FF1F80B400AF094A094B1B78DBB223F00403DBB21370064A064B1B78DBB223F00403DBB21370BD465DF833
:4040C000047B7047A8430040B843004080B483B000AF0346FB710C4A0B4B1B78DBB223F00203DBB213700849074B1B78DAB2FB7903F00203DBB21343DBB20B700C37BD4606
:404100005DF8047B704700BF2858004080B582B000AF0346FB710C4A0B4B1B78DBB223F00C03DBB213700849074B1B78DAB2FB7903F00C03DBB21343DBB20B7000F016F88B
:404140000837BD4680BD00BF2858004080B483B000AF0346FB71044AFB7913700C37BD465DF8047B704700BF825B004080B483B000AF0B4B1B78DBB203F00C039B08DBB2C6
:404180000633FB71074AFB7903F1924303F594731B78DBB213700C37BD465DF8047B7047285800400A46004080B500AF0A4B0C221A700A4A094B1B78DBB243F02003DBB26D
:4041C0001370074B80221A70002000F075F8012000F056F880BD00BF08580040095800400A58004080B400AF0D4A0D4B1B78DBB243F00403DBB213700A4A0A4B1B78DBB23E
:4042000043F00403DBB21370074A074B1B78DBB263F07F03DBB21370BD465DF8047B7047A9430040B94300407758004080B500AF054B1B78002B04D1FFF7B6FF024B0122A5
:404240001A70FFF7CFFF80BDABC2FF1F80B400AF094A094B1B78DBB223F00403DBB21370064A064B1B78DBB223F00403DBB21370BD465DF8047B7047A9430040B943004073
:4042800080B485B000AF0346FB710A4B1B78DBB223F00303FB73FB7903F00303DAB2FB7B1343FB73034AFB7B13701437BD465DF8047B70470958004080B588B000AF0346DD
:4042C000FB71284A07F114031068516803C3127A1A70254A07F108031068516803C3127A1A70FB79082B39D8204A204B1B78DBB223F07F03DBB213701C481C4B1B78DAB209
:40430000FB7907F120010B4413F80C1CFB7907F1200E734413F8183C9B00DBB203F00C03DBB20B43DBB21343DBB20370104A104B1B78DBB223F00C03DBB213700C490C4B23
:404340001B78DAB2FB7907F12000034413F8183C1343DBB243F00C03DBB20B702037BD4680BD00BFC4600000D06000000A5800400958004080B500AF0A4B0C221A700A4A8D
:40438000094B1B78DBB243F02003DBB21370074B80221A70002000F075F8012000F056F880BD00BF00580040015800400258004080B400AF0D4A0D4B1B78DBB243F0010319
:4043C000DBB213700A4A0A4B1B78DBB243F00103DBB21370074A074B1B78DBB263F07F03DBB21370BD465DF8047B7047A9430040B94300407758004080B500AF054B1B7829
:40440000002B04D1FFF7B6FF024B01221A70FFF7CFFF80BDACC2FF1F80B400AF094A094B1B78DBB223F00103DBB21370064A064B1B78DBB223F00103DBB21370BD465DF839
:40444000047B7047A9430040B943004080B485B000AF0346FB710A4B1B78DBB223F00303FB73FB7903F00303DAB2FB7B1343FB73034AFB7B13701437BD465DF8047B704783
:404480000158004080B588B000AF0346FB71284A07F114031068516803C3127A1A70254A07F108031068516803C3127A1A70FB79082B39D8204A204B1B78DBB223F07F0343
:4044C000DBB213701C481C4B1B78DAB2FB7907F120010B4413F80C1CFB7907F1200E734413F8183C9B00DBB203F00C03DBB20B43DBB21343DBB20370104A104B1B78DBB246
:4045000023F00C03DBB213700C490C4B1B78DAB2FB7907F12000034413F8183C1343DBB243F00C03DBB20B702037BD4680BD00BFDC600000E8600000025800400158004012
:4045400080B500AF064B00221A70064B00221A70042000F071F8002000F04EF880BD00BF205800402158004080B400AF094A094B1B78DBB243F00103DBB21370064A064B8B
:404580001B78DBB243F00103DBB21370BD465DF8047B7047A8430040B843004080B500AF074B1B78002B04D1FFF7CAFF044B01221A70FFF7D9FF002000F05EF880BD00BFEC
:4045C000ADC2FF1F80B400AF094A094B1B78DBB223F00103DBB21370064A064B1B78DBB223F00103DBB21370BD465DF8047B7047A8430040B843004080B483B000AF034622
:40460000FB710C4A0B4B1B78DBB223F00203DBB213700849074B1B78DAB2FB7903F00203DBB21343DBB20B700C37BD465DF8047B704700BF2058004080B582B000AF03465A
:40464000FB710C4A0B4B1B78DBB223F00C03DBB213700849074B1B78DAB2FB7903F00C03DBB21343DBB20B7000F016F80837BD4680BD00BF2058004080B483B000AF03465A
:40468000FB71044AFB7913700C37BD465DF8047B704700BF805B004080B483B000AF0B4B1B78DBB203F00C039B08DBB20633FB71074AFB7903F1924303F590731B78DBB292
:4046C00013700C37BD465DF8047B7047205800400846004080B485B000AF0346FB710B4B1B78DBB223F02003FB730849FB795B01DBB203F02003DAB2FB7B1343DBB20B7015
:404700001437BD465DF8047B704700BF2051004080B500AF00F042F8044800F00FF8072000F01EF800F02EF880BD00BF3147000080B500AFFDF742FA80BD00BF80B485B0AF
:4047400000AF7860054B1B68FB60FB6850337A681A601437BD465DF8047B704708ED00E080B483B000AF0346FB71054AFB795B01DBB213700C37BD465DF8047B704700BF0A
:4047800004E400E080B400AF034B10221A60BD465DF8047B704700BF00E100E080B400AF034B10221A60BD465DF8047B704700BF80E100E080B582B000AF0023FB7106E050
:4047C000FB791846FEF76AFCFB790133FB71FB79012BF5D9024BFF221A700837BD4680BDB0C1FF1F80B582B000AF0346FB71094B1B78FF2B04D0074B1B781846FEF74EFCD2
:40480000FB791846FEF72AFC024AFB7913700837BD4680BDB0C1FF1F80B500AF204A204B1B78DBB203F00103DBB213701D4A1D4B1B78DBB223F00303DBB213701A4A1A4B79
:404840001B78DBB223F03003DBB21370164A164B1B78DBB243F03003DBB21370124A124B1B78DBB223F00F03DBB213700E4A0E4B1B78DBB243F00F03DBB213700B4A0B4B8C
:404880001B78DBB243F00103DBB21370042000F083F8042000F092F8082000F061F880BD184F00401A4F0040234F0040194F004080B400AF0D4A0D4B1B78DBB243F0040320
:4048C000DBB213700A4A0A4B1B78DBB243F00403DBB21370074A074B1B78DBB243F00103DBB21370BD465DF8047B7047A3430040B3430040184F004080B500AF054B1B7833
:40490000002B04D1FFF788FF024B01221A70FFF7CFFF80BDAEC2FF1F80B400AF0D4A0D4B1B78DBB223F00103DBB213700A4A0A4B1B78DBB223F00403DBB21370074A074B02
:404940001B78DBB223F00403DBB21370BD465DF8047B7047184F0040A3430040B343004080B483B000AF0346FB71044AFB7913700C37BD465DF8047B704700BF1B4F004012
:4049800080B400AF034B1B78DBB21846BD465DF8047B70471B4F004080B485B000AF0346FB80FB88FB81044AFB8913801437BD465DF8047B704700BF1C4F004080B483B026
:4049C00000AF0346FB80044AFB8813800C37BD465DF8047B704700BF1E4F004080B500AF00F042F8044800F00FF8062000F01EF800F02EF880BD00BFFD49000080B500AFEA
:404A00000020FBF7ADFD80BD80B485B000AF7860054B1B68FB60FB688C337A681A601437BD465DF8047B704708ED00E080B483B000AF0346FB71054AFB795B01DBB2137039
:404A40000C37BD465DF8047B704700BF13E400E080B400AF034B4FF400221A60BD465DF8047B704700E100E080B400AF034B4FF400221A60BD465DF8047B704780E100E091
:404A800080B485B000AF0346FB710A4B1B78DBB223F00103FB730749FB7903F00103DAB2FB7B1343DBB20B701437BD465DF8047B704700BF2051004080B485B000AF03466A
:404AC000FB710B4B1B78DBB223F00803FB730849FB79DB00DBB203F00803DAB2FB7B1343DBB20B701437BD465DF8047B704700BF2051004080B500AF00F040FA00F050FA2C
:404B000080BD00BF80B500AFFFF7F4FF80BD00BF80B584B000AF03460A46FB711346BB8000F032FBBB88B3F5006F75D2BB881B097B817B891A461203D31A1B019AB2BB88CD
:404B400013443B8100F056FC0346002B61D13A89FB1D402011461A46012300F063FBF860FB68072B4CD14FF0FF33FB6000BF2E4B1B78DBB203F00203002BF8D02A4B1B78B5
:404B8000DBB203F00203002B08D0274B1B78DBB29B08DBB2002B01D10023FB60FB68002B2AD1224B1A78214B5B787989402000F0A3FB0346072B1BD14FF0FF33FB6000BF87
:404BC000194B1B78DBB203F00203002BF8D0164B1B78DBB203F00203002B17D0124B1B78DBB29B08DBB2002B10D10023FB600DE04FF0FF33FB6009E04FF0FF33FB6005E031
:404C0000FB68012B02D04FF0FF33FB6000F026FC04E00423FB6001E00123FB60FB6818461037BD4680BD00BF22470040C0C2FF1F80B584B000AF0346FB8000F021F90346F0
:404C4000FB7300F0F3F9FB8803F1804303F500431B78BB7300F002FAFB7B184600F014F9BB7B18461037BD4680BD00BF80B500AF00F084F90346DBB2184680BD80B500AF77
:404C8000074B0F221A7000F0A9F800F05DF800F06BF8044B00221A70034B00221A7080BD8B640040886500408965004080B582B000AF00F0E5F80346FB71124A114B1B781F
:404CC000DBB243F02003DBB213700F4A0E4B1B78DBB243F01003DBB213700C4A0B4B1B78DBB243F01003DBB21370FB79184600F0CBF800F0A1F800F01BF800F01FF8083720
:404D0000BD4680BD9B640040986500409965004080B500AF054B1B78002B04D1FFF7AEFF024B01221A70FFF7C1FF80BDAFC2FF1F80B400AFBD465DF8047B704780B400AF3F
:404D4000BD465DF8047B704780B483B000AF054B1B78FB71FB7918460C37BD465DF8047B704700BF6865004080B483B000AF054B1B78FB71FB7918460C37BD465DF8047B80
:404D8000704700BF6965004080B483B000AF0346FB7100BF074B1B78DBB203F00403002BF8D0054AFB7913700C37BD465DF8047B704700BF686500404865004080B483B04F
:404DC00000AF054B1B78FB71FB7918460C37BD465DF8047B704700BF5865004080B582B000AF01E0114B1B78114B1B78DBB203F02003002BF6D100F043F80346FB710D4AB5
:404E00000C4B1B78DBB243F00103DBB21370094A084B1B78DBB223F00103DBB21370FB79184600F031F80837BD4680BD58650040696500409865004080B400AF094A094B8B
:404E40001B78DBB243F00203DBB21370064A064B1B78DBB243F00203DBB21370BD465DF8047B7047A2430040B2430040000000000230800803D000BF01380046FCD170478A
:404E8000EFF3108072B6704780F31088704700BF80B582B000AF00F077F94FF0FF337B6000F0A8FA0346002B24D1012000F070FA0346072B1BD11348022100F087F903464A
:404EC000022B0DD100237B6002E0012000F0F8F80D4B1B78DBB203F00203002BF5D006E0094B1B78DBB203F00203002BE3D000F0B5FA01E004237B607B6818460837BD4631
:404F000080BD00BFC0C2FF1F2247004080B582B000AF00F039F900F06DFA0346002B23D100F0C4FA78607B68072B1AD102E0012000F0C6F8104B1B78DBB203F00203002B60
:404F4000F5D00D4B1B78DBB203F00203002B08D0094B1B78DBB29B08DBB2002B01D100237B6000F07BFA01E004237B607B6818460837BD4680BD00BF2247004080B582B083
:404F800000AFFFF7C3FF78607B68002B02D1FFF77FFF78607B6818460837BD4680BD00BF80B582B000AFFFF76BFF0346FB71194A184B1B78DBB243F00803DBB21370164A47
:404FC000154B1B78DBB243F00803DBB21370134BC8221A70124A124B1B78DBB243F01003DBB213700F4A0F4B1B78DBB243F01003DBB2137000BF0C4B1B78DBB203F020036D
:40500000002BF8D0FB791846FFF73EFF0837BD4680BD00BFA0430040B043004001470040AC430040BC4300400047004080B400AF094A094B1B78DBB243F00103DBB2137076
:4050400000BF054B1B78DBB203F00203002BF8D0BD465DF8047B70470247004080B400AF054A054B1B78DBB223F00103DBB21370BD465DF8047B70470247004080B582B0B8
:4050800000AF786008E00C4B1B681846FFF7F0FE7B68A3F500437B607B68B3F5004FF2D8064B1B687A6802FB03F31846FFF7E0FE0837BD4680BD00BFC0C1FF1FB8C1FF1FD9
:4050C00080B582B000AF0346FB80FB88044A127802FB03F31846FFF7CBFE0837BD4680BDBCC1FF1F80B483B000AF03460A46FB711346BB711D491D4B1B78DBB223F00303AA
:40510000DAB2FB7903F00303DBB21343DBB20B70164A164B1B78DBB263F07F03DBB21370124A124B1B78DBB203F07F03DBB213700E49BB795B01DBB203F06003DAB20B4BBB
:405140001B78DBB223F06003DBB21343DBB20B70064A064B1B78DBB243F01003DBB213700C37BD465DF8047B704700BF8343004080B400AF034B01221A70BD465DF8047B4C
:40518000704700BF8443004080B582B000AFFFF777FE0346FB710B4A0A4B1B78DBB243F00803DBB21370084A074B1B78DBB243F00803DBB21370FB791846FFF765FE0837A8
:4051C000BD4680BDA0430040B043004080B584B000AF78600B46FB700023FB7314E002E00120FFF76DFF0D4B1B78DBB203F00103002BF5D0FB7B7A681344094A1278D2B214
:405200001A70FB7B0133FB73FA7BFB789A42E6D3FB7B18461037BD4680BD00BF224700402047004080B485B000AF3A601A460346FB710B46BB801346BB710723FB60FB7914
:405240003E2B02D8BB791F2B05D9FB793F2B46D9BB790F2B43D8264B1B78DBB203F00203002B38D0234BB6221A70224BD4221A70204B01221A701E4B1B78DBB203F00203F7
:40528000002B25D11B4AFB7913701A4ABB881B0A9BB2DBB203F00103DBB21370154BBA88D2B21A70134ABB79013BDBB213700023FB7208E00F49FB7A3A6813441B780B70EB
:4052C000FB7A0133FB72FA7ABB799A42F2D305E00923FB6005E00423FB6002E001E00123FB60FB6818461437BD465DF8047B7047224700402047004090B484B000AF0446DF
:40530000084611461A462346FB710346BB800B46BB711346FB700723FB601B4B1B78DBB203F00203002B26D0184BB6221A70174BD8221A70154B05221A70134B1B78DBB270
:4053400003F00203002B13D1104AFB7913700F4ABB881B0A9BB2DBB213700C4BBA88D2B21A700A4ABB791370084AFB78137004E00923FB6001E00423FB60FB6818461037E7
:40538000BD4690BC704700BF224700402047004080B485B000AF0346FB710723FB60134B1B78DBB203F00203002B16D0104BB6221A700F4BE1221A700D4B0E221A700B4BF3
:4053C0001B78DBB203F00203002B03D1084AFB79137004E00923FB6001E00423FB60FB6818461437BD465DF8047B7047224700402047004080B582B000AF04237B60FFF787
:405400003FFD0346FB70124B1B78002B16D1104B01221A7000237B600E4B1B6803F00103002B0BD00B4A0B4B1B6823F00103136000BF00BF00BF084B01221A60FB781846E5
:40544000FFF722FD7B6818460837BD4680BD00BFB0C2FF1F04000840B4C2FF1F80B582B000AFFFF70DFD0346FB710D4B00221A700C4B1B68012B0BD10B4A0B4B1B6843F016
:405480000103136000BF00BF00BF064B00221A60FB791846FFF7F8FC0837BD4680BD00BFB0C2FF1FB4C2FF1F0400084080B483B000AF07237B600D4B1B78DBB203F0020356
:4054C000002B09D00A4BB6221A70094BE0221A70074B0D221A7001E004237B607B6818460C37BD465DF8047B704700BF224700402047004080B582B000AFFF2000F06AF87B
:40550000FF2000F083F8FFF7BBFC0346FB710A4A094B1B78DBB243F01003DBB21370FB791846FFF7B1FC00F081F8012000F036F80837BD4680BD00BF9964004080B400AFE6
:40554000054A054B1B78DBB263F07F03DBB21370BD465DF8047B70477A64004080B500AF054B1B78002B04D1FFF7C4FF024B01221A70FFF7E3FF80BDB8C2FF1F80B400AFD1
:40558000054A054B1B78DBB203F07F03DBB21370BD465DF8047B70477A64004080B483B000AF0346FB71044AFB7913700C37BD465DF8047B704700BF8964004080B400AF4B
:4055C000034B1B78DBB21846BD465DF8047B70476964004080B483B000AF0346FB80044AFB8813800C37BD465DF8047B704700BF5068004080B400AF034B1B889BB21846FF
:40560000BD465DF8047B70479068004080B483B000AF0346FB80044AFB8813800C37BD465DF8047B704700BF1068004080B500AF01E0FFF7DFFFFFF7C1FF034603F0080388
:40564000002BF6D180BD00BF80B500AF00F042F8044800F00FF8062000F01EF800F02EF880BD00BF6956000080B500AFFBF7E2FE80BD00BF80B485B000AF7860054B1B6879
:40568000FB60FB6840337A681A601437BD465DF8047B704708ED00E080B483B000AF0346FB71054AFB795B01DBB213700C37BD465DF8047B704700BF00E400E080B400AF7E
:4056C000034B01221A60BD465DF8047B704700BF00E100E080B400AF034B01221A60BD465DF8047B704700BF80E100E080B400AF054A054B1B78DBB203F07F03DBB213702E
:40570000BD465DF8047B70477465004080B500AF204A204B1B78DBB203F00103DBB213701D4A1D4B1B78DBB223F00303DBB213701A4A1A4B1B78DBB223F03003DBB213708B
:40574000164A164B1B78DBB243F03003DBB21370124A124B1B78DBB223F00F03DBB213700E4A0E4B1B78DBB243F00F03DBB213700B4A0B4B1B78DBB243F00103DBB213708C
:40578000042000F083F8042000F092F8082000F061F880BD244F0040264F00402F4F0040254F004080B400AF0D4A0D4B1B78DBB243F00803DBB213700A4A0A4B1B78DBB26B
:4057C00043F00803DBB21370074A074B1B78DBB243F00103DBB21370BD465DF8047B7047A3430040B3430040244F004080B500AF054B1B78002B04D1FFF788FF024B012200
:405800001A70FFF7CFFF80BDB9C2FF1F80B400AF0D4A0D4B1B78DBB223F00103DBB213700A4A0A4B1B78DBB223F00803DBB21370074A074B1B78DBB223F00803DBB2137083
:40584000BD465DF8047B7047244F0040A3430040B343004080B483B000AF0346FB71044AFB7913700C37BD465DF8047B704700BF274F004080B400AF034B1B78DBB2184686
:40588000BD465DF8047B7047274F004080B485B000AF0346FB80FB88FB81044AFB8913801437BD465DF8047B704700BF284F004080B483B000AF0346FB80044AFB881380D7
:4058C0000C37BD465DF8047B704700BF2A4F004080B500AF00F042F8044800F00FF8072000F01EF800F02EF880BD00BFF158000080B500AF0120FAF733FE80BD80B485B0B9
:4059000000AF7860054B1B68FB60FB6890337A681A601437BD465DF8047B704708ED00E080B483B000AF0346FB71054AFB795B01DBB213700C37BD465DF8047B704700BFF8
:4059400014E400E080B400AF034B4FF480121A60BD465DF8047B704700E100E080B400AF034B4FF480121A60BD465DF8047B704780E100E080B582B000AF0023FB7106E0A6
:40598000FB791846FDF7E2FBFB790133FB71FB79012BF5D9024BFF221A700837BD4680BDC4C1FF1F80B582B000AF0346FB71094B1B78FF2B04D0074B1B781846FDF7C6FB00
:4059C000FB791846FDF78CFB024AFB7913700837BD4680BDC4C1FF1F80B500AF054B1B78002B04D100F008F8024B01221A7000F013F880BDBAC2FF1F80B400AF044B7222AC
:405A00001A70044B20221A70BD465DF8047B7047886400408B65004080B582B000AFFFF72FFA0346FB710C4A0B4B1B78DBB243F02003DBB21370094A084B1B78DBB243F0C2
:405A40001003DBB2137000F091F8FB791846FFF71BFA0837BD4680BD986400409B65004080B483B000AF064B1B78DBB203F07F03FB71FB7918460C37BD465DF8047B7047A7
:405A80006B65004080B483B000AF0023FB710C4B1B78BB71BB7903F02003002B09D0094B1B78FB71BB7903F01E03002B01D00023FB71FB7918460C37BD465DF8047B704704
:405AC0006B6500404B65004080B500AF00F042F8044800F00FF8072000F01EF800F02EF880BD00BFE95A000080B500AFFCF736F880BD00BF80B485B000AF7860054B1B680F
:405B0000FB60FB6868337A681A601437BD465DF8047B704708ED00E080B483B000AF0346FB71054AFB795B01DBB213700C37BD465DF8047B704700BF0AE400E080B400AFC7
:405B4000034B4FF480621A60BD465DF8047B704700E100E080B400AF034B4FF480621A60BD465DF8047B704780E100E080B400AF094A094B1B78DBB243F01003DBB213704A
:405B8000064A064B1B78DBB243F01003DBB21370BD465DF8047B7047A2430040B243004080B500AF00F042F8044800F00FF8072000F01EF800F02EF880BD00BFC15B00003A
:405BC00080B500AFFCF710F880BD00BF80B485B000AF7860054B1B68FB60FB686C337A681A601437BD465DF8047B704708ED00E080B483B000AF0346FB71054AFB795B01B6
:405C0000DBB213700C37BD465DF8047B704700BF0BE400E080B400AF034B4FF400621A60BD465DF8047B704700E100E080B400AF034B4FF400621A60BD465DF8047B704778
:405C400080E100E080B582B000AF092000F06AF8092000F083F8FFF713F90346FB710A4A094B1B78DBB243F01003DBB21370FB791846FFF709F900F081F8012000F036F877
:405C80000837BD4680BD00BF9564004080B400AF054A054B1B78DBB263F07F03DBB21370BD465DF8047B70477564004080B500AF054B1B78002B04D1FFF7C4FF024B01224F
:405CC0001A70FFF7E3FF80BDBBC2FF1F80B400AF054A054B1B78DBB203F07F03DBB21370BD465DF8047B70477564004080B483B000AF0346FB71044AFB7913700C37BD4646
:405D00005DF8047B704700BF8564004080B400AF034B1B78DBB21846BD465DF8047B70476564004080B483B000AF0346FB80044AFB8813800C37BD465DF8047B704700BFDC
:405D40004868004080B400AF034B1B889BB21846BD465DF8047B70478868004080B483B000AF0346FB80044AFB8813800C37BD465DF8047B704700BF0868004080B500AF94
:405D800001E0FFF7DFFFFFF7C1FF034603F00803002BF6D180BD00BF80B582B000AF40F2E73000F05BF840F2E73000F073F8FFF767F80346FB710A4A094B1B78DBB243F0F8
:405DC0001003DBB21370FB791846FFF75DF800F071F8012000F026F80837BD4680BD00BF9765004080B400AF054A054B1B78DBB263F07F03DBB21370BD465DF8047B70474C
:405E00007665004080B500AF054B1B78002B04D1FFF7C2FF024B01221A70FFF7E3FF80BDBCC2FF1F80B483B000AF0346FB71044AFB7913700C37BD465DF8047B704700BF7E
:405E40008765004080B400AF034B1B78DBB21846BD465DF8047B70476765004080B483B000AF0346FB80044AFB8813800C37BD465DF8047B704700BF4C6A004080B400AF06
:405E8000034B1B889BB21846BD465DF8047B70478C6A004080B483B000AF0346FB80044AFB8813800C37BD465DF8047B704700BF0C6A004080B500AF01E0FFF7DFFFFFF76F
:405EC000C1FF034603F00803002BF6D180BD00BF0E4B70B51E460E4C0025E41AA410A54204D056F8253098470135F8E700F002F9084B094C1E46E41AA4100025A54204D0BF
:405F000056F8253098470135F8E770BD0061000000610000006100000861000010B5431E0A44914204D011F8014B03F8014FF8E710BD03460244934202D003F8011BFAE77C
:405F4000704710F8012B11F8013B012A28BF9A42F7D0D01A704700001000000000000000017A5200027C0E011B0C0D001000000018000000CEFFFFFF1400000000000000F6
:405F800000000000FA040000B801D201EE010C022A024C026E029402BA02E40210033E037003A403DC03160454049604DC0426057405C80520067C06E00614011401FA00DC
:405FC00019000F0023000000FFFF0300FA00000040420F0003000000000100000080FF0000000000D0FB1D0040B3380070EA3800D011390030543900B0BA3900C0FA390035
:4060000080613A0052494646000000005741564500000000666D7420000000006461746100010000008000000E010204050B0F010204050BFF00AA002D510040285A0040F5
:40604000400400002C5100406C510040085A00406D51004080200220004F00403000000001400008800801408007001401400004801801400002001B014000010040014056
:40608000000A004C01400002105001401000000000510140800C0048080000080140880C0048800000180140080D00488000801A0140880D0048800000500140080E004826
:4060C00010000000011121314161536373000000080901010507070404000000011121314161536373000000080901010507070404000000F8B500BFF8BC08BC9E46704757
:406100004D0000000D2D0000F8B500BFF8BC08BC9E467047290000002861000008C1FF1FC000000000010000000000000000000070030000D502DC05AC0D0100D5024006FD
:40614000DC000000D50240066E0000008A02BD06280000005802B0048813000002035A05C05D0101D502DC05AC0D01002602EE02A00F0000F401330464000000F401330420
:406180003C000000B801E006A00F00000000E80300000000000000000000000001000000000000000000E8030000000000000000000000000100000000000000010100007B
:4061C000010000007E56010D0A7E53030D0A0100FF000000006CDC0280BB0000300000000000C05DFF000000000000000000000000000000000000000000000000000000F6
:40620000000000000000000000000000000000000000000000000000000000000000000000000000000000000000000000000000000000000000000000000000000000005E
:40624000000000000000000000000000000000000000000000000000000000000000000000000000000000000000000000000000000000000000000000000000000000001E
:4062800000000000000000000000000000000000000000000000000000000000000000000000000000000000000000000000000000000000000000000000000000000000DE
:4062C000000000000000000000000000000000000000000000000000000000000000000000000000000000000000000000000000000000000000000000000000000000009E
:020000040001F9
:0200000480007A
:4000000001450040084F00400852004006640040056500401F000140220101402E02014041030140470401403F05014020060140320701401F080140480901403C0A014088
:40004000400B01403B0C01403B0D0140290E0140230F01404E14014037150140481601403E170140101801404E1901400E1A01404E1B0140104001401C4101402F4201408E
:4000800018430140024401400B450140124601400A47014014480140124901400A4C01400B4D0140065001407E0201300A4B0D30164B1920224B25202E4B0006010210C080
:4000C000114020012C8034C07C4081028302850D8872890D8B0F8402850D8602870D8B3803010401070417021E02300231023304350136013E405608580459045B045C775A
:400100005D905F01840286018C018E029B01B101B203D604D804D904DB04DC77DF010220044006100710098019401B021E20210822212440310437103A013B0459025A1045
:400140005B485E205F80618462016304650181018F08C0A4C201CC22CE03D63FD88FE080E20203020B0121022B042E0133013504360137023F405608580459045B045C7576
:400180005D905F01860189048B028C028E04930195029608970499209B109C049E02A110A320AF08B006B101B208B330B506B601B708D604D804D904DB04DC77DF01022001
:4001C000030208080988154018A01B401F802084218023202408254027102A402B422F8430013108322038203E023F1059405B205D105F48620264016718821089508C046A
:400200008E108F6091409242961099409A029D029F50A108A220A302A940AE02B210B380B640C005C205C480CAA9CC07CEA4D67CD871E010E208E415E620E850EC80EE0CB5
:400240000104020203080E0111021301210823042D012F0230023303350C3601405349FF4AFF4BFF4F015018580459045A045B045C775D055F016040624064406540668003
:4002800068806A806C806E808A019201B001B920BE01BF10C052C5ECC702C813C9FFCAFFCBFFCD83CE03CF01D018D280D401D604D804D904DA04DB04DD55DF01E040E240F6
:4002C000E440E540E680E880EA80EC80EE8000820101030106040C0219411E802010221025202941330139014308460448024C024D044F015604570859285A405B025D042C
:400300005E805F01600862406740740280108740880189088A04900892429620980A9A409F08A040A720A802A902AA02AF40B440C049C210CA09CC01CE01D022D218D6DFAE
:40034000D88CE010E204E401E680EE03030207012A013101350236015608580459045B045C775D905F018002820188088A049004920897019F02A801AA02B003B101B302A0
:40038000B40CD804D904DB04DC77DF0103440B40120816081B211C022208234024042502274433443C803E403F0559015A445B205C805D24600262106608670588108A10A2
:4003C0009008920698029E02A040A401A721AB02AD20AE02AF08B120B301C00AC208C442CC0ACEC0D67FD87CE010E60AEA02EE838E019201B601BE40C045C5ECC720C8239D
:40040000C9FFCAFFCBFFCD83CE03CF01D018D401D604D804DA04DB04DD99DF01E040E240E440E540E680E880EA80EC80EE800202042105080602082009120D010E25142057
:40044000168519401C021D201F14250426802C022E012F18350836B03DA03E864102450249064A024E02520259465E4063406C096D04762877018680874089018B308E403E
:4004800092459408962097219A029B209D18A010A15AA220A482A604AA01AE01B020B221C0F1C2F8C4F0CAF0CC70CEF0D081D218D61BD801E010E220E620E880EA020301ED
:4004C00016021E0129042B022D022F04330134013506360252805608580459045B045C775D905F0181CD840185CD8801898D8B408D4D8F8095019732980199109B609D0212
:400500009E029F0DA380A512A604A764A801A9CDAD72AF08B001B204B380B402B570B70FBBA0BE01BF04D602D720D804D904DB04DC17DD10DF010020020404080510080855
:400540000A020E0A1614170419601A021E401F28200422042320250826A029602C822E202F10350836A038013DA03E0658405A20600967016DA06E05710276028208884087
:400580008A10940496089B049C209E08A010A201A728A980AA40B005B441C060C2C5C460CAFCCC70CEF1D60CD81CE010E204E6A0EA04EC10EE020001030404010801094094
:4005C0000B200C0110011108131014011502170118011C011D011F022001240125102708280129202B402C013118336034013504370338203A083E105608580459045B0427
:400600005C745D905F0188028A0192049702A701A801AA02B004B204B301B603B702D608D804D904DB04DC77DD90DF01001004050510060208020D080E090F801320142054
:4006400016081741181019081A811C201D202280232025102604274529082F28320C36893D203F0159805C4060026701811085208E028F409C05A108A201AA80AE80B1808B
:40068000B420B504B640C0F2C2F8C4F2CA62CCD2CEA0D618D818E040E280E441E850EC80EE4000010202030107010C040E081C081E1428022A213010340F3620370139803A
:4006C0003E105608580459045B045C655D905F0187018C048E029B029E01A802AA04B206B301B601B702D608D804D904DB04DC77DD90DF0100400380070208800F01120480
:40070000172018401A041B801D081E02228025042722372038053F0458255A805D9060856204670586048910C089C281C442CC20CE43D63FD83FE080E6400C010E021301B1
:400740001C021E0131013403405449FF4AFF4BFF4F01501852805604580459045A045B045C775D995F016040624064406540668068806A806C806E8082018504860687099C
:40078000920195039604970499059B0A9D0EA606A802B001B10FB206B902BE01C054C5ECC602C807C9FFCAFFCBFFCD83CE03CF01D018D401D604D804D904DA04DB04DC1150
:4007C000DD99DF01E040E240E440E540E680E880EA80EC80EE8002020404068008400A020C020E10141819101E50220227403201341837403C044280468048024C024D04FF
:400800004F015680584059105D045E405F0161026602700285028C0492029404961098189E029F40A884AA01AD20C031C231C460CC71CE40D081D218D6DCD881E040E2801E
:40084000E840EE02040206010B010C010E0232033701404549FF4AFF4BFF4F01501852805604580459045A045B045C775D555F016040624064406540668068806A806C80EF
:400880006E808501860196019901A302A401A901AF02B102B201B501BE04BF11C014C5ECC720C823C9FFCAFFCBFFCD83CE03CF01D018D401D604D804D904DA04DB04DD55D7
:4008C000DF01E040E240E440E540E680E880EA80EC80EE800004040806200701080810101440150218201E2021112701280829022B82301038043E204382464049054E0207
:4009000052025302584059055C805E20610266017502764082108340850489108C108D0290089202950498189D209E02A804A901AC08B080B102B320C0A4C204C404CA0DCA
:40094000CC04CE22D089D210D63BD881E610EE088102830D89098B0699059B0A9D039F0CB70FBB80D440D904DB04DC10DD10DF0100220344044A06080C0C0D420E0C151469
:4009800017011D121F022301248126062D202E042F02312033403620370538203B013C403D103E2944104524464047404C024D084F8054805580561357085C025D085E60E2
:4009C00061886210640188138C408D508E408F0490029104928093089429962097019A289B019D109E05A019A12CA482A604A708AC01AD08C0F0C2F0C470CA70CCECCEF553
:400A0000D0F0D210D6F0D81EE460EA2000010202080418061A012C0432073A08560858045B045C015D905F01001204800510061009200E200F0112011404150418301D1071
:400A40001E211F192408260127202E802F183520360437413C413E284502468047244C044D204E024F01560458205A805E0262706602670A8001822083448A028C108E104A
:400A80008F4090C09104928093089428962198249A299B059D209E44A001A122A206A620A740B212B420C0EAC2A2C461CA70CCF0CEF0D0E0D230D68CD8BCE040E280E6401C
:400AC000E840EE0201400408052030123440360239805608800287018A80C0E0CCF0CE10D440E2600A20308031013721388056805D10830884808B208C088E40900895801B
:400B00009B019C509D809E08A682B180B560C210CCF0CE10D440D620E210E48001081A021B041C823140340136403B103E203F08438145805440578058085A015E016008CC
:400B4000640868016B01822086408B108D049008959096809C509D819E88A408A682A708A840AA10C010C6F0CCB0CEB0D070D6C0D8C0E220E640EA80EC201B081D04841014
:400B800085108C0490089591968099089C109DC59E88A408A682A708AC41AD81AE01B201C630E650E810EA40EE108F40E602002006805F02660882088A04A740C006D60153
:400BC000D801E201812088028B048F0296489C309F02A740AA40AC10B010B280B420E008E201E601EA02EE0509220C02964897089C30A402A522A740AD02C20E0101270C35
:400C000043044708828885208D409581968099089DC19E88A408A682C010C820D0C0E280E440E6800120028005880A800C08860289408D0896809DE0A408A682A901B508C7
:400C4000C0F0C230E240EA200A080C100F80964897289C30A740B310C207EA040B280E4013021420964097289C209F02AF02C20EC40C10B211011AA21B011C121D0100001A
:400C8000FFFFFFA8FC03000000842000138404001C8003041A0400800100180018070038180402001A01000018840200020A18100060200002560009000020800F00137F73
:400CC0000080200000000404450000000000000000FFFFFF0000000118000000000002100404040411490001400040004040800080008000800080000000000000000000F4
:400D000000000000000000000800004001040600020C0000064C011300080100087F0000064001000700000004000000084E00210673000C00000032080E007C0700000142
:400D4000008020080000000025013000040EFDCB3DFFFFFF2200F008040000000900000004040404441100010000C00040011011C00100114001400100000000000000005E
:400D8000000000000000000000FC0000144049000AC0110000F0200C0080000001C0063C003C00C000282002000000001F1400021F3C00010000003C200C070318F040008F
:400DC00000000020000001046403050002C0000E12FFFFFF62A0F0410C000000180004000404040444440001000000000000400200103010001010120000000000000000CB
:400E00000000000000000000F201000000000000A001A0019201F0011900001F0F00060000000000C4000000000000000000010000000000C0000000E00000000000000047
:400E400006E9E900C00000003F000000000000000C000E010100010000000000F000000000000000C00000000000300000000000000000000000000000000000000000009E
:400E80000000000000000000000000000000000000000000000000000000000000000000000000000000000000000000000000000000000000000000000000000000000032
:400EC00000000000000000000000000000000000000000000000000000000000000000000000000000000000000000000000000000000000000000000000000000000000F2
