:400000000040002011000000E11B0000E11B000008B5044B1A6803F53F5302331A6001F0E1FD00BFFA46004010B5054C237833B9044B13B10448AFF300800123237010BDE0
:40004000B8C1FF1F00000000503A0000084B10B51BB108480849AFF300800848036803B910BD074B002BFBD0BDE81040184700BF00000000503A0000BCC1FF1F08C1FF1F0D
:400080000000000008B50320002103F09DF8002002F09CFE002002F0A5FE02F0B5FD03F085FC02F0C5F90028FBD002F0F5F90028F7D001F03BFAFA2003F066F802F0B2FD9A
:4000C000002002F0BFFD03F0EDFA002003F0FAFA02F024FB02F054FB02F06AFE03F0D4FA02F084FF03F014FA03F0AAFB03F06AFB03F01AFB02F0C2F902F0C2F802F07AF8B9
:4001000002F04CF802F030F802F002F801F068FA08BD00BF08B5FFF7B5FF62B601F0ECFB04E003F071F8012003F02EF800F006F80028F6D000F008F8F8E700BF014B187895
:40014000704700BFD4C1FF1F10B572B619E0002002F03CFE002002F045FE00240FE003F053F8012002F026FDFA2003F00DF8002002F020FDFA2003F007F80134E4B2092CFB
:40018000EDD902F055F90028E1D002F085F90028DDD00022074B1A7002F080F802F038F802F0E0F802F03EF901F0ECFF01F0A4FF62B610BDD4C1FF1F08B572B6002002F09F
:4001C00005FE002002F00EFE002000F05BFB012000F058FB002000F08BFD012000F088FD0122014B1A7008BDD4C1FF1F0D2823D80D2923D8012A23D810B109B1884204D0D5
:400200000022104B1A7001207047012A10D1052805D0072803D0162801D00A2803D90120084B187070470222064B1A70012070470120044B187070470020704700207047CB
:4002400000207047D5C1FF1F024BB3FBF0F080B2704700BF40420F00A8B138B50546047C012C05D1094B588DFFF7EEFF688004E0064B188DFFF7E8FF6880B4FA84F35B099F
:400280002B74012038BD0020704700BF0CC1FF1F60B338B50346827C12B98280012282749C88F92C0BD81D469A7D124B33F81200FFF7CAFF68800134AC80012038BD00225B
:4002C0009A801A7C012A03D19A7D01329A7502E09A7D013A9A759A7D172A03D900221A74012038BD22B90120187438BD00207047012038BD7C3A000070B50446012800F20F
:40030000B6800D2902D9162940F0B380012A00F2B280012B00F2B1805B4E65002544ED00354485F8601085F8742096F8600096F878101A46FFF75AFF95F86030002B00F070
:400340009E80002C3CD102F0FFFC04EB4403DB00334493F86020A2F10B03DBB2022B1AD80C2A07D00D2A0AD00B2A0CD1B08D02F0ADFC08E0444B988D02F0A8FC03E0424BAF
:40038000988C02F0A3FC04EB4404E4003F4B234400225A700DE0162A05D13B4BB3F85C0002F094FC05E0384B03EBC202908802F08DFC002002F046FC02F0F0F8012070BD55
:4003C000334B1B78012B3DD0022B03D1304B5B78012B37D103F024F904EB4403DB002A4A134493F86020A2F10B03DBB2022B1BD80C2A08D00D2A0BD00B2A0DD1224B988D26
:4004000003F0D0F808E0204B988D03F0CBF803E01D4B988C03F0C6F804EB4404E4001B4B1C44002363700DE0162A05D1164BB3F85C0003F0B7F805E0134B03EBC2029088C2
:4004400003F0B0F8124B1B78022B03D1104B5B78012B04D1002003F035F902F027F90C4B1B78022B0DD10120094B587070BD002070BD002070BD002070BD002070BD0120BA
:4004800070BD012070BD00BF0CC1FF1F7CC1FF1FD5C1FF1F70B5002849D00446002948D00D460888FFF7D0FE06466888FFF7CCFEA37C1BB9331AA3800123A374AB79012B86
:4004C0000BD1237C012B08D1A38803FB03F3321AB3FBF2F30344638002E0A38803446380257C012D16D1A388013B9BB2A3801BBBA380B5FA85F35B092374104B5B78DBB1BB
:400500000120217800220346FFF7F6FE00220B4B5A7011E0A38801339BB2A380361AB34209DBB5FA85F56D092574012504E0002502E0002500E00125284670BDD5C1FF1FBE
:40054000012800F29180002900F09080002A00F08F80F8B504468F88464BB3FBF7FE9088B3FBF0F604EB4405ED00434B2B445B78002B3CD0414B2B445B68B3421CD2404BB7
:400580009A4204D13F482844FFF766FE07E004EB4403DB003B4818441146FFF77BFF3A4A60000319DB001344DB6E0444E40014440133E3660120F8BD1CB1384602F0F2FF1F
:4005C00002E0384602F082FB2F4A60000319DB0013440025DD6693F87130B3FA83F35B090444E400144484F871300120F8BD04EB4402D200214B13445B6873451BD2204BD6
:40060000994204D11F481044FFF726FE06E004EB4403DB001B481844FFF73CFF1A4A60000319DB001344DB6E0444E40014440133E3660120F8BD14B102F0B4FF01E002F0DF
:4006400045FB114A60000319DB0013440025DD6693F87130B3FA83F35B090444E400144484F871300120F8BD002070470020704700207047FFFF03007CC1FF1F74C1FF1F6B
:4006800034C1FF1F6CC1FF1F0CC1FF1F70B5002850D004462A4D288EFFF7D6FD0646688EFFF7D2FDA37C33B9331AA3800123A37463750023E380257C012D2AD1A38803FB36
:4006C00003F2361AB2FBF6F606446680E288182A01D80F2100E001210132E2801BB1994201D9A18001E05B1AA380A3882BBBA380B5FA85F35B092374124B5B78EBB1012042
:40070000217800220346FFF7F7FD00220D4B5A7013E0A3881A18628001339BB2A3800022E280361AB34207DBB5FA85F56D092574012502E0002500E00125284670BD00BF41
:400740000CC1FF1FD5C1FF1F002837D038B50346002935D0827C12B98280012282745A7D1AB9CA790AB101225A751C469D88F92D0FD81B7C012B04D14888FFF765FD608095
:4007800003E00888FFF760FD60800135A580012038BD0C4B5B7843B10120217800220346FFF7AAFD0022074B5A700023A380237CB3FA83F35B092374012038BD0020704714
:4007C000002038BDD5C1FF1F002853D070B50446002951D00D460888FFF736FD06466888FFF732FDA37C1BB9331AA3800123A374A38803FB03F2361AB2FBF6F210446080EA
:40080000207C01280AD1013B9BB2A380002B36D1A380B0FA80F35B09237470BD2189AA8802EB8202C2EBC202914215DAA3B902EBD272B1EB620F0BD1114B5B7843B1012098
:40084000217800220346FFF757FD00220C4B5A7023890133238101E00133A380A3889E420CDC00232381237CB3FA83F35B092374012070BD00207047002070BD012070BDF4
:40088000D5C1FF1F012824D870B5044638B1002001F0C6FE01F0AAFE02F064FE06E0002001F036FE01F01AFE02F0F0F900210A4B19700A4D63001A19D2002A4402F17006A1
:4008C000012082F8700082F8721082F87510B17170BD0020704700BFD5C1FF1F0CC1FF1F38B501F069FE284B93F87530002B36D0264B9D7815B1012D23D026E040F2FA4076
:40090000FFF7A2FC214BDB78184484B21E4A92F89020012A03D102331C4AD37002E0023B1A4AD370194BDB7823B90122164B83F890200BE0132B09D90022134B83F8902095
:4009400004E0114BB3F8624000E000241DB901350E4B9D7006E000220C4B9A7002E00A4BB3F86240204601F0CDFD6508284601F0CFFD064B1B78012B05D1204601F04AFE49
:40098000284601F04DFE38BD0CC1FF1FD5C1FF1F38B501F099FE254B1B78012B44D0244B93F88D30002B36D0204B1D7915B1012D23D026E040F2FA40FFF746FC1B4B5B798D
:4009C000184484B21A4A92F89120012A03D10233164A537102E0023B144A5371134B5B7923B90122124B83F891200BE0132B09D900220F4B83F8912004E00D4BB3F87A401F
:400A000000E000241DB90135084B1D7106E00022064B1A7102E0064BB3F87A40204601F0F9FD600801F0FCFD38BD00BFD5C1FF1F0CC1FF1F034B002283F8732083F88B20B3
:400A4000704700BF0CC1FF1F012836D8002936D070B50C461C4D288FFFF7F6FB0646688FFFF7F2FBE37C1BB9331AA3800123E374E37CC3B1237D5BB1A28802FB02F3361A02
:400A8000B3FBF6F6064466806AB1013AA2800AE0A3881A18628001339BB2A380361AB34201DB0023E374E37C5BB9FFF7C3FF00F0AFFD00F0BBFD012070BD002070470020D8
:400AC0007047012070BD00BF0CC1FF1F10B5044610B102F061FD01E002F0F2F8012C7FD802F092FB04EB4403DB003F4A134493F86020531E152B75D8DFE803F00B0B0B0B87
:400B000018212A3441414E5760747474747474747469354901F1600304EB4400C000184401EBC201FFF7B6FC012010BD04EB4400C0002E4B1844FFF78FFB012010BD04EB02
:400B40004400C000294B1844FFF7A0FD012010BD04EB4403DB00204624491944FFF774FF012010BD204901F1600304EB4400C000184401EBC201FFF7E7FD012010BD1A49A1
:400B800001F1600304EB4400C000184401EBC201FFF71AFE012010BD134A204602F128012032FFF7CDFC012010BD0F4A204602F128011832FFF7C4FC012010BD0A4A204685
:400BC00002F120011832FFF7BBFC012010BD04EB4400C000054B1844FFF75AFB012010BD002010BD012010BD0CC1FF1F6CC1FF1F024BB3FBF0F080B2704700BF006CDC0246
:400C0000A0F10E03DBB2072B13D810B500F0B2F9034688B100F05EF9084C207000F060F9607000F069F9A06000F060F96060012302E0002318467047184610BDDCC1FF1FC3
:400C4000F8B50546012848D80F461646012A46D8A1F10E03DBB2072B05D9002941D1234B5973002440E0214B5B7B8B4202D11F4B9B7B4BB93846FFF7C3FF0446A0B31B4BA1
:400C80005F7300221A611A73184B1D755E751C78012C28D15B68B3F5FA5F25D1012001F0D1FF012002F00EFD104B5868FFF7A0FF054602F001FC284602F0CAFB01F066FE98
:400CC00001F066FF802001F02BFF01F0F1FE01F0C7FD802001F08CFD06E0002404E0002402E0002400E001242046F8BDDCC1FF1F012812D808B502F097FB802001F010FF4D
:400D000001F0F2FE01F0D2FD802001F071FD01F053FD01F05DFE012008BD0020704700BF38B502F08FFB02F06FFA334C206900F0E9F8054601F0F4FE284601F059FD2369FE
:400D40005A1CA368B2FBF3F103FB11232361627B0E3A072A4ED8DFE802F004263C3C3C3C3C3C254A927B12B90121234A91733BB90022214B9A7300F04BFC00F057FC38BD0C
:400D8000A3F5BB43043B4EF28572934232D81A4B5B7D23B142F63A72174B1A6138BD174A154B1A6138BD144A927B12B90121124A9173FBB9104B00249C7301221A73204640
:400DC00002F004F8204602F00DF82046FFF790FF38BD094A927B12B90121074A91734BB9054B5B7D33B90022034B9A7300F010FC00F01CFC38BD00BFDCC1FF1F0A450100CE
:400E00000022014B9A737047DCC1FF1F10B402460020034605E0D4B204EB0020120A0133DBB28B42F7D35DF8044B7047C0B170B50646B9B1042B17D80020044604E00D5DE5
:400E400005EB00200134E4B29C42F8D319461446FFF7DCFF0CB1844208D33060012070BD00207047002070BD002070BD002070BD28B370B582B0064619B322B3042B24D820
:400E8000002000908DF8040006E00D5C02AC044404F8085C0130C0B29842F6D31D460C466846114602F0C9FD88B9002203E0A15CB1540132D2B2AA42F9D3012008E00020BC
:400EC0007047002004E0002002E0002000E0002002B070BD014B187B704700BFF4C1FF1F014B187E704700BFF4C1FF1F014B1869704700BFF4C1FF1F014B586A704700BF49
:400F0000F4C1FF1FF8B5184B93F828300E3B174A52F8233018442C30C0F30747C0F30726C4B202F013F810F0100F1AD0104B1B7823B100220E4B1A70802502E002F01EF839
:400F40000546032002F00EF8384602F00BF8304602F008F8204602F005F8002002F002F800E080252846F8BDF4C1FF1FB03A0000A0C1FF1FF8B5A0F10E03DBB2072B00F2EB
:400F8000B7805E4B83F828000E385D4B53F82050C5F30747C5F30726EDB200241CE0032001F0E0FF384601F0DDFF304601F0DAFF2819C0B201F0D6FF002001F0D3FF01F090
:400FC000C5FF10F0100FFAD001F0D8FF4B4B234483F82C000134E4B22B2CE0D9474901F158002C31474A0423FFF742FF0346002800F08180414901F15C00303100220423F3
:40100000FFF714FF0346002875D03C4901F1600034313D4A0423FFF72BFF034600286AD0364908463831394A0423FFF721FF0346002860D03149081D3C3110220423FFF74A
:40104000F5FE0346002856D02C4901F10800403101220223FFF7EAFE034600284BD0274901F10C00423102221346FFF7DFFE0346002840D0214901F1100044314FF4FA5232
:401080000423FFF7D3FE0346A8B31C4901F11400483100220423FFF7C9FE034658B3174901F118004C3100220223FFF7BFFE034608B3124901F11C004E3100220223FFF756
:4010C000B5FE0346B8B10D4901F120005031104A0423FFF7CDFE034668B1084901F12400543100220423FFF7A1FE034610B902E0002300E001231846F8BD00BFF4C1FF1F74
:40110000B03A0000D43A0000DC3A0000E43A0000EC3A000008B502F087F902F007FA012001F090FD012002F0CDFA01F02FFC01F02FFD802001F0F4FC01F0BAFC01F090FBE5
:40114000802001F055FB012001F040FE012001F049FE08BD08B5002001F038FE002001F041FE802001F0DCFC01F0BEFC01F09EFB802001F03DFB01F01FFB01F029FC08BD7F
:4011800038B54A4B1B78012B2DD013B1022B3FD038BD464B5B7843B97E2800D005D1434AD11808710133537038BD012B14D1562801D0532810D13D4AD118087101335370D9
:4011C00001231370562803D10022394B1A7038BD0122374B1A7038BD0022344B5A700122334B1A7038BD314A5378D11808710133DBB253702E4A127802EB82022D490A44BF
:4012000092780232934250DB0222284B1A7038BD264B5978264B1A7802EB8203254C23449B789C1CA1420CD102EB8204214D2C44E478844205D11D4B5A18107101315970A1
:4012400038BD0333994229D102EB8203194C23441B79834222D1154B1944087172B99B79AA2B05D10122114BDA73FFF753FF0DE000220E4BDA73FFF76DFF07E0012A05D1B1
:401280000A4B9879D9791A7A00F060FC074B00225A701A700122064B1A7038BD034B00225A701A700122024B1A7038BD58C2FF1FA1C1FF1FF43A000010B502F0D7FA00F0CA
:4012C0009BF900220B4B1A7402F044FA0446094BDB7B23B101F024FC204601F089FA2046FFF74EFF02F02EFA10F0200FECD102F005FB10BD58C2FF1F08B502F01BFB044BB7
:40130000587CB0FA80F04009587401F053FC08BD58C2FF1F08B502F0B7FA0A4B1B7C312B03D80133074A137408BD0022054B1A7400F06EF900F07AF900F052F902F096FAA2
:4013400008BD00BF58C2FF1F1038C0B2052801D8012070470020704708B5072807D00E2807D0FFF7F1FF034620B1012302E0012300E00123184608BD0F2801D10120704740
:40138000002070470E280BD010B50446FFF7F4FF48B92046FFF7D8FF034628B1012303E00123184670470123184610BD10B5044668B1FFF7E7FF58B9162C0BD0062C0BD029
:4013C0000A2C0BD00D2C0BD00134E0B210BD10BD204610BD204610BD042010BD042010BD0B2010BD01381F281BD8DFE800F0101C1A121A1A1A141A1A1A1A1A1A1A161A1A43
:401400001A1A1A1A1A1A1A1A1A1A1A1A1A180020704702207047032070470420704705207047FF2070470120704700BF01281AD808B510B101F038F801E000F021FE10F0EA
:40144000200F12D110F0100F11D110F0080F10D110F0040F0FD110F0020F0ED110F0010F0DD0002008BDFF207047052008BD042008BD032008BD022008BD012008BDFF202F
:4014800008BD00BF01281ED84B1EDBB2152B1CD8012A1CD870B516460D460446FFF7CAFA204600210A460B46FEF726FF204629463246FFF7C5FB012001F088FC012001F07B
:4014C00091FC012070BD00207047002070470020704700BF012821D8162921D8012A21D8F8B51F4616460D460446FFF789FC204600210A46FFF7A4FB2046294632463B468F
:40150000FEF7FAFE85B124B1012001F06BFC0120F8BD012001F05AFC0120F8BD0020704700207047002070470120F8BD70B501F06BFC00252E4612E005EB450358002044CF
:4015400080B201F0CFFC162806D80134E4B200E00024052CF0D900E001260135EDB2012DF6D926B9FF2001F0BDFCAA281AD001F0CDFC002510E005EB45035900214489B25B
:40158000154B585C01F044FC0134E4B200E00024052CF0D90135EDB2012DF8D9AA20FF2101F036FC002514E005EB45035800204480B201F097FC05EB45035B002344074A2E
:4015C000D0540134E4B200E00024052CECD90135EDB2012DF8D970BD003B00006CC2FF1F08B500F0A7FE00F067FE00F003FF00F0C7FE00F069FD08BD08B500F06BFE00F00B
:40160000A7FE00F0CBFE00F003FF00F06BFD08BD08B50020FFF736F90120FFF733F90020FFF766FB0120FFF763FB08BD08B5FFF701FAFFF7E5FB002001F0C8FB002001F0DE
:40164000D1FB002001460246FFF7FAFA012000210A46FFF7F5FA0020014602460346FEF74BFE012000210A460B46FEF745FE08BD38B5FFF7CDFF9F4B1B7B002B40F0388135
:401680009C4B9C7D002C00F085802046FFF77AFEA8B12046FFF770FE58B1964B1B7E2BB1002021460122FFF7EDFE38BDFFF7BEFF38BD002021460122FFF7E4FE38BD8D4B3C
:4016C000DD7D2846FFF75EFEA8B12846FFF754FE58B1884B5B7E2BB1012029460246FFF7D1FE38BDFFF7A2FF38BD012029460246FFF7C8FE38BD7F4B5B7B13B1FFF796FF9A
:4017000038BD7C4BDB7B43B17A4AD37EB3FA83F35B09D376FFF78AFF38BD764BDB7EFBB12046FFF743FE0146724C00200122A37EFFF7D0FEE07D40B1FFF738FE01460120D8
:401740000246A37EFFF7C6FE38BD002001F04AFB012000210A46674B9B7EFFF7BBFE38BD644D002021460122AB7EFFF7B3FEE97D29B101200246AB7EFFF7ACFE38BD002048
:4017800001F030FB012000210A465A4B9B7EFFF7A1FE38BD574BDC7D002C53D02046FFF7F1FDA8B12046FFF7E7FD58B1514B5B7E2BB1012021460246FFF764FE38BDFFF799
:4017C00035FF38BD012021460246FFF75BFE38BD484B5B7B13B1FFF729FF38BD454BDB7B43B1444AD37EB3FA83F35B09D376FFF71DFF38BD3F4BDB7E9BB1002001F0E6FABC
:401800003C4C002001460246A37EFFF763FEE07DFFF7CCFD014601200246237CFFF75AFE38BD002001F0D2FA324C002001460246A37EFFF74FFE0120E17D0246237CFFF781
:4018400049FE38BD2B4B5B7B13B1FFF7EFFE38BD284BDB7B8BB10024264BDC76FFF7EAF82046052122462346FFF734FE0120052122462346FFF72EFE38BD1E4B1C7D204664
:40188000FFF76AFDA0B12046FFF77CFD28B1002021460246FFF7F6FD05E00020214602460346FFF717FE134B00221A75DA7638BD104B5C7D2046FFF74FFDA0B12046FFF72F
:4018C00061FD28B1012021460022FFF7DBFD05E00120214600221346FFF7FCFD054B00225A75DA7638BD0022024BDA76FFF79EFE38BD00BF6CC2FF1F10B500F08FFC104CEF
:40190000207300F093FC237B1843207300F040FC00F00100607300F0F5FB00F00100E073002407E02046FFF781FD054B234458740134E4B2012CF5D9FFF79AFE10BD00BFAD
:401940006CC2FF1F2DE9F04100F0B0FC00F00100284B98731B7B002B4AD1264B5B7B002B46D138B1FFF766F8FFF74AFAFFF750FEBDE8F08101F0CAFA0024274634E02646CD
:401980001C4B234493F8118004EB4403590041448DB2B8F1FF0F25D0A7B9284601F0A2FA0130154A80FB0223C718C317C3EB271707EB4703C7EBC307C71B17F0FF0701D195
:4019C0000137FFB23846294601F022FA094B06EB4602520042449F5433449A7D1A759F7501221A760134E4B2012CC8D9FFF740FEBDE8F0816CC2FF1FC94216B210B500F011
:401A00000DFC20B900F012FC18B9002302E0012300E00123DBB2104A1373D3B1FFF70AF8FFF7EEF9012001F0D1F9002001F0DAF900240BE02046FEF725FF2046FFF758F907
:401A4000054B234400221A760134E4B2012CF1D910BDFFF70DFE10BD6CC2FF1F08B500F097FB00F00100024B5873FFF701FE08BD6CC2FF1F08B500F045FB00F00100024BDB
:401A8000D873FFF7F5FD08BD6CC2FF1F08B500F071FC00F00100034B18749876FFF7E8FD08BD00BF6CC2FF1F2DE9F04383B000F0E7FA8DF8040000F0F7FC8DF805000024DD
:401AC0003AE02546204B03EB040898F81C6002AB234413F8047C7E403046FFF783FC81462046FFF7A3FC88F81100374203D0012288F818200AE0FF2804D0B9F1FF0F05D0BC
:401B0000814503D9104B2B4400221A760E4B2B441F779A7D1A75FF2808D00B4B05EB4502520010441A5C1D44AA7503E0064B1D440023AB750134E4B2012CC2D9FFF798FD65
:401B400003B0BDE8F08300BF6CC2FF1F16283DD816293DD8012A3DD8F8B5204B9E7D1E75DF7D5F759875D9759B7E934202D14FF0000E01E04FF0010E184B9A76002318E08C
:401B80001C46164A1A44127D42B9144D1D44AD7D25B1124A14440122227608E03AB10F4A2244927D1AB90D4A1444002222760133DBB2012BE4D9B04204D1B94202D1BEF17F
:401BC000000F09D0FFF754FD0120F8BD0020704700207047002070470120F8BD6CC2FF1FFEE700BF08B5104E104D16E029686B68AC68002204E051F8040B43F8040B0432D1
:401C0000A242F8D1E868002203E0002143F8041B04328242F9D11035013E002EE6D101F0D3FEFEF777FAFEE701000000EC3B000008B5124A124B1A60124A136843F4007354
:401C4000136000230AE0032B03D80F4A52F8231000E00E490E4A42F8231001332F2BF2D90C4B1A780C4B1A70094A0C4B1A6000F053F900220A4B1A6008BD00BF0004FA050E
:401C80000CED00E014ED00E000000000E11B000000C0FF1FBC76004004C1FF1F08ED00E000C1FF1FFEE700BFF0B40022174611E050F82760F3B226F0FF0608E001EB420525
:401CC00011F812406D78A5550132013BDBB2002BF4D10137292FEBD9F0BC70470F4B1B78DBB203F007010E4A11701B090132137010220C4B1A7020230B4A137002220B4939
:401D00000A7060310A700A4A13700522094B1A704422A3F28A231A70704700BFCF0100496E5800406D510040005A0040225A0040905A0040005B004008B50A46002101F043
:401D400074FE08BD38B54BF67F32354B1A80182334490B7005200231088002310B702F213148018002300370023001802F490B7033200231088002310B7002310A802C4AEE
:401D8000137009222B4B1A801F232B4A1370312102321180023213700622284B1A705222A3F580731A70264B1B78DBB2254A13704FF4E262244B1A8041F25122023B1A801F
:401DC000002419250CE0214B1B7803F0010343EA440404F003044FF4F07001F025F9013D0DB1032CEFD115B90320FFF75BFF184A4FF48073138007231370002315490B707D
:401E00004820023108701370053213700222124B1A7003F2A1331A78FF221A7038BD00BF8040004082400040884000408E40004096400040984000409A40004000430040AA
:401E40000F010049A1460040224200402542004004400040064000400140004008B501F0D9FD08BD012807D8044B53F820201844017A13780B431370704700BF0C3B0000F1
:401E8000012808D8044B53F820201844017A137823EA0103137070470C3B0000012817D810B44000C0B20B4B03EB8002D1681A18147F0A7822430A700130C0B203EB800285
:401EC000D2681844017F13780B4313705DF8044B704700BF0C3B0000012819D810B44000C0B20C4B03EB8002D1681A18147F0A7822EA04020A700130C0B203EB8002D2685F
:401F00001844017F137823EA010313705DF8044B704700BF0C3B000038B572B600240AE03E4963001A1952000A44106A918CFFF703FF0134E4B2082CF2D9002410E0374978
:401F4000A3001A1952000A4452F8580F23445B000B445168B3F86020FFF780FF0134E4B2042CECD94FF090402D49FFF79DFE2D4A137843F0020313701032137843F0020338
:401F80001370294C237843F040032370A2F58632513A137843F010031370244824490A22FFF75CFF234824490822FFF757FF234823490A22FFF752FF224823490822FFF773
:401FC0004DFF224822490822FFF748FF214822490822FFF743FF214821490A22FFF73EFF204821490822FFF739FF204820490822FFF734FF1F4A137843F0080313701E4D83
:4020000001232B70FFF79EFEC1232B70FFF766FE1A4821460E22FFF721FF38BD0C3B0000A800004803500140A043004000510040180E0048C2510040240E0048F051004037
:402040002C0E004812510040380E004822510040400E004832510040480E004840510040500E0048525100405C0E004862510040640E00482243004000480040B0430040EA
:40208000014B1878704700BF6764004008B5FFF70BFD08BD014B1B685865704708ED00E04001C0B2014B1870704700BF05E400E02022014B1A60704700E100E02022014B57
:4020C0001A60704780E100E008B5FFF7F7FF0448FFF7E0FF0520FFF7E3FFFFF7E9FF08BD8D20000008B5FFF7E9FF0248FFF7D2FF08BD00BFE11B00002022014B1A6070476C
:4021000080E200E0014B1878704700BF6465004008B500F091FF044A137843F01003137000F08EFF08BD00BF9465004008B5FFF7A1FC08BD014B1B68D864704708ED00E03D
:402140004001C0B2014B1870704700BF03E400E00822014B1A60704700E100E00822014B1A60704780E100E008B5FFF7F7FF0448FFF7E0FF0420FFF7E3FFFFF7E9FF08BDE2
:402180002D2100000822014B1A60704780E200E0014B1878704700BF6665004008B500F04BFF044A137843F01003137000F048FF08BD00BF9665004008B5FFF74FFC08BD39
:4021C000014B1B68D865704708ED00E04001C0B2014B1870704700BF07E400E08022014B1A60704700E100E08022014B1A60704780E100E008B5FFF7F7FF0448FFF7E0FF75
:402200000220FFF7E3FFFFF7E9FF08BDB92100008022014B1A60704780E200E0024B1878C0F34000704700BF21510040024B1878C0F38000704700BF2151004008B5FFF7E3
:40224000DDFB08BD014B1B681866704708ED00E04001C0B2014B1870704700BF08E400E04FF48072014B1A60704700BF00E100E04FF48072014B1A60704700BF80E100E03B
:4022800008B5FFF7F5FF0448FFF7DCFF0120FFF7DFFFFFF7E5FF08BD3D2200004FF48072014B1A60704700BF80E200E0014B1878704700BF6364004008B500F0BDFE044AA5
:4022C000137843F01003137000F0BAFE08BD00BF9364004008B500F0AFFE044A137803F0EF03137000F0ACFE08BD00BF9364004008B5FFF727FB08BD014B1B685866704759
:4023000008ED00E04001C0B2014B1870704700BF09E400E04FF40072014B1A60704700BF00E100E04FF40072014B1A60704700BF80E100E008B5FFF7F5FF0448FFF7DCFF56
:402340000320FFF7DFFFFFF7E5FF08BDF122000008B5FFF7E7FF0248FFF7CEFF08BD00BFE11B00004FF40072014B1A60704700BF80E200E0014B1878704700BF6164004004
:4023800008B500F059FE044A137843F01003137000F056FE08BD00BF9164004008B500F04BFE044A137803F0EF03137000F048FE08BD00BF9164004008B5FFF767FB08BD7A
:4023C000014B1B689864704708ED00E04001C0B2014B1870704700BF02E400E00422014B1A60704700E100E00422014B1A60704780E100E008B5FFF7F7FF0448FFF7E0FFB1
:402400000420FFF7E3FFFFF7E9FF08BDB923000008B5FFF7E9FF0248FFF7D2FF08BD00BFE11B00000422014B1A60704780E200E0024B1878C0F3C000704700BF4151004078
:4024400008B5FDF7B9FE08BD014B1B689865704708ED00E04001C0B2014B1870704700BF06E400E04022014B1A60704700E100E04022014B1A60704780E100E008B5FFF79D
:40248000F7FF0448FFF7E0FF0020FFF7E3FFFFF7E9FF08BD41240000024B1878C0F38000704700BF41510040014B1878704700BF64640040084A137843F00103137010327A
:4024C000137843F00103137002F64D32137843F001031370704700BFA3430040084A137803F0FE031370A2F65D32137803F0FE0313701032137803F0FE031370704700BF08
:40250000004F0040014B1880704700BF044F0040014B1880704700BF064F0040014B1870704700BF034F004008B5194A137843F0020313700232137803F08F0343F0100364
:402540001370144B1A7802F0CF021A701A7842F030021A701A7802F0F0021A701A7842F00F021A704FF47A70FFF7CCFF0020FFF7CFFF0820FFF7D2FF074A137843F00103E7
:40258000137002F65E32137843F00103137008BD004F00400B4F0040A343004008B5054B1B7823B9FFF7C0FF0122024B1A70FFF781FF08BD8CC2FF1F014B1878704700BF93
:4025C000034F0040084A137843F0020313701032137843F00203137002F65932137843F001031370704700BFA3430040084A137803F0FE031370A2F66932137803F0FD03C0
:4026000013701032137803F0FD031370704700BF0C4F0040014B1880704700BF104F0040014B1880704700BF124F0040014B1870704700BF0F4F004008B5194A137843F009
:40264000020313700232137803F08F0343F010031370144B1A7802F0CF021A701A7842F030021A701A7802F0F0021A701A7842F00F021A704FF47A70FFF7CCFF0020FFF7A4
:40268000CFFF0820FFF7D2FF074A137843F00203137002F66A32137843F00103137008BD0C4F0040174F0040A343004008B5054B1B7823B9FFF7C0FF0122024B1A70FFF7A0
:4026C00081FF08BD8DC2FF1F014B1878704700BF0F4F004008B5FEF703F908BD024B1B68C3F88400704700BF08ED00E04001C0B2014B1870704700BF11E400E04FF4003224
:40270000014B1A60704700BF00E100E04FF40032014B1A60704700BF80E100E008B5FFF7F5FF0448FFF7DAFF0720FFF7DFFFFFF7E5FF08BDD526000008B5FEF729F908BDBA
:40274000024B1B68C3F88800704700BF08ED00E04001C0B2014B1870704700BF12E400E04FF48022014B1A60704700BF00E100E04FF48022014B1A60704700BF80E100E0E4
:4027800008B5FFF7F5FF0448FFF7DAFF0720FFF7DFFFFFF7E5FF08BD39270000054A137843F0040313701032137843F004031370704700BFA8430040054A137803F0FB03D0
:4027C00013701032137803F0FB031370704700BFA8430040054B1A7802F0FD021A701A7800F0020010431870704700BF28580040014B1870704700BF825B0040064B1B7837
:40280000C3F3810303F19243063393F82831DBB2024A1370704700BF285800400A46004008B5064B1A7802F0F3021A701A7800F00C0010431870FFF7E1FF08BD2858004081
:4028400010B50024054B1C7001331C700420FFF7E7FF2046FFF7BEFF10BD00BF2858004008B5074B1B7823B9FFF7EAFF0122044B1A70FFF793FF0020FFF7BAFF08BD00BF3A
:402880008EC2FF1F084A137843F0040313701032137843F00403137002F5A5521E32137843F0800313707047A9430040054A137803F0FB0313701032137803F0FB03137012
:4028C000704700BFA9430040044A137803F0FC0300F0030018431070704700BF0958004010B487B00446194B03AA1868596803C2197A11706A4653F80C0F596803C21B7AE5
:402900001370082C1ED812490B7803F08003DBB20B70087806AB1C4414F80C3C14F8182C920002F00C02134303430B70094A137803F0F3031370117814F8183C0B4343F0FC
:402940000C03137007B05DF8044B7047983B00000A5800400958004008B50C22084B1A70084A137843F0200313708022064B1A700020FFF7B5FF0120FFF7A6FF08BD00BF98
:4029800008580040095800400A58004008B5054B1B7823B9FFF7E0FF0122024B1A70FFF771FF08BD8FC2FF1F084A137843F0010313701032137843F00103137002F5A55243
:4029C0001E32137843F0800313707047A9430040054A137803F0FE0313701032137803F0FE031370704700BFA9430040044A137803F0FC0300F0030018431070704700BF9A
:402A00000158004010B487B00446194B03AA1868596803C2197A11706A4653F80C0F596803C21B7A1370082C1ED812490B7803F08003DBB20B70087806AB1C4414F80C3C6E
:402A400014F8182C920002F00C02134303430B70094A137803F0F3031370117814F8183C0B4343F00C03137007B05DF8044B7047B03B0000025800400158004008B50C22FC
:402A8000084B1A70084A137843F0200313708022064B1A700020FFF7B5FF0120FFF7A6FF08BD00BF00580040015800400258004008B5054B1B7823B9FFF7E0FF0122024B70
:402AC0001A70FFF771FF08BD90C2FF1F054A137843F0010313701032137843F001031370704700BFA8430040054A137803F0FE0313701032137803F0FE031370704700BFEA
:402B0000A8430040054B1A7802F0FD021A701A7800F0020010431870704700BF20580040014B1870704700BF805B0040064B1B78C3F3810303F19243063393F82031DBB292
:402B4000024A1370704700BF205800400846004008B5064B1A7802F0F3021A701A7800F00C0010431870FFF7E1FF08BD2058004010B50024054B1C7001331C700420FFF75E
:402B8000E7FF2046FFF7BEFF10BD00BF2058004008B5074B1B7823B9FFF7EAFF0122044B1A70FFF793FF0020FFF7BAFF08BD00BF91C2FF1F044A137803F0DF03400100F04E
:402BC00020001843107070472051004008B5FEF793FB08BD014B1B681865704708ED00E04001C0B2014B1870704700BF04E400E01022014B1A60704700E100E01022014BE2
:402C00001A60704780E100E008B5FFF7F7FF0448FFF7E0FF0720FFF7E3FFFFF7E9FF08BDCD2B000010B5002404E02046FFF728F90134E4B2012CF8D9FF22014B1A7010BDE7
:402C4000A2C1FF1F10B50446054B1878FF2801D0FFF716F92046FFF705F9014B1C7010BDA2C1FF1F084A137843F0040313701032137843F00403137002F66532137843F0F6
:402C800001031370704700BFA3430040084A137803F0FE031370A2F67532137803F0FB0313701032137803F0FB031370704700BF184F0040014B1870704700BF1B4F00400D
:402CC000014B1878704700BF1B4F0040014B1880704700BF1C4F0040014B1880704700BF1E4F004008B5154A137803F0010313700232137803F0FC031370114B1A7802F097
:402D0000CF021A701A7842F030021A701A7802F0F0021A701A7842F00F021A70094A137843F0010313700420FFF7D0FF0420FFF7D3FF0820FFF7BEFF08BD00BF184F0040E6
:402D4000234F0040194F004008B5054B1B7823B9FFF7C8FF0122024B1A70FFF783FF08BD92C2FF1F08B50020FDF7B0FE08BD00BF024B1B68C3F88C00704700BF08ED00E0B2
:402D80004001C0B2014B1870704700BF13E400E04FF40022014B1A60704700BF00E100E04FF40022014B1A60704700BF80E100E008B5FFF7F5FF0448FFF7DAFF0620FFF71D
:402DC000DFFFFFF7E5FF08BD652D0000044A137803F0FE0300F0010018431070704700BF20510040044A137803F0F703C00000F008001843107070472051004008B500F096
:402E000079F900F081F908BD08B5FFF7F7FF08BD30B583B00C468DF8070000F0FBF9B4F5006F54D22509C5EB053319010C44A4B200F09CFA00284CD1402021460DF10702FC
:402E4000012300F013FA044607282FD1234B1B7813F0020FFAD0214B1B7813F0020F06D01E4B1B789B0805D04FF0FF3403E04FF0FF3400E00024E4B9194B402029461A784F
:402E80005B7800F02FFA072816D1144B1B7813F0020FFAD0114B1B7813F0020F0FD00F4B1B789B0810D04FF0FF340DE0012809D10AE04FF0FF3407E04FF0FF3404E04FF0B4
:402EC000FF3401E04FF0FF3400F076FA02E0012400E00424204603B030BD00BF22470040A4C2FF1F38B5044600F0A6F8054600F035F904F1804000F500400478E4B200F0D1
:402F00003BF9284600F09CF8204638BD08B500F0F1F8C0B208BD00BF08B500F08DF80A4A137843F020031370FD32137843F0100313700132137843F01003137000F080F828
:402F400000F062F808BD00BF9B640040014B1878704700BF68650040014B1878704700BF69650040034B1B7813F0040FFAD0024B187070476865004048650040014B187862
:402F8000704700BF5865004008B501E00A4B1B780A4B1B7813F0200FF8D100F04DF8084B1A7842F001021A701A7802F0FE021A7000F046F808BD00BF586500406965004091
:402FC0009865004008B50F22064B1A70FFF7DCFFFFF7BCFFFFF7C0FF0023034A13700132137008BD8B6400408865004008B5054B1B7823B9FFF7E6FF0122024B1A70FFF783
:403000008BFF08BD93C2FF1F054A137843F0020313701032137843F002031370704700BFA2430040000000000230800803D000BF01380046FCD17047EFF3108072B6704776
:4030400080F31088704700BF10B500F0E3F800F08DF9D0B900F0CCF90446072812D102E0012000F0A7F80A4B1B7813F0020FF7D0074B1B7813F0020F04D0054B1B789B0887
:4030800000D1002400F098F900E00424204610BD2247004010B500F0BDF800F067F910BB012000F045F9072818D11048022100F0C3F802280AD102E0012000F07BF80C4BE2
:4030C0001B7813F0020FF7D0002409E0084B1B7813F0020FE9D04FF0FF3401E04FF0FF3400F06AF900E00424204610BDA4C2FF1F2247004008B5FFF7A7FF034610B9FFF7C1
:40310000C9FF0346184608BD08B5FFF795FF0F4A137843F0080313701032137843F008031370C8220A4B1A700A4A137843F0100313701032137843F010031370064B1B78F6
:4031400013F0200FFAD0FFF77BFF08BDA043004001470040AC43004000470040054A137843F001031370034B1B7813F0020FFAD0704700BF02470040024A137803F0FE03A0
:40318000137070470247004010B5044605E0084B1868FFF749FFA4F50044B4F5004FF6D8034B586800FB04F0FFF73EFF10BD00BFA4C1FF1F08B5034B1B7A03FB00F0FFF7E1
:4031C00033FF08BDA4C1FF1F0E4B1A7802F0FC0200F00300104318701A7842F080021A701A7802F07F021A7049011A7801F0600102F09F02114319701A7842F010021A704F
:40320000704700BF834300400122014B1A7070478443004008B5FFF70FFF064A137843F0080313701032137843F008031370FFF707FF08BDA043004070B506460D460024A4
:403240000CE00120FFF7B6FF064B1B7813F0010FF7D0054B1B7833550134E4B2AC42F3D3204670BD224700402047004030B43E2801D81F2B03D93F2827D90F2B27D8174CBF
:40328000247814F0020F24D0154CB6252570D4252570012525700234247814F0020F1AD10F4C2070C1F300202070C9B22170591EC9B22170002104E0545C094804700131F3
:4032C000C9B29942F8D3072006E0012004E0012002E0042000E0092030BC7047224700402047004030B4104C247814F0020F15D00E4CB6252570D825257005252570023451
:40330000247814F0020F0BD1084C2070080A2070C9B2217022702370072002E0042000E0092030BC704700BF22470040204700400C4B1B7813F0020F0FD00B4BB6221A70CC
:40334000E1221A700E221A7002331B7813F0020F05D1054B187007207047042070470920704700BF224700402047004010B5FFF763FE0F4B1B78A3B901220D4B1A700D4B12
:403380001B6813F0010F0ED00A4A136823F00103136000BF00BF00BF0122054B5A60002402E0042400E00024FFF74AFE204610BD94C2FF1F0400084008B5FFF73DFE0A4B30
:4033C00000221A705B68012B0AD1084A136843F00103136000BF00BF00BF0022024B5A60FFF72EFE08BD00BF94C2FF1F04000840074B1B7813F0020F08D0064BB6221A7090
:40340000E0221A700D221A7007207047042070472247004020470040024A137843F08003137070477A640040024A137803F07F03137070477A640040014B1870704700BF6B
:4034400089640040014B1878704700BF69640040014B1880704700BF50680040014B188880B2704790680040014B1880704700BF1068004008B501E0FFF7F0FFFFF7E2FFF5
:4034800010F0080FF8D108BD08B5FF20FFF7E0FFFF20FFF7E9FFFFF7CFFD064A137843F010031370FFF7CCFDFFF7E4FF0120FFF7C3FF08BD9964004008B5054B1B7823B964
:4034C000FFF7E2FF0122024B1A70FFF7A5FF08BD9CC2FF1F08B5FDF723FC08BD014B1B681864704708ED00E04001C0B2014B1870704700BF00E400E00122014B1A60704753
:4035000000E100E00122014B1A60704780E100E008B5FFF7F7FF0448FFF7E0FF0620FFF7E3FFFFF7E9FF08BDD5340000024A137803F07F031370704774650040084A1378F9
:4035400043F0080313701032137843F00803137002F67132137843F001031370704700BFA3430040084A137803F0FE031370A2F68132137803F0F70313701032137803F026
:40358000F7031370704700BF244F0040014B1870704700BF274F0040014B1878704700BF274F0040014B1880704700BF284F0040014B1880704700BF2A4F004008B5154A1D
:4035C000137803F0010313700232137803F0FC031370114B1A7802F0CF021A701A7842F030021A701A7802F0F0021A701A7842F00F021A70094A137843F0010313700420BC
:40360000FFF7D0FF0420FFF7D3FF0820FFF7BEFF08BD00BF244F00402F4F0040254F004008B5054B1B7823B9FFF7C8FF0122024B1A70FFF783FF08BD9DC2FF1F08B501208A
:40364000FDF744FA08BD00BF024B1B68C3F89000704700BF08ED00E04001C0B2014B1870704700BF14E400E04FF48012014B1A60704700BF00E100E04FF48012014B1A60EC
:40368000704700BF80E100E008B5FFF7F5FF0448FFF7DAFF0720FFF7DFFFFFF7E5FF08BD3D36000010B5002404E02046FEF714FC0134E4B2012CF8D9FF22014B1A7010BDBF
:4036C000B4C1FF1F10B50446054B1878FF2801D0FEF702FC2046FEF7E1FB014B1C7010BDB4C1FF1F7222034B1A70202203F203131A7070478864004010B5FFF79DFC04462A
:40370000084A137843F02003137002F20312137843F01003137000F063F82046FFF790FC10BD00BF9864004008B5054B1B7823B9FFF7D8FF0122024B1A70FFF7DDFF08BDA1
:403740009EC2FF1F024B187800F07F00704700BF6B650040084B1B78DBB213F0200F06D0064A1078C0B213F01E0F02D17047002070470020704700BF6B6500404B6500400D
:4037800008B5FDF799FD08BD014B1B689866704708ED00E04001C0B2014B1870704700BF0AE400E04FF48062014B1A60704700BF00E100E04FF48062014B1A60704700BF56
:4037C00080E100E008B5FFF7F5FF0448FFF7DCFF0720FFF7DFFFFFF7E5FF08BD81370000054A137843F0100313701032137843F010031370704700BFA243004008B5FDF7ED
:4038000089FD08BD014B1B68D866704708ED00E04001C0B2014B1870704700BF0BE400E04FF40062014B1A60704700BF00E100E04FF40062014B1A60704700BF80E100E014
:4038400008B5FFF7F5FF0448FFF7DCFF0720FFF7DFFFFFF7E5FF08BDFD370000024A137843F080031370704775640040024A137803F07F031370704775640040014B187063
:40388000704700BF85640040014B1878704700BF65640040014B1880704700BF48680040014B188880B2704788680040014B1880704700BF0868004008B501E0FFF7F0FF32
:4038C000FFF7E2FF10F0080FF8D108BD08B50920FFF7E0FF0920FFF7E9FFFFF7ADFB064A137843F010031370FFF7AAFBFFF7E4FF0120FFF7C3FF08BD9564004008B5054BF0
:403900001B7823B9FFF7E2FF0122024B1A70FFF7A5FF08BD9FC2FF1F024A137843F080031370704776650040014B1870704700BF87650040014B1878704700BF67650040B3
:40394000014B1880704700BF4C6A0040014B188880B270478C6A0040014B1880704700BF0C6A004008B501E0FFF7F0FFFFF7E2FF10F0080FF8D108BD08B540F2E730FFF7E1
:40398000DFFF40F2E730FFF7E7FFFFF755FB064A137843F010031370FFF752FBFFF7E2FF0120FFF7C1FF08BD9765004008B5054B1B7823B9FFF7E0FF0122024B1A70FFF7E7
:4039C000ABFF08BDA0C2FF1F0E4B70B51E460E4C0025E41AA410A54204D056F8253098470135F8E700F0F0F8084B094C1E46E41AA4100025A54204D056F825309847013545
:403A0000F8E770BDD43B0000D43B0000D43B0000DC3B000010B5431E0A44914204D011F8014B03F8014FF8E710BD03460244934202D003F8011BFAE7704710F8012B11F8AD
:403A4000013B012A28BF9A42F7D0D01A704700001000000000000000017A5200027C0E011B0C0D001000000018000000CEFFFFFF140000000000000000000000B801D20183
:403A8000EE010C022A024C026E029402BA02E40210033E037003A403DC03160454049604DC0426057405C80520067C06E006000000000000D0FB1D0040B3380070EA38000A
:403AC000D011390030543900B0BA3900C0FA390080613A0052494646000000005741564500000000666D74200000000064617461000000007E56010D0A7E53030D0A00000C
:403B00000E010204050B0F010204050B2D510040285A0040400400002C5100406C510040085A00406D51004080200220004F004030000000014000088008014080070014EE
:403B400001400004801801400002001B0140000100400140000A004C01400002105001401000000000510140800C0048080000080140880C0048800000180140080D004834
:403B80008000801A0140880D0048800000500140080E00481000000001112131416153637300000008090101050707040400000001112131416153637300000008090101AF
:403BC0000507070404000000F8B500BFF8BC08BC9E4670474D000000311C0000F8B500BFF8BC08BC9E46704729000000003C000008C1FF1FB0000000F00000000000000026
:403C0000000000000000000070030000D502DC05AC0D0100D5024006DC000000D50240066E0000008A02BD06280000005802B0048813000002035A05C05D0101D502DC05C0
:403C4000AC0D01002602EE02A00F0000F401330464000000F40133043C000000B801E006A00F00000000E80300000000000000000000000001000000000000000000E803A6
:403C80000000000000000000000000000100000000000000010100000101FF000000C05D80BB000030000000006CDC02FF000000000000000000000000000000000000002F
:403CC00000000000000000000000000000000000000000000000000000000000000000000000000000000000000000000000000000000000000000000000000000000000C4
:403D00000000000000000000000000000000000000000000000000000000000000000000000000000000000000000000000000000000000000000000000000000000000083
:403D40000000000000000000000000000000000000000000000000000000000000000000000000000000000000000000000000000000000000000000000000000000000043
:403D80000000000000000000000000000000000000000000000000000000000000000000000000000000000000000000000000000000000000000000000000000000000003
:020000040001F9
:0200000480007A
:4000000001450040084F00400852004006640040056500401F000140220101402E02014041030140470401403F05014020060140320701401F080140480901403C0A014088
:40004000400B01403B0C01403B0D0140290E0140230F01404E14014037150140481601403E170140101801404E1901400E1A01404E1B0140104001401C4101402F4201408E
:4000800018430140024401400B450140124601400A47014014480140124901400A4C01400B4D0140065001407E0201300A4B0D30164B1920224B25202E4B0006010210C080
:4000C000114020012C8034C07C4081028302850D8872890D8B0F8402850D8602870D8B3803010401070417021E02300231023304350136013E405608580459045B045C775A
:400100005D905F01840286018C018E029B01B101B203D604D804D904DB04DC77DF010220044006100710098019401B021E20210822212440310437103A013B0459025A1045
:400140005B485E205F80618462016304650181018F08C0A4C201CC22CE03D63FD88FE080E20203020B0121022B042E0133013504360137023F405608580459045B045C7576
:400180005D905F01860189048B028C028E04930195029608970499209B109C049E02A110A320AF08B006B101B208B330B506B601B708D604D804D904DB04DC77DF01022001
:4001C000030208080988154018A01B401F802084218023202408254027102A402B422F8430013108322038203E023F1059405B205D105F48620264016718821089508C046A
:400200008E108F6091409242961099409A029D029F50A108A220A302A940AE02B210B380B640C005C205C480CAA9CC07CEA4D67CD871E010E208E415E620E850EC80EE0CB5
:400240000104020203080E0111021301210823042D012F0230023303350C3601405349FF4AFF4BFF4F015018580459045A045B045C775D055F016040624064406540668003
:4002800068806A806C806E808A019201B001B920BE01BF10C052C5ECC702C813C9FFCAFFCBFFCD83CE03CF01D018D280D401D604D804D904DA04DB04DD55DF01E040E240F6
:4002C000E440E540E680E880EA80EC80EE8000820101030106040C0219411E802010221025202941330139014308460448024C024D044F015604570859285A405B025D042C
:400300005E805F01600862406740740280108740880189088A04900892429620980A9A409F08A040A720A802A902AA02AF40B440C049C210CA09CC01CE01D022D218D6DFAE
:40034000D88CE010E204E401E680EE03030207012A013101350236015608580459045B045C775D905F018002820188088A049004920897019F02A801AA02B003B101B302A0
:40038000B40CD804D904DB04DC77DF0103440B40120816081B211C022208234024042502274433443C803E403F0559015A445B205C805D24600262106608670588108A10A2
:4003C0009008920698029E02A040A401A721AB02AD20AE02AF08B120B301C00AC208C442CC0ACEC0D67FD87CE010E60AEA02EE838E019201B601BE40C045C5ECC720C8239D
:40040000C9FFCAFFCBFFCD83CE03CF01D018D401D604D804DA04DB04DD99DF01E040E240E440E540E680E880EA80EC80EE800202042105080602082009120D010E25142057
:40044000168519401C021D201F14250426802C022E012F18350836B03DA03E864102450249064A024E02520259465E4063406C096D04762877018680874089018B308E403E
:4004800092459408962097219A029B209D18A010A15AA220A482A604AA01AE01B020B221C0F1C2F8C4F0CAF0CC70CEF0D081D218D61BD801E010E220E620E880EA020301ED
:4004C00016021E0129042B022D022F04330134013506360252805608580459045B045C775D905F0181CD840185CD8801898D8B408D4D8F8095019732980199109B609D0212
:400500009E029F0DA380A512A604A764A801A9CDAD72AF08B001B204B380B402B570B70FBBA0BE01BF04D602D720D804D904DB04DC17DD10DF010020020404080510080855
:400540000A020E0A1614170419601A021E401F28200422042320250826A029602C822E202F10350836A038013DA03E0658405A20600967016DA06E05710276028208884087
:400580008A10940496089B049C209E08A010A201A728A980AA40B005B441C060C2C5C460CAFCCC70CEF1D60CD81CE010E204E6A0EA04EC10EE020001030404010801094094
:4005C0000B200C0110011108131014011502170118011C011D011F022001240125102708280129202B402C013118336034013504370338203A083E105608580459045B0427
:400600005C745D905F0188028A0192049702A701A801AA02B004B204B301B603B702D608D804D904DB04DC77DD90DF01001004050510060208020D080E090F801320142054
:4006400016081741181019081A811C201D202280232025102604274529082F28320C36893D203F0159805C4060026701811085208E028F409C05A108A201AA80AE80B1808B
:40068000B420B504B640C0F2C2F8C4F2CA62CCD2CEA0D618D818E040E280E441E850EC80EE4000010202030107010C040E081C081E1428022A213010340F3620370139803A
:4006C0003E105608580459045B045C655D905F0187018C048E029B029E01A802AA04B206B301B601B702D608D804D904DB04DC77DD90DF0100400380070208800F01120480
:40070000172018401A041B801D081E02228025042722372038053F0458255A805D9060856204670586048910C089C281C442CC20CE43D63FD83FE080E6400C010E021301B1
:400740001C021E0131013403405449FF4AFF4BFF4F01501852805604580459045A045B045C775D995F016040624064406540668068806A806C806E8082018504860687099C
:40078000920195039604970499059B0A9D0EA606A802B001B10FB206B902BE01C054C5ECC602C807C9FFCAFFCBFFCD83CE03CF01D018D401D604D804D904DA04DB04DC1150
:4007C000DD99DF01E040E240E440E540E680E880EA80EC80EE8002020404068008400A020C020E10141819101E50220227403201341837403C044280468048024C024D04FF
:400800004F015680584059105D045E405F0161026602700285028C0492029404961098189E029F40A884AA01AD20C031C231C460CC71CE40D081D218D6DCD881E040E2801E
:40084000E840EE02040206010B010C010E0232033701404549FF4AFF4BFF4F01501852805604580459045A045B045C775D555F016040624064406540668068806A806C80EF
:400880006E808501860196019901A302A401A901AF02B102B201B501BE04BF11C014C5ECC720C823C9FFCAFFCBFFCD83CE03CF01D018D401D604D804D904DA04DB04DD55D7
:4008C000DF01E040E240E440E540E680E880EA80EC80EE800004040806200701080810101440150218201E2021112701280829022B82301038043E204382464049054E0207
:4009000052025302584059055C805E20610266017502764082108340850489108C108D0290089202950498189D209E02A804A901AC08B080B102B320C0A4C204C404CA0DCA
:40094000CC04CE22D089D210D63BD881E610EE088102830D89098B0699059B0A9D039F0CB70FBB80D440D904DB04DC10DD10DF0100220344044A06080C0C0D420E0C151469
:4009800017011D121F022301248126062D202E042F02312033403620370538203B013C403D103E2944104524464047404C024D084F8054805580561357085C025D085E60E2
:4009C00061886210640188138C408D508E408F0490029104928093089429962097019A289B019D109E05A019A12CA482A604A708AC01AD08C0F0C2F0C470CA70CCECCEF553
:400A0000D0F0D210D6F0D81EE460EA2000010202080418061A012C0432073A08560858045B045C015D905F01001204800510061009200E200F0112011404150418301D1071
:400A40001E211F192408260127202E802F183520360437413C413E284502468047244C044D204E024F01560458205A805E0262706602670A8001822083448A028C108E104A
:400A80008F4090C09104928093089428962198249A299B059D209E44A001A122A206A620A740B212B420C0EAC2A2C461CA70CCF0CEF0D0E0D230D68CD8BCE040E280E6401C
:400AC000E840EE0201400408052030123440360239805608800287018A80C0E0CCF0CE10D440E2600A20308031013721388056805D10830884808B208C088E40900895801B
:400B00009B019C509D809E08A682B180B560C210CCF0CE10D440D620E210E48001081A021B041C823140340136403B103E203F08438145805440578058085A015E016008CC
:400B4000640868016B01822086408B108D049008959096809C509D819E88A408A682A708A840AA10C010C6F0CCB0CEB0D070D6C0D8C0E220E640EA80EC201B081D04841014
:400B800085108C0490089591968099089C109DC59E88A408A682A708AC41AD81AE01B201C630E650E810EA40EE108F40E602002006805F02660882088A04A740C006D60153
:400BC000D801E201812088028B048F0296489C309F02A740AA40AC10B010B280B420E008E201E601EA02EE0509220C02964897089C30A402A522A740AD02C20E0101270C35
:400C000043044708828885208D409581968099089DC19E88A408A682C010C820D0C0E280E440E6800120028005880A800C08860289408D0896809DE0A408A682A901B508C7
:400C4000C0F0C230E240EA200A080C100F80964897289C30A740B310C207EA040B280E4013021420964097289C209F02AF02C20EC40C10B211011AA21B011C121D0100001A
:400C8000FFFFFFA8FC03000000842000138404001C8003041A0400800100180018070038180402001A01000018840200020A18100060200002560009000020800F00137F73
:400CC0000080200000000404450000000000000000FFFFFF0000000118000000000002100404040411490001400040004040800080008000800080000000000000000000F4
:400D000000000000000000000800004001040600020C0000064C011300080100087F0000064001000700000004000000084E00210673000C00000032080E007C0700000142
:400D4000008020080000000025013000040EFDCB3DFFFFFF2200F008040000000900000004040404441100010000C00040011011C00100114001400100000000000000005E
:400D8000000000000000000000FC0000144049000AC0110000F0200C0080000001C0063C003C00C000282002000000001F1400021F3C00010000003C200C070318F040008F
:400DC00000000020000001046403050002C0000E12FFFFFF62A0F0410C000000180004000404040444440001000000000000400200103010001010120000000000000000CB
:400E00000000000000000000F201000000000000A001A0019201F0011900001F0F00060000000000C4000000000000000000010000000000C0000000E00000000000000047
:400E400006E9E900C00000003F000000000000000C000E010100010000000000F000000000000000C00000000000300000000000000000000000000000000000000000009E
:400E80000000000000000000000000000000000000000000000000000000000000000000000000000000000000000000000000000000000000000000000000000000000032
:400EC00000000000000000000000000000000000000000000000000000000000000000000000000000000000000000000000000000000000000000000000000000000000F2
:400F000000000000000000000000000000000000000000000000000000000000000000000000000000000000000000000000000000000000000000000000000000000000B1
:400F40000000000000000000000000000000000000000000000000000000000000000000000000000000000000000000000000000000000000000000000000000000000071
:0200000490006A
:0400000000004003B9
:0200000490105A
:04000000BC90ACAF55
:0200000490303A
:02000000AF103F
:0200000490402A
:400000005555555555555555555555555555555555555555555555555555555555555555555555555555555555555555555555555555555555555555555555555555555580
:400040005555555555555555555555555555555555555555555555555555555555555555555555555555555555555555555555555555555555555555555555555555555540
:0200000490501A
:0C00000000012E16C06900012E326F793D
:00000001FF